{
    "abi": [
        {
            "inputs": [
                {
                    "internalType": "address",
                    "name": "_priceFeed",
                    "type": "address"
                },
                {
                    "internalType": "address",
                    "name": "_clearingHouse",
                    "type": "address"
                }
            ],
            "stateMutability": "nonpayable",
            "type": "constructor"
        },
        {
            "inputs": [],
            "name": "BASE_RESERVE_IS_ZERO",
            "type": "error"
        },
        {
            "inputs": [],
            "name": "FUNDING_INTERVAL_NOT_PASSED",
            "type": "error"
        },
        {
            "inputs": [],
            "name": "INACTIVE",
            "type": "error"
        },
        {
            "inputs": [],
            "name": "INSUFFICIENT_LIQUIDITY",
            "type": "error"
        },
        {
            "inputs": [],
            "name": "INSUFFICIENT_MARGIN",
            "type": "error"
        },
        {
            "inputs": [],
            "name": "INVALID_RATIO",
            "type": "error"
        },
        {
            "inputs": [],
            "name": "INVALID_TWAP_INTERVAL",
            "type": "error"
        },
        {
            "inputs": [],
            "name": "LEVERAGE_TOO_HIGH",
            "type": "error"
        },
        {
            "inputs": [],
            "name": "NOT_CLEARING_HOUSE",
            "type": "error"
        },
        {
            "inputs": [],
            "name": "NOT_LIQUIDATABLE",
            "type": "error"
        },
        {
            "inputs": [],
            "name": "NOT_POSITION_MANAGER",
            "type": "error"
        },
        {
            "inputs": [],
            "name": "NewOwnerIsZeroAddress",
            "type": "error"
        },
        {
            "inputs": [],
            "name": "NoHandoverRequest",
            "type": "error"
        },
        {
            "inputs": [],
            "name": "OVER_MAX_BASE",
            "type": "error"
        },
        {
            "inputs": [],
            "name": "OVER_MAX_QUOTE",
            "type": "error"
        },
        {
            "inputs": [],
            "name": "OVER_TRADING_LIMIT",
            "type": "error"
        },
        {
            "inputs": [],
            "name": "PRICE_OVER_FLUCTUATION_LIMIT",
            "type": "error"
        },
        {
            "inputs": [],
            "name": "QUOTE_RESERVE_IS_ZERO",
            "type": "error"
        },
        {
            "inputs": [],
            "name": "UNDER_MIN_BASE",
            "type": "error"
        },
        {
            "inputs": [],
            "name": "UNDER_MIN_LIQUIDITY",
            "type": "error"
        },
        {
            "inputs": [],
            "name": "UNDER_MIN_QUOTE",
            "type": "error"
        },
        {
            "inputs": [],
            "name": "Unauthorized",
            "type": "error"
        },
        {
            "inputs": [],
            "name": "ZERO_CLOSE",
            "type": "error"
        },
        {
            "inputs": [],
            "name": "ZERO_LIQUIDITY",
            "type": "error"
        },
        {
            "inputs": [],
            "name": "ZERO_OPEN",
            "type": "error"
        },
        {
            "anonymous": false,
            "inputs": [
                {
                    "indexed": false,
                    "internalType": "uint256",
                    "name": "newAMMFeeRatio",
                    "type": "uint256"
                }
            ],
            "name": "AMMFeeRatioChanged",
            "type": "event"
        },
        {
            "anonymous": false,
            "inputs": [],
            "name": "Activated",
            "type": "event"
        },
        {
            "anonymous": false,
            "inputs": [
                {
                    "indexed": false,
                    "internalType": "uint256",
                    "name": "newFeeRatio",
                    "type": "uint256"
                }
            ],
            "name": "BaseFeeRatioChanged",
            "type": "event"
        },
        {
            "anonymous": false,
            "inputs": [
                {
                    "indexed": false,
                    "internalType": "uint256",
                    "name": "maxHoldingBaseAsset",
                    "type": "uint256"
                },
                {
                    "indexed": false,
                    "internalType": "uint256",
                    "name": "openInterestNotionalCap",
                    "type": "uint256"
                }
            ],
            "name": "CapChanged",
            "type": "event"
        },
        {
            "anonymous": false,
            "inputs": [],
            "name": "Deactived",
            "type": "event"
        },
        {
            "anonymous": false,
            "inputs": [
                {
                    "indexed": false,
                    "internalType": "uint256",
                    "name": "ratio",
                    "type": "uint256"
                }
            ],
            "name": "FluctuationLimitRatioChanged",
            "type": "event"
        },
        {
            "anonymous": false,
            "inputs": [
                {
                    "indexed": false,
                    "internalType": "uint256",
                    "name": "fundingPeriod",
                    "type": "uint256"
                }
            ],
            "name": "FundingPeriodChanged",
            "type": "event"
        },
        {
            "anonymous": false,
            "inputs": [
                {
                    "indexed": false,
                    "internalType": "int256",
                    "name": "fundingRate",
                    "type": "int256"
                },
                {
                    "indexed": false,
                    "internalType": "uint256",
                    "name": "price",
                    "type": "uint256"
                }
            ],
            "name": "FundingRateUpdated",
            "type": "event"
        },
        {
            "anonymous": false,
            "inputs": [
                {
                    "indexed": false,
                    "internalType": "uint256",
                    "name": "ratio",
                    "type": "uint256"
                }
            ],
            "name": "InitMarginRatioChanged",
            "type": "event"
        },
        {
            "anonymous": false,
            "inputs": [
                {
                    "indexed": false,
                    "internalType": "uint8",
                    "name": "version",
                    "type": "uint8"
                }
            ],
            "name": "Initialized",
            "type": "event"
        },
        {
            "anonymous": false,
            "inputs": [
                {
                    "indexed": false,
                    "internalType": "uint256",
                    "name": "newKeeperFeeRatio",
                    "type": "uint256"
                }
            ],
            "name": "KeeperFeeRatioChanged",
            "type": "event"
        },
        {
            "anonymous": false,
            "inputs": [
                {
                    "indexed": false,
                    "internalType": "uint256",
                    "name": "newLiquidatorFeeRatio",
                    "type": "uint256"
                }
            ],
            "name": "LimitMakerFeeRatioChanged",
            "type": "event"
        },
        {
            "anonymous": false,
            "inputs": [
                {
                    "indexed": false,
                    "internalType": "uint256",
                    "name": "ratio",
                    "type": "uint256"
                }
            ],
            "name": "LiquidationFeeRatioChanged",
            "type": "event"
        },
        {
            "anonymous": false,
            "inputs": [
                {
                    "indexed": false,
                    "internalType": "uint256",
                    "name": "quoteAmount",
                    "type": "uint256"
                },
                {
                    "indexed": false,
                    "internalType": "uint256",
                    "name": "baseAmount",
                    "type": "uint256"
                },
                {
                    "indexed": false,
                    "internalType": "uint256",
                    "name": "liquidityAdded",
                    "type": "uint256"
                },
                {
                    "indexed": false,
                    "internalType": "uint256",
                    "name": "quoteReserve",
                    "type": "uint256"
                },
                {
                    "indexed": false,
                    "internalType": "uint256",
                    "name": "baseReserve",
                    "type": "uint256"
                },
                {
                    "indexed": false,
                    "internalType": "uint256",
                    "name": "liquidityTotal",
                    "type": "uint256"
                }
            ],
            "name": "LiquidityAdded",
            "type": "event"
        },
        {
            "anonymous": false,
            "inputs": [
                {
                    "indexed": false,
                    "internalType": "uint256",
                    "name": "quoteAmount",
                    "type": "uint256"
                },
                {
                    "indexed": false,
                    "internalType": "uint256",
                    "name": "baseAmount",
                    "type": "uint256"
                },
                {
                    "indexed": false,
                    "internalType": "uint256",
                    "name": "liquidityRemoved",
                    "type": "uint256"
                },
                {
                    "indexed": false,
                    "internalType": "uint256",
                    "name": "quoteReserve",
                    "type": "uint256"
                },
                {
                    "indexed": false,
                    "internalType": "uint256",
                    "name": "baseReserve",
                    "type": "uint256"
                },
                {
                    "indexed": false,
                    "internalType": "uint256",
                    "name": "liquidityTotal",
                    "type": "uint256"
                }
            ],
            "name": "LiquidityRemoved",
            "type": "event"
        },
        {
            "anonymous": false,
            "inputs": [
                {
                    "indexed": false,
                    "internalType": "uint256",
                    "name": "ratio",
                    "type": "uint256"
                }
            ],
            "name": "MaintenanceMarginRatioChanged",
            "type": "event"
        },
        {
            "anonymous": false,
            "inputs": [
                {
                    "indexed": false,
                    "internalType": "uint256",
                    "name": "quoteAssetReserve",
                    "type": "uint256"
                },
                {
                    "indexed": false,
                    "internalType": "uint256",
                    "name": "baseAssetReserve",
                    "type": "uint256"
                },
                {
                    "indexed": false,
                    "internalType": "uint256",
                    "name": "timestamp",
                    "type": "uint256"
                }
            ],
            "name": "NewReserveSnapshot",
            "type": "event"
        },
        {
            "anonymous": false,
            "inputs": [
                {
                    "indexed": true,
                    "internalType": "address",
                    "name": "pendingOwner",
                    "type": "address"
                }
            ],
            "name": "OwnershipHandoverCanceled",
            "type": "event"
        },
        {
            "anonymous": false,
            "inputs": [
                {
                    "indexed": true,
                    "internalType": "address",
                    "name": "pendingOwner",
                    "type": "address"
                }
            ],
            "name": "OwnershipHandoverRequested",
            "type": "event"
        },
        {
            "anonymous": false,
            "inputs": [
                {
                    "indexed": true,
                    "internalType": "address",
                    "name": "oldOwner",
                    "type": "address"
                },
                {
                    "indexed": true,
                    "internalType": "address",
                    "name": "newOwner",
                    "type": "address"
                }
            ],
            "name": "OwnershipTransferred",
            "type": "event"
        },
        {
            "anonymous": false,
            "inputs": [
                {
                    "indexed": false,
                    "internalType": "uint256",
                    "name": "ratio",
                    "type": "uint256"
                }
            ],
            "name": "PartialLiquidationRatioChanged",
            "type": "event"
        },
        {
            "anonymous": false,
            "inputs": [
                {
                    "indexed": false,
                    "internalType": "enum Dir",
                    "name": "dirOfBase",
                    "type": "uint8"
                },
                {
                    "indexed": false,
                    "internalType": "uint256",
                    "name": "quoteAmount",
                    "type": "uint256"
                },
                {
                    "indexed": false,
                    "internalType": "uint256",
                    "name": "baseAmount",
                    "type": "uint256"
                }
            ],
            "name": "SwapClose",
            "type": "event"
        },
        {
            "anonymous": false,
            "inputs": [
                {
                    "indexed": false,
                    "internalType": "enum Dir",
                    "name": "dirOfQuote",
                    "type": "uint8"
                },
                {
                    "indexed": false,
                    "internalType": "uint256",
                    "name": "quoteAmount",
                    "type": "uint256"
                },
                {
                    "indexed": false,
                    "internalType": "uint256",
                    "name": "baseAmount",
                    "type": "uint256"
                }
            ],
            "name": "SwapOpen",
            "type": "event"
        },
        {
            "anonymous": false,
            "inputs": [
                {
                    "indexed": false,
                    "internalType": "uint256",
                    "name": "ratio",
                    "type": "uint256"
                }
            ],
            "name": "TradeLimitRatioChanged",
            "type": "event"
        },
        {
            "inputs": [
                {
                    "internalType": "address",
                    "name": "maker",
                    "type": "address"
                },
                {
                    "internalType": "uint256",
                    "name": "margin",
                    "type": "uint256"
                },
                {
                    "internalType": "uint256",
                    "name": "leverage",
                    "type": "uint256"
                },
                {
                    "internalType": "uint256",
                    "name": "minLiquidity",
                    "type": "uint256"
                },
                {
                    "components": [
                        {
                            "internalType": "int256",
                            "name": "premiumFraction",
                            "type": "int256"
                        },
                        {
                            "internalType": "int256",
                            "name": "premiumFractionPerShare",
                            "type": "int256"
                        },
                        {
                            "internalType": "int256",
                            "name": "netPositionOffsetPerShare",
                            "type": "int256"
                        },
                        {
                            "internalType": "uint256",
                            "name": "feeGrowth",
                            "type": "uint256"
                        }
                    ],
                    "internalType": "struct AMMData",
                    "name": "data",
                    "type": "tuple"
                }
            ],
            "name": "addLiquidity",
            "outputs": [
                {
                    "internalType": "uint256",
                    "name": "liquidity",
                    "type": "uint256"
                },
                {
                    "internalType": "int256",
                    "name": "fundingPayment",
                    "type": "int256"
                }
            ],
            "stateMutability": "nonpayable",
            "type": "function"
        },
        {
            "inputs": [
                {
                    "internalType": "uint256",
                    "name": "quoteAmount",
                    "type": "uint256"
                }
            ],
            "name": "calcLimitFee",
            "outputs": [
                {
                    "internalType": "uint256",
                    "name": "limitFee",
                    "type": "uint256"
                }
            ],
            "stateMutability": "view",
            "type": "function"
        },
        {
            "inputs": [],
            "name": "cancelOwnershipHandover",
            "outputs": [],
            "stateMutability": "payable",
            "type": "function"
        },
        {
            "inputs": [],
            "name": "clearingHouse",
            "outputs": [
                {
                    "internalType": "address",
                    "name": "",
                    "type": "address"
                }
            ],
            "stateMutability": "view",
            "type": "function"
        },
        {
            "inputs": [
                {
                    "internalType": "address",
                    "name": "pendingOwner",
                    "type": "address"
                }
            ],
            "name": "completeOwnershipHandover",
            "outputs": [],
            "stateMutability": "payable",
            "type": "function"
        },
        {
            "inputs": [],
            "name": "getBaseFeeRatio",
            "outputs": [
                {
                    "internalType": "uint256",
                    "name": "",
                    "type": "uint256"
                }
            ],
            "stateMutability": "view",
            "type": "function"
        },
        {
            "inputs": [
                {
                    "internalType": "uint256",
                    "name": "targetPrice",
                    "type": "uint256"
                }
            ],
            "name": "getBaseToFill",
            "outputs": [
                {
                    "internalType": "uint256",
                    "name": "",
                    "type": "uint256"
                }
            ],
            "stateMutability": "view",
            "type": "function"
        },
        {
            "inputs": [
                {
                    "internalType": "enum Dir",
                    "name": "dirOfQuote",
                    "type": "uint8"
                },
                {
                    "internalType": "uint256",
                    "name": "quoteAmount",
                    "type": "uint256"
                }
            ],
            "name": "getBaseValue",
            "outputs": [
                {
                    "internalType": "uint256",
                    "name": "baseAmount",
                    "type": "uint256"
                }
            ],
            "stateMutability": "view",
            "type": "function"
        },
        {
            "inputs": [],
            "name": "getFeeRatiosTotalSupply",
            "outputs": [
                {
                    "components": [
                        {
                            "internalType": "uint256",
                            "name": "baseFeeRatio",
                            "type": "uint256"
                        },
                        {
                            "internalType": "uint256",
                            "name": "ammFeeRatio",
                            "type": "uint256"
                        },
                        {
                            "internalType": "uint256",
                            "name": "limitMakerFeeRatio",
                            "type": "uint256"
                        },
                        {
                            "internalType": "uint256",
                            "name": "keeperFeeRatio",
                            "type": "uint256"
                        },
                        {
                            "internalType": "uint256",
                            "name": "liquidationFeeRatio",
                            "type": "uint256"
                        }
                    ],
                    "internalType": "struct FeeRatios",
                    "name": "",
                    "type": "tuple"
                },
                {
                    "internalType": "uint256",
                    "name": "",
                    "type": "uint256"
                }
            ],
            "stateMutability": "view",
            "type": "function"
        },
        {
            "inputs": [],
            "name": "getFluctuationLimitRatio",
            "outputs": [
                {
                    "internalType": "uint256",
                    "name": "",
                    "type": "uint256"
                }
            ],
            "stateMutability": "view",
            "type": "function"
        },
        {
            "inputs": [],
            "name": "getFundingPeriod",
            "outputs": [
                {
                    "internalType": "uint256",
                    "name": "",
                    "type": "uint256"
                }
            ],
            "stateMutability": "view",
            "type": "function"
        },
        {
            "inputs": [],
            "name": "getIndexPrice",
            "outputs": [
                {
                    "internalType": "uint256",
                    "name": "",
                    "type": "uint256"
                }
            ],
            "stateMutability": "view",
            "type": "function"
        },
        {
            "inputs": [],
            "name": "getLiquidationFeeRatio",
            "outputs": [
                {
                    "internalType": "uint256",
                    "name": "",
                    "type": "uint256"
                }
            ],
            "stateMutability": "view",
            "type": "function"
        },
        {
            "inputs": [],
            "name": "getLiquidationPrice",
            "outputs": [
                {
                    "internalType": "uint256",
                    "name": "",
                    "type": "uint256"
                }
            ],
            "stateMutability": "view",
            "type": "function"
        },
        {
            "inputs": [
                {
                    "internalType": "address",
                    "name": "maker",
                    "type": "address"
                }
            ],
            "name": "getMakerPosition",
            "outputs": [
                {
                    "components": [
                        {
                            "internalType": "uint256",
                            "name": "margin",
                            "type": "uint256"
                        },
                        {
                            "internalType": "uint256",
                            "name": "quote",
                            "type": "uint256"
                        },
                        {
                            "internalType": "uint256",
                            "name": "base",
                            "type": "uint256"
                        },
                        {
                            "internalType": "uint256",
                            "name": "liquidity",
                            "type": "uint256"
                        },
                        {
                            "internalType": "int256",
                            "name": "position",
                            "type": "int256"
                        },
                        {
                            "internalType": "uint256",
                            "name": "lastFeeGrowth",
                            "type": "uint256"
                        },
                        {
                            "internalType": "uint256",
                            "name": "fees",
                            "type": "uint256"
                        },
                        {
                            "internalType": "int256",
                            "name": "lastPremiumFraction",
                            "type": "int256"
                        },
                        {
                            "internalType": "int256",
                            "name": "lastPremiumFractionPerShare",
                            "type": "int256"
                        },
                        {
                            "internalType": "int256",
                            "name": "lastPositionOffsetPerShare",
                            "type": "int256"
                        },
                        {
                            "internalType": "uint256",
                            "name": "blockNumber",
                            "type": "uint256"
                        }
                    ],
                    "internalType": "struct MakerPosition",
                    "name": "",
                    "type": "tuple"
                }
            ],
            "stateMutability": "view",
            "type": "function"
        },
        {
            "inputs": [
                {
                    "internalType": "address",
                    "name": "maker",
                    "type": "address"
                }
            ],
            "name": "getMakerShareValue",
            "outputs": [
                {
                    "internalType": "uint256",
                    "name": "quote",
                    "type": "uint256"
                },
                {
                    "internalType": "uint256",
                    "name": "base",
                    "type": "uint256"
                }
            ],
            "stateMutability": "view",
            "type": "function"
        },
        {
            "inputs": [
                {
                    "internalType": "uint256",
                    "name": "liquidity",
                    "type": "uint256"
                }
            ],
            "name": "getMakerValueTotalLiquidityTPS",
            "outputs": [
                {
                    "internalType": "uint256",
                    "name": "quoteAmount",
                    "type": "uint256"
                },
                {
                    "internalType": "uint256",
                    "name": "baseAmount",
                    "type": "uint256"
                },
                {
                    "internalType": "uint256",
                    "name": "totalSupply",
                    "type": "uint256"
                },
                {
                    "internalType": "int256",
                    "name": "tps",
                    "type": "int256"
                }
            ],
            "stateMutability": "view",
            "type": "function"
        },
        {
            "inputs": [],
            "name": "getMarginRatio",
            "outputs": [
                {
                    "internalType": "uint256",
                    "name": "",
                    "type": "uint256"
                }
            ],
            "stateMutability": "view",
            "type": "function"
        },
        {
            "inputs": [],
            "name": "getMarkPrice",
            "outputs": [
                {
                    "internalType": "uint256",
                    "name": "",
                    "type": "uint256"
                }
            ],
            "stateMutability": "view",
            "type": "function"
        },
        {
            "inputs": [
                {
                    "internalType": "enum Dir",
                    "name": "dirOfBase",
                    "type": "uint8"
                },
                {
                    "internalType": "uint256",
                    "name": "baseAmount",
                    "type": "uint256"
                }
            ],
            "name": "getMarkPriceAfterClose",
            "outputs": [
                {
                    "internalType": "uint256",
                    "name": "",
                    "type": "uint256"
                }
            ],
            "stateMutability": "view",
            "type": "function"
        },
        {
            "inputs": [
                {
                    "internalType": "enum Dir",
                    "name": "dirOfQuote",
                    "type": "uint8"
                },
                {
                    "internalType": "uint256",
                    "name": "quoteAmount",
                    "type": "uint256"
                }
            ],
            "name": "getMarkPriceAfterOpen",
            "outputs": [
                {
                    "internalType": "uint256",
                    "name": "",
                    "type": "uint256"
                }
            ],
            "stateMutability": "view",
            "type": "function"
        },
        {
            "inputs": [],
            "name": "getMaxSize",
            "outputs": [
                {
                    "internalType": "uint256",
                    "name": "",
                    "type": "uint256"
                }
            ],
            "stateMutability": "view",
            "type": "function"
        },
        {
            "inputs": [],
            "name": "getNextFundingTime",
            "outputs": [
                {
                    "internalType": "uint256",
                    "name": "",
                    "type": "uint256"
                }
            ],
            "stateMutability": "view",
            "type": "function"
        },
        {
            "inputs": [],
            "name": "getOpenInterestCap",
            "outputs": [
                {
                    "internalType": "uint256",
                    "name": "",
                    "type": "uint256"
                }
            ],
            "stateMutability": "view",
            "type": "function"
        },
        {
            "inputs": [],
            "name": "getOpenMarginRatio",
            "outputs": [
                {
                    "internalType": "uint256",
                    "name": "",
                    "type": "uint256"
                }
            ],
            "stateMutability": "view",
            "type": "function"
        },
        {
            "inputs": [],
            "name": "getPartialLiquidationRatio",
            "outputs": [
                {
                    "internalType": "uint256",
                    "name": "",
                    "type": "uint256"
                }
            ],
            "stateMutability": "view",
            "type": "function"
        },
        {
            "inputs": [
                {
                    "internalType": "uint256",
                    "name": "targetPrice",
                    "type": "uint256"
                }
            ],
            "name": "getQuoteToFill",
            "outputs": [
                {
                    "internalType": "uint256",
                    "name": "",
                    "type": "uint256"
                }
            ],
            "stateMutability": "view",
            "type": "function"
        },
        {
            "inputs": [
                {
                    "internalType": "enum Dir",
                    "name": "dirOfBase",
                    "type": "uint8"
                },
                {
                    "internalType": "uint256",
                    "name": "baseAmount",
                    "type": "uint256"
                }
            ],
            "name": "getQuoteValue",
            "outputs": [
                {
                    "internalType": "uint256",
                    "name": "quoteAmount",
                    "type": "uint256"
                }
            ],
            "stateMutability": "view",
            "type": "function"
        },
        {
            "inputs": [],
            "name": "getRatios",
            "outputs": [
                {
                    "components": [
                        {
                            "internalType": "uint256",
                            "name": "baseFeeRatio",
                            "type": "uint256"
                        },
                        {
                            "internalType": "uint256",
                            "name": "initMarginRatio",
                            "type": "uint256"
                        },
                        {
                            "internalType": "uint256",
                            "name": "maintenanceMarginRatio",
                            "type": "uint256"
                        },
                        {
                            "internalType": "uint256",
                            "name": "partialLiquidationRatio",
                            "type": "uint256"
                        },
                        {
                            "internalType": "uint256",
                            "name": "liquidationFeeRatio",
                            "type": "uint256"
                        }
                    ],
                    "internalType": "struct Ratios",
                    "name": "",
                    "type": "tuple"
                }
            ],
            "stateMutability": "view",
            "type": "function"
        },
        {
            "inputs": [],
            "name": "getReserves",
            "outputs": [
                {
                    "internalType": "uint256",
                    "name": "",
                    "type": "uint256"
                },
                {
                    "internalType": "uint256",
                    "name": "",
                    "type": "uint256"
                }
            ],
            "stateMutability": "view",
            "type": "function"
        },
        {
            "inputs": [],
            "name": "getReservesAndK",
            "outputs": [
                {
                    "internalType": "uint256",
                    "name": "",
                    "type": "uint256"
                },
                {
                    "internalType": "uint256",
                    "name": "",
                    "type": "uint256"
                },
                {
                    "internalType": "uint256",
                    "name": "",
                    "type": "uint256"
                }
            ],
            "stateMutability": "view",
            "type": "function"
        },
        {
            "inputs": [],
            "name": "getReservesAndTotalLiquidity",
            "outputs": [
                {
                    "internalType": "uint256",
                    "name": "",
                    "type": "uint256"
                },
                {
                    "internalType": "uint256",
                    "name": "",
                    "type": "uint256"
                },
                {
                    "internalType": "uint256",
                    "name": "",
                    "type": "uint256"
                }
            ],
            "stateMutability": "view",
            "type": "function"
        },
        {
            "inputs": [],
            "name": "getTotalPositionSize",
            "outputs": [
                {
                    "internalType": "int256",
                    "name": "",
                    "type": "int256"
                }
            ],
            "stateMutability": "view",
            "type": "function"
        },
        {
            "inputs": [],
            "name": "getTotalSupply",
            "outputs": [
                {
                    "internalType": "uint256",
                    "name": "",
                    "type": "uint256"
                }
            ],
            "stateMutability": "view",
            "type": "function"
        },
        {
            "inputs": [],
            "name": "getTradeLimitRatio",
            "outputs": [
                {
                    "internalType": "uint256",
                    "name": "",
                    "type": "uint256"
                }
            ],
            "stateMutability": "view",
            "type": "function"
        },
        {
            "inputs": [],
            "name": "getTwapInterval",
            "outputs": [
                {
                    "internalType": "uint256",
                    "name": "",
                    "type": "uint256"
                }
            ],
            "stateMutability": "view",
            "type": "function"
        },
        {
            "inputs": [
                {
                    "internalType": "address",
                    "name": "_owner",
                    "type": "address"
                },
                {
                    "internalType": "uint256",
                    "name": "_tradeLimitRatio",
                    "type": "uint256"
                },
                {
                    "internalType": "uint256",
                    "name": "_fundingPeriod",
                    "type": "uint256"
                },
                {
                    "internalType": "uint256",
                    "name": "_fluctuationLimitRatio",
                    "type": "uint256"
                },
                {
                    "internalType": "uint256",
                    "name": "_baseFeeRatio",
                    "type": "uint256"
                },
                {
                    "internalType": "uint256",
                    "name": "_ammFeeRatio",
                    "type": "uint256"
                },
                {
                    "internalType": "uint256",
                    "name": "_limitMakerFeeRatio",
                    "type": "uint256"
                },
                {
                    "internalType": "uint256",
                    "name": "_keeperFeeRatio",
                    "type": "uint256"
                },
                {
                    "internalType": "uint256",
                    "name": "_liquidationFeeRatio",
                    "type": "uint256"
                }
            ],
            "name": "initialize",
            "outputs": [],
            "stateMutability": "nonpayable",
            "type": "function"
        },
        {
            "inputs": [
                {
                    "internalType": "address",
                    "name": "maker",
                    "type": "address"
                }
            ],
            "name": "isMakerLiquidatable",
            "outputs": [
                {
                    "internalType": "bool",
                    "name": "liquidatable",
                    "type": "bool"
                }
            ],
            "stateMutability": "view",
            "type": "function"
        },
        {
            "inputs": [
                {
                    "internalType": "address",
                    "name": "maker",
                    "type": "address"
                }
            ],
            "name": "liquidateMaker",
            "outputs": [
                {
                    "internalType": "int256",
                    "name": "size",
                    "type": "int256"
                },
                {
                    "internalType": "uint256",
                    "name": "remainingMargin",
                    "type": "uint256"
                },
                {
                    "internalType": "uint256",
                    "name": "badDebt",
                    "type": "uint256"
                },
                {
                    "internalType": "uint256",
                    "name": "liquidatorFee",
                    "type": "uint256"
                }
            ],
            "stateMutability": "nonpayable",
            "type": "function"
        },
        {
            "inputs": [],
            "name": "owner",
            "outputs": [
                {
                    "internalType": "address",
                    "name": "result",
                    "type": "address"
                }
            ],
            "stateMutability": "view",
            "type": "function"
        },
        {
            "inputs": [
                {
                    "internalType": "address",
                    "name": "pendingOwner",
                    "type": "address"
                }
            ],
            "name": "ownershipHandoverExpiresAt",
            "outputs": [
                {
                    "internalType": "uint256",
                    "name": "result",
                    "type": "uint256"
                }
            ],
            "stateMutability": "view",
            "type": "function"
        },
        {
            "inputs": [],
            "name": "ownershipHandoverValidFor",
            "outputs": [
                {
                    "internalType": "uint64",
                    "name": "",
                    "type": "uint64"
                }
            ],
            "stateMutability": "view",
            "type": "function"
        },
        {
            "inputs": [],
            "name": "priceFeed",
            "outputs": [
                {
                    "internalType": "contract IPriceFeed",
                    "name": "",
                    "type": "address"
                }
            ],
            "stateMutability": "view",
            "type": "function"
        },
        {
            "inputs": [
                {
                    "internalType": "address",
                    "name": "maker",
                    "type": "address"
                },
                {
                    "internalType": "uint256",
                    "name": "amount",
                    "type": "uint256"
                },
                {
                    "components": [
                        {
                            "internalType": "int256",
                            "name": "premiumFraction",
                            "type": "int256"
                        },
                        {
                            "internalType": "int256",
                            "name": "premiumFractionPerShare",
                            "type": "int256"
                        },
                        {
                            "internalType": "int256",
                            "name": "netPositionOffsetPerShare",
                            "type": "int256"
                        },
                        {
                            "internalType": "uint256",
                            "name": "feeGrowth",
                            "type": "uint256"
                        }
                    ],
                    "internalType": "struct AMMData",
                    "name": "data",
                    "type": "tuple"
                }
            ],
            "name": "removeLiquidity",
            "outputs": [
                {
                    "internalType": "int256",
                    "name": "size",
                    "type": "int256"
                },
                {
                    "internalType": "uint256",
                    "name": "marginToRemove",
                    "type": "uint256"
                },
                {
                    "internalType": "uint256",
                    "name": "realizedFee",
                    "type": "uint256"
                }
            ],
            "stateMutability": "nonpayable",
            "type": "function"
        },
        {
            "inputs": [],
            "name": "renounceOwnership",
            "outputs": [],
            "stateMutability": "payable",
            "type": "function"
        },
        {
            "inputs": [],
            "name": "requestOwnershipHandover",
            "outputs": [],
            "stateMutability": "payable",
            "type": "function"
        },
        {
            "inputs": [
                {
                    "internalType": "uint256",
                    "name": "_ammFeeRatio",
                    "type": "uint256"
                }
            ],
            "name": "setAMMFeeRatio",
            "outputs": [],
            "stateMutability": "nonpayable",
            "type": "function"
        },
        {
            "inputs": [
                {
                    "internalType": "bool",
                    "name": "_active",
                    "type": "bool"
                }
            ],
            "name": "setActive",
            "outputs": [],
            "stateMutability": "nonpayable",
            "type": "function"
        },
        {
            "inputs": [
                {
                    "internalType": "uint256",
                    "name": "_baseFeeRatio",
                    "type": "uint256"
                }
            ],
            "name": "setBaseFeeRatio",
            "outputs": [],
            "stateMutability": "nonpayable",
            "type": "function"
        },
        {
            "inputs": [
                {
                    "internalType": "uint256",
                    "name": "_maxHoldingBaseAsset",
                    "type": "uint256"
                },
                {
                    "internalType": "uint256",
                    "name": "_openInterestNotionalCap",
                    "type": "uint256"
                }
            ],
            "name": "setCap",
            "outputs": [],
            "stateMutability": "nonpayable",
            "type": "function"
        },
        {
            "inputs": [
                {
                    "internalType": "uint256",
                    "name": "_fluctuationLimitRatio",
                    "type": "uint256"
                }
            ],
            "name": "setFluctationLimitRatio",
            "outputs": [],
            "stateMutability": "nonpayable",
            "type": "function"
        },
        {
            "inputs": [
                {
                    "internalType": "uint256",
                    "name": "_fundingPeriod",
                    "type": "uint256"
                }
            ],
            "name": "setFundingPeriod",
            "outputs": [],
            "stateMutability": "nonpayable",
            "type": "function"
        },
        {
            "inputs": [
                {
                    "internalType": "uint256",
                    "name": "_initMarginRatio",
                    "type": "uint256"
                }
            ],
            "name": "setInitMarginRatio",
            "outputs": [],
            "stateMutability": "nonpayable",
            "type": "function"
        },
        {
            "inputs": [
                {
                    "internalType": "uint256",
                    "name": "_keeperFeeRatio",
                    "type": "uint256"
                }
            ],
            "name": "setKeeperFeeRatio",
            "outputs": [],
            "stateMutability": "nonpayable",
            "type": "function"
        },
        {
            "inputs": [
                {
                    "internalType": "uint256",
                    "name": "_limitMakerFeeRatio",
                    "type": "uint256"
                }
            ],
            "name": "setLimitMakerFeeRatio",
            "outputs": [],
            "stateMutability": "nonpayable",
            "type": "function"
        },
        {
            "inputs": [
                {
                    "internalType": "uint256",
                    "name": "_liquidationFeeRatio",
                    "type": "uint256"
                }
            ],
            "name": "setLiquidationFeeRatio",
            "outputs": [],
            "stateMutability": "nonpayable",
            "type": "function"
        },
        {
            "inputs": [
                {
                    "internalType": "uint256",
                    "name": "_maintenanceMarginRatio",
                    "type": "uint256"
                }
            ],
            "name": "setMaintenanceMarginRatio",
            "outputs": [],
            "stateMutability": "nonpayable",
            "type": "function"
        },
        {
            "inputs": [
                {
                    "internalType": "uint256",
                    "name": "_partialLiquidationRatio",
                    "type": "uint256"
                }
            ],
            "name": "setPartialLiquidationRatio",
            "outputs": [],
            "stateMutability": "nonpayable",
            "type": "function"
        },
        {
            "inputs": [
                {
                    "internalType": "uint256",
                    "name": "_tradeLimitRatio",
                    "type": "uint256"
                }
            ],
            "name": "setTradeLimitRatio",
            "outputs": [],
            "stateMutability": "nonpayable",
            "type": "function"
        },
        {
            "inputs": [
                {
                    "internalType": "uint256",
                    "name": "twapInterval",
                    "type": "uint256"
                }
            ],
            "name": "setTwapInterval",
            "outputs": [],
            "stateMutability": "nonpayable",
            "type": "function"
        },
        {
            "inputs": [
                {
                    "internalType": "uint256",
                    "name": "_markPriceWeight",
                    "type": "uint256"
                },
                {
                    "internalType": "uint256",
                    "name": "_indexPriceWeight",
                    "type": "uint256"
                }
            ],
            "name": "setWeights",
            "outputs": [],
            "stateMutability": "nonpayable",
            "type": "function"
        },
        {
            "inputs": [],
            "name": "settleFunding",
            "outputs": [
                {
                    "internalType": "int256",
                    "name": "premiumFraction",
                    "type": "int256"
                },
                {
                    "internalType": "uint256",
                    "name": "markPrice",
                    "type": "uint256"
                },
                {
                    "internalType": "uint256",
                    "name": "indexPrice",
                    "type": "uint256"
                }
            ],
            "stateMutability": "nonpayable",
            "type": "function"
        },
        {
            "inputs": [
                {
                    "internalType": "enum Dir",
                    "name": "dirOfBase",
                    "type": "uint8"
                },
                {
                    "internalType": "uint256",
                    "name": "baseAmount",
                    "type": "uint256"
                }
            ],
            "name": "swapClose",
            "outputs": [
                {
                    "internalType": "uint256",
                    "name": "quoteAmount",
                    "type": "uint256"
                }
            ],
            "stateMutability": "nonpayable",
            "type": "function"
        },
        {
            "inputs": [
                {
                    "internalType": "enum Dir",
                    "name": "dirOfQuote",
                    "type": "uint8"
                },
                {
                    "internalType": "uint256",
                    "name": "quoteAmount",
                    "type": "uint256"
                },
                {
                    "internalType": "bool",
                    "name": "fluctuationOverride",
                    "type": "bool"
                }
            ],
            "name": "swapOpen",
            "outputs": [
                {
                    "internalType": "uint256",
                    "name": "baseAmount",
                    "type": "uint256"
                }
            ],
            "stateMutability": "nonpayable",
            "type": "function"
        },
        {
            "inputs": [
                {
                    "internalType": "address",
                    "name": "newOwner",
                    "type": "address"
                }
            ],
            "name": "transferOwnership",
            "outputs": [],
            "stateMutability": "payable",
            "type": "function"
        }
    ],
    "bytecode": {
        "object": "0x60c06040523480156200001157600080fd5b5060405162003c1438038062003c14833981016040819052620000349162000137565b6001600160a01b03808216608052821660a0526200005162000059565b50506200016f565b600054610100900460ff1615620000c65760405162461bcd60e51b815260206004820152602760248201527f496e697469616c697a61626c653a20636f6e747261637420697320696e697469604482015266616c697a696e6760c81b606482015260840160405180910390fd5b60005460ff9081161462000118576000805460ff191660ff9081179091556040519081527f7f26b83ff96e1f2b6a682f133852f6798a09c465da95921460cefb38474024989060200160405180910390a15b565b80516001600160a01b03811681146200013257600080fd5b919050565b600080604083850312156200014b57600080fd5b62000156836200011a565b915062000166602084016200011a565b90509250929050565b60805160a051613a6a620001aa600039600081816107aa015261252b01526000818161047701528181611f6c015261211e0152613a6a6000f3fe6080604052600436106103cd5760003560e01c8063741bef1a116101fd578063cc35489c11610118578063e6877a1b116100ab578063f2fde38b1161007a578063f2fde38b14610b5e578063f36bdbc914610b71578063fbede22414610b91578063fee81cf414610bb1578063ffbf688e14610be457600080fd5b8063e6877a1b14610ae6578063ed83d79c14610b16578063ef6ffef214610b2b578063f04e283e14610b4b57600080fd5b8063d3c7f026116100e7578063d3c7f026146109e3578063d3e4160614610a03578063d7533f0214610aa8578063e2559a8314610ac657600080fd5b8063cc35489c1461096b578063cc85f5f21461098e578063d114e6fc146109a3578063d152a859146109c357600080fd5b8063b13c86a311610190578063bce2020d1161015f578063bce2020d14610906578063c24e38591461091b578063c4e41b2214610936578063c5745e861461094b57600080fd5b8063b13c86a31461089a578063b5e2b047146108bc578063b626382d146108d1578063b885a356146108e657600080fd5b8063989292da116101cc578063989292da1461081a578063a9ec14161461083a578063ab7ab9031461085a578063acec338a1461087a57600080fd5b8063741bef1a1461079857806380295a74146107cc57806389058b7d146107ec5780638da5cb5b1461080157600080fd5b80633e742e3b116102ed578063604096321161028057806367acf2411161024f57806367acf2411461073b578063682580fc1461075b5780636d206d6d1461077b578063715018a61461079057600080fd5b806360409632146106d157806363e1d57c146106e657806364b3cd8e146106fb57806365f664251461071b57600080fd5b806354d1f13d116102bc57806354d1f13d1461067457806358c0994a1461067c5780635c220aa1146106915780635ea679ef146106b157600080fd5b80633e742e3b1461061557806346558d1b1461062a5780634d85468b1461063f5780634f3c15421461065f57600080fd5b806320e8e2d2116103655780632c57b797116103345780632c57b7971461059557806332a9569a146105b557806336dac706146105d55780633911138f146105f557600080fd5b806320e8e2d21461051b57806320fa4f8e1461054d578063256929621461056d5780632a5aa2921461057557600080fd5b80630af96800116103a15780630af968001461046557806313d0143d146104b1578063162ca710146104c65780631bde66e7146104db57600080fd5b80629a7ade146103d2578063053077031461040557806308e9ef431461041a5780630902f1ac1461043c575b600080fd5b3480156103de57600080fd5b506103f26103ed366004613502565b610bf9565b6040519081526020015b60405180910390f35b34801561041157600080fd5b506005546103f2565b34801561042657600080fd5b5061043a61043536600461352c565b610c14565b005b34801561044857600080fd5b50600f546010545b604080519283526020830191909152016103fc565b34801561047157600080fd5b506104997f000000000000000000000000000000000000000000000000000000000000000081565b6040516001600160a01b0390911681526020016103fc565b3480156104bd57600080fd5b506001546103f2565b3480156104d257600080fd5b506014546103f2565b3480156104e757600080fd5b506104fb6104f636600461355c565b610c61565b6040805194855260208501939093529183015260608201526080016103fc565b34801561052757600080fd5b50600f546010546012545b604080519384526020840192909252908201526060016103fc565b34801561055957600080fd5b5061043a61056836600461352c565b610d4a565b61043a610d90565b34801561058157600080fd5b5061043a61059036600461352c565b610de0565b3480156105a157600080fd5b506104506105b036600461355c565b610e2b565b3480156105c157600080fd5b5061043a6105d036600461352c565b610e4c565b3480156105e157600080fd5b506103f26105f0366004613587565b610e92565b34801561060157600080fd5b506103f2610610366004613502565b610f6d565b34801561062157600080fd5b506017546103f2565b34801561063657600080fd5b506103f2610f7f565b34801561064b57600080fd5b506103f261065a366004613502565b610fac565b34801561066b57600080fd5b50600a546103f2565b61043a611012565b34801561068857600080fd5b506103f261104e565b34801561069d57600080fd5b506103f26106ac36600461352c565b611058565b3480156106bd57600080fd5b5061043a6106cc36600461352c565b61109e565b3480156106dd57600080fd5b506103f26110ce565b3480156106f257600080fd5b506013546103f2565b34801561070757600080fd5b506104fb61071636600461352c565b6110d8565b34801561072757600080fd5b506103f2610736366004613502565b61110c565b34801561074757600080fd5b5061043a61075636600461352c565b61120e565b34801561076757600080fd5b5061045061077636600461363e565b611254565b34801561078757600080fd5b50600b546103f2565b61043a611457565b3480156107a457600080fd5b506104997f000000000000000000000000000000000000000000000000000000000000000081565b3480156107d857600080fd5b5061043a6107e736600461352c565b61146b565b3480156107f857600080fd5b506006546103f2565b34801561080d57600080fd5b50638b78c6d81954610499565b34801561082657600080fd5b5061043a610835366004613690565b6114b1565b34801561084657600080fd5b5061043a61085536600461352c565b611501565b34801561086657600080fd5b506105326108753660046136b2565b611547565b34801561088657600080fd5b5061043a6108953660046136e6565b611802565b3480156108a657600080fd5b506108af611883565b6040516103fc9190613701565b3480156108c857600080fd5b506016546103f2565b3480156108dd57600080fd5b506018546103f2565b3480156108f257600080fd5b5061043a61090136600461352c565b6118eb565b34801561091257600080fd5b506009546103f2565b34801561092757600080fd5b50600f54601054601154610532565b34801561094257600080fd5b506012546103f2565b34801561095757600080fd5b506103f261096636600461352c565b611931565b34801561097757600080fd5b5061098061195e565b6040516103fc92919061373a565b34801561099a57600080fd5b506007546103f2565b3480156109af57600080fd5b5061043a6109be366004613780565b6119c9565b3480156109cf57600080fd5b5061043a6109de36600461352c565b611b5c565b3480156109ef57600080fd5b506103f26109fe36600461352c565b611ba2565b348015610a0f57600080fd5b50610a23610a1e36600461355c565b611bcd565b6040516103fc9190600061016082019050825182526020830151602083015260408301516040830152606083015160608301526080830151608083015260a083015160a083015260c083015160c083015260e083015160e083015261010080840151818401525061012080840151818401525061014080840151818401525092915050565b348015610ab457600080fd5b506040516202a30081526020016103fc565b348015610ad257600080fd5b5061043a610ae136600461352c565b611bde565b348015610af257600080fd5b50610b06610b0136600461355c565b611c24565b60405190151581526020016103fc565b348015610b2257600080fd5b50610532611c41565b348015610b3757600080fd5b5061043a610b46366004613690565b611d6c565b61043a610b5936600461355c565b611d7f565b61043a610b6c36600461355c565b611dbc565b348015610b7d57600080fd5b506103f2610b8c366004613502565b611de3565b348015610b9d57600080fd5b5061043a610bac36600461352c565b611e40565b348015610bbd57600080fd5b506103f2610bcc36600461355c565b63389a75e1600c908152600091909152602090205490565b348015610bf057600080fd5b506015546103f2565b6000610c0b8383600f54601054611e86565b90505b92915050565b610c1c611f1d565b610c2581611f38565b600a8190556040518181527fe75e3e311afafb466335ae8af3bf1d55443d8937fb5ada14583f4fca729c0fa8906020015b60405180910390a150565b600080600080610c6f611f61565b6000610c7a86611faa565b90506000610c878261204a565b91985096509450905080610cae57604051633da1f7d160e11b815260040160405180910390fd5b6002610cd3600554610ccd60015486602001516002610ccd91906137fc565b906122aa565b610cdd9190613829565b925060405180610160016040528060008152602001600081526020016000815260200160008152602001600081526020016000815260200160008152602001600081526020016000815260200160008152602001438152509150610d4187836122bf565b50509193509193565b610d52611f1d565b610d5b81611f38565b60068190556040518181527f413bcf24bd99a421ccaf50a4a1dba0cfd78558ceb34625206d2e6dfa1a53ff2790602001610c56565b60006202a30067ffffffffffffffff164201905063389a75e1600c5233600052806020600c2055337fdbf36a107da19e49527a7176a1babf963b4b0ff8cde35ee35d6cd8f1f9ac7e1d600080a250565b610de8611f1d565b6016819055610df8600282613829565b6019556040518181527f6ce6315004c92b2957244860cf57179c165f8c77755f841dcd1a7e315dc76afb90602001610c56565b600080610e43610e3a84611faa565b60600151612349565b91509150915091565b610e54611f1d565b610e5d81611f38565b60048190556040518181527f8bfda404cbf4ce6e72ab164d5c72aaf4500bda00a57ab1f13d8b81c14edf8ccc90602001610c56565b6000610e9c611f61565b610ea461237a565b82600003610ec55760405163789593ed60e11b815260040160405180910390fd5b6001846001811115610ed957610ed961383d565b03610f0d57600654600f54610eed916122aa565b831115610f0d57604051630f51792960e01b815260040160405180910390fd5b610f1d8484600f54601054611e86565b9050610f2b848483856123a3565b7fc840d6ec356bae99b60f3eca12969ceda50b96f8fb6c9418c3d0e073c0b52553848483604051610f5e93929190613853565b60405180910390a19392505050565b6000610c0b8383600f54601054612481565b6000610f8f600d54610ccd612513565b610f9d600c54610ccd61259e565b610fa79190613889565b905090565b60008080846001811115610fc257610fc261383d565b03610fdc5782600f54610fd59190613889565b9050610fed565b82600f54610fea919061389c565b90505b601154600090610ffd90836125c6565b905061100982826125c6565b95945050505050565b63389a75e1600c523360005260006020600c2055337ffa7b8eab7da67f412cc9575ed43464468f9bfbae89d1675917346ca6d8fe3c92600080a2565b6000610fa7612513565b6000610c0e6110686010546125db565b61108d611088611083866011546125c690919063ffffffff16565b6125f4565b6125db565b818113818303929091038218021890565b6110a6611f1d565b610e108110156110c95760405163574468ed60e01b815260040160405180910390fd5b601755565b6000610fa761259e565b600f5460105460125460155460009384936110f4878386612697565b9550611101878286612697565b945050509193509193565b6000611116611f61565b816000036111375760405163eea7064360e01b815260040160405180910390fd5b600183600181111561114b5761114b61383d565b0361118757816111686006546010546122aa90919063ffffffff16565b101561118757604051630f51792960e01b815260040160405180910390fd5b6111978383600f54601054612481565b90506000808460018111156111ae576111ae61383d565b146111ba5760006111bd565b60015b90506111cc81838560016123a3565b7fbdc2af1c8c8c5e9838d5c3bf7ede849f60e061477dce4ec73a1e10053ec240c08484846040516111ff93929190613853565b60405180910390a15092915050565b611216611f1d565b61121f81611f38565b600b8190556040518181527f879382899c61e679db091d48ae2646f0021988fe20a18f21e1b856acbc57bb5c90602001610c56565b60008061125f611f61565b61126761237a565b600061127387876122aa565b905061128761128288836125c6565b612746565b6000806112948388612769565b9196509250905060006112a68b611faa565b90508060600151600014611355576112c781886000015189602001516128dd565b945060006112ed8260a0015189606001516112e2919061389c565b6060840151906122aa565b905080826000018181516113019190613889565b90525060c082018051829190611318908390613889565b905250606082015161012083015160408a015161133f9291611339916138af565b9061297e565b8260800181815161135091906138cf565b905250505b60008561136b8c84600001516110889190613889565b61137591906138af565b905060008112156113995760405163845dfc3960e01b815260040160405180910390fd5b6040518061016001604052806113b88360ff81901c6000039081011890565b81526020018584602001516113cd9190613889565b81526020018484604001516113e29190613889565b81526020018884606001516113f79190613889565b815260200183608001518152602001896060015181526020018360c0015181526020018960000151815260200189602001518152602001896040015181526020014381525091506114488c836122bf565b50505050509550959350505050565b61145f611f1d565b61146960006129cb565b565b611473611f1d565b61147c81611f38565b60018190556040518181527fd34babb0abb9a72918553cfe7b3612443c81b3ea59ba0f751d2bb7224d18d40790602001610c56565b6114b9611f1d565b6013829055601481905560408051838152602081018390527f7338f3784ceb8f9456bac0c4a69f1c6354dc325fa6455e3e3f6a8a9bf9249a7c91015b60405180910390a15050565b611509611f1d565b61151281611f38565b60058190556040518181527f6f825f18b787836f7cf974799b160538ab237aa0d14af3611fa69683a40c6d2290602001610c56565b6000806000611554611f61565b600061155f87611faa565b905080606001518611156115865760405163827e7b7f60e01b815260040160405180910390fd5b61159e86826060015183602001518460400151612a09565b935060006115b582876000015188602001516128dd565b90506115ce8260a0015187606001516112e2919061389c565b9250828260c0018181516115e29190613889565b9052508151839083906115f6908390613889565b905250606082015160009061160c90899061389c565b9050600081156117485760608401518451611628918b90612697565b95508261163e878660000151611088919061389c565b61164891906138af565b9050600081121561166c5760405163845dfc3960e01b815260040160405180910390fd5b611685828561012001518a6040015161133991906138af565b8460800181815161169691906138cf565b9052506040805161016081019091528060ff83901c6000038084011881526020016116d484876060015188602001516126979092919063ffffffff16565b81526020016116f684876060015188604001516126979092919063ffffffff16565b815260200183815260200185608001518152602001896060015181526020018560c0015181526020018960000151815260200189602001518152602001896040015181526020014381525093506117eb565b8261175685600001516125db565b61176091906138af565b905060008112156117845760405163845dfc3960e01b815260040160405180910390fd5b60ff81901c600003808201189550604051806101600160405280600081526020016000815260200160008152602001600081526020016000815260200160008152602001600081526020016000815260200160008152602001600081526020014381525093505b6117f58a856122bf565b5050505093509350939050565b61180a611f1d565b6000805482158015620100000262ff00001990921691909117909155611856576040517fed1cd0670ee0c0017f550451a038818c696d0b6a9d6ce5b369e44275573cf9b090600090a150565b6040517ff0c683001104e62ea6db2065e069e1df46185d033db8cf4494df0a516cf537cb90600090a15b50565b6118b56040518060a0016040528060008152602001600081526020016000815260200160008152602001600081525090565b6040518060a0016040528060015481526020016009548152602001600a548152602001600b548152602001600554815250905090565b6118f3611f1d565b6118fc81611f38565b60078190556040518181527f878cd65339a771e627bc9856c713f02fec044bd7607db61e3858f8d56e4ea4f590602001610c56565b60008160000361194357506000919050565b610c0e600354610ccd600154856122aa90919063ffffffff16565b6119906040518060a0016040528060008152602001600081526020016000815260200160008152602001600081525090565b506040805160a0810182526001548152600254602082015260035491810191909152600454606082015260055460808201526012549091565b600054610100900460ff16158080156119e95750600054600160ff909116105b80611a035750303b158015611a03575060005460ff166001145b611a6a5760405162461bcd60e51b815260206004820152602e60248201527f496e697469616c697a61626c653a20636f6e747261637420697320616c72656160448201526d191e481a5b9a5d1a585b1a5e995960921b606482015260840160405180910390fd5b6000805460ff191660011790558015611a8d576000805461ff0019166101001790555b611a9689611f38565b611a9f87611f38565b611aa886611f38565b611ab185611f38565b611aba84611f38565b611ac383611f38565b611acc82611f38565b611ad58a612adc565b60068990556007879055600186905560028581556003859055600484905560058390556016899055611b079089613829565b6019558015611b50576000805461ff0019169055604051600181527f7f26b83ff96e1f2b6a682f133852f6798a09c465da95921460cefb38474024989060200160405180910390a15b50505050505050505050565b611b64611f1d565b611b6d81611f38565b60028190556040518181527f2534b354f571d8b893b9b19bf8e789ecd1e4234bd2f4dd8bf69a1076215e082590602001610c56565b6000610c0e611bb2600f546125db565b61108d611088611083866011546122aa90919063ffffffff16565b611bd5613494565b610c0e82611faa565b611be6611f1d565b611bef81611f38565b60038190556040518181527f84768b1f13e0bce8851491951ac15cf6a8449926307a23459606a32bc9b3658090602001610c56565b6000611c37611c3283611faa565b61204a565b5091949350505050565b6000806000611c4e611f61565b611c5661237a565b60185460165442821115611c7d576040516313a2f3df60e31b815260040160405180910390fd5b611c88601754612b18565b9350611c92612513565b92506000611c9f846125db565b611ca8866125db565b611cb291906138af565b905062015180611cc1836125db565b611ccb90836138f7565b611cd59190613927565b9550600060195442611ce79190613889565b90506000610e10611cf88587613889565b611d029190613829565b611d0e90610e106137fc565b9050808210828218028218601855611d268887612b41565b600e5560408051898152602081018890527fd2805fe76d30598332a67c1061cee82e2e102b0f59f5457b1729bce028a054a0910160405180910390a15050505050909192565b611d74611f1d565b600c91909155600d55565b611d87611f1d565b63389a75e1600c52806000526020600c208054421115611daf57636f5e88186000526004601cfd5b60009055611880816129cb565b611dc4611f1d565b8060601b611dda57637448fbae6000526004601cfd5b611880816129cb565b60008080846001811115611df957611df961383d565b03611e135782601054611e0c9190613889565b9050611e24565b82601054611e21919061389c565b90505b601154600090611e3490836125c6565b905061100981836125c6565b611e48611f1d565b611e5181611f38565b60098190556040518181527fd67453718fc57aad470d91be51568530ed02cc941c846cd9e281dc56b300e95e90602001610c56565b600083600003611e9857506000611f15565b600080866001811115611ead57611ead61383d565b03611ebb5750828401611ec8565b611ec5858561389c565b90505b80600003611ee957604051632dce15e160e01b815260040160405180910390fd5b601154600090611ef990836125c6565b9050611f10611f07826125db565b61108d866125db565b925050505b949350505050565b638b78c6d819543314611469576382b429006000526004601cfd5b670de0b6b3a7640000811115611880576040516306a4309560e01b815260040160405180910390fd5b336001600160a01b037f00000000000000000000000000000000000000000000000000000000000000001614611469576040516308abb64b60e21b815260040160405180910390fd5b611fb2613494565b506001600160a01b03166000908152601b6020908152604091829020825161016081018452815481526001820154928101929092526002810154928201929092526003820154606082015260048201546080820152600582015460a0820152600682015460c0820152600782015460e082015260088201546101008201526009820154610120820152600a9091015461014082015290565b600080600080846060015160000361206d575060009250829150819050806122a3565b600061207886612b6e565b60408051808201909152600b81526a131408139bdd1a5bdb985b60aa1b602082015291955091506120a890612bf3565b6120b181612c36565b836000036120cd576000806000809450945094509450506122a3565b60006120ee6110886120dd61259e565b60ff88901c60000380890118610ccd565b905060006120fb88612c7b565b60405163261c4bf960e21b81523060048201529091506000906001600160a01b037f000000000000000000000000000000000000000000000000000000000000000016906398712fe490602401608060405180830381865afa158015612165573d6000803e3d6000fd5b505050506040513d601f19601f820116820180604052508101906121899190613955565b9050600061219a8a600001516125db565b90506121af8a836000015184602001516128dd565b6121b990826138af565b90506121e06110888b60a0015184606001516121d5919061389c565b60608d0151906122aa565b6121ea90826138cf565b905060006121fb8b60600151612349565b915050612209600a546125db565b6122276122178360026137fc565b61222187866138cf565b90612b41565b12995061225060405180604001604052806005815260200164726174696f60d81b815250612bf3565b61226c6122678661226187866138cf565b90612d01565b612d6b565b61227d670de0b6b3a7640000612c36565b506000811261228e5780965061229d565b60ff81901c6000038082011895505b50505050505b9193509193565b6000610c0b8383670de0b6b3a7640000612697565b6001600160a01b039091166000908152601b602090815260409182902083518155908301516001820155908201516002820155606082015160038201556080820151600482015560a0820151600582015560c0820151600682015560e082015160078201556101008201516008820155610120820151600982015561014090910151600a90910155565b601254600f54600091829161236090859083612697565b60105490935061237290859083612697565b915050915091565b60005462010000900460ff1661146957604051637dc579d960e11b815260040160405180910390fd5b806123b3576123b3848484612db0565b60008460018111156123c7576123c761383d565b036124225782600f60008282546123de9190613889565b9250508190555081601060008282546123f7919061389c565b909155506124069050826125db565b6015600082825461241791906138cf565b909155506124739050565b82600f6000828254612434919061389c565b92505081905550816010600082825461244d9190613889565b9091555061245c9050826125db565b6015600082825461246d91906138af565b90915550505b61247b612ea5565b50505050565b60008360000361249357506000611f15565b6000808660018111156124a8576124a861383d565b036124be576124b78584613889565b90506124cb565b6124c8858461389c565b90505b806000036124ec5760405163e7a61c5760e01b815260040160405180910390fd5b6011546000906124fc90836125c6565b9050611f1061250a866125db565b61108d836125db565b6040516341976e0960e01b81523060048201526000907f00000000000000000000000000000000000000000000000000000000000000006001600160a01b0316906341976e0990602401602060405180830381865afa15801561257a573d6000803e3d6000fd5b505050506040513d601f19601f82011682018060405250810190610fa7919061399b565b6010546000908082036125b357600091505090565b600f546125c090826125c6565b91505090565b6000610c0b83670de0b6b3a764000084612697565b6000600160ff1b82106125f0576125f06130fc565b5090565b6000610c0e61260b83670de0b6b3a76400006137fc565b70ffffffffffffffffffffffffffffffffff811160071b81811c68ffffffffffffffffff1060061b1781811c64ffffffffff1060051b1781811c62ffffff1060041b1781811c620100000160b5600192831c1b0260121c80830401811c80830401811c80830401811c80830401811c80830401811c80830401811c80830401901c908190048111900390565b600083830260001984860981811082019003806126cc57836126c15763ae47f7026000526004601cfd5b50829004905061273f565b8084116126e15763ae47f7026000526004601cfd5b8385870960008581038616958690049582850381900494909211909203600192829003919091049190910102176002600384028118808502820302808502820302808502820302808502820302808502820302808502909103020290505b9392505050565b6009548110156118805760405163f9322cc160e01b815260040160405180910390fd5b600f5460105460125460009283928392612784600289613829565b945081156127c557612797858385612697565b93506127be6127a7858385612697565b6127b2878487612697565b90808218908211021890565b95506127fb565b6127d76127d0612513565b86906125c6565b93506103e86127e961108387876122aa565b6127f3919061389c565b95506103e890505b8560000361281c5760405163039271df60e11b815260040160405180910390fd5b8686101561283d57604051630ed2849160e11b815260040160405180910390fd5b6128478584613889565b92506128538483613889565b915061285f8682613889565b6012819055600f8490556010839055905061287a83836122aa565b6011556040805186815260208101869052908101879052606081018490526080810183905260a081018290527f1530ec748a27514ffab0987654233a80256393e127bdf02d94e32ff3c7148ec69060c00160405180910390a15050509250925092565b6000836060015160001461273f5760008460e00151846128fd91906138af565b9050612939856060015161291f8388610120015161310a90919063ffffffff16565b61010088015161292f90876138af565b61133991906138af565b6080860151612948908361310a565b61295291906138cf565b91506000821215612976576129696103e883613927565b61297390836138af565b91505b509392505050565b6000808312801561299557612992846139b4565b93505b6129ab6110888585670de0b6b3a7640000612697565b915080156129c4576129bc826139b4565b915050610c0e565b5092915050565b638b78c6d81980546001600160a01b039092169182907f8be0079c531659141344cd1fd0a4f28419497f9722a3daafe3b4186f6b6457e0600080a355565b600f54601054601254600092919083612a23898584612697565b90506000612a328a8585612697565b9050612a3e828661389c565b9450612a4a818561389c565b9350612a568a8461389c565b600f869055601085905560128190559250612a7185856122aa565b601155888a03612a9e57612a84876125db565b612a8d826125db565b612a9791906138af565b9550612acf565b612aac611088888c8c612697565b612ab5826125db565b612abf91906138af565b9550612acc888b8b612697565b97505b5050505050949350505050565b6001600160a01b0316638b78c6d8198190558060007f8be0079c531659141344cd1fd0a4f28419497f9722a3daafe3b4186f6b6457e08180a350565b601a54600090808203612b2d5761273f61259e565b61273f612b3b60018361389c565b84613150565b60008083128015612b5857612b55846139b4565b93505b6129ab61108885670de0b6b3a764000086612697565b6000808260600151600003612b8857506000928392509050565b600080612b988560600151612349565b91509150612ba985604001516125db565b612bb2826125db565b612bbc91906138af565b935060008413612bda576020850151612bd5908361389c565b612bea565b818560200151612bea919061389c565b92505050915091565b61188081604051602401612c0791906139d0565b60408051601f198184030181529190526020810180516001600160e01b031663104c13eb60e21b179052613320565b61188081604051602401612c4c91815260200190565b60408051601f198184030181529190526020810180516001600160e01b031663f5b1bba960e01b179052613320565b6000806000612c8d8460600151612349565b91509150612c9e84602001516125db565b612cd2612cac61108861259e565b612cb987604001516125db565b612cc2856125db565b612ccc91906138af565b9061310a565b612cdb846125db565b612ce591906138cf565b612cef91906138af565b9250612cfa83612d6b565b5050919050565b6000808312818312808214158215612d1f57612d1c866139b4565b95505b8115612d3157612d2e856139b4565b94505b612d4761108887670de0b6b3a764000088612697565b93508015612d6257612d58846139b4565b9350505050610c0e565b50505092915050565b61188081604051602401612d8191815260200190565b60408051601f198184030181529190526020810180516001600160e01b0316634e0c1d1d60e01b179052613320565b600754600003612dbf57505050565b600080612dca613341565b9150915081600003612ddd575050505050565b600f546010546000612def83836125c6565b905084811180612dfe57508381105b15612e1c5760405163090b0cb760e31b815260040160405180910390fd5b6000886001811115612e3057612e3061383d565b14612e5757612e52612e428784613889565b612e4c898661389c565b906125c6565b612e6e565b612e6e612e64878461389c565b612e4c8986613889565b905084811180612e7d57508381105b15612e9b5760405163090b0cb760e31b815260040160405180910390fd5b5050505050505050565b601a5443906000819003612f8e5760408051608081018252600f548152601054602082019081524292820192835260608201858152601a805460018101825560009190915292517f057c384a7d1c54f3a1b2e5e67b2617b8224fdfd1ea7234eea573a6ff665ff63e60049094029384015590517f057c384a7d1c54f3a1b2e5e67b2617b8224fdfd1ea7234eea573a6ff665ff63f83015591517f057c384a7d1c54f3a1b2e5e67b2617b8224fdfd1ea7234eea573a6ff665ff64082015590517f057c384a7d1c54f3a1b2e5e67b2617b8224fdfd1ea7234eea573a6ff665ff641909101556130b8565b601a805460009190612fa29060019061389c565b81548110612fb257612fb2613a1e565b9060005260206000209060040201905080600301548303612fdf57600f54815560105460018201556130b6565b60408051608081018252600f548152601054602082019081524292820192835260608201868152601a805460018101825560009190915292517f057c384a7d1c54f3a1b2e5e67b2617b8224fdfd1ea7234eea573a6ff665ff63e60049094029384015590517f057c384a7d1c54f3a1b2e5e67b2617b8224fdfd1ea7234eea573a6ff665ff63f83015591517f057c384a7d1c54f3a1b2e5e67b2617b8224fdfd1ea7234eea573a6ff665ff64082015590517f057c384a7d1c54f3a1b2e5e67b2617b8224fdfd1ea7234eea573a6ff665ff641909101555b505b600f5460105460408051928352602083019190915242908201527f15f6b01ebee55f22647a0fd0efc2a236df7f7e1a93fcd2547e54da88f4c4f623906060016114f5565b6335278d126000526004601cfd5b600080831281831280821415821561312857613125866139b4565b95505b811561313a57613137856139b4565b94505b612d476110888787670de0b6b3a7640000612697565b600080601a848154811061316657613166613a1e565b60009182526020808320604080516080810182526004909402909101805480855260018201549385018490526002820154928501929092526003015460608401529193506131b491906125c6565b905060006131c2854261389c565b9050808360400151116131d957509150610c0e9050565b846000036131eb57509150610c0e9050565b604083015160006131fc824261389c565b9050600061320a82866137fc565b90505b8860000361322c5761321f8282613829565b9650505050505050610c0e565b601a89600190039950898154811061324657613246613a1e565b600091825260209182902060408051608081018252600490930290910180548084526001820154948401859052600282015492840192909252600301546060830152909750613294916125c6565b9450838660400151116132c6576132ab848461389c565b6132b590866137fc565b6132bf9082613889565b9050613309565b60008660400151846132d8919061389c565b90506132e481876137fc565b6132ee9083613889565b91506132fa8184613889565b9250866040015193505061320d565b6133138882613829565b9998505050505050505050565b80516a636f6e736f6c652e6c6f67602083016000808483855afa5050505050565b601a546000908190818115613443576000601a61335f60018561389c565b8154811061336f5761336f613a1e565b906000526020600020906004020160405180608001604052908160008201548152602001600182015481526020016002820154815260200160038201548152505090504381606001511480156133c55750600183115b1561342b57601a6133d760028561389c565b815481106133e7576133e7613a1e565b906000526020600020906004020160405180608001604052908160008201548152602001600182015481526020016002820154815260200160038201548152505090505b6020810151815161343b916125c6565b915050613455565b601054600f54613452916125c6565b90505b60075461347461346d82670de0b6b3a7640000613889565b83906122aa565b945061348b61346d82670de0b6b3a764000061389c565b93505050509091565b60405180610160016040528060008152602001600081526020016000815260200160008152602001600081526020016000815260200160008152602001600081526020016000815260200160008152602001600081525090565b8035600281106134fd57600080fd5b919050565b6000806040838503121561351557600080fd5b61351e836134ee565b946020939093013593505050565b60006020828403121561353e57600080fd5b5035919050565b80356001600160a01b03811681146134fd57600080fd5b60006020828403121561356e57600080fd5b610c0b82613545565b803580151581146134fd57600080fd5b60008060006060848603121561359c57600080fd5b6135a5846134ee565b9250602084013591506135ba60408501613577565b90509250925092565b6040516080810167ffffffffffffffff811182821017156135f457634e487b7160e01b600052604160045260246000fd5b60405290565b60006080828403121561360c57600080fd5b6136146135c3565b90508135815260208201356020820152604082013560408201526060820135606082015292915050565b6000806000806000610100868803121561365757600080fd5b61366086613545565b945060208601359350604086013592506060860135915061368487608088016135fa565b90509295509295909350565b600080604083850312156136a357600080fd5b50508035926020909101359150565b600080600060c084860312156136c757600080fd5b6136d084613545565b9250602084013591506135ba85604086016135fa565b6000602082840312156136f857600080fd5b610c0b82613577565b60a08101610c0e828480518252602081015160208301526040810151604083015260608101516060830152608081015160808301525050565b60c08101613773828580518252602081015160208301526040810151604083015260608101516060830152608081015160808301525050565b8260a08301529392505050565b60008060008060008060008060006101208a8c03121561379f57600080fd5b6137a88a613545565b9b60208b01359b5060408b01359a60608101359a506080810135995060a0810135985060c0810135975060e081013596506101000135945092505050565b634e487b7160e01b600052601160045260246000fd5b8082028115828204841417610c0e57610c0e6137e6565b634e487b7160e01b600052601260045260246000fd5b60008261383857613838613813565b500490565b634e487b7160e01b600052602160045260246000fd5b606081016002851061387557634e487b7160e01b600052602160045260246000fd5b938152602081019290925260409091015290565b80820180821115610c0e57610c0e6137e6565b81810381811115610c0e57610c0e6137e6565b81810360008312801583831316838312821617156129c4576129c46137e6565b80820182811260008312801582168215821617156138ef576138ef6137e6565b505092915050565b80820260008212600160ff1b84141615613913576139136137e6565b8181058314821517610c0e57610c0e6137e6565b60008261393657613936613813565b600160ff1b821460001984141615613950576139506137e6565b500590565b60006080828403121561396757600080fd5b61396f6135c3565b825181526020830151602082015260408301516040820152606083015160608201528091505092915050565b6000602082840312156139ad57600080fd5b5051919050565b6000600160ff1b82016139c9576139c96137e6565b5060000390565b600060208083528351808285015260005b818110156139fd578581018301518582016040015282016139e1565b506000604082860101526040601f19601f8301168501019250505092915050565b634e487b7160e01b600052603260045260246000fdfea26469706673582212207f2829d82dac8f0694437ff2aa8066a1f3ea7bfb825c9f600e97c7c547972abe64736f6c63430008130033",
        "linkReferences": {}
    },
    "methodIdentifiers": {
        "addLiquidity(address,uint256,uint256,uint256,(int256,int256,int256,uint256))": "682580fc",
        "calcLimitFee(uint256)": "c5745e86",
        "cancelOwnershipHandover()": "54d1f13d",
        "clearingHouse()": "0af96800",
        "completeOwnershipHandover(address)": "f04e283e",
        "getBaseFeeRatio()": "13d0143d",
        "getBaseToFill(uint256)": "5c220aa1",
        "getBaseValue(uint8,uint256)": "009a7ade",
        "getFeeRatiosTotalSupply()": "cc35489c",
        "getFluctuationLimitRatio()": "cc85f5f2",
        "getFundingPeriod()": "b5e2b047",
        "getIndexPrice()": "58c0994a",
        "getLiquidationFeeRatio()": "05307703",
        "getLiquidationPrice()": "46558d1b",
        "getMakerPosition(address)": "d3e41606",
        "getMakerShareValue(address)": "2c57b797",
        "getMakerValueTotalLiquidityTPS(uint256)": "64b3cd8e",
        "getMarginRatio()": "4f3c1542",
        "getMarkPrice()": "60409632",
        "getMarkPriceAfterClose(uint8,uint256)": "f36bdbc9",
        "getMarkPriceAfterOpen(uint8,uint256)": "4d85468b",
        "getMaxSize()": "63e1d57c",
        "getNextFundingTime()": "b626382d",
        "getOpenInterestCap()": "162ca710",
        "getOpenMarginRatio()": "bce2020d",
        "getPartialLiquidationRatio()": "6d206d6d",
        "getQuoteToFill(uint256)": "d3c7f026",
        "getQuoteValue(uint8,uint256)": "3911138f",
        "getRatios()": "b13c86a3",
        "getReserves()": "0902f1ac",
        "getReservesAndK()": "c24e3859",
        "getReservesAndTotalLiquidity()": "20e8e2d2",
        "getTotalPositionSize()": "ffbf688e",
        "getTotalSupply()": "c4e41b22",
        "getTradeLimitRatio()": "89058b7d",
        "getTwapInterval()": "3e742e3b",
        "initialize(address,uint256,uint256,uint256,uint256,uint256,uint256,uint256,uint256)": "d114e6fc",
        "isMakerLiquidatable(address)": "e6877a1b",
        "liquidateMaker(address)": "1bde66e7",
        "owner()": "8da5cb5b",
        "ownershipHandoverExpiresAt(address)": "fee81cf4",
        "ownershipHandoverValidFor()": "d7533f02",
        "priceFeed()": "741bef1a",
        "removeLiquidity(address,uint256,(int256,int256,int256,uint256))": "ab7ab903",
        "renounceOwnership()": "715018a6",
        "requestOwnershipHandover()": "25692962",
        "setAMMFeeRatio(uint256)": "d152a859",
        "setActive(bool)": "acec338a",
        "setBaseFeeRatio(uint256)": "80295a74",
        "setCap(uint256,uint256)": "989292da",
        "setFluctationLimitRatio(uint256)": "b885a356",
        "setFundingPeriod(uint256)": "2a5aa292",
        "setInitMarginRatio(uint256)": "fbede224",
        "setKeeperFeeRatio(uint256)": "32a9569a",
        "setLimitMakerFeeRatio(uint256)": "e2559a83",
        "setLiquidationFeeRatio(uint256)": "a9ec1416",
        "setMaintenanceMarginRatio(uint256)": "08e9ef43",
        "setPartialLiquidationRatio(uint256)": "67acf241",
        "setTradeLimitRatio(uint256)": "20fa4f8e",
        "setTwapInterval(uint256)": "5ea679ef",
        "setWeights(uint256,uint256)": "ef6ffef2",
        "settleFunding()": "ed83d79c",
        "swapClose(uint8,uint256)": "65f66425",
        "swapOpen(uint8,uint256,bool)": "36dac706",
        "transferOwnership(address)": "f2fde38b"
    },
    "id": 42
}