{
    "_format": "hh-sol-artifact-1",
    "contractName": "Amm",
    "sourceName": "contracts/Amm.sol",
    "abi": [
        {
            "anonymous": false,
            "inputs": [
                {
                    "indexed": false,
                    "internalType": "uint256",
                    "name": "maxHoldingBaseAsset",
                    "type": "uint256"
                },
                {
                    "indexed": false,
                    "internalType": "uint256",
                    "name": "openInterestNotionalCap",
                    "type": "uint256"
                }
            ],
            "name": "CapChanged",
            "type": "event"
        },
        {
            "anonymous": false,
            "inputs": [
                {
                    "indexed": false,
                    "internalType": "uint256",
                    "name": "ratio",
                    "type": "uint256"
                }
            ],
            "name": "FeeRatioChanged",
            "type": "event"
        },
        {
            "anonymous": false,
            "inputs": [
                {
                    "indexed": false,
                    "internalType": "uint256",
                    "name": "ratio",
                    "type": "uint256"
                }
            ],
            "name": "FluctuationLimitRatioChanged",
            "type": "event"
        },
        {
            "anonymous": false,
            "inputs": [
                {
                    "indexed": false,
                    "internalType": "uint256",
                    "name": "fundingPeriod",
                    "type": "uint256"
                }
            ],
            "name": "FundingPeriodChanged",
            "type": "event"
        },
        {
            "anonymous": false,
            "inputs": [
                {
                    "indexed": false,
                    "internalType": "int256",
                    "name": "fundingRateLong",
                    "type": "int256"
                },
                {
                    "indexed": false,
                    "internalType": "int256",
                    "name": "fundingRateShort",
                    "type": "int256"
                },
                {
                    "indexed": false,
                    "internalType": "uint256",
                    "name": "underlyingPrice",
                    "type": "uint256"
                }
            ],
            "name": "FundingRateUpdated",
            "type": "event"
        },
        {
            "anonymous": false,
            "inputs": [
                {
                    "indexed": false,
                    "internalType": "uint256",
                    "name": "ratio",
                    "type": "uint256"
                }
            ],
            "name": "InitMarginRatioChanged",
            "type": "event"
        },
        {
            "anonymous": false,
            "inputs": [
                {
                    "indexed": false,
                    "internalType": "uint256",
                    "name": "divergenceThresholdRatio",
                    "type": "uint256"
                },
                {
                    "indexed": false,
                    "internalType": "uint256",
                    "name": "feeRatio",
                    "type": "uint256"
                },
                {
                    "indexed": false,
                    "internalType": "uint256",
                    "name": "feeInFavorRatio",
                    "type": "uint256"
                }
            ],
            "name": "Level1DynamicFeeSettingsChanged",
            "type": "event"
        },
        {
            "anonymous": false,
            "inputs": [
                {
                    "indexed": false,
                    "internalType": "uint256",
                    "name": "divergenceThresholdRatio",
                    "type": "uint256"
                },
                {
                    "indexed": false,
                    "internalType": "uint256",
                    "name": "feeRatio",
                    "type": "uint256"
                },
                {
                    "indexed": false,
                    "internalType": "uint256",
                    "name": "feeInFavorRatio",
                    "type": "uint256"
                }
            ],
            "name": "Level2DynamicFeeSettingsChanged",
            "type": "event"
        },
        {
            "anonymous": false,
            "inputs": [
                {
                    "indexed": false,
                    "internalType": "uint256",
                    "name": "ratio",
                    "type": "uint256"
                }
            ],
            "name": "LiquidationFeeRatioChanged",
            "type": "event"
        },
        {
            "anonymous": false,
            "inputs": [
                {
                    "indexed": false,
                    "internalType": "uint256",
                    "name": "ratio",
                    "type": "uint256"
                }
            ],
            "name": "MaintenanceMarginRatioChanged",
            "type": "event"
        },
        {
            "anonymous": false,
            "inputs": [
                {
                    "indexed": true,
                    "internalType": "bool",
                    "name": "open",
                    "type": "bool"
                }
            ],
            "name": "Open",
            "type": "event"
        },
        {
            "anonymous": false,
            "inputs": [
                {
                    "indexed": true,
                    "internalType": "address",
                    "name": "previousOwner",
                    "type": "address"
                },
                {
                    "indexed": true,
                    "internalType": "address",
                    "name": "newOwner",
                    "type": "address"
                }
            ],
            "name": "OwnershipTransferred",
            "type": "event"
        },
        {
            "anonymous": false,
            "inputs": [
                {
                    "indexed": false,
                    "internalType": "uint256",
                    "name": "ratio",
                    "type": "uint256"
                }
            ],
            "name": "PartialLiquidationRatioChanged",
            "type": "event"
        },
        {
            "anonymous": false,
            "inputs": [
                {
                    "indexed": true,
                    "internalType": "address",
                    "name": "priceFeed",
                    "type": "address"
                }
            ],
            "name": "PriceFeedUpdated",
            "type": "event"
        },
        {
            "anonymous": false,
            "inputs": [
                {
                    "indexed": false,
                    "internalType": "uint256",
                    "name": "quoteAssetReserveBefore",
                    "type": "uint256"
                },
                {
                    "indexed": false,
                    "internalType": "uint256",
                    "name": "baseAssetReserveBefore",
                    "type": "uint256"
                },
                {
                    "indexed": false,
                    "internalType": "uint256",
                    "name": "quoteAssetReserveAfter",
                    "type": "uint256"
                },
                {
                    "indexed": false,
                    "internalType": "uint256",
                    "name": "baseAssetReserveAfter",
                    "type": "uint256"
                },
                {
                    "indexed": false,
                    "internalType": "int256",
                    "name": "repegPnl",
                    "type": "int256"
                }
            ],
            "name": "Repeg",
            "type": "event"
        },
        {
            "anonymous": false,
            "inputs": [
                {
                    "indexed": false,
                    "internalType": "uint256",
                    "name": "quoteAssetReserve",
                    "type": "uint256"
                },
                {
                    "indexed": false,
                    "internalType": "uint256",
                    "name": "baseAssetReserve",
                    "type": "uint256"
                },
                {
                    "indexed": false,
                    "internalType": "uint256",
                    "name": "timestamp",
                    "type": "uint256"
                }
            ],
            "name": "ReserveSnapshotted",
            "type": "event"
        },
        {
            "anonymous": false,
            "inputs": [
                {
                    "indexed": false,
                    "internalType": "enum IAmm.Dir",
                    "name": "dir",
                    "type": "uint8"
                },
                {
                    "indexed": false,
                    "internalType": "uint256",
                    "name": "quoteAssetAmount",
                    "type": "uint256"
                },
                {
                    "indexed": false,
                    "internalType": "uint256",
                    "name": "baseAssetAmount",
                    "type": "uint256"
                }
            ],
            "name": "SwapInput",
            "type": "event"
        },
        {
            "anonymous": false,
            "inputs": [
                {
                    "indexed": false,
                    "internalType": "enum IAmm.Dir",
                    "name": "dir",
                    "type": "uint8"
                },
                {
                    "indexed": false,
                    "internalType": "uint256",
                    "name": "quoteAssetAmount",
                    "type": "uint256"
                },
                {
                    "indexed": false,
                    "internalType": "uint256",
                    "name": "baseAssetAmount",
                    "type": "uint256"
                }
            ],
            "name": "SwapOutput",
            "type": "event"
        },
        {
            "anonymous": false,
            "inputs": [
                {
                    "indexed": false,
                    "internalType": "uint256",
                    "name": "ratio",
                    "type": "uint256"
                }
            ],
            "name": "TradeLimitRatioChanged",
            "type": "event"
        },
        {
            "inputs": [],
            "name": "_x0",
            "outputs": [
                {
                    "internalType": "uint256",
                    "name": "d",
                    "type": "uint256"
                }
            ],
            "stateMutability": "view",
            "type": "function"
        },
        {
            "inputs": [],
            "name": "_y0",
            "outputs": [
                {
                    "internalType": "uint256",
                    "name": "d",
                    "type": "uint256"
                }
            ],
            "stateMutability": "view",
            "type": "function"
        },
        {
            "inputs": [],
            "name": "baseAssetDeltaThisFundingPeriod",
            "outputs": [
                {
                    "internalType": "int256",
                    "name": "d",
                    "type": "int256"
                }
            ],
            "stateMutability": "view",
            "type": "function"
        },
        {
            "inputs": [],
            "name": "baseAssetReserve",
            "outputs": [
                {
                    "internalType": "uint256",
                    "name": "d",
                    "type": "uint256"
                }
            ],
            "stateMutability": "view",
            "type": "function"
        },
        {
            "inputs": [
                {
                    "internalType": "enum IAmm.Dir",
                    "name": "_dirOfQuote",
                    "type": "uint8"
                },
                {
                    "components": [
                        {
                            "internalType": "uint256",
                            "name": "d",
                            "type": "uint256"
                        }
                    ],
                    "internalType": "struct Decimal.decimal",
                    "name": "_quoteAssetAmount",
                    "type": "tuple"
                },
                {
                    "internalType": "bool",
                    "name": "_isOpenPos",
                    "type": "bool"
                }
            ],
            "name": "calcFee",
            "outputs": [
                {
                    "components": [
                        {
                            "internalType": "uint256",
                            "name": "d",
                            "type": "uint256"
                        }
                    ],
                    "internalType": "struct Decimal.decimal",
                    "name": "fees",
                    "type": "tuple"
                }
            ],
            "stateMutability": "view",
            "type": "function"
        },
        {
            "inputs": [
                {
                    "components": [
                        {
                            "internalType": "uint256",
                            "name": "d",
                            "type": "uint256"
                        }
                    ],
                    "internalType": "struct Decimal.decimal",
                    "name": "_k",
                    "type": "tuple"
                }
            ],
            "name": "calcKRepegPnl",
            "outputs": [
                {
                    "components": [
                        {
                            "internalType": "int256",
                            "name": "d",
                            "type": "int256"
                        }
                    ],
                    "internalType": "struct SignedDecimal.signedDecimal",
                    "name": "repegPnl",
                    "type": "tuple"
                }
            ],
            "stateMutability": "view",
            "type": "function"
        },
        {
            "inputs": [
                {
                    "components": [
                        {
                            "internalType": "uint256",
                            "name": "d",
                            "type": "uint256"
                        }
                    ],
                    "internalType": "struct Decimal.decimal",
                    "name": "_repegTo",
                    "type": "tuple"
                }
            ],
            "name": "calcPriceRepegPnl",
            "outputs": [
                {
                    "components": [
                        {
                            "internalType": "int256",
                            "name": "d",
                            "type": "int256"
                        }
                    ],
                    "internalType": "struct SignedDecimal.signedDecimal",
                    "name": "repegPnl",
                    "type": "tuple"
                }
            ],
            "stateMutability": "view",
            "type": "function"
        },
        {
            "inputs": [],
            "name": "counterParty",
            "outputs": [
                {
                    "internalType": "address",
                    "name": "",
                    "type": "address"
                }
            ],
            "stateMutability": "view",
            "type": "function"
        },
        {
            "inputs": [],
            "name": "cumulativeNotional",
            "outputs": [
                {
                    "internalType": "int256",
                    "name": "d",
                    "type": "int256"
                }
            ],
            "stateMutability": "view",
            "type": "function"
        },
        {
            "inputs": [],
            "name": "fluctuationLimitRatio",
            "outputs": [
                {
                    "internalType": "uint256",
                    "name": "d",
                    "type": "uint256"
                }
            ],
            "stateMutability": "view",
            "type": "function"
        },
        {
            "inputs": [],
            "name": "fundingBufferPeriod",
            "outputs": [
                {
                    "internalType": "uint256",
                    "name": "",
                    "type": "uint256"
                }
            ],
            "stateMutability": "view",
            "type": "function"
        },
        {
            "inputs": [],
            "name": "fundingPeriod",
            "outputs": [
                {
                    "internalType": "uint256",
                    "name": "",
                    "type": "uint256"
                }
            ],
            "stateMutability": "view",
            "type": "function"
        },
        {
            "inputs": [],
            "name": "fundingRate",
            "outputs": [
                {
                    "components": [
                        {
                            "internalType": "int256",
                            "name": "d",
                            "type": "int256"
                        }
                    ],
                    "internalType": "struct SignedDecimal.signedDecimal",
                    "name": "fundingRateLong",
                    "type": "tuple"
                },
                {
                    "components": [
                        {
                            "internalType": "int256",
                            "name": "d",
                            "type": "int256"
                        }
                    ],
                    "internalType": "struct SignedDecimal.signedDecimal",
                    "name": "fundingRateShort",
                    "type": "tuple"
                }
            ],
            "stateMutability": "view",
            "type": "function"
        },
        {
            "inputs": [],
            "name": "getBaseAssetDelta",
            "outputs": [
                {
                    "components": [
                        {
                            "internalType": "int256",
                            "name": "d",
                            "type": "int256"
                        }
                    ],
                    "internalType": "struct SignedDecimal.signedDecimal",
                    "name": "",
                    "type": "tuple"
                }
            ],
            "stateMutability": "view",
            "type": "function"
        },
        {
            "inputs": [],
            "name": "getCumulativeNotional",
            "outputs": [
                {
                    "components": [
                        {
                            "internalType": "int256",
                            "name": "d",
                            "type": "int256"
                        }
                    ],
                    "internalType": "struct SignedDecimal.signedDecimal",
                    "name": "",
                    "type": "tuple"
                }
            ],
            "stateMutability": "view",
            "type": "function"
        },
        {
            "inputs": [],
            "name": "getFeeRatio",
            "outputs": [
                {
                    "components": [
                        {
                            "internalType": "uint256",
                            "name": "d",
                            "type": "uint256"
                        }
                    ],
                    "internalType": "struct Decimal.decimal",
                    "name": "",
                    "type": "tuple"
                }
            ],
            "stateMutability": "view",
            "type": "function"
        },
        {
            "inputs": [],
            "name": "getIndexPrice",
            "outputs": [
                {
                    "components": [
                        {
                            "internalType": "uint256",
                            "name": "d",
                            "type": "uint256"
                        }
                    ],
                    "internalType": "struct Decimal.decimal",
                    "name": "",
                    "type": "tuple"
                }
            ],
            "stateMutability": "view",
            "type": "function"
        },
        {
            "inputs": [],
            "name": "getInitMarginRatio",
            "outputs": [
                {
                    "components": [
                        {
                            "internalType": "uint256",
                            "name": "d",
                            "type": "uint256"
                        }
                    ],
                    "internalType": "struct Decimal.decimal",
                    "name": "",
                    "type": "tuple"
                }
            ],
            "stateMutability": "view",
            "type": "function"
        },
        {
            "inputs": [
                {
                    "internalType": "enum IAmm.Dir",
                    "name": "_dirOfQuote",
                    "type": "uint8"
                },
                {
                    "components": [
                        {
                            "internalType": "uint256",
                            "name": "d",
                            "type": "uint256"
                        }
                    ],
                    "internalType": "struct Decimal.decimal",
                    "name": "_quoteAssetAmount",
                    "type": "tuple"
                }
            ],
            "name": "getInputPrice",
            "outputs": [
                {
                    "components": [
                        {
                            "internalType": "uint256",
                            "name": "d",
                            "type": "uint256"
                        }
                    ],
                    "internalType": "struct Decimal.decimal",
                    "name": "",
                    "type": "tuple"
                }
            ],
            "stateMutability": "view",
            "type": "function"
        },
        {
            "inputs": [
                {
                    "internalType": "enum IAmm.Dir",
                    "name": "_dirOfQuote",
                    "type": "uint8"
                },
                {
                    "components": [
                        {
                            "internalType": "uint256",
                            "name": "d",
                            "type": "uint256"
                        }
                    ],
                    "internalType": "struct Decimal.decimal",
                    "name": "_quoteAssetAmount",
                    "type": "tuple"
                },
                {
                    "components": [
                        {
                            "internalType": "uint256",
                            "name": "d",
                            "type": "uint256"
                        }
                    ],
                    "internalType": "struct Decimal.decimal",
                    "name": "_quoteAssetPoolAmount",
                    "type": "tuple"
                },
                {
                    "components": [
                        {
                            "internalType": "uint256",
                            "name": "d",
                            "type": "uint256"
                        }
                    ],
                    "internalType": "struct Decimal.decimal",
                    "name": "_baseAssetPoolAmount",
                    "type": "tuple"
                }
            ],
            "name": "getInputPriceWithReserves",
            "outputs": [
                {
                    "components": [
                        {
                            "internalType": "uint256",
                            "name": "d",
                            "type": "uint256"
                        }
                    ],
                    "internalType": "struct Decimal.decimal",
                    "name": "",
                    "type": "tuple"
                }
            ],
            "stateMutability": "view",
            "type": "function"
        },
        {
            "inputs": [
                {
                    "internalType": "enum IAmm.Dir",
                    "name": "_dirOfQuote",
                    "type": "uint8"
                },
                {
                    "components": [
                        {
                            "internalType": "uint256",
                            "name": "d",
                            "type": "uint256"
                        }
                    ],
                    "internalType": "struct Decimal.decimal",
                    "name": "_quoteAssetAmount",
                    "type": "tuple"
                }
            ],
            "name": "getInputTwap",
            "outputs": [
                {
                    "components": [
                        {
                            "internalType": "uint256",
                            "name": "d",
                            "type": "uint256"
                        }
                    ],
                    "internalType": "struct Decimal.decimal",
                    "name": "",
                    "type": "tuple"
                }
            ],
            "stateMutability": "view",
            "type": "function"
        },
        {
            "inputs": [],
            "name": "getLiquidationFeeRatio",
            "outputs": [
                {
                    "components": [
                        {
                            "internalType": "uint256",
                            "name": "d",
                            "type": "uint256"
                        }
                    ],
                    "internalType": "struct Decimal.decimal",
                    "name": "",
                    "type": "tuple"
                }
            ],
            "stateMutability": "view",
            "type": "function"
        },
        {
            "inputs": [],
            "name": "getMaintenanceMarginRatio",
            "outputs": [
                {
                    "components": [
                        {
                            "internalType": "uint256",
                            "name": "d",
                            "type": "uint256"
                        }
                    ],
                    "internalType": "struct Decimal.decimal",
                    "name": "",
                    "type": "tuple"
                }
            ],
            "stateMutability": "view",
            "type": "function"
        },
        {
            "inputs": [],
            "name": "getMarkPrice",
            "outputs": [
                {
                    "components": [
                        {
                            "internalType": "uint256",
                            "name": "d",
                            "type": "uint256"
                        }
                    ],
                    "internalType": "struct Decimal.decimal",
                    "name": "",
                    "type": "tuple"
                }
            ],
            "stateMutability": "view",
            "type": "function"
        },
        {
            "inputs": [],
            "name": "getMaxHoldingBaseAsset",
            "outputs": [
                {
                    "components": [
                        {
                            "internalType": "uint256",
                            "name": "d",
                            "type": "uint256"
                        }
                    ],
                    "internalType": "struct Decimal.decimal",
                    "name": "",
                    "type": "tuple"
                }
            ],
            "stateMutability": "view",
            "type": "function"
        },
        {
            "inputs": [],
            "name": "getOpenInterestNotionalCap",
            "outputs": [
                {
                    "components": [
                        {
                            "internalType": "uint256",
                            "name": "d",
                            "type": "uint256"
                        }
                    ],
                    "internalType": "struct Decimal.decimal",
                    "name": "",
                    "type": "tuple"
                }
            ],
            "stateMutability": "view",
            "type": "function"
        },
        {
            "inputs": [
                {
                    "internalType": "enum IAmm.Dir",
                    "name": "_dirOfBase",
                    "type": "uint8"
                },
                {
                    "components": [
                        {
                            "internalType": "uint256",
                            "name": "d",
                            "type": "uint256"
                        }
                    ],
                    "internalType": "struct Decimal.decimal",
                    "name": "_baseAssetAmount",
                    "type": "tuple"
                }
            ],
            "name": "getOutputPrice",
            "outputs": [
                {
                    "components": [
                        {
                            "internalType": "uint256",
                            "name": "d",
                            "type": "uint256"
                        }
                    ],
                    "internalType": "struct Decimal.decimal",
                    "name": "",
                    "type": "tuple"
                }
            ],
            "stateMutability": "view",
            "type": "function"
        },
        {
            "inputs": [
                {
                    "internalType": "enum IAmm.Dir",
                    "name": "_dirOfBase",
                    "type": "uint8"
                },
                {
                    "components": [
                        {
                            "internalType": "uint256",
                            "name": "d",
                            "type": "uint256"
                        }
                    ],
                    "internalType": "struct Decimal.decimal",
                    "name": "_baseAssetAmount",
                    "type": "tuple"
                },
                {
                    "components": [
                        {
                            "internalType": "uint256",
                            "name": "d",
                            "type": "uint256"
                        }
                    ],
                    "internalType": "struct Decimal.decimal",
                    "name": "_quoteAssetPoolAmount",
                    "type": "tuple"
                },
                {
                    "components": [
                        {
                            "internalType": "uint256",
                            "name": "d",
                            "type": "uint256"
                        }
                    ],
                    "internalType": "struct Decimal.decimal",
                    "name": "_baseAssetPoolAmount",
                    "type": "tuple"
                }
            ],
            "name": "getOutputPriceWithReserves",
            "outputs": [
                {
                    "components": [
                        {
                            "internalType": "uint256",
                            "name": "d",
                            "type": "uint256"
                        }
                    ],
                    "internalType": "struct Decimal.decimal",
                    "name": "",
                    "type": "tuple"
                }
            ],
            "stateMutability": "view",
            "type": "function"
        },
        {
            "inputs": [
                {
                    "internalType": "enum IAmm.Dir",
                    "name": "_dirOfBase",
                    "type": "uint8"
                },
                {
                    "components": [
                        {
                            "internalType": "uint256",
                            "name": "d",
                            "type": "uint256"
                        }
                    ],
                    "internalType": "struct Decimal.decimal",
                    "name": "_baseAssetAmount",
                    "type": "tuple"
                }
            ],
            "name": "getOutputTwap",
            "outputs": [
                {
                    "components": [
                        {
                            "internalType": "uint256",
                            "name": "d",
                            "type": "uint256"
                        }
                    ],
                    "internalType": "struct Decimal.decimal",
                    "name": "",
                    "type": "tuple"
                }
            ],
            "stateMutability": "view",
            "type": "function"
        },
        {
            "inputs": [],
            "name": "getPartialLiquidationRatio",
            "outputs": [
                {
                    "components": [
                        {
                            "internalType": "uint256",
                            "name": "d",
                            "type": "uint256"
                        }
                    ],
                    "internalType": "struct Decimal.decimal",
                    "name": "",
                    "type": "tuple"
                }
            ],
            "stateMutability": "view",
            "type": "function"
        },
        {
            "inputs": [],
            "name": "getRatios",
            "outputs": [
                {
                    "components": [
                        {
                            "components": [
                                {
                                    "internalType": "uint256",
                                    "name": "d",
                                    "type": "uint256"
                                }
                            ],
                            "internalType": "struct Decimal.decimal",
                            "name": "feeRatio",
                            "type": "tuple"
                        },
                        {
                            "components": [
                                {
                                    "internalType": "uint256",
                                    "name": "d",
                                    "type": "uint256"
                                }
                            ],
                            "internalType": "struct Decimal.decimal",
                            "name": "initMarginRatio",
                            "type": "tuple"
                        },
                        {
                            "components": [
                                {
                                    "internalType": "uint256",
                                    "name": "d",
                                    "type": "uint256"
                                }
                            ],
                            "internalType": "struct Decimal.decimal",
                            "name": "maintenanceMarginRatio",
                            "type": "tuple"
                        },
                        {
                            "components": [
                                {
                                    "internalType": "uint256",
                                    "name": "d",
                                    "type": "uint256"
                                }
                            ],
                            "internalType": "struct Decimal.decimal",
                            "name": "partialLiquidationRatio",
                            "type": "tuple"
                        },
                        {
                            "components": [
                                {
                                    "internalType": "uint256",
                                    "name": "d",
                                    "type": "uint256"
                                }
                            ],
                            "internalType": "struct Decimal.decimal",
                            "name": "liquidationFeeRatio",
                            "type": "tuple"
                        }
                    ],
                    "internalType": "struct IAmm.Ratios",
                    "name": "",
                    "type": "tuple"
                }
            ],
            "stateMutability": "view",
            "type": "function"
        },
        {
            "inputs": [],
            "name": "getReserves",
            "outputs": [
                {
                    "components": [
                        {
                            "internalType": "uint256",
                            "name": "d",
                            "type": "uint256"
                        }
                    ],
                    "internalType": "struct Decimal.decimal",
                    "name": "",
                    "type": "tuple"
                },
                {
                    "components": [
                        {
                            "internalType": "uint256",
                            "name": "d",
                            "type": "uint256"
                        }
                    ],
                    "internalType": "struct Decimal.decimal",
                    "name": "",
                    "type": "tuple"
                }
            ],
            "stateMutability": "view",
            "type": "function"
        },
        {
            "inputs": [],
            "name": "getSnapshotLen",
            "outputs": [
                {
                    "internalType": "uint256",
                    "name": "",
                    "type": "uint256"
                }
            ],
            "stateMutability": "view",
            "type": "function"
        },
        {
            "inputs": [
                {
                    "internalType": "uint256",
                    "name": "_intervalInSeconds",
                    "type": "uint256"
                }
            ],
            "name": "getTwapPrice",
            "outputs": [
                {
                    "components": [
                        {
                            "internalType": "uint256",
                            "name": "d",
                            "type": "uint256"
                        }
                    ],
                    "internalType": "struct Decimal.decimal",
                    "name": "",
                    "type": "tuple"
                }
            ],
            "stateMutability": "view",
            "type": "function"
        },
        {
            "inputs": [
                {
                    "internalType": "uint256",
                    "name": "_quoteAssetReserve",
                    "type": "uint256"
                },
                {
                    "internalType": "uint256",
                    "name": "_baseAssetReserve",
                    "type": "uint256"
                },
                {
                    "internalType": "uint256",
                    "name": "_tradeLimitRatio",
                    "type": "uint256"
                },
                {
                    "internalType": "uint256",
                    "name": "_fundingPeriod",
                    "type": "uint256"
                },
                {
                    "internalType": "contract IPriceFeed",
                    "name": "_priceFeed",
                    "type": "address"
                },
                {
                    "internalType": "bytes32",
                    "name": "_priceFeedKey",
                    "type": "bytes32"
                },
                {
                    "internalType": "address",
                    "name": "_quoteAsset",
                    "type": "address"
                },
                {
                    "internalType": "uint256",
                    "name": "_fluctuationLimitRatio",
                    "type": "uint256"
                },
                {
                    "internalType": "uint256",
                    "name": "_feeRatio",
                    "type": "uint256"
                }
            ],
            "name": "initialize",
            "outputs": [],
            "stateMutability": "nonpayable",
            "type": "function"
        },
        {
            "inputs": [
                {
                    "internalType": "enum IAmm.Dir",
                    "name": "_dirOfBase",
                    "type": "uint8"
                },
                {
                    "components": [
                        {
                            "internalType": "uint256",
                            "name": "d",
                            "type": "uint256"
                        }
                    ],
                    "internalType": "struct Decimal.decimal",
                    "name": "_baseAssetAmount",
                    "type": "tuple"
                }
            ],
            "name": "isOverFluctuationLimit",
            "outputs": [
                {
                    "internalType": "bool",
                    "name": "",
                    "type": "bool"
                }
            ],
            "stateMutability": "view",
            "type": "function"
        },
        {
            "inputs": [],
            "name": "isOverSpreadLimit",
            "outputs": [
                {
                    "internalType": "bool",
                    "name": "",
                    "type": "bool"
                }
            ],
            "stateMutability": "view",
            "type": "function"
        },
        {
            "inputs": [],
            "name": "k",
            "outputs": [
                {
                    "internalType": "uint256",
                    "name": "d",
                    "type": "uint256"
                }
            ],
            "stateMutability": "view",
            "type": "function"
        },
        {
            "inputs": [],
            "name": "lastRepegTimestamp",
            "outputs": [
                {
                    "internalType": "uint256",
                    "name": "",
                    "type": "uint256"
                }
            ],
            "stateMutability": "view",
            "type": "function"
        },
        {
            "inputs": [],
            "name": "level1DynamicFeeSettings",
            "outputs": [
                {
                    "components": [
                        {
                            "internalType": "uint256",
                            "name": "d",
                            "type": "uint256"
                        }
                    ],
                    "internalType": "struct Decimal.decimal",
                    "name": "divergenceThresholdRatio",
                    "type": "tuple"
                },
                {
                    "components": [
                        {
                            "internalType": "uint256",
                            "name": "d",
                            "type": "uint256"
                        }
                    ],
                    "internalType": "struct Decimal.decimal",
                    "name": "feeRatio",
                    "type": "tuple"
                },
                {
                    "components": [
                        {
                            "internalType": "uint256",
                            "name": "d",
                            "type": "uint256"
                        }
                    ],
                    "internalType": "struct Decimal.decimal",
                    "name": "feeInFavorRatio",
                    "type": "tuple"
                }
            ],
            "stateMutability": "view",
            "type": "function"
        },
        {
            "inputs": [],
            "name": "level2DynamicFeeSettings",
            "outputs": [
                {
                    "components": [
                        {
                            "internalType": "uint256",
                            "name": "d",
                            "type": "uint256"
                        }
                    ],
                    "internalType": "struct Decimal.decimal",
                    "name": "divergenceThresholdRatio",
                    "type": "tuple"
                },
                {
                    "components": [
                        {
                            "internalType": "uint256",
                            "name": "d",
                            "type": "uint256"
                        }
                    ],
                    "internalType": "struct Decimal.decimal",
                    "name": "feeRatio",
                    "type": "tuple"
                },
                {
                    "components": [
                        {
                            "internalType": "uint256",
                            "name": "d",
                            "type": "uint256"
                        }
                    ],
                    "internalType": "struct Decimal.decimal",
                    "name": "feeInFavorRatio",
                    "type": "tuple"
                }
            ],
            "stateMutability": "view",
            "type": "function"
        },
        {
            "inputs": [],
            "name": "markPriceTwapInterval",
            "outputs": [
                {
                    "internalType": "uint256",
                    "name": "",
                    "type": "uint256"
                }
            ],
            "stateMutability": "view",
            "type": "function"
        },
        {
            "inputs": [],
            "name": "nextFundingTime",
            "outputs": [
                {
                    "internalType": "uint256",
                    "name": "",
                    "type": "uint256"
                }
            ],
            "stateMutability": "view",
            "type": "function"
        },
        {
            "inputs": [],
            "name": "open",
            "outputs": [
                {
                    "internalType": "bool",
                    "name": "",
                    "type": "bool"
                }
            ],
            "stateMutability": "view",
            "type": "function"
        },
        {
            "inputs": [],
            "name": "owner",
            "outputs": [
                {
                    "internalType": "address",
                    "name": "",
                    "type": "address"
                }
            ],
            "stateMutability": "view",
            "type": "function"
        },
        {
            "inputs": [],
            "name": "priceFeed",
            "outputs": [
                {
                    "internalType": "contract IPriceFeed",
                    "name": "",
                    "type": "address"
                }
            ],
            "stateMutability": "view",
            "type": "function"
        },
        {
            "inputs": [],
            "name": "priceFeedKey",
            "outputs": [
                {
                    "internalType": "bytes32",
                    "name": "",
                    "type": "bytes32"
                }
            ],
            "stateMutability": "view",
            "type": "function"
        },
        {
            "inputs": [],
            "name": "quoteAsset",
            "outputs": [
                {
                    "internalType": "contract IERC20",
                    "name": "",
                    "type": "address"
                }
            ],
            "stateMutability": "view",
            "type": "function"
        },
        {
            "inputs": [],
            "name": "quoteAssetReserve",
            "outputs": [
                {
                    "internalType": "uint256",
                    "name": "d",
                    "type": "uint256"
                }
            ],
            "stateMutability": "view",
            "type": "function"
        },
        {
            "inputs": [],
            "name": "renounceOwnership",
            "outputs": [],
            "stateMutability": "nonpayable",
            "type": "function"
        },
        {
            "inputs": [],
            "name": "repegBufferPeriod",
            "outputs": [
                {
                    "internalType": "uint256",
                    "name": "",
                    "type": "uint256"
                }
            ],
            "stateMutability": "view",
            "type": "function"
        },
        {
            "inputs": [
                {
                    "components": [
                        {
                            "internalType": "uint256",
                            "name": "d",
                            "type": "uint256"
                        }
                    ],
                    "internalType": "struct Decimal.decimal",
                    "name": "_multiplier",
                    "type": "tuple"
                }
            ],
            "name": "repegK",
            "outputs": [
                {
                    "components": [
                        {
                            "internalType": "uint256",
                            "name": "d",
                            "type": "uint256"
                        }
                    ],
                    "internalType": "struct Decimal.decimal",
                    "name": "",
                    "type": "tuple"
                },
                {
                    "components": [
                        {
                            "internalType": "uint256",
                            "name": "d",
                            "type": "uint256"
                        }
                    ],
                    "internalType": "struct Decimal.decimal",
                    "name": "",
                    "type": "tuple"
                },
                {
                    "components": [
                        {
                            "internalType": "uint256",
                            "name": "d",
                            "type": "uint256"
                        }
                    ],
                    "internalType": "struct Decimal.decimal",
                    "name": "",
                    "type": "tuple"
                },
                {
                    "components": [
                        {
                            "internalType": "uint256",
                            "name": "d",
                            "type": "uint256"
                        }
                    ],
                    "internalType": "struct Decimal.decimal",
                    "name": "",
                    "type": "tuple"
                },
                {
                    "components": [
                        {
                            "internalType": "int256",
                            "name": "d",
                            "type": "int256"
                        }
                    ],
                    "internalType": "struct SignedDecimal.signedDecimal",
                    "name": "",
                    "type": "tuple"
                }
            ],
            "stateMutability": "nonpayable",
            "type": "function"
        },
        {
            "inputs": [],
            "name": "repegPrice",
            "outputs": [
                {
                    "components": [
                        {
                            "internalType": "uint256",
                            "name": "d",
                            "type": "uint256"
                        }
                    ],
                    "internalType": "struct Decimal.decimal",
                    "name": "",
                    "type": "tuple"
                },
                {
                    "components": [
                        {
                            "internalType": "uint256",
                            "name": "d",
                            "type": "uint256"
                        }
                    ],
                    "internalType": "struct Decimal.decimal",
                    "name": "",
                    "type": "tuple"
                },
                {
                    "components": [
                        {
                            "internalType": "uint256",
                            "name": "d",
                            "type": "uint256"
                        }
                    ],
                    "internalType": "struct Decimal.decimal",
                    "name": "",
                    "type": "tuple"
                },
                {
                    "components": [
                        {
                            "internalType": "uint256",
                            "name": "d",
                            "type": "uint256"
                        }
                    ],
                    "internalType": "struct Decimal.decimal",
                    "name": "",
                    "type": "tuple"
                },
                {
                    "components": [
                        {
                            "internalType": "int256",
                            "name": "d",
                            "type": "int256"
                        }
                    ],
                    "internalType": "struct SignedDecimal.signedDecimal",
                    "name": "",
                    "type": "tuple"
                }
            ],
            "stateMutability": "nonpayable",
            "type": "function"
        },
        {
            "inputs": [
                {
                    "internalType": "uint256",
                    "name": "",
                    "type": "uint256"
                }
            ],
            "name": "reserveSnapshots",
            "outputs": [
                {
                    "components": [
                        {
                            "internalType": "uint256",
                            "name": "d",
                            "type": "uint256"
                        }
                    ],
                    "internalType": "struct Decimal.decimal",
                    "name": "quoteAssetReserve",
                    "type": "tuple"
                },
                {
                    "components": [
                        {
                            "internalType": "uint256",
                            "name": "d",
                            "type": "uint256"
                        }
                    ],
                    "internalType": "struct Decimal.decimal",
                    "name": "baseAssetReserve",
                    "type": "tuple"
                },
                {
                    "internalType": "uint256",
                    "name": "timestamp",
                    "type": "uint256"
                },
                {
                    "internalType": "uint256",
                    "name": "blockNumber",
                    "type": "uint256"
                }
            ],
            "stateMutability": "view",
            "type": "function"
        },
        {
            "inputs": [
                {
                    "components": [
                        {
                            "internalType": "uint256",
                            "name": "d",
                            "type": "uint256"
                        }
                    ],
                    "internalType": "struct Decimal.decimal",
                    "name": "_maxHoldingBaseAsset",
                    "type": "tuple"
                },
                {
                    "components": [
                        {
                            "internalType": "uint256",
                            "name": "d",
                            "type": "uint256"
                        }
                    ],
                    "internalType": "struct Decimal.decimal",
                    "name": "_openInterestNotionalCap",
                    "type": "tuple"
                }
            ],
            "name": "setCap",
            "outputs": [],
            "stateMutability": "nonpayable",
            "type": "function"
        },
        {
            "inputs": [
                {
                    "internalType": "address",
                    "name": "_counterParty",
                    "type": "address"
                }
            ],
            "name": "setCounterParty",
            "outputs": [],
            "stateMutability": "nonpayable",
            "type": "function"
        },
        {
            "inputs": [
                {
                    "components": [
                        {
                            "internalType": "uint256",
                            "name": "d",
                            "type": "uint256"
                        }
                    ],
                    "internalType": "struct Decimal.decimal",
                    "name": "_feeRatio",
                    "type": "tuple"
                }
            ],
            "name": "setFeeRatio",
            "outputs": [],
            "stateMutability": "nonpayable",
            "type": "function"
        },
        {
            "inputs": [
                {
                    "components": [
                        {
                            "internalType": "uint256",
                            "name": "d",
                            "type": "uint256"
                        }
                    ],
                    "internalType": "struct Decimal.decimal",
                    "name": "_fluctuationLimitRatio",
                    "type": "tuple"
                }
            ],
            "name": "setFluctuationLimitRatio",
            "outputs": [],
            "stateMutability": "nonpayable",
            "type": "function"
        },
        {
            "inputs": [
                {
                    "internalType": "uint256",
                    "name": "_fundingPeriod",
                    "type": "uint256"
                }
            ],
            "name": "setFundingPeriod",
            "outputs": [],
            "stateMutability": "nonpayable",
            "type": "function"
        },
        {
            "inputs": [
                {
                    "components": [
                        {
                            "internalType": "uint256",
                            "name": "d",
                            "type": "uint256"
                        }
                    ],
                    "internalType": "struct Decimal.decimal",
                    "name": "_initMarginRatio",
                    "type": "tuple"
                }
            ],
            "name": "setInitMarginRatio",
            "outputs": [],
            "stateMutability": "nonpayable",
            "type": "function"
        },
        {
            "inputs": [
                {
                    "components": [
                        {
                            "internalType": "uint256",
                            "name": "d",
                            "type": "uint256"
                        }
                    ],
                    "internalType": "struct Decimal.decimal",
                    "name": "_divergenceThresholdRatio",
                    "type": "tuple"
                },
                {
                    "components": [
                        {
                            "internalType": "uint256",
                            "name": "d",
                            "type": "uint256"
                        }
                    ],
                    "internalType": "struct Decimal.decimal",
                    "name": "_feeRatio",
                    "type": "tuple"
                },
                {
                    "components": [
                        {
                            "internalType": "uint256",
                            "name": "d",
                            "type": "uint256"
                        }
                    ],
                    "internalType": "struct Decimal.decimal",
                    "name": "_feeInFavorRatio",
                    "type": "tuple"
                }
            ],
            "name": "setLevel1DynamicFeeSettings",
            "outputs": [],
            "stateMutability": "nonpayable",
            "type": "function"
        },
        {
            "inputs": [
                {
                    "components": [
                        {
                            "internalType": "uint256",
                            "name": "d",
                            "type": "uint256"
                        }
                    ],
                    "internalType": "struct Decimal.decimal",
                    "name": "_divergenceThresholdRatio",
                    "type": "tuple"
                },
                {
                    "components": [
                        {
                            "internalType": "uint256",
                            "name": "d",
                            "type": "uint256"
                        }
                    ],
                    "internalType": "struct Decimal.decimal",
                    "name": "_feeRatio",
                    "type": "tuple"
                },
                {
                    "components": [
                        {
                            "internalType": "uint256",
                            "name": "d",
                            "type": "uint256"
                        }
                    ],
                    "internalType": "struct Decimal.decimal",
                    "name": "_feeInFavorRatio",
                    "type": "tuple"
                }
            ],
            "name": "setLevel2DynamicFeeSettings",
            "outputs": [],
            "stateMutability": "nonpayable",
            "type": "function"
        },
        {
            "inputs": [
                {
                    "components": [
                        {
                            "internalType": "uint256",
                            "name": "d",
                            "type": "uint256"
                        }
                    ],
                    "internalType": "struct Decimal.decimal",
                    "name": "_liquidationFeeRatio",
                    "type": "tuple"
                }
            ],
            "name": "setLiquidationFeeRatio",
            "outputs": [],
            "stateMutability": "nonpayable",
            "type": "function"
        },
        {
            "inputs": [
                {
                    "components": [
                        {
                            "internalType": "uint256",
                            "name": "d",
                            "type": "uint256"
                        }
                    ],
                    "internalType": "struct Decimal.decimal",
                    "name": "_maintenanceMarginRatio",
                    "type": "tuple"
                }
            ],
            "name": "setMaintenanceMarginRatio",
            "outputs": [],
            "stateMutability": "nonpayable",
            "type": "function"
        },
        {
            "inputs": [
                {
                    "internalType": "uint256",
                    "name": "_interval",
                    "type": "uint256"
                }
            ],
            "name": "setMarkPriceTwapInterval",
            "outputs": [],
            "stateMutability": "nonpayable",
            "type": "function"
        },
        {
            "inputs": [
                {
                    "internalType": "bool",
                    "name": "_open",
                    "type": "bool"
                }
            ],
            "name": "setOpen",
            "outputs": [],
            "stateMutability": "nonpayable",
            "type": "function"
        },
        {
            "inputs": [
                {
                    "components": [
                        {
                            "internalType": "uint256",
                            "name": "d",
                            "type": "uint256"
                        }
                    ],
                    "internalType": "struct Decimal.decimal",
                    "name": "_partialLiquidationRatio",
                    "type": "tuple"
                }
            ],
            "name": "setPartialLiquidationRatio",
            "outputs": [],
            "stateMutability": "nonpayable",
            "type": "function"
        },
        {
            "inputs": [
                {
                    "internalType": "contract IPriceFeed",
                    "name": "_priceFeed",
                    "type": "address"
                }
            ],
            "name": "setPriceFeed",
            "outputs": [],
            "stateMutability": "nonpayable",
            "type": "function"
        },
        {
            "inputs": [
                {
                    "internalType": "uint256",
                    "name": "_repegBufferPeriod",
                    "type": "uint256"
                }
            ],
            "name": "setRepegBufferPeriod",
            "outputs": [],
            "stateMutability": "nonpayable",
            "type": "function"
        },
        {
            "inputs": [
                {
                    "components": [
                        {
                            "internalType": "uint256",
                            "name": "d",
                            "type": "uint256"
                        }
                    ],
                    "internalType": "struct Decimal.decimal",
                    "name": "_tradeLimitRatio",
                    "type": "tuple"
                }
            ],
            "name": "setTradeLimitRatio",
            "outputs": [],
            "stateMutability": "nonpayable",
            "type": "function"
        },
        {
            "inputs": [],
            "name": "settleFunding",
            "outputs": [
                {
                    "components": [
                        {
                            "internalType": "int256",
                            "name": "d",
                            "type": "int256"
                        }
                    ],
                    "internalType": "struct SignedDecimal.signedDecimal",
                    "name": "premiumFraction",
                    "type": "tuple"
                },
                {
                    "components": [
                        {
                            "internalType": "uint256",
                            "name": "d",
                            "type": "uint256"
                        }
                    ],
                    "internalType": "struct Decimal.decimal",
                    "name": "markPrice",
                    "type": "tuple"
                },
                {
                    "components": [
                        {
                            "internalType": "uint256",
                            "name": "d",
                            "type": "uint256"
                        }
                    ],
                    "internalType": "struct Decimal.decimal",
                    "name": "indexPrice",
                    "type": "tuple"
                }
            ],
            "stateMutability": "nonpayable",
            "type": "function"
        },
        {
            "inputs": [
                {
                    "internalType": "enum IAmm.Dir",
                    "name": "_dirOfQuote",
                    "type": "uint8"
                },
                {
                    "components": [
                        {
                            "internalType": "uint256",
                            "name": "d",
                            "type": "uint256"
                        }
                    ],
                    "internalType": "struct Decimal.decimal",
                    "name": "_quoteAssetAmount",
                    "type": "tuple"
                },
                {
                    "components": [
                        {
                            "internalType": "uint256",
                            "name": "d",
                            "type": "uint256"
                        }
                    ],
                    "internalType": "struct Decimal.decimal",
                    "name": "_baseAssetAmountLimit",
                    "type": "tuple"
                },
                {
                    "internalType": "bool",
                    "name": "_canOverFluctuationLimit",
                    "type": "bool"
                }
            ],
            "name": "swapInput",
            "outputs": [
                {
                    "components": [
                        {
                            "internalType": "uint256",
                            "name": "d",
                            "type": "uint256"
                        }
                    ],
                    "internalType": "struct Decimal.decimal",
                    "name": "",
                    "type": "tuple"
                }
            ],
            "stateMutability": "nonpayable",
            "type": "function"
        },
        {
            "inputs": [
                {
                    "internalType": "enum IAmm.Dir",
                    "name": "_dirOfBase",
                    "type": "uint8"
                },
                {
                    "components": [
                        {
                            "internalType": "uint256",
                            "name": "d",
                            "type": "uint256"
                        }
                    ],
                    "internalType": "struct Decimal.decimal",
                    "name": "_baseAssetAmount",
                    "type": "tuple"
                },
                {
                    "components": [
                        {
                            "internalType": "uint256",
                            "name": "d",
                            "type": "uint256"
                        }
                    ],
                    "internalType": "struct Decimal.decimal",
                    "name": "_quoteAssetAmountLimit",
                    "type": "tuple"
                }
            ],
            "name": "swapOutput",
            "outputs": [
                {
                    "components": [
                        {
                            "internalType": "uint256",
                            "name": "d",
                            "type": "uint256"
                        }
                    ],
                    "internalType": "struct Decimal.decimal",
                    "name": "",
                    "type": "tuple"
                }
            ],
            "stateMutability": "nonpayable",
            "type": "function"
        },
        {
            "inputs": [],
            "name": "totalPositionSize",
            "outputs": [
                {
                    "internalType": "int256",
                    "name": "d",
                    "type": "int256"
                }
            ],
            "stateMutability": "view",
            "type": "function"
        },
        {
            "inputs": [],
            "name": "tradeLimitRatio",
            "outputs": [
                {
                    "internalType": "uint256",
                    "name": "d",
                    "type": "uint256"
                }
            ],
            "stateMutability": "view",
            "type": "function"
        },
        {
            "inputs": [
                {
                    "internalType": "address",
                    "name": "newOwner",
                    "type": "address"
                }
            ],
            "name": "transferOwnership",
            "outputs": [],
            "stateMutability": "nonpayable",
            "type": "function"
        },
        {
            "inputs": [
                {
                    "components": [
                        {
                            "internalType": "int256",
                            "name": "d",
                            "type": "int256"
                        }
                    ],
                    "internalType": "struct SignedDecimal.signedDecimal",
                    "name": "_premiumFractionLong",
                    "type": "tuple"
                },
                {
                    "components": [
                        {
                            "internalType": "int256",
                            "name": "d",
                            "type": "int256"
                        }
                    ],
                    "internalType": "struct SignedDecimal.signedDecimal",
                    "name": "_premiumFractionShort",
                    "type": "tuple"
                },
                {
                    "components": [
                        {
                            "internalType": "uint256",
                            "name": "d",
                            "type": "uint256"
                        }
                    ],
                    "internalType": "struct Decimal.decimal",
                    "name": "_underlyingPrice",
                    "type": "tuple"
                }
            ],
            "name": "updateFundingRate",
            "outputs": [],
            "stateMutability": "nonpayable",
            "type": "function"
        }
    ],
    "bytecode": "0x608060405234801561001057600080fd5b5061459e806100206000396000f3fe608060405234801561001057600080fd5b506004361061036e5760003560e01c806298f34d14610373578063013dd7951461038f57806301905e98146103cf578063021bd8ea146103e757806305307703146103fa5780630902f1ac146104025780630aa33fa91461041f5780630d451c8f146104345780630dd68c701461043c578063113773941461044f578063130234cf146104575780631d3acb441461047a5780631e1ff13b14610484578063203b37881461049757806321e00985146104aa578063252a4ba5146104dd57806329f9b17b146104f05780632a5aa292146104f85780632c453bdf1461050b5780632d77407d146105365780632d7cb219146105835780632f84885914610596578063332b82fa1461059e578063385b50f4146105a657806341d3c84c146105ae578063471be2fa146105d25780634894d183146105db5780634cb876f2146105ee57806350799c81146105f8578063525454101461060b57806358a4c3dc1461061357806358c0994a1461061c57806359362b8814610624578063604096321461062c5780636c127446146106345780636d206d6d146106475780636fa42ede1461064f5780636fdca5e014610662578063715018a614610675578063724e78da1461067d578063741bef1a1461069057806374d7c62b146106a357806375df6389146106ac5780637cb9dcee146106bf5780637fd44dae146106d2578063862c04e3146106dc5780638da5cb5b146106ef5780638f40d932146106f7578063918a8d32146107015780639bf5d1d4146107145780639e010362146107275780639ece77c81461072f578063a6174e5614610742578063a7b774a01461074b578063a8f8be4e1461075e578063b0919abe14610771578063b13c86a31461077b578063b42baf3e146107ca578063b4f40c61146107fb578063c2de442f14610805578063c9566fcc1461080e578063c9dde75614610818578063d48f271d1461082b578063d56f2fda14610835578063d71ec2ad14610848578063da0c59271461085b578063de8b31921461086e578063df7d275914610881578063e0037a6c14610894578063e1f1027f1461089d578063e4bc2eb9146108b0578063ed83d79c146108ba578063f1b5df86146108c2578063f2fde38b146108d5578063f4fe3e9c146108e8578063fcfff16f146108f1578063fdf262b714610905575b600080fd5b61037b610918565b604051905181526020015b60405180910390f35b6103a261039d366004613c96565b610934565b6040805195518652935160208601529151928401929092529051606083015251608082015260a001610386565b607b546103d99081565b604051908152602001610386565b61037b6103f5366004613c96565b610abd565b61037b610b9c565b61040a610bb8565b60408051925183529051602083015201610386565b61043261042d366004613c96565b610bea565b005b6088546103d9565b61043261044a366004613cb2565b610c6f565b61037b610d00565b61046a610465366004613cfb565b610d1c565b6040519015158152602001610386565b6067546103d99081565b610432610492366004613d17565b610e40565b6104326104a5366004613c96565b610e74565b6104bd6104b8366004613d17565b610ee8565b604080519451855292516020850152918301526060820152608001610386565b6104326104eb366004613d30565b610f39565b61037b610fd9565b610432610506366004613d17565b610ff5565b60865461051e906001600160a01b031681565b6040516001600160a01b039091168152602001610386565b6040805160208082018352606f54825282518082018452607054815283519182019093526071548152610567929083565b6040805193518452915160208401525190820152606001610386565b610432610591366004613c96565b611067565b61037b6110d2565b6103a26110ee565b61037b6112b4565b604080516020808201835260725482528251908101909252607354825261040a9182565b6103d9607f5481565b61037b6105e9366004613cfb565b6112d0565b6079546103d99081565b61037b610606366004613d76565b6112ee565b61037b6113f4565b6103d960855481565b61037b611410565b61037b61149a565b61037b6114b6565b610432610642366004613c96565b6114ea565b61037b61155e565b61037b61065d366004613cfb565b61157a565b610432610670366004613ddd565b611591565b610432611656565b61043261068b366004613e0d565b611691565b60845461051e906001600160a01b031681565b6103d9607e5481565b61037b6106ba366004613e42565b61175c565b6104326106cd366004613d30565b6119cd565b607d546103d99081565b6104326106ea366004613c96565b611a4c565b61051e611b34565b6066546103d99081565b61043261070f366004613e8d565b611b43565b61037b610722366004613d76565b611e6c565b61046a611f50565b61043261073d366004613e0d565b611fe6565b6103d960835481565b61037b610759366004613f0a565b612037565b61043261076c366004613c96565b6121dc565b607c546103d99081565b610783612247565b6040516103869190600060a0820190508251518252602083015151602083015260408301515160408301526060830151516060830152608083015151608083015292915050565b6040805160208082018352606c54825282518082018452606d5481528351918201909352606e548152610567929083565b6076546103d99081565b6103d960815481565b6075546103d99081565b610432610826366004613c96565b6122b4565b607a546103d99081565b610432610843366004613d30565b612328565b61037b610856366004613f45565b6123de565b61037b610869366004613cfb565b612460565b61043261087c366004613d17565b612492565b61037b61088f366004613c96565b612512565b6103d960805481565b61037b6108ab366004613cfb565b6125fa565b6074546103d99081565b61056761262c565b61037b6108d0366004613d17565b612799565b6104326108e3366004613e0d565b6127aa565b6103d960825481565b60875461046a90600160a01b900460ff1681565b60875461051e906001600160a01b031681565b610920613ba4565b506040805160208101909152606854815290565b61093c613ba4565b610944613ba4565b61094c613ba4565b610954613ba4565b61095c613ba4565b608754600160a01b900460ff1661098e5760405162461bcd60e51b815260040161098590613f81565b60405180910390fd5b6086546001600160a01b031633146109b85760405162461bcd60e51b815260040161098590613fa9565b6083546082546109c89190613ff3565b4210156109e75760405162461bcd60e51b81526004016109859061400b565b60006109f287612847565b60408051602080820183526074548252825190810190925260755482529192506000610a1e83856128e8565b90506000610a2c83866128e8565b90506000610a3a83836128e8565b90506000610a4782612512565b8451607481905584516075819055845160765542608255607d91909155607c559050610a7161290e565b600080516020614529833981519152610a88875190565b8651865186518551604051610aa195949392919061403d565b60405180910390a1949c939b5091995097509195509350505050565b610ac5613ba4565b6040805160208101909152607d548152600090610ae190612a3f565b6040805160208101909152607c548152909150600090610b0090612a3f565b90506000610b0e8383612aa3565b90506000610b22610b1d6114b6565b612a3f565b90506000610b2f87612a3f565b9050610b91610b8a610b3f612ac0565b610b84610b5e610b57610b52888a612add565b612afa565b8690612aa3565b610b7e610b6e610b52898b612aa3565b610b78888a612aa3565b90612b76565b90612b93565b90612bb0565b8690612add565b979650505050505050565b610ba4613ba4565b506040805160208101909152606b54815290565b610bc0613ba4565b610bc8613ba4565b5050604080516020808201835260745482528251908101909252607554825291565b33610bf3611b34565b6001600160a01b031614610c195760405162461bcd60e51b815260040161098590614060565b610c2281612c20565b8051606681905560408051602081019091528190527f413bcf24bd99a421ccaf50a4a1dba0cfd78558ceb34625206d2e6dfa1a53ff27905b6040519081526020015b60405180910390a150565b33610c78611b34565b6001600160a01b031614610c9e5760405162461bcd60e51b815260040161098590614060565b81516077819055815160788190556040805160208082018352908490528151808201835283905281519384528301919091527f7338f3784ceb8f9456bac0c4a69f1c6354dc325fa6455e3e3f6a8a9bf9249a7c91015b60405180910390a15050565b610d08613ba4565b506040805160208101909152607754815290565b604080516020810190915260675490819052600090600003610d4057506000610e3a565b600080610d4b612c6e565b915091506000610d5b8686612460565b905060006001876001811115610d7357610d73614095565b14610dbb5760408051602081019091526075548152610db690610d969088612e03565b60408051602081019091526074548152610db09085612e20565b90612e3d565b610df3565b60408051602081019091526075548152610df390610dd99088612e20565b60408051602081019091526074548152610db09085612e03565b90506000610e018286612e5a565b60000b13158015610e1f57506000610e198285612e5a565b60000b12155b15610e31576000945050505050610e3a565b60019450505050505b92915050565b33610e49611b34565b6001600160a01b031614610e6f5760405162461bcd60e51b815260040161098590614060565b608355565b33610e7d611b34565b6001600160a01b031614610ea35760405162461bcd60e51b815260040161098590614060565b610eac81612c20565b8051606b81905560408051602081019091528190527f6f825f18b787836f7cf974799b160538ab237aa0d14af3611fa69683a40c6d2290610c5a565b60888181548110610ef857600080fd5b600091825260209182902060408051808501825260049093029091018054835281519384019091526001810154835260028101546003909101549193509084565b33610f42611b34565b6001600160a01b031614610f685760405162461bcd60e51b815260040161098590614060565b6040805160608101825284815260208101849052018190528251606c558151606d558051606e557fdb990bcf88f23a71d18373867e3602c89a209902f2bb7fda7691dd3215287134610fb8845190565b83515b8351604051610fcc939291906140ab565b60405180910390a1505050565b610fe1613ba4565b506040805160208101909152607a54815290565b33610ffe611b34565b6001600160a01b0316146110245760405162461bcd60e51b815260040161098590614060565b607e8190556110346002826140d7565b6081556040518181527f6ce6315004c92b2957244860cf57179c165f8c77755f841dcd1a7e315dc76afb90602001610c64565b33611070611b34565b6001600160a01b0316146110965760405162461bcd60e51b815260040161098590614060565b8051606581905560408051602081019091528190527f42fb40f05167879d1c8fddb6b4cd334f303e50aaf387b80b3c27633933dac15790610c5a565b6110da613ba4565b506040805160208101909152607954815290565b6110f6613ba4565b6110fe613ba4565b611106613ba4565b61110e613ba4565b611116613ba4565b608754600160a01b900460ff1661113f5760405162461bcd60e51b815260040161098590613f81565b6086546001600160a01b031633146111695760405162461bcd60e51b815260040161098590613fa9565b6083546082546111799190613ff3565b4210156111985760405162461bcd60e51b81526004016109859061400b565b60006111a2611410565b905060006111af82610abd565b60408051602080820183526074548252825190810190925260755482529192506111da9084906128e8565b516074819055604080516020808201835260755482528251908101909252918152611204916128e8565b5160765542608255607454607d55607554607c5561122061290e565b600080516020614529833981519152611237825190565b60408051602080820183526075549182905282518082018452607454908190528351918201845290829052865192516112729493839161403d565b60405180910390a16040805160208082018352607554808352835180830185526074548152845192830190945281529299509750955093509150509091929394565b6112bc613ba4565b506040805160208101909152606954815290565b6112d8613ba4565b6112e783836000610384612e8b565b9392505050565b6112f6613ba4565b835160000361130e57611307612f2a565b90506113ec565b60008086600181111561132357611323614095565b14905061132e613ba4565b611336613ba4565b61133e613ba4565b83156113555761134e8789612e03565b9150611362565b61135f8789612e20565b91505b81516000036113ac5760405162461bcd60e51b8152602060048201526016602482015275071756f746520617373657420616674657220697320360541b6044820152606401610985565b604080516020810190915260765481526113d19083906113cb90612a3f565b90612f45565b92506113e56113e08488612bb0565b612fb2565b9450505050505b949350505050565b6113fc613ba4565b506040805160208101909152607854815290565b611418613ba4565b6040805160208101918290526084546085546331d98b3f60e01b90935260248201929092529081906001600160a01b03166331d98b3f60448301602060405180830381865afa15801561146f573d6000803e3d6000fd5b505050506040513d601f19601f8201168201806040525081019061149391906140eb565b9052919050565b6114a2613ba4565b506040805160208101909152606554815290565b6114be613ba4565b60408051602080820183526075548252825190810190925260745482526114e59190612e3d565b905090565b336114f3611b34565b6001600160a01b0316146115195760405162461bcd60e51b815260040161098590614060565b61152281612c20565b8051606981905560408051602081019091528190527fe75e3e311afafb466335ae8af3bf1d55443d8937fb5ada14583f4fca729c0fa890610c5a565b611566613ba4565b506040805160208101909152606a54815290565b611582613ba4565b6112e783836001610384612e8b565b3361159a611b34565b6001600160a01b0316146115c05760405162461bcd60e51b815260040161098590614060565b60875460ff600160a01b90910416151581151514611653576087805482158015600160a01b0260ff60a01b199092169190911790915561162557610e10607e544261160b9190613ff3565b61161591906140d7565b61162190610e10614104565b6080555b604051811515907fc15f25c4eb6ac5b9dc23661b850cbdb3ee36aebed198ad870ab929bae77142de90600090a25b50565b3361165f611b34565b6001600160a01b0316146116855760405162461bcd60e51b815260040161098590614060565b61168f6000612fe8565b565b3361169a611b34565b6001600160a01b0316146116c05760405162461bcd60e51b815260040161098590614060565b6001600160a01b0381166117125760405162461bcd60e51b8152602060048201526019602482015278696e76616c696420507269636546656564206164647265737360381b6044820152606401610985565b608480546001600160a01b0319166001600160a01b0383169081179091556040517fe5b20b8497e4f3e2435ef9c20e2e26b47497ee13745ce1c681ad6640653119e690600090a250565b611764613ba4565b608754600160a01b900460ff1661178d5760405162461bcd60e51b815260040161098590613f81565b6086546001600160a01b031633146117b75760405162461bcd60e51b815260040161098590613fa9565b6117cd6117c936869003860186613c96565b5190565b6000036117dc57611307612f2a565b60018560018111156117f0576117f0614095565b0361184f576118076117c936869003860186613c96565b6040805160208082018352606654825282519081019092526074548252611831916117c9916128e8565b101561184f5760405162461bcd60e51b815260040161098590614123565b6000611864866108ab36889003880188613c96565b90506118786117c936869003860186613c96565b1561195d57600086600181111561189157611891614095565b036118fc576118a86117c936869003860186613c96565b815110156118f75760405162461bcd60e51b815260206004820152601c60248201527b2632b9b9903a3430b71036b4b734b6b0b6103130b9b2903a37b5b2b760211b6044820152606401610985565b61195d565b61190e6117c936869003860186613c96565b8151111561195d5760405162461bcd60e51b815260206004820152601c60248201527b26b7b932903a3430b71036b0bc34b6b0b6103130b9b2903a37b5b2b760211b6044820152606401610985565b6119778661197036889003880188613c96565b838661303a565b7fae6a2b946841d9afc0e1e19a94ae4af26f01125b87b5095bbfb177a9741a2ede866119ab6117c936899003890189613c96565b83516040516119bc9392919061414f565b60405180910390a195945050505050565b336119d6611b34565b6001600160a01b0316146119fc5760405162461bcd60e51b815260040161098590614060565b6040805160608101825284815260208101849052018190528251606f55815160705580516071557fd12c16549241d3cde1b026616ce24879c1f8573a0d6e6066d6cb88d339a01f75610fb8845190565b33611a55611b34565b6001600160a01b031614611a7b5760405162461bcd60e51b815260040161098590614060565b611a8481612c20565b6000611a98611a91612ac0565b8390612e5a565b60000b12611af85760405162461bcd60e51b815260206004820152602760248201527f7061727469616c206c697120726174696f2073686f756c64206265206c657373604482015266207468616e203160c81b6064820152608401610985565b8051606a81905560408051602081019091528190527f879382899c61e679db091d48ae2646f0021988fe20a18f21e1b856acbc57bb5c90610c5a565b6033546001600160a01b031690565b600054610100900460ff16611b5e5760005460ff1615611b62565b303b155b611bc55760405162461bcd60e51b815260206004820152602e60248201527f496e697469616c697a61626c653a20636f6e747261637420697320616c72656160448201526d191e481a5b9a5d1a585b1a5e995960921b6064820152608401610985565b600054610100900460ff16158015611be7576000805461ffff19166101011790555b8915801590611bf557508715155b8015611c0057508815155b8015611c0b57508615155b8015611c1f57506001600160a01b03861615155b8015611c3357506001600160a01b03841615155b611c6f5760405162461bcd60e51b815260206004820152600d60248201526c1a5b9d985b1a59081a5b9c1d5d609a1b6044820152606401610985565b611c7761319f565b6040805160208082018352908c905260748c9055815180820183528b905260758b9055815180820183528b815282519182019092528b8152611cb8916128e8565b516076556040805160208082018352908a905260668a905581518082018352849052606584905581519081019091528390526067839055607e879055611cff6002886140d7565b60815561a8c0608355607e54607f556085859055608780546001600160a01b038681166001600160a01b03199283161790925560848054928916929091169190911790556040805160a08101825260748054608083019081528252825160208082018552607580548352818501928352428587018181524360608801908152608880546001810182556000919091529751516004989098026000805160206144768339815191528101989098559451516000805160206144968339815191528801555160008051602061454983398151915287015592516000805160206144e9833981519152909501949094558451808201865292549283905284519081018552925492839052925160008051602061450983398151915293611e2293916140ab565b60405180910390a16040805160208082018352908b9052607c8b905581519081019091528a9052607d8a90558015611e60576000805461ff00191690555b50505050505050505050565b611e74613ba4565b8351600003611e8557611307612f2a565b600080866001811115611e9a57611e9a614095565b149050611ea5613ba4565b611ead613ba4565b611eb5613ba4565b8315611ecc57611ec58689612e03565b9150611ed9565b611ed68689612e20565b91505b8151600003611f225760405162461bcd60e51b8152602060048201526015602482015274062617365206173736574206166746572206973203605c1b6044820152606401610985565b60408051602081019091526076548152611f419083906113cb90612a3f565b92506113e56113e08489612bb0565b600080611f5b611410565b90506000611f67825190565b11611fa75760405162461bcd60e51b815260206004820152601060248201526f0696e64657820707269636520697320360841b6044820152606401610985565b6000611fb16114b6565b90506000611fc96113e0846113cb86610b8487612a3f565b905067016345785d8a0000611fdc825190565b1015935050505090565b33611fef611b34565b6001600160a01b0316146120155760405162461bcd60e51b815260040161098590614060565b608680546001600160a01b0319166001600160a01b0392909216919091179055565b61203f613ba4565b6120516117c936859003850185613c96565b60000361206757612060612f2a565b90506112e7565b6000612071611410565b9050600061207d6114b6565b905060006120986117c984610db06113e086610b8489612a3f565b905060008760018111156120ae576120ae614095565b84518451106120be5760016120c1565b60005b60018111156120d2576120d2614095565b604080516020810190915260655481529114915086156121b6576040805160208101909152606f54908190521580159061211c57506040805160208101909152606f549081905283115b1561215357811561213d5750604080516020810190915260715481526121b6565b50604080516020810190915260705481526121b6565b6040805160208101909152606c54908190521580159061218357506040805160208101909152606c549081905283115b156121b65781156121a457506040805160208101909152606e5481526121b6565b506040805160208101909152606d5481525b6121cf816121c9368b90038b018b613c96565b906128e8565b9998505050505050505050565b336121e5611b34565b6001600160a01b03161461220b5760405162461bcd60e51b815260040161098590614060565b8051606781905560408051602081019091528190527f878cd65339a771e627bc9856c713f02fec044bd7607db61e3858f8d56e4ea4f590610c5a565b61224f613bb7565b506040805160c08101825260655460a0820190815281528151602081810184526068548252808301919091528251808201845260695481528284015282518082018452606a54815260608301528251908101909252606b548252608081019190915290565b336122bd611b34565b6001600160a01b0316146122e35760405162461bcd60e51b815260040161098590614060565b6122ec81612c20565b8051606881905560408051602081019091528190527fd67453718fc57aad470d91be51568530ed02cc941c846cd9e281dc56b300e95e90610c5a565b608754600160a01b900460ff166123515760405162461bcd60e51b815260040161098590613f81565b6086546001600160a01b0316331461237b5760405162461bcd60e51b815260040161098590613fa9565b6123858382612f45565b516072556123938282612f45565b5160738190556040805160208082018352607254918290528251908101909252908290527fc57b3a3cd4f9b755410fcb52f146d4f7e06805a4bafdf9da9f0ec270a90002c991610fbb565b6123e6613ba4565b608754600160a01b900460ff1661240f5760405162461bcd60e51b815260040161098590613f81565b6086546001600160a01b031633146124395760405162461bcd60e51b815260040161098590613fa9565b6113ec8461244c36869003860186613c96565b61245b36869003860186613c96565b6131ce565b612468613ba4565b60408051602080820183526074548252825190810190925260755482526112e79185918591611e6c565b3361249b611b34565b6001600160a01b0316146124c15760405162461bcd60e51b815260040161098590614060565b8060000361250d5760405162461bcd60e51b8152602060048201526019602482015278063616e206e6f742073657420696e74657276616c20746f203603c1b6044820152606401610985565b607f55565b61251a613ba4565b6040805160208101909152607c54815260009061253690612a3f565b6040805160208101909152607d54815290915060009061255590612a3f565b905060006125638284612aa3565b905060006125718385612add565b90506000612580610b1d6114b6565b9050600061258d88612a3f565b905060006125be6125a1610b528688612aa3565b610b786125b1610b528888612aa3565b610b7e610b528789612aa3565b90506121cf6125d0610b528686612add565b610b786125e0610b52888a612add565b610b7e6125f0610b52888a612add565b610b7e8888612aa3565b612602613ba4565b60408051602080820183526074548252825190810190925260755482526112e791859185916112ee565b612634613ba4565b61263c613ba4565b612644613ba4565b608754600160a01b900460ff1661266d5760405162461bcd60e51b815260040161098590613f81565b6086546001600160a01b031633146126975760405162461bcd60e51b815260040161098590613fa9565b6080544210156126e45760405162461bcd60e51b8152602060048201526018602482015277736574746c652066756e64696e6720746f6f206561726c7960401b6044820152606401610985565b6126ef607f54612799565b91506126f9611410565b9050600061270a82610b8485612a3f565b905061272e62015180612728607e54846133a690919063ffffffff16565b90613403565b93506000608154426127409190613ff3565b90506000610e10607e546080546127579190613ff3565b61276191906140d7565b61276d90610e10614104565b905081811161277c578161277e565b805b608055612789612f2a565b51607b5550939492935090919050565b6127a1613ba4565b610e3a82613420565b336127b3611b34565b6001600160a01b0316146127d95760405162461bcd60e51b815260040161098590614060565b6001600160a01b03811661283e5760405162461bcd60e51b815260206004820152602660248201527f4f776e61626c653a206e6577206f776e657220697320746865207a65726f206160448201526564647265737360d01b6064820152608401610985565b61165381612fe8565b61284f613ba4565b815160009061286690670de0b6b3a7640000614104565b9050600060038211156128c957508060006128826002836140d7565b61288d906001613ff3565b90505b818110156128c3579050806002816128a881866140d7565b6128b29190613ff3565b6128bc91906140d7565b9050612890565b506128d3565b81156128d3575060015b60408051602081019091529081529392505050565b6128f0613ba4565b6128f8613ba4565b8251845161290591613452565b81529392505050565b60888054439160009161292390600190614185565b815481106129335761293361419c565b90600052602060002090600402019050806003015482036129605760745481556075546001820155612a01565b6040805160a08101825260745460808201908152815281516020808201845260755482528201908152429282019283526060820185815260888054600181018255600091909152925151600080516020614476833981519152600490940293840155905151600080516020614496833981519152830155915160008051602061454983398151915282015590516000805160206144e9833981519152909101555b6040805160208082018352607454918290528251908101835260755490819052915160008051602061450983398151915292610cf4929142906140ab565b612a47613ba4565b8180600001516001600160ff1b0310156040518060600160405280603381526020016144b66033913990612a8e5760405162461bcd60e51b815260040161098591906141b2565b50506040805160208101909152915182525090565b612aab613ba4565b612ab3613ba4565b8251845161290591613460565b612ac8613ba4565b6040518060200160405280611493601261346e565b612ae5613ba4565b612aed613ba4565b825184516129059161347e565b612b02613ba4565b8151600090612b1990670de0b6b3a7640000614207565b9050600060038213156128c95750806000612b3560028361428c565b612b409060016142ba565b90505b818112156128c357905080600281612b5b818661428c565b612b6591906142ba565b612b6f919061428c565b9050612b43565b612b7e613ba4565b612b86613ba4565b825184516129059161348c565b612b9b613ba4565b612ba3613ba4565b8251845161290591613498565b612bb8613ba4565b8180600001516001600160ff1b0310156040518060600160405280603381526020016144b66033913990612bff5760405162461bcd60e51b815260040161098591906141b2565b50612c08613ba4565b83518551612c1691906142fb565b8152949350505050565b6000612c2d611a91612ac0565b60000b13156116535760405162461bcd60e51b815260206004820152600d60248201526c696e76616c696420726174696f60981b6044820152606401610985565b612c76613ba4565b612c7e613ba4565b6088805490600090612c91600184614185565b81548110612ca157612ca161419c565b60009182526020918290206040805160a081018252600490930290910180546080840190815283528151808501835260018201548152938301939093526002830154908201526003909101546060820181905290915043148015612d055750600182115b15612d7b576088612d17600284614185565b81548110612d2757612d2761419c565b60009182526020918290206040805160a08101825260049093029091018054608084019081528352815180850183526001820154815293830193909352600283015490820152600390910154606082015290505b60208101518151600091612d8f9190612e3d565b60408051602081019091526067548152909150600090612dc290612dbb90612db5612ac0565b90612e03565b83906128e8565b60408051602081019091526067548152909150600090612df590612dee90612de8612ac0565b90612e20565b84906128e8565b919791965090945050505050565b612e0b613ba4565b612e13613ba4565b82518451612905916134a4565b612e28613ba4565b612e30613ba4565b82518451612905916134b0565b612e45613ba4565b612e4d613ba4565b82518451612905916134bc565b805182516000911015612e6f57506001610e3a565b815183511015612e825750600019610e3a565b50600092915050565b612e93613ba4565b612e9b613c03565b6001808252608854612ead9190614185565b60208201526040810151866001811115612ec957612ec9614095565b90816001811115612edc57612edc614095565b905250604080820180516020018790525101846001811115612f0057612f00614095565b90816001811115612f1357612f13614095565b905250612f2081846134ca565b9695505050505050565b612f32613ba4565b5060408051602081019091526000815290565b612f4d613ba4565b8180600001516001600160ff1b0310156040518060600160405280603381526020016144b66033913990612f945760405162461bcd60e51b815260040161098591906141b2565b50612f9d613ba4565b612fa9610b5785612a3f565b95945050505050565b612fba613ba4565b612fc2613ba4565b825160001315612fe0578251612fd99060006142fb565b8152610e3a565b915182525090565b603380546001600160a01b038381166001600160a01b0319831681179093556040519116919082907f8be0079c531659141344cd1fd0a4f28419497f9722a3daafe3b4186f6b6457e090600090a35050565b613046848484846136d8565b600084600181111561305a5761305a614095565b036130fa57604080516020810190915260745481526130799084612e03565b51607455604080516020810190915260755481526130979083612e20565b516075556040805160208101909152607b5481526130b59083612bb0565b51607b55604080516020810190915260795481526130d390836138c6565b516079556040805160208101909152607a5481526130f190846138c6565b51607a55613191565b604080516020810190915260745481526131149084612e20565b51607455604080516020810190915260755481526131329083612e03565b516075556040805160208101909152607b54815261315090836138c6565b51607b556040805160208101909152607954815261316e9083612bb0565b516079556040805160208101909152607a54815261318c9084612bb0565b51607a555b61319961290e565b50505050565b600054610100900460ff166131c65760405162461bcd60e51b81526004016109859061433a565b61168f61392c565b6131d6613ba4565b82516000036131e757612060612f2a565b60018460018111156131fb576131fb614095565b0361324a578251604080516020808201835260665482528251908101909252607554825261322c916117c9916128e8565b101561324a5760405162461bcd60e51b815260040161098590614123565b60006132568585612460565b905060008086600181111561326d5761326d614095565b1461327957600061327c565b60015b9050613286845190565b1561334d57600181600181111561329f5761329f614095565b036132fb578351825110156132f65760405162461bcd60e51b815260206004820152601d60248201527f4c657373207468616e206d696e696d616c2071756f746520746f6b656e0000006044820152606401610985565b61334d565b83518251111561334d5760405162461bcd60e51b815260206004820152601d60248201527f4d6f7265207468616e206d6178696d616c2071756f746520746f6b656e0000006044820152606401610985565b61335a818387600161303a565b7f0dd4066b1a6ce97fb670c3e4201e908c644193f38cbdaffd0229d7e26da3e53386613384845190565b87516040516133959392919061414f565b60405180910390a150949350505050565b6133ae613ba4565b816001600160ff1b0310156040518060600160405280603381526020016144b660339139906133f05760405162461bcd60e51b815260040161098591906141b2565b506133f9613ba4565b6113ec848461395c565b61340b613ba4565b613413613ba4565b835161290590849061428c565b613428613ba4565b613430613c03565b6000815260885461344390600190614185565b60208201526112e781846134ca565b60006112e783836012613979565b60006112e783836012613998565b6000610e3a60ff8316600a614469565b60006112e7838360126139b8565b60006112e782846142ba565b60006112e782846142fb565b60006112e78284613ff3565b60006112e78284614185565b60006112e7838360126139cd565b6134d2613ba4565b60006134dd846139e3565b9050826000036134ee579050610e3a565b60006134fa8442614185565b9050600060888660200151815481106135155761351561419c565b60009182526020918290206040805160a0810182526004909302909101805460808401908152835281518085018352600180830154825294840152600281015491830191909152600301546060820152608854909250148061357b575081816040015111155b1561358b57829350505050610e3a565b6040810151600061359c8242614185565b905060006135aa8683613b6a565b90505b88602001516000036135d0576135c38183613b87565b9650505050505050610e3a565b600189602001516135e19190614185565b60208a018190526088805490919081106135fd576135fd61419c565b60009182526020918290206040805160a0810182526004909302909101805460808401908152835281518085018352600182015481529383019390935260028301549082015260039091015460608201529350613659896139e3565b95508484604001511161368b5761368461367d6136768786614185565b8890613b6a565b8290612e03565b90506136ce565b600084604001518461369d9190614185565b90506136b36136ac8883613b6a565b8390612e03565b91506136bf8184613ff3565b925084604001519350506135ad565b6121cf8189613b87565b60408051602081019091526067549081905215613199576000806136fa612c6e565b604080516020808201835260755482528251908101909252607454825292945090925060009161372a9190612e3d565b905060006137388285612e5a565b60000b13158015613756575060006137508284612e5a565b60000b12155b6137b25760405162461bcd60e51b815260206004820152602760248201527f707269636520697320616c7265616479206f76657220666c756374756174696f6044820152661b881b1a5b5a5d60ca1b6064820152608401610985565b836138bd5760008760018111156137cb576137cb614095565b1461380d5760408051602081019091526075548152613808906137ee9087612e03565b60408051602081019091526074548152610db09089612e20565b613845565b604080516020810190915260755481526138459061382b9087612e20565b60408051602081019091526074548152610db09089612e03565b905060006138538285612e5a565b60000b131580156138715750600061386b8284612e5a565b60000b12155b6138bd5760405162461bcd60e51b815260206004820152601f60248201527f7072696365206973206f76657220666c756374756174696f6e206c696d6974006044820152606401610985565b50505050505050565b6138ce613ba4565b8180600001516001600160ff1b0310156040518060600160405280603381526020016144b660339139906139155760405162461bcd60e51b815260040161098591906141b2565b5061391e613ba4565b83518551612c1691906142ba565b600054610100900460ff166139535760405162461bcd60e51b81526004016109859061433a565b61168f33612fe8565b613964613ba4565b61396c613ba4565b8351612905908490614207565b60006139848261346e565b61398e8486614104565b6113ec91906140d7565b6000826139a48361346e565b6139ae9086614207565b6113ec919061428c565b60006139c38261346e565b6139ae8486614207565b6000826139d98361346e565b61398e9086614104565b6139eb613ba4565b60006088836020015181548110613a0457613a0461419c565b600091825260208083206040805160a08101825260049094029091018054608085019081528452815180840183526001820154815292840192909252600282015490830152600301546060820152915083516001811115613a6757613a67614095565b03613a7c57602081015181516112e791612e3d565b600183516001811115613a9157613a91614095565b03613b2b5760408301516020015151600003613aaf576112e7612f2a565b60008360400151604001516001811115613acb57613acb614095565b03613aed57604083015180516020918201518351928401516112e793906112ee565b60018360400151604001516001811115613b0957613b09614095565b03613b2b57604083015180516020918201518351928401516112e79390611e6c565b60405162461bcd60e51b81526020600482015260146024820152733737ba1039bab83837b93a32b21037b83a34b7b760611b6044820152606401610985565b613b72613ba4565b613b7a613ba4565b8351612905908490614104565b613b8f613ba4565b613b97613ba4565b83516129059084906140d7565b6040518060200160405280600081525090565b6040518060a00160405280613bca613ba4565b8152602001613bd7613ba4565b8152602001613be4613ba4565b8152602001613bf1613ba4565b8152602001613bfe613ba4565b905290565b6040805160608101909152806000815260200160008152602001613bfe60408051606081019091528060008152602001613c3b613ba4565b81526020016000905290565b600060208284031215613c5957600080fd5b604051602081016001600160401b0381118282101715613c8957634e487b7160e01b600052604160045260246000fd5b6040529135825250919050565b600060208284031215613ca857600080fd5b6112e78383613c47565b60008060408385031215613cc557600080fd5b613ccf8484613c47565b9150613cde8460208501613c47565b90509250929050565b803560028110613cf657600080fd5b919050565b60008060408385031215613d0e57600080fd5b613ccf83613ce7565b600060208284031215613d2957600080fd5b5035919050565b600080600060608486031215613d4557600080fd5b613d4f8585613c47565b9250613d5e8560208601613c47565b9150613d6d8560408601613c47565b90509250925092565b60008060008060808587031215613d8c57600080fd5b613d9585613ce7565b9350613da48660208701613c47565b9250613db38660408701613c47565b9150613dc28660608701613c47565b905092959194509250565b80358015158114613cf657600080fd5b600060208284031215613def57600080fd5b6112e782613dcd565b6001600160a01b038116811461165357600080fd5b600060208284031215613e1f57600080fd5b81356112e781613df8565b600060208284031215613e3c57600080fd5b50919050565b60008060008060808587031215613e5857600080fd5b613e6185613ce7565b9350613e708660208701613e2a565b9250613e7f8660408701613e2a565b9150613dc260608601613dcd565b60008060008060008060008060006101208a8c031215613eac57600080fd5b8935985060208a0135975060408a0135965060608a0135955060808a0135613ed381613df8565b945060a08a0135935060c08a0135613eea81613df8565b8093505060e08a013591506101008a013590509295985092959850929598565b600080600060608486031215613f1f57600080fd5b613f2884613ce7565b9250613f378560208601613e2a565b9150613d6d60408501613dcd565b600080600060608486031215613f5a57600080fd5b613f6384613ce7565b9250613f728560208601613e2a565b9150613d6d8560408601613e2a565b6020808252600e908201526d185b5b481dd85cc818db1bdcd95960921b604082015260600190565b6020808252601a908201527963616c6c6572206973206e6f7420636f756e746572506172747960301b604082015260600190565b634e487b7160e01b600052601160045260246000fd5b6000821982111561400657614006613fdd565b500190565b6020808252601890820152771c995c1959c81a5b9d195c9d985b081d1bdbc81cdb585b1b60421b604082015260600190565b948552602085019390935260408401919091526060830152608082015260a00190565b6020808252818101527f4f776e61626c653a2063616c6c6572206973206e6f7420746865206f776e6572604082015260600190565b634e487b7160e01b600052602160045260246000fd5b9283526020830191909152604082015260600190565b634e487b7160e01b600052601260045260246000fd5b6000826140e6576140e66140c1565b500490565b6000602082840312156140fd57600080fd5b5051919050565b600081600019048311821515161561411e5761411e613fdd565b500290565b6020808252601290820152711bdd995c881d1c98591a5b99c81b1a5b5a5d60721b604082015260600190565b606081016002851061417157634e487b7160e01b600052602160045260246000fd5b938152602081019290925260409091015290565b60008282101561419757614197613fdd565b500390565b634e487b7160e01b600052603260045260246000fd5b600060208083528351808285015260005b818110156141df578581018301518582016040015282016141c3565b818111156141f1576000604083870101525b50601f01601f1916929092016040019392505050565b60006001600160ff1b038184138284138082168684048611161561422d5761422d613fdd565b600160ff1b600087128281168783058912161561424c5761424c613fdd565b6000871292508782058712848416161561426857614268613fdd565b8785058712818416161561427e5761427e613fdd565b505050929093029392505050565b60008261429b5761429b6140c1565b600160ff1b8214600019841416156142b5576142b5613fdd565b500590565b600080821280156001600160ff1b03849003851316156142dc576142dc613fdd565b600160ff1b83900384128116156142f5576142f5613fdd565b50500190565b60008083128015600160ff1b85018412161561431957614319613fdd565b6001600160ff1b038401831381161561433457614334613fdd565b50500390565b6020808252602b908201527f496e697469616c697a61626c653a20636f6e7472616374206973206e6f74206960408201526a6e697469616c697a696e6760a81b606082015260800190565b600181815b808511156143c05781600019048211156143a6576143a6613fdd565b808516156143b357918102915b93841c939080029061438a565b509250929050565b6000826143d757506001610e3a565b816143e457506000610e3a565b81600181146143fa576002811461440457614420565b6001915050610e3a565b60ff84111561441557614415613fdd565b50506001821b610e3a565b5060208310610133831016604e8410600b8410161715614443575081810a610e3a565b61444d8383614385565b806000190482111561446157614461613fdd565b029392505050565b60006112e783836143c856fe7ef464cf5a521d70c933977510816a0355b91a50eca2778837fb82da8448ecf67ef464cf5a521d70c933977510816a0355b91a50eca2778837fb82da8448ecf74d69786564446563696d616c3a2075696e742076616c756520697320626967676572207468616e205f494e543235365f4d41587ef464cf5a521d70c933977510816a0355b91a50eca2778837fb82da8448ecf93a3348362552c3897fd1f06a3233519ebd8bd76ad6e99a418a9741155fe90515f793c87aa8955ca27e2a318cdc9a5c97d6196b4eab42c2a9265c97e5ff2443067ef464cf5a521d70c933977510816a0355b91a50eca2778837fb82da8448ecf8a26469706673582212208806777a262fc4928c047f5f08393f34cd2a898c69808d1e179609c0a8379bdc64736f6c634300080d0033",
    "linkReferences": {},
    "deployedLinkReferences": {}
}