{
    "abi": [
        {
            "inputs": [
                {
                    "internalType": "address",
                    "name": "_priceFeed",
                    "type": "address"
                },
                {
                    "internalType": "address",
                    "name": "_clearingHouse",
                    "type": "address"
                }
            ],
            "stateMutability": "nonpayable",
            "type": "constructor"
        },
        {
            "inputs": [],
            "name": "BASE_RESERVE_IS_ZERO",
            "type": "error"
        },
        {
            "inputs": [],
            "name": "FUNDING_INTERVAL_NOT_PASSED",
            "type": "error"
        },
        {
            "inputs": [],
            "name": "INACTIVE",
            "type": "error"
        },
        {
            "inputs": [],
            "name": "INVALID_RATIO",
            "type": "error"
        },
        {
            "inputs": [],
            "name": "NOT_CLEARING_HOUSE",
            "type": "error"
        },
        {
            "inputs": [],
            "name": "NOT_POSITION_MANAGER",
            "type": "error"
        },
        {
            "inputs": [],
            "name": "NewOwnerIsZeroAddress",
            "type": "error"
        },
        {
            "inputs": [],
            "name": "NoHandoverRequest",
            "type": "error"
        },
        {
            "inputs": [],
            "name": "OVER_MAX_BASE",
            "type": "error"
        },
        {
            "inputs": [],
            "name": "OVER_MAX_QUOTE",
            "type": "error"
        },
        {
            "inputs": [],
            "name": "OVER_TRADING_LIMIT",
            "type": "error"
        },
        {
            "inputs": [],
            "name": "PRICE_OVER_FLUCTUATION_LIMIT",
            "type": "error"
        },
        {
            "inputs": [],
            "name": "QUOTE_RESERVE_IS_ZERO",
            "type": "error"
        },
        {
            "inputs": [],
            "name": "UNDER_MIN_BASE",
            "type": "error"
        },
        {
            "inputs": [],
            "name": "UNDER_MIN_LIQUIDITY",
            "type": "error"
        },
        {
            "inputs": [],
            "name": "UNDER_MIN_QUOTE",
            "type": "error"
        },
        {
            "inputs": [],
            "name": "Unauthorized",
            "type": "error"
        },
        {
            "anonymous": false,
            "inputs": [
                {
                    "indexed": false,
                    "internalType": "uint256",
                    "name": "newAMMFeeRatio",
                    "type": "uint256"
                }
            ],
            "name": "AMMFeeRatioChanged",
            "type": "event"
        },
        {
            "anonymous": false,
            "inputs": [
                {
                    "indexed": false,
                    "internalType": "uint256",
                    "name": "newFeeRatio",
                    "type": "uint256"
                }
            ],
            "name": "BaseFeeRatioChanged",
            "type": "event"
        },
        {
            "anonymous": false,
            "inputs": [
                {
                    "indexed": false,
                    "internalType": "uint256",
                    "name": "maxHoldingBaseAsset",
                    "type": "uint256"
                },
                {
                    "indexed": false,
                    "internalType": "uint256",
                    "name": "openInterestNotionalCap",
                    "type": "uint256"
                }
            ],
            "name": "CapChanged",
            "type": "event"
        },
        {
            "anonymous": false,
            "inputs": [
                {
                    "indexed": false,
                    "internalType": "uint256",
                    "name": "ratio",
                    "type": "uint256"
                }
            ],
            "name": "FluctuationLimitRatioChanged",
            "type": "event"
        },
        {
            "anonymous": false,
            "inputs": [
                {
                    "indexed": false,
                    "internalType": "uint256",
                    "name": "fundingPeriod",
                    "type": "uint256"
                }
            ],
            "name": "FundingPeriodChanged",
            "type": "event"
        },
        {
            "anonymous": false,
            "inputs": [
                {
                    "indexed": false,
                    "internalType": "int256",
                    "name": "fundingRate",
                    "type": "int256"
                },
                {
                    "indexed": false,
                    "internalType": "uint256",
                    "name": "price",
                    "type": "uint256"
                }
            ],
            "name": "FundingRateUpdated",
            "type": "event"
        },
        {
            "anonymous": false,
            "inputs": [
                {
                    "indexed": false,
                    "internalType": "uint256",
                    "name": "ratio",
                    "type": "uint256"
                }
            ],
            "name": "InitMarginRatioChanged",
            "type": "event"
        },
        {
            "anonymous": false,
            "inputs": [
                {
                    "indexed": false,
                    "internalType": "uint8",
                    "name": "version",
                    "type": "uint8"
                }
            ],
            "name": "Initialized",
            "type": "event"
        },
        {
            "anonymous": false,
            "inputs": [
                {
                    "indexed": false,
                    "internalType": "uint256",
                    "name": "newKeeperFeeRatio",
                    "type": "uint256"
                }
            ],
            "name": "KeeperFeeRatioChanged",
            "type": "event"
        },
        {
            "anonymous": false,
            "inputs": [
                {
                    "indexed": false,
                    "internalType": "uint256",
                    "name": "divergenceThresholdRatio",
                    "type": "uint256"
                },
                {
                    "indexed": false,
                    "internalType": "uint256",
                    "name": "feeRatio",
                    "type": "uint256"
                },
                {
                    "indexed": false,
                    "internalType": "uint256",
                    "name": "feeInFavorRatio",
                    "type": "uint256"
                }
            ],
            "name": "Level1DynamicFeeSettingsChanged",
            "type": "event"
        },
        {
            "anonymous": false,
            "inputs": [
                {
                    "indexed": false,
                    "internalType": "uint256",
                    "name": "divergenceThresholdRatio",
                    "type": "uint256"
                },
                {
                    "indexed": false,
                    "internalType": "uint256",
                    "name": "feeRatio",
                    "type": "uint256"
                },
                {
                    "indexed": false,
                    "internalType": "uint256",
                    "name": "feeInFavorRatio",
                    "type": "uint256"
                }
            ],
            "name": "Level2DynamicFeeSettingsChanged",
            "type": "event"
        },
        {
            "anonymous": false,
            "inputs": [
                {
                    "indexed": false,
                    "internalType": "uint256",
                    "name": "newLiquidatorFeeRatio",
                    "type": "uint256"
                }
            ],
            "name": "LimitMakerFeeRatioChanged",
            "type": "event"
        },
        {
            "anonymous": false,
            "inputs": [
                {
                    "indexed": false,
                    "internalType": "uint256",
                    "name": "ratio",
                    "type": "uint256"
                }
            ],
            "name": "LiquidationFeeRatioChanged",
            "type": "event"
        },
        {
            "anonymous": false,
            "inputs": [
                {
                    "indexed": false,
                    "internalType": "uint256",
                    "name": "quoteAmount",
                    "type": "uint256"
                },
                {
                    "indexed": false,
                    "internalType": "uint256",
                    "name": "baseAmount",
                    "type": "uint256"
                },
                {
                    "indexed": false,
                    "internalType": "uint256",
                    "name": "liquidityAdded",
                    "type": "uint256"
                },
                {
                    "indexed": false,
                    "internalType": "uint256",
                    "name": "quoteReserve",
                    "type": "uint256"
                },
                {
                    "indexed": false,
                    "internalType": "uint256",
                    "name": "baseReserve",
                    "type": "uint256"
                },
                {
                    "indexed": false,
                    "internalType": "uint256",
                    "name": "liquidityTotal",
                    "type": "uint256"
                }
            ],
            "name": "LiquidityAdded",
            "type": "event"
        },
        {
            "anonymous": false,
            "inputs": [
                {
                    "indexed": false,
                    "internalType": "uint256",
                    "name": "quoteAmount",
                    "type": "uint256"
                },
                {
                    "indexed": false,
                    "internalType": "uint256",
                    "name": "baseAmount",
                    "type": "uint256"
                },
                {
                    "indexed": false,
                    "internalType": "uint256",
                    "name": "liquidityRemoved",
                    "type": "uint256"
                },
                {
                    "indexed": false,
                    "internalType": "uint256",
                    "name": "quoteReserve",
                    "type": "uint256"
                },
                {
                    "indexed": false,
                    "internalType": "uint256",
                    "name": "baseReserve",
                    "type": "uint256"
                },
                {
                    "indexed": false,
                    "internalType": "uint256",
                    "name": "liquidityTotal",
                    "type": "uint256"
                }
            ],
            "name": "LiquidityRemoved",
            "type": "event"
        },
        {
            "anonymous": false,
            "inputs": [
                {
                    "indexed": false,
                    "internalType": "uint256",
                    "name": "ratio",
                    "type": "uint256"
                }
            ],
            "name": "MaintenanceMarginRatioChanged",
            "type": "event"
        },
        {
            "anonymous": false,
            "inputs": [
                {
                    "indexed": false,
                    "internalType": "uint256",
                    "name": "quoteAssetReserve",
                    "type": "uint256"
                },
                {
                    "indexed": false,
                    "internalType": "uint256",
                    "name": "baseAssetReserve",
                    "type": "uint256"
                },
                {
                    "indexed": false,
                    "internalType": "uint256",
                    "name": "timestamp",
                    "type": "uint256"
                }
            ],
            "name": "NewReserveSnapshot",
            "type": "event"
        },
        {
            "anonymous": false,
            "inputs": [
                {
                    "indexed": true,
                    "internalType": "address",
                    "name": "pendingOwner",
                    "type": "address"
                }
            ],
            "name": "OwnershipHandoverCanceled",
            "type": "event"
        },
        {
            "anonymous": false,
            "inputs": [
                {
                    "indexed": true,
                    "internalType": "address",
                    "name": "pendingOwner",
                    "type": "address"
                }
            ],
            "name": "OwnershipHandoverRequested",
            "type": "event"
        },
        {
            "anonymous": false,
            "inputs": [
                {
                    "indexed": true,
                    "internalType": "address",
                    "name": "oldOwner",
                    "type": "address"
                },
                {
                    "indexed": true,
                    "internalType": "address",
                    "name": "newOwner",
                    "type": "address"
                }
            ],
            "name": "OwnershipTransferred",
            "type": "event"
        },
        {
            "anonymous": false,
            "inputs": [
                {
                    "indexed": false,
                    "internalType": "uint256",
                    "name": "ratio",
                    "type": "uint256"
                }
            ],
            "name": "PartialLiquidationRatioChanged",
            "type": "event"
        },
        {
            "anonymous": false,
            "inputs": [
                {
                    "indexed": false,
                    "internalType": "enum Dir",
                    "name": "dirOfBase",
                    "type": "uint8"
                },
                {
                    "indexed": false,
                    "internalType": "uint256",
                    "name": "quoteAmount",
                    "type": "uint256"
                },
                {
                    "indexed": false,
                    "internalType": "uint256",
                    "name": "baseAmount",
                    "type": "uint256"
                }
            ],
            "name": "SwapClose",
            "type": "event"
        },
        {
            "anonymous": false,
            "inputs": [
                {
                    "indexed": false,
                    "internalType": "enum Dir",
                    "name": "dirOfQuote",
                    "type": "uint8"
                },
                {
                    "indexed": false,
                    "internalType": "uint256",
                    "name": "quoteAmount",
                    "type": "uint256"
                },
                {
                    "indexed": false,
                    "internalType": "uint256",
                    "name": "baseAmount",
                    "type": "uint256"
                }
            ],
            "name": "SwapOpen",
            "type": "event"
        },
        {
            "anonymous": false,
            "inputs": [
                {
                    "indexed": false,
                    "internalType": "uint256",
                    "name": "ratio",
                    "type": "uint256"
                }
            ],
            "name": "TradeLimitRatioChanged",
            "type": "event"
        },
        {
            "inputs": [
                {
                    "internalType": "uint256",
                    "name": "notional",
                    "type": "uint256"
                },
                {
                    "internalType": "uint256",
                    "name": "minLiquidity",
                    "type": "uint256"
                }
            ],
            "name": "addLiquidity",
            "outputs": [
                {
                    "internalType": "uint256",
                    "name": "liquidity",
                    "type": "uint256"
                },
                {
                    "internalType": "uint256",
                    "name": "quoteAmount",
                    "type": "uint256"
                },
                {
                    "internalType": "uint256",
                    "name": "baseAmount",
                    "type": "uint256"
                },
                {
                    "internalType": "int256",
                    "name": "tps",
                    "type": "int256"
                }
            ],
            "stateMutability": "nonpayable",
            "type": "function"
        },
        {
            "inputs": [
                {
                    "internalType": "uint256",
                    "name": "notional",
                    "type": "uint256"
                },
                {
                    "internalType": "uint256",
                    "name": "minLiquidity",
                    "type": "uint256"
                }
            ],
            "name": "addLiquidityH",
            "outputs": [
                {
                    "internalType": "uint256",
                    "name": "liquidity",
                    "type": "uint256"
                },
                {
                    "internalType": "uint256",
                    "name": "quoteAmount",
                    "type": "uint256"
                },
                {
                    "internalType": "uint256",
                    "name": "baseAmount",
                    "type": "uint256"
                }
            ],
            "stateMutability": "nonpayable",
            "type": "function"
        },
        {
            "inputs": [
                {
                    "internalType": "uint256",
                    "name": "quoteAmount",
                    "type": "uint256"
                }
            ],
            "name": "calcLimitFee",
            "outputs": [
                {
                    "internalType": "uint256",
                    "name": "limitFee",
                    "type": "uint256"
                }
            ],
            "stateMutability": "view",
            "type": "function"
        },
        {
            "inputs": [],
            "name": "cancelOwnershipHandover",
            "outputs": [],
            "stateMutability": "payable",
            "type": "function"
        },
        {
            "inputs": [],
            "name": "clearingHouse",
            "outputs": [
                {
                    "internalType": "address",
                    "name": "",
                    "type": "address"
                }
            ],
            "stateMutability": "view",
            "type": "function"
        },
        {
            "inputs": [
                {
                    "internalType": "address",
                    "name": "pendingOwner",
                    "type": "address"
                }
            ],
            "name": "completeOwnershipHandover",
            "outputs": [],
            "stateMutability": "payable",
            "type": "function"
        },
        {
            "inputs": [
                {
                    "internalType": "uint256",
                    "name": "targetPrice",
                    "type": "uint256"
                }
            ],
            "name": "getBaseToFill",
            "outputs": [
                {
                    "internalType": "uint256",
                    "name": "",
                    "type": "uint256"
                }
            ],
            "stateMutability": "view",
            "type": "function"
        },
        {
            "inputs": [],
            "name": "getFeeRatios",
            "outputs": [
                {
                    "components": [
                        {
                            "internalType": "uint256",
                            "name": "feeRatio",
                            "type": "uint256"
                        },
                        {
                            "internalType": "uint256",
                            "name": "ammFeeRatio",
                            "type": "uint256"
                        },
                        {
                            "internalType": "uint256",
                            "name": "limitMakerFeeRatio",
                            "type": "uint256"
                        },
                        {
                            "internalType": "uint256",
                            "name": "keeperFeeRatio",
                            "type": "uint256"
                        },
                        {
                            "internalType": "uint256",
                            "name": "liquidationFeeRatio",
                            "type": "uint256"
                        }
                    ],
                    "internalType": "struct FeeRatios",
                    "name": "",
                    "type": "tuple"
                }
            ],
            "stateMutability": "view",
            "type": "function"
        },
        {
            "inputs": [],
            "name": "getFluctuationLimitRatio",
            "outputs": [
                {
                    "internalType": "uint256",
                    "name": "",
                    "type": "uint256"
                }
            ],
            "stateMutability": "view",
            "type": "function"
        },
        {
            "inputs": [],
            "name": "getFundingPeriod",
            "outputs": [
                {
                    "internalType": "uint256",
                    "name": "",
                    "type": "uint256"
                }
            ],
            "stateMutability": "view",
            "type": "function"
        },
        {
            "inputs": [],
            "name": "getIndexPrice",
            "outputs": [
                {
                    "internalType": "uint256",
                    "name": "",
                    "type": "uint256"
                }
            ],
            "stateMutability": "view",
            "type": "function"
        },
        {
            "inputs": [
                {
                    "internalType": "enum Dir",
                    "name": "dirOfQuote",
                    "type": "uint8"
                },
                {
                    "internalType": "uint256",
                    "name": "quoteAmount",
                    "type": "uint256"
                }
            ],
            "name": "getInputPrice",
            "outputs": [
                {
                    "internalType": "uint256",
                    "name": "baseAmount",
                    "type": "uint256"
                }
            ],
            "stateMutability": "view",
            "type": "function"
        },
        {
            "inputs": [
                {
                    "internalType": "uint256",
                    "name": "liquidity",
                    "type": "uint256"
                }
            ],
            "name": "getMakerPositionNotional",
            "outputs": [
                {
                    "internalType": "uint256",
                    "name": "positionNotional",
                    "type": "uint256"
                }
            ],
            "stateMutability": "view",
            "type": "function"
        },
        {
            "inputs": [
                {
                    "internalType": "uint256",
                    "name": "liquidity",
                    "type": "uint256"
                }
            ],
            "name": "getMakerValueTotalLiquidityTPS",
            "outputs": [
                {
                    "internalType": "uint256",
                    "name": "quoteAmount",
                    "type": "uint256"
                },
                {
                    "internalType": "uint256",
                    "name": "baseAmount",
                    "type": "uint256"
                },
                {
                    "internalType": "uint256",
                    "name": "totalLiquidity_",
                    "type": "uint256"
                },
                {
                    "internalType": "int256",
                    "name": "tps",
                    "type": "int256"
                }
            ],
            "stateMutability": "view",
            "type": "function"
        },
        {
            "inputs": [],
            "name": "getMarginRatio",
            "outputs": [
                {
                    "internalType": "uint256",
                    "name": "",
                    "type": "uint256"
                }
            ],
            "stateMutability": "view",
            "type": "function"
        },
        {
            "inputs": [],
            "name": "getMarkPrice",
            "outputs": [
                {
                    "internalType": "uint256",
                    "name": "",
                    "type": "uint256"
                }
            ],
            "stateMutability": "view",
            "type": "function"
        },
        {
            "inputs": [
                {
                    "internalType": "enum Dir",
                    "name": "dirOfBase",
                    "type": "uint8"
                },
                {
                    "internalType": "uint256",
                    "name": "baseAmount",
                    "type": "uint256"
                }
            ],
            "name": "getMarkPriceAfterClose",
            "outputs": [
                {
                    "internalType": "uint256",
                    "name": "",
                    "type": "uint256"
                }
            ],
            "stateMutability": "view",
            "type": "function"
        },
        {
            "inputs": [
                {
                    "internalType": "enum Dir",
                    "name": "dirOfQuote",
                    "type": "uint8"
                },
                {
                    "internalType": "uint256",
                    "name": "quoteAmount",
                    "type": "uint256"
                }
            ],
            "name": "getMarkPriceAfterOpen",
            "outputs": [
                {
                    "internalType": "uint256",
                    "name": "",
                    "type": "uint256"
                }
            ],
            "stateMutability": "view",
            "type": "function"
        },
        {
            "inputs": [],
            "name": "getMaxSize",
            "outputs": [
                {
                    "internalType": "uint256",
                    "name": "",
                    "type": "uint256"
                }
            ],
            "stateMutability": "view",
            "type": "function"
        },
        {
            "inputs": [],
            "name": "getOpenInterestCap",
            "outputs": [
                {
                    "internalType": "uint256",
                    "name": "",
                    "type": "uint256"
                }
            ],
            "stateMutability": "view",
            "type": "function"
        },
        {
            "inputs": [],
            "name": "getOpenMarginRatio",
            "outputs": [
                {
                    "internalType": "uint256",
                    "name": "",
                    "type": "uint256"
                }
            ],
            "stateMutability": "view",
            "type": "function"
        },
        {
            "inputs": [
                {
                    "internalType": "enum Dir",
                    "name": "dirOfBase",
                    "type": "uint8"
                },
                {
                    "internalType": "uint256",
                    "name": "baseAmount",
                    "type": "uint256"
                }
            ],
            "name": "getOutputPrice",
            "outputs": [
                {
                    "internalType": "uint256",
                    "name": "",
                    "type": "uint256"
                }
            ],
            "stateMutability": "view",
            "type": "function"
        },
        {
            "inputs": [],
            "name": "getPartialLiquidationRatio",
            "outputs": [
                {
                    "internalType": "uint256",
                    "name": "",
                    "type": "uint256"
                }
            ],
            "stateMutability": "view",
            "type": "function"
        },
        {
            "inputs": [
                {
                    "internalType": "uint256",
                    "name": "targetPrice",
                    "type": "uint256"
                }
            ],
            "name": "getQuoteToFill",
            "outputs": [
                {
                    "internalType": "uint256",
                    "name": "",
                    "type": "uint256"
                }
            ],
            "stateMutability": "view",
            "type": "function"
        },
        {
            "inputs": [],
            "name": "getRatios",
            "outputs": [
                {
                    "components": [
                        {
                            "internalType": "uint256",
                            "name": "feeRatio",
                            "type": "uint256"
                        },
                        {
                            "internalType": "uint256",
                            "name": "initMarginRatio",
                            "type": "uint256"
                        },
                        {
                            "internalType": "uint256",
                            "name": "maintenanceMarginRatio",
                            "type": "uint256"
                        },
                        {
                            "internalType": "uint256",
                            "name": "partialLiquidationRatio",
                            "type": "uint256"
                        },
                        {
                            "internalType": "uint256",
                            "name": "liquidationFeeRatio",
                            "type": "uint256"
                        }
                    ],
                    "internalType": "struct Ratios",
                    "name": "",
                    "type": "tuple"
                }
            ],
            "stateMutability": "view",
            "type": "function"
        },
        {
            "inputs": [],
            "name": "getReserves",
            "outputs": [
                {
                    "internalType": "uint256",
                    "name": "",
                    "type": "uint256"
                },
                {
                    "internalType": "uint256",
                    "name": "",
                    "type": "uint256"
                }
            ],
            "stateMutability": "view",
            "type": "function"
        },
        {
            "inputs": [],
            "name": "getReservesAndK",
            "outputs": [
                {
                    "internalType": "uint256",
                    "name": "",
                    "type": "uint256"
                },
                {
                    "internalType": "uint256",
                    "name": "",
                    "type": "uint256"
                },
                {
                    "internalType": "uint256",
                    "name": "",
                    "type": "uint256"
                }
            ],
            "stateMutability": "view",
            "type": "function"
        },
        {
            "inputs": [],
            "name": "getReservesAndTotalLiquidity",
            "outputs": [
                {
                    "internalType": "uint256",
                    "name": "",
                    "type": "uint256"
                },
                {
                    "internalType": "uint256",
                    "name": "",
                    "type": "uint256"
                },
                {
                    "internalType": "uint256",
                    "name": "",
                    "type": "uint256"
                }
            ],
            "stateMutability": "view",
            "type": "function"
        },
        {
            "inputs": [],
            "name": "getTotalLiquidity",
            "outputs": [
                {
                    "internalType": "uint256",
                    "name": "",
                    "type": "uint256"
                }
            ],
            "stateMutability": "view",
            "type": "function"
        },
        {
            "inputs": [],
            "name": "getTotalPositionSize",
            "outputs": [
                {
                    "internalType": "int256",
                    "name": "",
                    "type": "int256"
                }
            ],
            "stateMutability": "view",
            "type": "function"
        },
        {
            "inputs": [],
            "name": "getTradeLimitRatio",
            "outputs": [
                {
                    "internalType": "uint256",
                    "name": "",
                    "type": "uint256"
                }
            ],
            "stateMutability": "view",
            "type": "function"
        },
        {
            "inputs": [
                {
                    "internalType": "address",
                    "name": "_owner",
                    "type": "address"
                },
                {
                    "internalType": "uint256",
                    "name": "_initializationPrice",
                    "type": "uint256"
                },
                {
                    "internalType": "uint256",
                    "name": "_tradeLimitRatio",
                    "type": "uint256"
                },
                {
                    "internalType": "uint256",
                    "name": "_fundingPeriod",
                    "type": "uint256"
                },
                {
                    "internalType": "uint256",
                    "name": "_fluctuationLimitRatio",
                    "type": "uint256"
                },
                {
                    "internalType": "uint256",
                    "name": "_feeRatio",
                    "type": "uint256"
                },
                {
                    "internalType": "uint256",
                    "name": "_ammFeeRatio",
                    "type": "uint256"
                },
                {
                    "internalType": "uint256",
                    "name": "_limitMakerFeeRatio",
                    "type": "uint256"
                },
                {
                    "internalType": "uint256",
                    "name": "_keeperFeeRatio",
                    "type": "uint256"
                },
                {
                    "internalType": "uint256",
                    "name": "_liquidationFeeRatio",
                    "type": "uint256"
                }
            ],
            "name": "initialize",
            "outputs": [],
            "stateMutability": "nonpayable",
            "type": "function"
        },
        {
            "inputs": [],
            "name": "owner",
            "outputs": [
                {
                    "internalType": "address",
                    "name": "result",
                    "type": "address"
                }
            ],
            "stateMutability": "view",
            "type": "function"
        },
        {
            "inputs": [
                {
                    "internalType": "address",
                    "name": "pendingOwner",
                    "type": "address"
                }
            ],
            "name": "ownershipHandoverExpiresAt",
            "outputs": [
                {
                    "internalType": "uint256",
                    "name": "result",
                    "type": "uint256"
                }
            ],
            "stateMutability": "view",
            "type": "function"
        },
        {
            "inputs": [],
            "name": "ownershipHandoverValidFor",
            "outputs": [
                {
                    "internalType": "uint64",
                    "name": "",
                    "type": "uint64"
                }
            ],
            "stateMutability": "view",
            "type": "function"
        },
        {
            "inputs": [],
            "name": "priceFeed",
            "outputs": [
                {
                    "internalType": "contract IPriceFeed",
                    "name": "",
                    "type": "address"
                }
            ],
            "stateMutability": "view",
            "type": "function"
        },
        {
            "inputs": [
                {
                    "internalType": "uint256",
                    "name": "liquidity",
                    "type": "uint256"
                },
                {
                    "internalType": "uint256",
                    "name": "makerLiquidity",
                    "type": "uint256"
                }
            ],
            "name": "removeLiquidity",
            "outputs": [
                {
                    "internalType": "uint256",
                    "name": "quoteAmount",
                    "type": "uint256"
                },
                {
                    "internalType": "uint256",
                    "name": "baseAmount",
                    "type": "uint256"
                }
            ],
            "stateMutability": "nonpayable",
            "type": "function"
        },
        {
            "inputs": [],
            "name": "renounceOwnership",
            "outputs": [],
            "stateMutability": "payable",
            "type": "function"
        },
        {
            "inputs": [],
            "name": "requestOwnershipHandover",
            "outputs": [],
            "stateMutability": "payable",
            "type": "function"
        },
        {
            "inputs": [
                {
                    "internalType": "uint256",
                    "name": "_ammFeeRatio",
                    "type": "uint256"
                }
            ],
            "name": "setAMMFeeRatio",
            "outputs": [],
            "stateMutability": "nonpayable",
            "type": "function"
        },
        {
            "inputs": [
                {
                    "internalType": "uint256",
                    "name": "_maxHoldingBaseAsset",
                    "type": "uint256"
                },
                {
                    "internalType": "uint256",
                    "name": "_openInterestNotionalCap",
                    "type": "uint256"
                }
            ],
            "name": "setCap",
            "outputs": [],
            "stateMutability": "nonpayable",
            "type": "function"
        },
        {
            "inputs": [
                {
                    "internalType": "uint256",
                    "name": "_feeRatio",
                    "type": "uint256"
                }
            ],
            "name": "setFeeRatio",
            "outputs": [],
            "stateMutability": "nonpayable",
            "type": "function"
        },
        {
            "inputs": [
                {
                    "internalType": "uint256",
                    "name": "_fluctuationLimitRatio",
                    "type": "uint256"
                }
            ],
            "name": "setFluctationLimitRatio",
            "outputs": [],
            "stateMutability": "nonpayable",
            "type": "function"
        },
        {
            "inputs": [
                {
                    "internalType": "uint256",
                    "name": "_fundingPeriod",
                    "type": "uint256"
                }
            ],
            "name": "setFundingPeriod",
            "outputs": [],
            "stateMutability": "nonpayable",
            "type": "function"
        },
        {
            "inputs": [
                {
                    "internalType": "uint256",
                    "name": "_initMarginRatio",
                    "type": "uint256"
                }
            ],
            "name": "setInitMarginRatio",
            "outputs": [],
            "stateMutability": "nonpayable",
            "type": "function"
        },
        {
            "inputs": [
                {
                    "internalType": "uint256",
                    "name": "_keeperFeeRatio",
                    "type": "uint256"
                }
            ],
            "name": "setKeeperFeeRatio",
            "outputs": [],
            "stateMutability": "nonpayable",
            "type": "function"
        },
        {
            "inputs": [
                {
                    "internalType": "uint256",
                    "name": "_divergenceThresholdRatio",
                    "type": "uint256"
                },
                {
                    "internalType": "uint256",
                    "name": "_feeRatio",
                    "type": "uint256"
                },
                {
                    "internalType": "uint256",
                    "name": "_feeInFavorRatio",
                    "type": "uint256"
                }
            ],
            "name": "setLevel1DynamicFeeSettings",
            "outputs": [],
            "stateMutability": "nonpayable",
            "type": "function"
        },
        {
            "inputs": [
                {
                    "internalType": "uint256",
                    "name": "_divergenceThresholdRatio",
                    "type": "uint256"
                },
                {
                    "internalType": "uint256",
                    "name": "_feeRatio",
                    "type": "uint256"
                },
                {
                    "internalType": "uint256",
                    "name": "_feeInFavorRatio",
                    "type": "uint256"
                }
            ],
            "name": "setLevel2DynamicFeeSettings",
            "outputs": [],
            "stateMutability": "nonpayable",
            "type": "function"
        },
        {
            "inputs": [
                {
                    "internalType": "uint256",
                    "name": "_limitMakerFeeRatio",
                    "type": "uint256"
                }
            ],
            "name": "setLimitMakerFeeRatio",
            "outputs": [],
            "stateMutability": "nonpayable",
            "type": "function"
        },
        {
            "inputs": [
                {
                    "internalType": "uint256",
                    "name": "_liquidationFeeRatio",
                    "type": "uint256"
                }
            ],
            "name": "setLiquidationFeeRatio",
            "outputs": [],
            "stateMutability": "nonpayable",
            "type": "function"
        },
        {
            "inputs": [
                {
                    "internalType": "uint256",
                    "name": "_maintenanceMarginRatio",
                    "type": "uint256"
                }
            ],
            "name": "setMaintenanceMarginRatio",
            "outputs": [],
            "stateMutability": "nonpayable",
            "type": "function"
        },
        {
            "inputs": [
                {
                    "internalType": "uint256",
                    "name": "_partialLiquidationRatio",
                    "type": "uint256"
                }
            ],
            "name": "setPartialLiquidationRatio",
            "outputs": [],
            "stateMutability": "nonpayable",
            "type": "function"
        },
        {
            "inputs": [
                {
                    "internalType": "uint256",
                    "name": "_tradeLimitRatio",
                    "type": "uint256"
                }
            ],
            "name": "setTradeLimitRatio",
            "outputs": [],
            "stateMutability": "nonpayable",
            "type": "function"
        },
        {
            "inputs": [],
            "name": "settleFunding",
            "outputs": [
                {
                    "internalType": "int256",
                    "name": "premiumFraction",
                    "type": "int256"
                },
                {
                    "internalType": "uint256",
                    "name": "markPrice",
                    "type": "uint256"
                },
                {
                    "internalType": "uint256",
                    "name": "indexPrice",
                    "type": "uint256"
                }
            ],
            "stateMutability": "nonpayable",
            "type": "function"
        },
        {
            "inputs": [
                {
                    "internalType": "enum Dir",
                    "name": "dirOfBase",
                    "type": "uint8"
                },
                {
                    "internalType": "uint256",
                    "name": "baseAmount",
                    "type": "uint256"
                }
            ],
            "name": "swapClose",
            "outputs": [
                {
                    "internalType": "uint256",
                    "name": "quoteAmount",
                    "type": "uint256"
                }
            ],
            "stateMutability": "nonpayable",
            "type": "function"
        },
        {
            "inputs": [
                {
                    "internalType": "enum Dir",
                    "name": "dirOfQuote",
                    "type": "uint8"
                },
                {
                    "internalType": "uint256",
                    "name": "quoteAmount",
                    "type": "uint256"
                },
                {
                    "internalType": "bool",
                    "name": "fluctuationOverride",
                    "type": "bool"
                }
            ],
            "name": "swapOpen",
            "outputs": [
                {
                    "internalType": "uint256",
                    "name": "baseAmount",
                    "type": "uint256"
                }
            ],
            "stateMutability": "nonpayable",
            "type": "function"
        },
        {
            "inputs": [
                {
                    "internalType": "address",
                    "name": "newOwner",
                    "type": "address"
                }
            ],
            "name": "transferOwnership",
            "outputs": [],
            "stateMutability": "payable",
            "type": "function"
        }
    ],
    "bytecode": {
        "object": "0x60c06040523480156200001157600080fd5b5060405162002e6538038062002e65833981016040819052620000349162000137565b6001600160a01b03808216608052821660a0526200005162000059565b50506200016f565b600054610100900460ff1615620000c65760405162461bcd60e51b815260206004820152602760248201527f496e697469616c697a61626c653a20636f6e747261637420697320696e697469604482015266616c697a696e6760c81b606482015260840160405180910390fd5b60005460ff9081161462000118576000805460ff191660ff9081179091556040519081527f7f26b83ff96e1f2b6a682f133852f6798a09c465da95921460cefb38474024989060200160405180910390a15b565b80516001600160a01b03811681146200013257600080fd5b919050565b600080604083850312156200014b57600080fd5b62000156836200011a565b915062000166602084016200011a565b90509250929050565b60805160a051612cbb620001aa6000396000818161073601528181611006015261196a0152600081816103dd0152611d250152612cbb6000f3fe6080604052600436106103765760003560e01c80636d206d6d116101d1578063c5745e8611610102578063e2559a83116100a0578063f36bdbc91161006f578063f36bdbc9146109ae578063fbede224146109ce578063fee81cf4146109ee578063ffbf688e14610a2157600080fd5b8063e2559a8314610953578063ed83d79c14610973578063f04e283e14610988578063f2fde38b1461099b57600080fd5b8063d2b0b0f2116100dc578063d2b0b0f2146108d5578063d3c7f026146108f5578063d7533f0214610915578063e1cf88a31461093357600080fd5b8063c5745e8614610880578063cc85f5f2146108a0578063d152a859146108b557600080fd5b80639d7de6b31161016f578063b5e2b04711610149578063b5e2b0471461081b578063b885a35614610830578063bce2020d14610850578063c24e38591461086557600080fd5b80639d7de6b3146107c6578063a9ec1416146107e6578063b13c86a31461080657600080fd5b806389058b7d116101ab57806389058b7d146107585780638da5cb5b1461076d578063989292da146107865780639cd441da146107a657600080fd5b80636d206d6d14610707578063715018a61461071c578063741bef1a1461072457600080fd5b806335c7e925116102ab5780635c220aa11161024957806364b3cd8e1161022357806364b3cd8e1461066757806365f66425146106a757806367acf241146106c757806368211ba1146106e757600080fd5b80635c220aa11461061d578063604096321461063d57806363e1d57c1461065257600080fd5b80634d85468b116102855780634d85468b146105cb5780634f3c1542146105eb57806354d1f13d1461060057806358c0994a1461060857600080fd5b806335c7e9251461057657806336dac7061461058b5780634170cd5e146105ab57600080fd5b806319f4ff2f1161031857806320fa4f8e116102f257806320fa4f8e1461050e578063256929621461052e5780632a5aa2921461053657806332a9569a1461055657600080fd5b806319f4ff2f1461049a5780631d32afa5146104ba57806320e8e2d2146104dc57600080fd5b80630b87d6e3116103545780630b87d6e3146104175780630e8febf9146104375780631320a55614610465578063162ca7101461048557600080fd5b806308e9ef431461037b5780630902f1ac1461039d5780630af96800146103cb575b600080fd5b34801561038757600080fd5b5061039b610396366004612907565b610a36565b005b3480156103a957600080fd5b506014546015545b604080519283526020830191909152015b60405180910390f35b3480156103d757600080fd5b506103ff7f000000000000000000000000000000000000000000000000000000000000000081565b6040516001600160a01b0390911681526020016103c2565b34801561042357600080fd5b5061039b61043236600461293c565b610a83565b34801561044357600080fd5b50610457610452366004612907565b610bd0565b6040519081526020016103c2565b34801561047157600080fd5b5061039b6104803660046129ab565b610c32565b34801561049157600080fd5b50601954610457565b3480156104a657600080fd5b5061039b6104b5366004612907565b610ca7565b3480156104c657600080fd5b506104cf610ced565b6040516103c291906129d7565b3480156104e857600080fd5b506014546015546017545b604080519384526020840192909252908201526060016103c2565b34801561051a57600080fd5b5061039b610529366004612907565b610d55565b61039b610d9b565b34801561054257600080fd5b5061039b610551366004612907565b610deb565b34801561056257600080fd5b5061039b610571366004612907565b610e28565b34801561058257600080fd5b50601754610457565b34801561059757600080fd5b506104576105a6366004612a1f565b610e6e565b3480156105b757600080fd5b506104576105c6366004612a64565b610f31565b3480156105d757600080fd5b506104576105e6366004612a64565b610f4c565b3480156105f757600080fd5b50600a54610457565b61039b610fb2565b34801561061457600080fd5b50610457610fee565b34801561062957600080fd5b50610457610638366004612907565b61107e565b34801561064957600080fd5b506104576110c4565b34801561065e57600080fd5b50601854610457565b34801561067357600080fd5b50610687610682366004612907565b6110ce565b6040805194855260208501939093529183015260608201526080016103c2565b3480156106b357600080fd5b506104576106c2366004612a64565b611111565b3480156106d357600080fd5b5061039b6106e2366004612907565b611202565b3480156106f357600080fd5b506104f3610702366004612a8e565b611248565b34801561071357600080fd5b50600b54610457565b61039b6113d0565b34801561073057600080fd5b506103ff7f000000000000000000000000000000000000000000000000000000000000000081565b34801561076457600080fd5b50600654610457565b34801561077957600080fd5b50638b78c6d819546103ff565b34801561079257600080fd5b5061039b6107a1366004612a8e565b6113e4565b3480156107b257600080fd5b506106876107c1366004612a8e565b611434565b3480156107d257600080fd5b506103b16107e1366004612a8e565b6115ba565b3480156107f257600080fd5b5061039b610801366004612907565b6116b7565b34801561081257600080fd5b506104cf6116fd565b34801561082757600080fd5b50601b54610457565b34801561083c57600080fd5b5061039b61084b366004612907565b611765565b34801561085c57600080fd5b50600954610457565b34801561087157600080fd5b506014546015546016546104f3565b34801561088c57600080fd5b5061045761089b366004612907565b6117ab565b3480156108ac57600080fd5b50600754610457565b3480156108c157600080fd5b5061039b6108d0366004612907565b6117de565b3480156108e157600080fd5b506104576108f0366004612a64565b611824565b34801561090157600080fd5b50610457610910366004612907565b611836565b34801561092157600080fd5b506040516202a30081526020016103c2565b34801561093f57600080fd5b5061039b61094e3660046129ab565b611861565b34801561095f57600080fd5b5061039b61096e366004612907565b6118cd565b34801561097f57600080fd5b506104f3611913565b61039b610996366004612ab0565b611ab7565b61039b6109a9366004612ab0565b611af7565b3480156109ba57600080fd5b506104576109c9366004612a64565b611b1e565b3480156109da57600080fd5b5061039b6109e9366004612907565b611b7b565b3480156109fa57600080fd5b50610457610a09366004612ab0565b63389a75e1600c908152600091909152602090205490565b348015610a2d57600080fd5b50601a54610457565b610a3e611bc1565b610a4781611bdc565b600a8190556040518181527fe75e3e311afafb466335ae8af3bf1d55443d8937fb5ada14583f4fca729c0fa8906020015b60405180910390a150565b600054610100900460ff1615808015610aa35750600054600160ff909116105b80610abd5750303b158015610abd575060005460ff166001145b610b245760405162461bcd60e51b815260206004820152602e60248201527f496e697469616c697a61626c653a20636f6e747261637420697320616c72656160448201526d191e481a5b9a5d1a585b1a5e995960921b606482015260840160405180910390fd5b6000805460ff191660011790558015610b47576000805461ff0019166101001790555b610b508b611c05565b6006899055600787905560018690556002859055600384905560048390556005829055601b88905560138a90558015610bc3576000805461ff0019169055604051600181527f7f26b83ff96e1f2b6a682f133852f6798a09c465da95921460cefb38474024989060200160405180910390a15b5050505050505050505050565b60145460155460175460009291908390610bed9086908590611c41565b90506000610c088360175488611c419092919063ffffffff16565b9050610c1e610c178585611cf0565b8290611d05565b610c289083612ae1565b9695505050505050565b610c3a611bc1565b60408051606080820183528582526020808301869052918301849052600f8690556010859055601184905582518681529182018590529181018390527fd12c16549241d3cde1b026616ce24879c1f8573a0d6e6066d6cb88d339a01f7591015b60405180910390a1505050565b610caf611bc1565b610cb881611bdc565b60018190556040518181527fd34babb0abb9a72918553cfe7b3612443c81b3ea59ba0f751d2bb7224d18d40790602001610a78565b610d1f6040518060a0016040528060008152602001600081526020016000815260200160008152602001600081525090565b6040518060a001604052806001548152602001600254815260200160035481526020016004548152602001600554815250905090565b610d5d611bc1565b610d6681611bdc565b60068190556040518181527f413bcf24bd99a421ccaf50a4a1dba0cfd78558ceb34625206d2e6dfa1a53ff2790602001610a78565b60006202a30067ffffffffffffffff164201905063389a75e1600c5233600052806020600c2055337fdbf36a107da19e49527a7176a1babf963b4b0ff8cde35ee35d6cd8f1f9ac7e1d600080a250565b610df3611bc1565b601b8190556040518181527f6ce6315004c92b2957244860cf57179c165f8c77755f841dcd1a7e315dc76afb90602001610a78565b610e30611bc1565b610e3981611bdc565b60048190556040518181527f8bfda404cbf4ce6e72ab164d5c72aaf4500bda00a57ab1f13d8b81c14edf8ccc90602001610a78565b6000610e78611d1a565b82600003610e8857506000610f2a565b6001846001811115610e9c57610e9c612af4565b03610ed057600654601454610eb091611d05565b831115610ed057604051630f51792960e01b815260040160405180910390fd5b610ee08484601454601554611d63565b9050610eee84848385611dfa565b7fc840d6ec356bae99b60f3eca12969ceda50b96f8fb6c9418c3d0e073c0b52553848483604051610f2193929190612b0a565b60405180910390a15b9392505050565b6000610f438383601454601554611ed4565b90505b92915050565b60008080846001811115610f6257610f62612af4565b03610f7c5782601454610f759190612ae1565b9050610f8d565b82601454610f8a9190612b40565b90505b601654600090610f9d9083611cf0565b9050610fa98282611cf0565b95945050505050565b63389a75e1600c523360005260006020600c2055337ffa7b8eab7da67f412cc9575ed43464468f9bfbae89d1675917346ca6d8fe3c92600080a2565b6040516341976e0960e01b81523060048201526000907f00000000000000000000000000000000000000000000000000000000000000006001600160a01b0316906341976e0990602401602060405180830381865afa158015611055573d6000803e3d6000fd5b505050506040513d601f19601f820116820180604052508101906110799190612b53565b905090565b6000610f4661108e601554611f62565b6110b36110ae6110a986601654611cf090919063ffffffff16565b611f7b565b611f62565b818113818303929091038218021890565b600061107961201e565b6000806000806110dc611d1a565b5050601454601554601754601a54909290916110f9878386611c41565b9550611106878286611c41565b945050509193509193565b600061111b611d1a565b8160000361112b57506000610f46565b600183600181111561113f5761113f612af4565b0361117b578161115c600654601554611d0590919063ffffffff16565b101561117b57604051630f51792960e01b815260040160405180910390fd5b61118b8383601454601554611ed4565b90506000808460018111156111a2576111a2612af4565b146111ae5760006111b1565b60015b90506111c08183856001611dfa565b7fbdc2af1c8c8c5e9838d5c3bf7ede849f60e061477dce4ec73a1e10053ec240c08484846040516111f393929190612b0a565b60405180910390a15092915050565b61120a611bc1565b61121381611bdc565b600b8190556040518181527f879382899c61e679db091d48ae2646f0021988fe20a18f21e1b856acbc57bb5c90602001610a78565b60145460155460175460009283928392611263600289612b82565b945081156112b35761127f836112798785611d05565b90611cf0565b93506112ac611292836112798785611d05565b6112a0856112798986611d05565b90808218908211021890565b95506112ee565b6013546112c1908690611cf0565b93506103e86112d36110a98787611d05565b6112dd9190612b40565b95506112eb6103e882612ae1565b90505b8560000361130f57604051630ed2849160e11b815260040160405180910390fd5b8686101561133057604051630ed2849160e11b815260040160405180910390fd5b61133a8584612ae1565b92506113468483612ae1565b91506113528682612ae1565b601781905560148490556015839055905061136d8383611d05565b6016556040805186815260208101869052908101879052606081018490526080810183905260a081018290527f1530ec748a27514ffab0987654233a80256393e127bdf02d94e32ff3c7148ec69060c00160405180910390a15050509250925092565b6113d8611bc1565b6113e26000612046565b565b6113ec611bc1565b6018829055601981905560408051838152602081018390527f7338f3784ceb8f9456bac0c4a69f1c6354dc325fa6455e3e3f6a8a9bf9249a7c91015b60405180910390a15050565b600080600080611442611d1a565b50601454601554601754601a5492919061145d60028a612b82565b9550811561149b57611473836112798885611d05565b9450611494611486836112798885611d05565b6112a0856112798a86611d05565b96506114d6565b6013546114a9908790611cf0565b94506103e86114bb6110a98888611d05565b6114c59190612b40565b96506114d36103e882612ae1565b90505b866000036114f757604051630ed2849160e11b815260040160405180910390fd5b8787101561151857604051630ed2849160e11b815260040160405180910390fd5b6115228684612ae1565b925061152e8583612ae1565b915061153a8782612ae1565b60178190556014849055601583905590506115558383611d05565b6016556040805187815260208101879052908101889052606081018490526080810183905260a081018290527f1530ec748a27514ffab0987654233a80256393e127bdf02d94e32ff3c7148ec69060c00160405180910390a150505092959194509250565b6000806115c5611d1a565b6014546015546017546115d9878483611c41565b94506115e6878383611c41565b93506115f28584612b40565b92506115fe8483612b40565b915061160a8782612b40565b60148490556015839055601781905590506116258383611d05565b601655868611156116575761163a8787612b40565b9550611647868483611c41565b9450611654868383611c41565b93505b6040805186815260208101869052908101889052606081018490526080810183905260a081018290527fede5d7a610050b00dde41dd385fe2d91a558dde29318267aa4e011678b58cfc59060c00160405180910390a15050509250929050565b6116bf611bc1565b6116c881611bdc565b60058190556040518181527f6f825f18b787836f7cf974799b160538ab237aa0d14af3611fa69683a40c6d2290602001610a78565b61172f6040518060a0016040528060008152602001600081526020016000815260200160008152602001600081525090565b6040518060a0016040528060015481526020016009548152602001600a548152602001600b548152602001600554815250905090565b61176d611bc1565b61177681611bdc565b60078190556040518181527f878cd65339a771e627bc9856c713f02fec044bd7607db61e3858f8d56e4ea4f590602001610a78565b6000816000036117bd57506000919050565b610f466003546117d860015485611d0590919063ffffffff16565b90611d05565b6117e6611bc1565b6117ef81611bdc565b60028190556040518181527f2534b354f571d8b893b9b19bf8e789ecd1e4234bd2f4dd8bf69a1076215e082590602001610a78565b6000610f438383601454601554611d63565b6000610f46611846601454611f62565b6110b36110ae6110a986601654611d0590919063ffffffff16565b611869611bc1565b60408051606080820183528582526020808301869052918301849052600c869055600d859055600e84905582518681529182018590529181018390527fdb990bcf88f23a71d18373867e3602c89a209902f2bb7fda7691dd32152871349101610c9a565b6118d5611bc1565b6118de81611bdc565b60038190556040518181527f84768b1f13e0bce8851491951ac15cf6a8449926307a23459606a32bc9b3658090602001610a78565b6000806000611920611d1a565b601d54601b5442821115611947576040516313a2f3df60e31b815260040160405180910390fd5b611952601c54612084565b6040516341976e0960e01b81523060048201529094507f00000000000000000000000000000000000000000000000000000000000000006001600160a01b0316906341976e0990602401602060405180830381865afa1580156119b9573d6000803e3d6000fd5b505050506040513d601f19601f820116820180604052508101906119dd9190612b53565b925060006119ea84611f62565b6119f386611f62565b6119fd9190612b96565b905062015180611a0c83611f62565b611a169083612bb6565b611a209190612be6565b95506000601e5442611a329190612ae1565b90506000610e10611a438587612ae1565b611a4d9190612b82565b611a5990610e10612c14565b9050808210828218028218601d55611a7188876120ba565b60125560408051898152602081018890527fd2805fe76d30598332a67c1061cee82e2e102b0f59f5457b1729bce028a054a0910160405180910390a15050505050909192565b611abf611bc1565b63389a75e1600c52806000526020600c208054421115611ae757636f5e88186000526004601cfd5b60009055611af481612046565b50565b611aff611bc1565b8060601b611b1557637448fbae6000526004601cfd5b611af481612046565b60008080846001811115611b3457611b34612af4565b03611b4e5782601554611b479190612ae1565b9050611b5f565b82601554611b5c9190612b40565b90505b601654600090611b6f9083611cf0565b9050610fa98183611cf0565b611b83611bc1565b611b8c81611bdc565b60098190556040518181527fd67453718fc57aad470d91be51568530ed02cc941c846cd9e281dc56b300e95e90602001610a78565b638b78c6d8195433146113e2576382b429006000526004601cfd5b670de0b6b3a7640000811115611af4576040516306a4309560e01b815260040160405180910390fd5b6001600160a01b0316638b78c6d8198190558060007f8be0079c531659141344cd1fd0a4f28419497f9722a3daafe3b4186f6b6457e08180a350565b60008383026000198486098181108201900380611c765783611c6b5763ae47f7026000526004601cfd5b508290049050610f2a565b808411611c8b5763ae47f7026000526004601cfd5b838587096000858103861695869004956003870260029081188089028203028089028203028089028203028089028203028089028203028089029091030291819003819004600101858411909403939093029190930391909104170290509392505050565b6000610f4383670de0b6b3a764000084611c41565b6000610f438383670de0b6b3a7640000611c41565b336001600160a01b037f000000000000000000000000000000000000000000000000000000000000000016146113e2576040516308abb64b60e21b815260040160405180910390fd5b600083600003611d7557506000611df2565b600080866001811115611d8a57611d8a612af4565b03611d985750828401611da5565b611da28585612b40565b90505b80600003611dc657604051632dce15e160e01b815260040160405180910390fd5b601654600090611dd69083611cf0565b9050611ded611de482611f62565b6110b386611f62565b925050505b949350505050565b611e0684848484612107565b6000846001811115611e1a57611e1a612af4565b03611e75578260146000828254611e319190612ae1565b925050819055508160156000828254611e4a9190612b40565b90915550611e59905082611f62565b601a6000828254611e6a9190612c2b565b90915550611ec69050565b8260146000828254611e879190612b40565b925050819055508160156000828254611ea09190612ae1565b90915550611eaf905082611f62565b601a6000828254611ec09190612b96565b90915550505b611ece6121f5565b50505050565b600083600003611ee657506000611df2565b600080866001811115611efb57611efb612af4565b03611f1157611f0a8584612ae1565b9050611f1e565b611f1b8584612b40565b90505b80600003611f3f5760405163e7a61c5760e01b815260040160405180910390fd5b601654600090611f4f9083611cf0565b9050611ded611f5d86611f62565b6110b3835b6000600160ff1b8210611f7757611f7761244c565b5090565b6000610f46611f9283670de0b6b3a7640000612c14565b70ffffffffffffffffffffffffffffffffff811160071b81811c68ffffffffffffffffff1060061b1781811c64ffffffffff1060051b1781811c62ffffff1060041b1781811c620100000160b5600192831c1b0260121c80830401811c80830401811c80830401811c80830401811c80830401811c80830401811c80830401901c908190048111900390565b60155460009080820361203357600091505090565b6014546120409082611cf0565b91505090565b638b78c6d81980546001600160a01b039092169182907f8be0079c531659141344cd1fd0a4f28419497f9722a3daafe3b4186f6b6457e0600080a355565b600061208e6128ca565b6000808252601f54908190036120a657611df261201e565b60001981016020830152611df2828561245a565b600080831280156120d1576120ce84612c53565b93505b6120e76110ae85670de0b6b3a764000086611c41565b91508015612100576120f882612c53565b915050610f46565b5092915050565b60075415611ece5760008061211a612647565b915091508160000361212d575050611ece565b601454601554600061213f8383611cf0565b90508481118061214e57508381105b1561216c5760405163090b0cb760e31b815260040160405180910390fd5b856121ea57600089600181111561218557612185612af4565b146121a6576121a16121978884612ae1565b6112798a86612b40565b6121bd565b6121bd6121b38884612b40565b6112798a86612ae1565b9050848111806121cc57508381105b156121ea5760405163090b0cb760e31b815260040160405180910390fd5b505050505050505050565b601f54439060008190036122de57604080516080810182526014548152601554602082019081524292820192835260608201858152601f805460018101825560009190915292517fa03837a25210ee280c2113ff4b77ca23440b19d4866cca721c801278fd08d80760049094029384015590517fa03837a25210ee280c2113ff4b77ca23440b19d4866cca721c801278fd08d80883015591517fa03837a25210ee280c2113ff4b77ca23440b19d4866cca721c801278fd08d80982015590517fa03837a25210ee280c2113ff4b77ca23440b19d4866cca721c801278fd08d80a90910155612408565b601f8054600091906122f290600190612b40565b8154811061230257612302612c6f565b906000526020600020906004020190508060030154830361232f5760145481556015546001820155612406565b604080516080810182526014548152601554602082019081524292820192835260608201868152601f805460018101825560009190915292517fa03837a25210ee280c2113ff4b77ca23440b19d4866cca721c801278fd08d80760049094029384015590517fa03837a25210ee280c2113ff4b77ca23440b19d4866cca721c801278fd08d80883015591517fa03837a25210ee280c2113ff4b77ca23440b19d4866cca721c801278fd08d80982015590517fa03837a25210ee280c2113ff4b77ca23440b19d4866cca721c801278fd08d80a909101555b505b60145460155460408051928352602083019190915242908201527f15f6b01ebee55f22647a0fd0efc2a236df7f7e1a93fcd2547e54da88f4c4f62390606001611428565b6335278d126000526004601cfd5b60008061246684612793565b905082600003612477579050610f46565b60006124838442612b40565b90506000601f86602001518154811061249e5761249e612c6f565b90600052602060002090600402016040518060800160405290816000820154815260200160018201548152602001600282015481526020016003820154815250509050601f80549050600114806124f9575081816040015111155b1561250957829350505050610f46565b6040810151600061251a8242612b40565b905060006125288287612c14565b90505b886020015160000361254e576125418282612b82565b9650505050505050610f46565b601f8960200180516001900390818152508154811061256f5761256f612c6f565b906000526020600020906004020160405180608001604052908160008201548152602001600182015481526020016002820154815260200160038201548152505093506125bb89612793565b9550848460400151116125ed576125d28584612b40565b6125dc9087612c14565b6125e69082612ae1565b9050612630565b60008460400151846125ff9190612b40565b905061260b8188612c14565b6126159083612ae1565b91506126218184612ae1565b9250846040015193505061252b565b61263a8882612b82565b9998505050505050505050565b601f54600090819080820361266157506000928392509050565b6000601f612670600184612b40565b8154811061268057612680612c6f565b906000526020600020906004020160405180608001604052908160008201548152602001600182015481526020016002820154815260200160038201548152505090504381606001511480156126d65750600182115b1561273c57601f6126e8600284612b40565b815481106126f8576126f8612c6f565b906000526020600020906004020160405180608001604052908160008201548152602001600182015481526020016002820154815260200160038201548152505090505b602081015181516000916127509190611cf0565b60075490915061277261276b82670de0b6b3a7640000612ae1565b8390611d05565b955061278961276b82670de0b6b3a7640000612b40565b9450505050509091565b600080601f8360200151815481106127ad576127ad612c6f565b600091825260208083206040805160808101825260049094029091018054845260018101549284019290925260028201549083015260030154606082015291508351600181111561280057612800612af4565b036128155760208101518151610f2a91611cf0565b60018351600181111561282a5761282a612af4565b036128c4578260400151602001516000036128485750600092915050565b6000836040015160400151600181111561286457612864612af4565b036128865760408301518051602091820151835192840151610f2a9390611d63565b600183604001516040015160018111156128a2576128a2612af4565b036128c45760408301518051602091820151835192840151610f2a9390611ed4565b50919050565b604080516060810182526000808252602082015290810161290260408051606081018252600080825260208201819052909182015290565b905290565b60006020828403121561291957600080fd5b5035919050565b80356001600160a01b038116811461293757600080fd5b919050565b6000806000806000806000806000806101408b8d03121561295c57600080fd5b6129658b612920565b9c60208c01359c5060408c01359b60608101359b5060808101359a5060a0810135995060c0810135985060e0810135975061010081013596506101200135945092505050565b6000806000606084860312156129c057600080fd5b505081359360208301359350604090920135919050565b60a08101610f46828480518252602081015160208301526040810151604083015260608101516060830152608081015160808301525050565b80356002811061293757600080fd5b600080600060608486031215612a3457600080fd5b612a3d84612a10565b92506020840135915060408401358015158114612a5957600080fd5b809150509250925092565b60008060408385031215612a7757600080fd5b612a8083612a10565b946020939093013593505050565b60008060408385031215612aa157600080fd5b50508035926020909101359150565b600060208284031215612ac257600080fd5b610f4382612920565b634e487b7160e01b600052601160045260246000fd5b80820180821115610f4657610f46612acb565b634e487b7160e01b600052602160045260246000fd5b6060810160028510612b2c57634e487b7160e01b600052602160045260246000fd5b938152602081019290925260409091015290565b81810381811115610f4657610f46612acb565b600060208284031215612b6557600080fd5b5051919050565b634e487b7160e01b600052601260045260246000fd5b600082612b9157612b91612b6c565b500490565b818103600083128015838313168383128216171561210057612100612acb565b80820260008212600160ff1b84141615612bd257612bd2612acb565b8181058314821517610f4657610f46612acb565b600082612bf557612bf5612b6c565b600160ff1b821460001984141615612c0f57612c0f612acb565b500590565b8082028115828204841417610f4657610f46612acb565b8082018281126000831280158216821582161715612c4b57612c4b612acb565b505092915050565b6000600160ff1b8201612c6857612c68612acb565b5060000390565b634e487b7160e01b600052603260045260246000fdfea2646970667358221220ab1799db315be0cd3ea6e0db868d5cdd99fabfc6ad637219e8d4989e5a43f8f564736f6c63430008150033",
        "linkReferences": {}
    },
    "methodIdentifiers": {
        "addLiquidity(uint256,uint256)": "9cd441da",
        "addLiquidityH(uint256,uint256)": "68211ba1",
        "calcLimitFee(uint256)": "c5745e86",
        "cancelOwnershipHandover()": "54d1f13d",
        "clearingHouse()": "0af96800",
        "completeOwnershipHandover(address)": "f04e283e",
        "getBaseToFill(uint256)": "5c220aa1",
        "getFeeRatios()": "1d32afa5",
        "getFluctuationLimitRatio()": "cc85f5f2",
        "getFundingPeriod()": "b5e2b047",
        "getIndexPrice()": "58c0994a",
        "getInputPrice(uint8,uint256)": "d2b0b0f2",
        "getMakerPositionNotional(uint256)": "0e8febf9",
        "getMakerValueTotalLiquidityTPS(uint256)": "64b3cd8e",
        "getMarginRatio()": "4f3c1542",
        "getMarkPrice()": "60409632",
        "getMarkPriceAfterClose(uint8,uint256)": "f36bdbc9",
        "getMarkPriceAfterOpen(uint8,uint256)": "4d85468b",
        "getMaxSize()": "63e1d57c",
        "getOpenInterestCap()": "162ca710",
        "getOpenMarginRatio()": "bce2020d",
        "getOutputPrice(uint8,uint256)": "4170cd5e",
        "getPartialLiquidationRatio()": "6d206d6d",
        "getQuoteToFill(uint256)": "d3c7f026",
        "getRatios()": "b13c86a3",
        "getReserves()": "0902f1ac",
        "getReservesAndK()": "c24e3859",
        "getReservesAndTotalLiquidity()": "20e8e2d2",
        "getTotalLiquidity()": "35c7e925",
        "getTotalPositionSize()": "ffbf688e",
        "getTradeLimitRatio()": "89058b7d",
        "initialize(address,uint256,uint256,uint256,uint256,uint256,uint256,uint256,uint256,uint256)": "0b87d6e3",
        "owner()": "8da5cb5b",
        "ownershipHandoverExpiresAt(address)": "fee81cf4",
        "ownershipHandoverValidFor()": "d7533f02",
        "priceFeed()": "741bef1a",
        "removeLiquidity(uint256,uint256)": "9d7de6b3",
        "renounceOwnership()": "715018a6",
        "requestOwnershipHandover()": "25692962",
        "setAMMFeeRatio(uint256)": "d152a859",
        "setCap(uint256,uint256)": "989292da",
        "setFeeRatio(uint256)": "19f4ff2f",
        "setFluctationLimitRatio(uint256)": "b885a356",
        "setFundingPeriod(uint256)": "2a5aa292",
        "setInitMarginRatio(uint256)": "fbede224",
        "setKeeperFeeRatio(uint256)": "32a9569a",
        "setLevel1DynamicFeeSettings(uint256,uint256,uint256)": "e1cf88a3",
        "setLevel2DynamicFeeSettings(uint256,uint256,uint256)": "1320a556",
        "setLimitMakerFeeRatio(uint256)": "e2559a83",
        "setLiquidationFeeRatio(uint256)": "a9ec1416",
        "setMaintenanceMarginRatio(uint256)": "08e9ef43",
        "setPartialLiquidationRatio(uint256)": "67acf241",
        "setTradeLimitRatio(uint256)": "20fa4f8e",
        "settleFunding()": "ed83d79c",
        "swapClose(uint8,uint256)": "65f66425",
        "swapOpen(uint8,uint256,bool)": "36dac706",
        "transferOwnership(address)": "f2fde38b"
    },
    "id": 38
}