{
    "abi": [
        {
            "inputs": [
                {
                    "internalType": "address",
                    "name": "_priceFeed",
                    "type": "address"
                },
                {
                    "internalType": "address",
                    "name": "_clearingHouse",
                    "type": "address"
                }
            ],
            "stateMutability": "nonpayable",
            "type": "constructor"
        },
        {
            "inputs": [],
            "name": "BASE_RESERVE_IS_ZERO",
            "type": "error"
        },
        {
            "inputs": [],
            "name": "FUNDING_INTERVAL_NOT_PASSED",
            "type": "error"
        },
        {
            "inputs": [],
            "name": "INACTIVE",
            "type": "error"
        },
        {
            "inputs": [],
            "name": "INSUFFICIENT_LIQUIDITY",
            "type": "error"
        },
        {
            "inputs": [],
            "name": "INSUFFICIENT_MARGIN",
            "type": "error"
        },
        {
            "inputs": [],
            "name": "INVALID_RATIO",
            "type": "error"
        },
        {
            "inputs": [],
            "name": "LEVERAGE_TOO_HIGH",
            "type": "error"
        },
        {
            "inputs": [],
            "name": "NOT_CLEARING_HOUSE",
            "type": "error"
        },
        {
            "inputs": [],
            "name": "NOT_POSITION_MANAGER",
            "type": "error"
        },
        {
            "inputs": [],
            "name": "NewOwnerIsZeroAddress",
            "type": "error"
        },
        {
            "inputs": [],
            "name": "NoHandoverRequest",
            "type": "error"
        },
        {
            "inputs": [],
            "name": "OVER_MAX_BASE",
            "type": "error"
        },
        {
            "inputs": [],
            "name": "OVER_MAX_QUOTE",
            "type": "error"
        },
        {
            "inputs": [],
            "name": "OVER_TRADING_LIMIT",
            "type": "error"
        },
        {
            "inputs": [],
            "name": "PRICE_OVER_FLUCTUATION_LIMIT",
            "type": "error"
        },
        {
            "inputs": [],
            "name": "QUOTE_RESERVE_IS_ZERO",
            "type": "error"
        },
        {
            "inputs": [],
            "name": "UNDER_MIN_BASE",
            "type": "error"
        },
        {
            "inputs": [],
            "name": "UNDER_MIN_LIQUIDITY",
            "type": "error"
        },
        {
            "inputs": [],
            "name": "UNDER_MIN_QUOTE",
            "type": "error"
        },
        {
            "inputs": [],
            "name": "Unauthorized",
            "type": "error"
        },
        {
            "inputs": [],
            "name": "ZERO_CLOSE",
            "type": "error"
        },
        {
            "inputs": [],
            "name": "ZERO_LIQUIDITY",
            "type": "error"
        },
        {
            "inputs": [],
            "name": "ZERO_OPEN",
            "type": "error"
        },
        {
            "anonymous": false,
            "inputs": [
                {
                    "indexed": false,
                    "internalType": "uint256",
                    "name": "newAMMFeeRatio",
                    "type": "uint256"
                }
            ],
            "name": "AMMFeeRatioChanged",
            "type": "event"
        },
        {
            "anonymous": false,
            "inputs": [],
            "name": "Activated",
            "type": "event"
        },
        {
            "anonymous": false,
            "inputs": [
                {
                    "indexed": false,
                    "internalType": "uint256",
                    "name": "newFeeRatio",
                    "type": "uint256"
                }
            ],
            "name": "BaseFeeRatioChanged",
            "type": "event"
        },
        {
            "anonymous": false,
            "inputs": [
                {
                    "indexed": false,
                    "internalType": "uint256",
                    "name": "maxHoldingBaseAsset",
                    "type": "uint256"
                },
                {
                    "indexed": false,
                    "internalType": "uint256",
                    "name": "openInterestNotionalCap",
                    "type": "uint256"
                }
            ],
            "name": "CapChanged",
            "type": "event"
        },
        {
            "anonymous": false,
            "inputs": [],
            "name": "Deactived",
            "type": "event"
        },
        {
            "anonymous": false,
            "inputs": [
                {
                    "indexed": false,
                    "internalType": "uint256",
                    "name": "ratio",
                    "type": "uint256"
                }
            ],
            "name": "FluctuationLimitRatioChanged",
            "type": "event"
        },
        {
            "anonymous": false,
            "inputs": [
                {
                    "indexed": false,
                    "internalType": "uint256",
                    "name": "fundingPeriod",
                    "type": "uint256"
                }
            ],
            "name": "FundingPeriodChanged",
            "type": "event"
        },
        {
            "anonymous": false,
            "inputs": [
                {
                    "indexed": false,
                    "internalType": "int256",
                    "name": "fundingRate",
                    "type": "int256"
                },
                {
                    "indexed": false,
                    "internalType": "uint256",
                    "name": "price",
                    "type": "uint256"
                }
            ],
            "name": "FundingRateUpdated",
            "type": "event"
        },
        {
            "anonymous": false,
            "inputs": [
                {
                    "indexed": false,
                    "internalType": "uint256",
                    "name": "ratio",
                    "type": "uint256"
                }
            ],
            "name": "InitMarginRatioChanged",
            "type": "event"
        },
        {
            "anonymous": false,
            "inputs": [
                {
                    "indexed": false,
                    "internalType": "uint8",
                    "name": "version",
                    "type": "uint8"
                }
            ],
            "name": "Initialized",
            "type": "event"
        },
        {
            "anonymous": false,
            "inputs": [
                {
                    "indexed": false,
                    "internalType": "uint256",
                    "name": "newKeeperFeeRatio",
                    "type": "uint256"
                }
            ],
            "name": "KeeperFeeRatioChanged",
            "type": "event"
        },
        {
            "anonymous": false,
            "inputs": [
                {
                    "indexed": false,
                    "internalType": "uint256",
                    "name": "newLiquidatorFeeRatio",
                    "type": "uint256"
                }
            ],
            "name": "LimitMakerFeeRatioChanged",
            "type": "event"
        },
        {
            "anonymous": false,
            "inputs": [
                {
                    "indexed": false,
                    "internalType": "uint256",
                    "name": "ratio",
                    "type": "uint256"
                }
            ],
            "name": "LiquidationFeeRatioChanged",
            "type": "event"
        },
        {
            "anonymous": false,
            "inputs": [
                {
                    "indexed": false,
                    "internalType": "uint256",
                    "name": "quoteAmount",
                    "type": "uint256"
                },
                {
                    "indexed": false,
                    "internalType": "uint256",
                    "name": "baseAmount",
                    "type": "uint256"
                },
                {
                    "indexed": false,
                    "internalType": "uint256",
                    "name": "liquidityAdded",
                    "type": "uint256"
                },
                {
                    "indexed": false,
                    "internalType": "uint256",
                    "name": "quoteReserve",
                    "type": "uint256"
                },
                {
                    "indexed": false,
                    "internalType": "uint256",
                    "name": "baseReserve",
                    "type": "uint256"
                },
                {
                    "indexed": false,
                    "internalType": "uint256",
                    "name": "liquidityTotal",
                    "type": "uint256"
                }
            ],
            "name": "LiquidityAdded",
            "type": "event"
        },
        {
            "anonymous": false,
            "inputs": [
                {
                    "indexed": false,
                    "internalType": "uint256",
                    "name": "quoteAmount",
                    "type": "uint256"
                },
                {
                    "indexed": false,
                    "internalType": "uint256",
                    "name": "baseAmount",
                    "type": "uint256"
                },
                {
                    "indexed": false,
                    "internalType": "uint256",
                    "name": "liquidityRemoved",
                    "type": "uint256"
                },
                {
                    "indexed": false,
                    "internalType": "uint256",
                    "name": "quoteReserve",
                    "type": "uint256"
                },
                {
                    "indexed": false,
                    "internalType": "uint256",
                    "name": "baseReserve",
                    "type": "uint256"
                },
                {
                    "indexed": false,
                    "internalType": "uint256",
                    "name": "liquidityTotal",
                    "type": "uint256"
                }
            ],
            "name": "LiquidityRemoved",
            "type": "event"
        },
        {
            "anonymous": false,
            "inputs": [
                {
                    "indexed": false,
                    "internalType": "uint256",
                    "name": "ratio",
                    "type": "uint256"
                }
            ],
            "name": "MaintenanceMarginRatioChanged",
            "type": "event"
        },
        {
            "anonymous": false,
            "inputs": [
                {
                    "indexed": false,
                    "internalType": "uint256",
                    "name": "quoteAssetReserve",
                    "type": "uint256"
                },
                {
                    "indexed": false,
                    "internalType": "uint256",
                    "name": "baseAssetReserve",
                    "type": "uint256"
                },
                {
                    "indexed": false,
                    "internalType": "uint256",
                    "name": "timestamp",
                    "type": "uint256"
                }
            ],
            "name": "NewReserveSnapshot",
            "type": "event"
        },
        {
            "anonymous": false,
            "inputs": [
                {
                    "indexed": true,
                    "internalType": "address",
                    "name": "pendingOwner",
                    "type": "address"
                }
            ],
            "name": "OwnershipHandoverCanceled",
            "type": "event"
        },
        {
            "anonymous": false,
            "inputs": [
                {
                    "indexed": true,
                    "internalType": "address",
                    "name": "pendingOwner",
                    "type": "address"
                }
            ],
            "name": "OwnershipHandoverRequested",
            "type": "event"
        },
        {
            "anonymous": false,
            "inputs": [
                {
                    "indexed": true,
                    "internalType": "address",
                    "name": "oldOwner",
                    "type": "address"
                },
                {
                    "indexed": true,
                    "internalType": "address",
                    "name": "newOwner",
                    "type": "address"
                }
            ],
            "name": "OwnershipTransferred",
            "type": "event"
        },
        {
            "anonymous": false,
            "inputs": [
                {
                    "indexed": false,
                    "internalType": "uint256",
                    "name": "ratio",
                    "type": "uint256"
                }
            ],
            "name": "PartialLiquidationRatioChanged",
            "type": "event"
        },
        {
            "anonymous": false,
            "inputs": [
                {
                    "indexed": false,
                    "internalType": "enum Dir",
                    "name": "dirOfBase",
                    "type": "uint8"
                },
                {
                    "indexed": false,
                    "internalType": "uint256",
                    "name": "quoteAmount",
                    "type": "uint256"
                },
                {
                    "indexed": false,
                    "internalType": "uint256",
                    "name": "baseAmount",
                    "type": "uint256"
                }
            ],
            "name": "SwapClose",
            "type": "event"
        },
        {
            "anonymous": false,
            "inputs": [
                {
                    "indexed": false,
                    "internalType": "enum Dir",
                    "name": "dirOfQuote",
                    "type": "uint8"
                },
                {
                    "indexed": false,
                    "internalType": "uint256",
                    "name": "quoteAmount",
                    "type": "uint256"
                },
                {
                    "indexed": false,
                    "internalType": "uint256",
                    "name": "baseAmount",
                    "type": "uint256"
                }
            ],
            "name": "SwapOpen",
            "type": "event"
        },
        {
            "anonymous": false,
            "inputs": [
                {
                    "indexed": false,
                    "internalType": "uint256",
                    "name": "ratio",
                    "type": "uint256"
                }
            ],
            "name": "TradeLimitRatioChanged",
            "type": "event"
        },
        {
            "inputs": [
                {
                    "internalType": "address",
                    "name": "maker",
                    "type": "address"
                },
                {
                    "internalType": "uint256",
                    "name": "margin",
                    "type": "uint256"
                },
                {
                    "internalType": "uint256",
                    "name": "leverage",
                    "type": "uint256"
                },
                {
                    "internalType": "uint256",
                    "name": "minLiquidity",
                    "type": "uint256"
                },
                {
                    "components": [
                        {
                            "internalType": "int256",
                            "name": "premiumFraction",
                            "type": "int256"
                        },
                        {
                            "internalType": "int256",
                            "name": "premiumFractionPerShare",
                            "type": "int256"
                        },
                        {
                            "internalType": "int256",
                            "name": "netPositionOffsetPerShare",
                            "type": "int256"
                        },
                        {
                            "internalType": "uint256",
                            "name": "feeGrowth",
                            "type": "uint256"
                        }
                    ],
                    "internalType": "struct AMMData",
                    "name": "data",
                    "type": "tuple"
                }
            ],
            "name": "addLiquidity",
            "outputs": [
                {
                    "internalType": "uint256",
                    "name": "liquidity",
                    "type": "uint256"
                },
                {
                    "internalType": "int256",
                    "name": "fundingPayment",
                    "type": "int256"
                }
            ],
            "stateMutability": "nonpayable",
            "type": "function"
        },
        {
            "inputs": [
                {
                    "internalType": "uint256",
                    "name": "quoteAmount",
                    "type": "uint256"
                }
            ],
            "name": "calcLimitFee",
            "outputs": [
                {
                    "internalType": "uint256",
                    "name": "limitFee",
                    "type": "uint256"
                }
            ],
            "stateMutability": "view",
            "type": "function"
        },
        {
            "inputs": [],
            "name": "cancelOwnershipHandover",
            "outputs": [],
            "stateMutability": "payable",
            "type": "function"
        },
        {
            "inputs": [],
            "name": "clearingHouse",
            "outputs": [
                {
                    "internalType": "address",
                    "name": "",
                    "type": "address"
                }
            ],
            "stateMutability": "view",
            "type": "function"
        },
        {
            "inputs": [
                {
                    "internalType": "address",
                    "name": "pendingOwner",
                    "type": "address"
                }
            ],
            "name": "completeOwnershipHandover",
            "outputs": [],
            "stateMutability": "payable",
            "type": "function"
        },
        {
            "inputs": [],
            "name": "getBaseFeeRatio",
            "outputs": [
                {
                    "internalType": "uint256",
                    "name": "",
                    "type": "uint256"
                }
            ],
            "stateMutability": "view",
            "type": "function"
        },
        {
            "inputs": [
                {
                    "internalType": "uint256",
                    "name": "targetPrice",
                    "type": "uint256"
                }
            ],
            "name": "getBaseToFill",
            "outputs": [
                {
                    "internalType": "uint256",
                    "name": "",
                    "type": "uint256"
                }
            ],
            "stateMutability": "view",
            "type": "function"
        },
        {
            "inputs": [],
            "name": "getFeeRatiosTotalSupply",
            "outputs": [
                {
                    "components": [
                        {
                            "internalType": "uint256",
                            "name": "baseFeeRatio",
                            "type": "uint256"
                        },
                        {
                            "internalType": "uint256",
                            "name": "ammFeeRatio",
                            "type": "uint256"
                        },
                        {
                            "internalType": "uint256",
                            "name": "limitMakerFeeRatio",
                            "type": "uint256"
                        },
                        {
                            "internalType": "uint256",
                            "name": "keeperFeeRatio",
                            "type": "uint256"
                        },
                        {
                            "internalType": "uint256",
                            "name": "liquidationFeeRatio",
                            "type": "uint256"
                        }
                    ],
                    "internalType": "struct FeeRatios",
                    "name": "",
                    "type": "tuple"
                },
                {
                    "internalType": "uint256",
                    "name": "",
                    "type": "uint256"
                }
            ],
            "stateMutability": "view",
            "type": "function"
        },
        {
            "inputs": [],
            "name": "getFluctuationLimitRatio",
            "outputs": [
                {
                    "internalType": "uint256",
                    "name": "",
                    "type": "uint256"
                }
            ],
            "stateMutability": "view",
            "type": "function"
        },
        {
            "inputs": [],
            "name": "getFundingPeriod",
            "outputs": [
                {
                    "internalType": "uint256",
                    "name": "",
                    "type": "uint256"
                }
            ],
            "stateMutability": "view",
            "type": "function"
        },
        {
            "inputs": [],
            "name": "getIndexPrice",
            "outputs": [
                {
                    "internalType": "uint256",
                    "name": "",
                    "type": "uint256"
                }
            ],
            "stateMutability": "view",
            "type": "function"
        },
        {
            "inputs": [],
            "name": "getInitializationPrice",
            "outputs": [
                {
                    "internalType": "uint256",
                    "name": "",
                    "type": "uint256"
                }
            ],
            "stateMutability": "view",
            "type": "function"
        },
        {
            "inputs": [
                {
                    "internalType": "enum Dir",
                    "name": "dirOfQuote",
                    "type": "uint8"
                },
                {
                    "internalType": "uint256",
                    "name": "quoteAmount",
                    "type": "uint256"
                }
            ],
            "name": "getInputPrice",
            "outputs": [
                {
                    "internalType": "uint256",
                    "name": "baseAmount",
                    "type": "uint256"
                }
            ],
            "stateMutability": "view",
            "type": "function"
        },
        {
            "inputs": [],
            "name": "getLiquidationFeeRatio",
            "outputs": [
                {
                    "internalType": "uint256",
                    "name": "",
                    "type": "uint256"
                }
            ],
            "stateMutability": "view",
            "type": "function"
        },
        {
            "inputs": [],
            "name": "getLiquidationPrice",
            "outputs": [
                {
                    "internalType": "uint256",
                    "name": "",
                    "type": "uint256"
                }
            ],
            "stateMutability": "view",
            "type": "function"
        },
        {
            "inputs": [
                {
                    "internalType": "address",
                    "name": "maker",
                    "type": "address"
                }
            ],
            "name": "getMakerPosition",
            "outputs": [
                {
                    "components": [
                        {
                            "internalType": "uint256",
                            "name": "margin",
                            "type": "uint256"
                        },
                        {
                            "internalType": "uint256",
                            "name": "quote",
                            "type": "uint256"
                        },
                        {
                            "internalType": "uint256",
                            "name": "base",
                            "type": "uint256"
                        },
                        {
                            "internalType": "uint256",
                            "name": "liquidity",
                            "type": "uint256"
                        },
                        {
                            "internalType": "int256",
                            "name": "position",
                            "type": "int256"
                        },
                        {
                            "internalType": "uint256",
                            "name": "lastFeeGrowth",
                            "type": "uint256"
                        },
                        {
                            "internalType": "uint256",
                            "name": "fees",
                            "type": "uint256"
                        },
                        {
                            "internalType": "int256",
                            "name": "lastPremiumFraction",
                            "type": "int256"
                        },
                        {
                            "internalType": "int256",
                            "name": "lastPremiumFractionPerShare",
                            "type": "int256"
                        },
                        {
                            "internalType": "int256",
                            "name": "lastPositionOffsetPerShare",
                            "type": "int256"
                        },
                        {
                            "internalType": "uint256",
                            "name": "blockNumber",
                            "type": "uint256"
                        }
                    ],
                    "internalType": "struct MakerPosition",
                    "name": "",
                    "type": "tuple"
                }
            ],
            "stateMutability": "view",
            "type": "function"
        },
        {
            "inputs": [
                {
                    "internalType": "uint256",
                    "name": "liquidity",
                    "type": "uint256"
                }
            ],
            "name": "getMakerValueTotalLiquidityTPS",
            "outputs": [
                {
                    "internalType": "uint256",
                    "name": "quoteAmount",
                    "type": "uint256"
                },
                {
                    "internalType": "uint256",
                    "name": "baseAmount",
                    "type": "uint256"
                },
                {
                    "internalType": "uint256",
                    "name": "totalSupply",
                    "type": "uint256"
                },
                {
                    "internalType": "int256",
                    "name": "tps",
                    "type": "int256"
                }
            ],
            "stateMutability": "view",
            "type": "function"
        },
        {
            "inputs": [],
            "name": "getMarginRatio",
            "outputs": [
                {
                    "internalType": "uint256",
                    "name": "",
                    "type": "uint256"
                }
            ],
            "stateMutability": "view",
            "type": "function"
        },
        {
            "inputs": [],
            "name": "getMarkPrice",
            "outputs": [
                {
                    "internalType": "uint256",
                    "name": "",
                    "type": "uint256"
                }
            ],
            "stateMutability": "view",
            "type": "function"
        },
        {
            "inputs": [
                {
                    "internalType": "enum Dir",
                    "name": "dirOfBase",
                    "type": "uint8"
                },
                {
                    "internalType": "uint256",
                    "name": "baseAmount",
                    "type": "uint256"
                }
            ],
            "name": "getMarkPriceAfterClose",
            "outputs": [
                {
                    "internalType": "uint256",
                    "name": "",
                    "type": "uint256"
                }
            ],
            "stateMutability": "view",
            "type": "function"
        },
        {
            "inputs": [
                {
                    "internalType": "enum Dir",
                    "name": "dirOfQuote",
                    "type": "uint8"
                },
                {
                    "internalType": "uint256",
                    "name": "quoteAmount",
                    "type": "uint256"
                }
            ],
            "name": "getMarkPriceAfterOpen",
            "outputs": [
                {
                    "internalType": "uint256",
                    "name": "",
                    "type": "uint256"
                }
            ],
            "stateMutability": "view",
            "type": "function"
        },
        {
            "inputs": [],
            "name": "getMaxSize",
            "outputs": [
                {
                    "internalType": "uint256",
                    "name": "",
                    "type": "uint256"
                }
            ],
            "stateMutability": "view",
            "type": "function"
        },
        {
            "inputs": [],
            "name": "getNextFundingTime",
            "outputs": [
                {
                    "internalType": "uint256",
                    "name": "",
                    "type": "uint256"
                }
            ],
            "stateMutability": "view",
            "type": "function"
        },
        {
            "inputs": [],
            "name": "getOpenInterestCap",
            "outputs": [
                {
                    "internalType": "uint256",
                    "name": "",
                    "type": "uint256"
                }
            ],
            "stateMutability": "view",
            "type": "function"
        },
        {
            "inputs": [],
            "name": "getOpenMarginRatio",
            "outputs": [
                {
                    "internalType": "uint256",
                    "name": "",
                    "type": "uint256"
                }
            ],
            "stateMutability": "view",
            "type": "function"
        },
        {
            "inputs": [
                {
                    "internalType": "enum Dir",
                    "name": "dirOfBase",
                    "type": "uint8"
                },
                {
                    "internalType": "uint256",
                    "name": "baseAmount",
                    "type": "uint256"
                }
            ],
            "name": "getOutputPrice",
            "outputs": [
                {
                    "internalType": "uint256",
                    "name": "",
                    "type": "uint256"
                }
            ],
            "stateMutability": "view",
            "type": "function"
        },
        {
            "inputs": [],
            "name": "getPartialLiquidationRatio",
            "outputs": [
                {
                    "internalType": "uint256",
                    "name": "",
                    "type": "uint256"
                }
            ],
            "stateMutability": "view",
            "type": "function"
        },
        {
            "inputs": [
                {
                    "internalType": "uint256",
                    "name": "targetPrice",
                    "type": "uint256"
                }
            ],
            "name": "getQuoteToFill",
            "outputs": [
                {
                    "internalType": "uint256",
                    "name": "",
                    "type": "uint256"
                }
            ],
            "stateMutability": "view",
            "type": "function"
        },
        {
            "inputs": [],
            "name": "getRatios",
            "outputs": [
                {
                    "components": [
                        {
                            "internalType": "uint256",
                            "name": "baseFeeRatio",
                            "type": "uint256"
                        },
                        {
                            "internalType": "uint256",
                            "name": "initMarginRatio",
                            "type": "uint256"
                        },
                        {
                            "internalType": "uint256",
                            "name": "maintenanceMarginRatio",
                            "type": "uint256"
                        },
                        {
                            "internalType": "uint256",
                            "name": "partialLiquidationRatio",
                            "type": "uint256"
                        },
                        {
                            "internalType": "uint256",
                            "name": "liquidationFeeRatio",
                            "type": "uint256"
                        }
                    ],
                    "internalType": "struct Ratios",
                    "name": "",
                    "type": "tuple"
                }
            ],
            "stateMutability": "view",
            "type": "function"
        },
        {
            "inputs": [],
            "name": "getReserves",
            "outputs": [
                {
                    "internalType": "uint256",
                    "name": "",
                    "type": "uint256"
                },
                {
                    "internalType": "uint256",
                    "name": "",
                    "type": "uint256"
                }
            ],
            "stateMutability": "view",
            "type": "function"
        },
        {
            "inputs": [],
            "name": "getReservesAndK",
            "outputs": [
                {
                    "internalType": "uint256",
                    "name": "",
                    "type": "uint256"
                },
                {
                    "internalType": "uint256",
                    "name": "",
                    "type": "uint256"
                },
                {
                    "internalType": "uint256",
                    "name": "",
                    "type": "uint256"
                }
            ],
            "stateMutability": "view",
            "type": "function"
        },
        {
            "inputs": [],
            "name": "getReservesAndTotalLiquidity",
            "outputs": [
                {
                    "internalType": "uint256",
                    "name": "",
                    "type": "uint256"
                },
                {
                    "internalType": "uint256",
                    "name": "",
                    "type": "uint256"
                },
                {
                    "internalType": "uint256",
                    "name": "",
                    "type": "uint256"
                }
            ],
            "stateMutability": "view",
            "type": "function"
        },
        {
            "inputs": [],
            "name": "getTotalPositionSize",
            "outputs": [
                {
                    "internalType": "int256",
                    "name": "",
                    "type": "int256"
                }
            ],
            "stateMutability": "view",
            "type": "function"
        },
        {
            "inputs": [],
            "name": "getTotalSupply",
            "outputs": [
                {
                    "internalType": "uint256",
                    "name": "",
                    "type": "uint256"
                }
            ],
            "stateMutability": "view",
            "type": "function"
        },
        {
            "inputs": [],
            "name": "getTradeLimitRatio",
            "outputs": [
                {
                    "internalType": "uint256",
                    "name": "",
                    "type": "uint256"
                }
            ],
            "stateMutability": "view",
            "type": "function"
        },
        {
            "inputs": [],
            "name": "getTwapInterval",
            "outputs": [
                {
                    "internalType": "uint256",
                    "name": "",
                    "type": "uint256"
                }
            ],
            "stateMutability": "view",
            "type": "function"
        },
        {
            "inputs": [
                {
                    "internalType": "address",
                    "name": "_owner",
                    "type": "address"
                },
                {
                    "internalType": "uint256",
                    "name": "_initializationPrice",
                    "type": "uint256"
                },
                {
                    "internalType": "uint256",
                    "name": "_tradeLimitRatio",
                    "type": "uint256"
                },
                {
                    "internalType": "uint256",
                    "name": "_fundingPeriod",
                    "type": "uint256"
                },
                {
                    "internalType": "uint256",
                    "name": "_fluctuationLimitRatio",
                    "type": "uint256"
                },
                {
                    "internalType": "uint256",
                    "name": "_baseFeeRatio",
                    "type": "uint256"
                },
                {
                    "internalType": "uint256",
                    "name": "_ammFeeRatio",
                    "type": "uint256"
                },
                {
                    "internalType": "uint256",
                    "name": "_limitMakerFeeRatio",
                    "type": "uint256"
                },
                {
                    "internalType": "uint256",
                    "name": "_keeperFeeRatio",
                    "type": "uint256"
                },
                {
                    "internalType": "uint256",
                    "name": "_liquidationFeeRatio",
                    "type": "uint256"
                }
            ],
            "name": "initialize",
            "outputs": [],
            "stateMutability": "nonpayable",
            "type": "function"
        },
        {
            "inputs": [],
            "name": "owner",
            "outputs": [
                {
                    "internalType": "address",
                    "name": "result",
                    "type": "address"
                }
            ],
            "stateMutability": "view",
            "type": "function"
        },
        {
            "inputs": [
                {
                    "internalType": "address",
                    "name": "pendingOwner",
                    "type": "address"
                }
            ],
            "name": "ownershipHandoverExpiresAt",
            "outputs": [
                {
                    "internalType": "uint256",
                    "name": "result",
                    "type": "uint256"
                }
            ],
            "stateMutability": "view",
            "type": "function"
        },
        {
            "inputs": [],
            "name": "ownershipHandoverValidFor",
            "outputs": [
                {
                    "internalType": "uint64",
                    "name": "",
                    "type": "uint64"
                }
            ],
            "stateMutability": "view",
            "type": "function"
        },
        {
            "inputs": [],
            "name": "priceFeed",
            "outputs": [
                {
                    "internalType": "contract IPriceFeed",
                    "name": "",
                    "type": "address"
                }
            ],
            "stateMutability": "view",
            "type": "function"
        },
        {
            "inputs": [
                {
                    "internalType": "address",
                    "name": "maker",
                    "type": "address"
                },
                {
                    "internalType": "uint256",
                    "name": "amount",
                    "type": "uint256"
                },
                {
                    "components": [
                        {
                            "internalType": "int256",
                            "name": "premiumFraction",
                            "type": "int256"
                        },
                        {
                            "internalType": "int256",
                            "name": "premiumFractionPerShare",
                            "type": "int256"
                        },
                        {
                            "internalType": "int256",
                            "name": "netPositionOffsetPerShare",
                            "type": "int256"
                        },
                        {
                            "internalType": "uint256",
                            "name": "feeGrowth",
                            "type": "uint256"
                        }
                    ],
                    "internalType": "struct AMMData",
                    "name": "data",
                    "type": "tuple"
                }
            ],
            "name": "removeLiquidity",
            "outputs": [
                {
                    "internalType": "int256",
                    "name": "size",
                    "type": "int256"
                },
                {
                    "internalType": "uint256",
                    "name": "marginToRemove",
                    "type": "uint256"
                },
                {
                    "internalType": "uint256",
                    "name": "realizedFee",
                    "type": "uint256"
                }
            ],
            "stateMutability": "nonpayable",
            "type": "function"
        },
        {
            "inputs": [],
            "name": "renounceOwnership",
            "outputs": [],
            "stateMutability": "payable",
            "type": "function"
        },
        {
            "inputs": [],
            "name": "requestOwnershipHandover",
            "outputs": [],
            "stateMutability": "payable",
            "type": "function"
        },
        {
            "inputs": [
                {
                    "internalType": "uint256",
                    "name": "_ammFeeRatio",
                    "type": "uint256"
                }
            ],
            "name": "setAMMFeeRatio",
            "outputs": [],
            "stateMutability": "nonpayable",
            "type": "function"
        },
        {
            "inputs": [
                {
                    "internalType": "bool",
                    "name": "_active",
                    "type": "bool"
                }
            ],
            "name": "setActive",
            "outputs": [],
            "stateMutability": "nonpayable",
            "type": "function"
        },
        {
            "inputs": [
                {
                    "internalType": "uint256",
                    "name": "_baseFeeRatio",
                    "type": "uint256"
                }
            ],
            "name": "setBaseFeeRatio",
            "outputs": [],
            "stateMutability": "nonpayable",
            "type": "function"
        },
        {
            "inputs": [
                {
                    "internalType": "uint256",
                    "name": "_maxHoldingBaseAsset",
                    "type": "uint256"
                },
                {
                    "internalType": "uint256",
                    "name": "_openInterestNotionalCap",
                    "type": "uint256"
                }
            ],
            "name": "setCap",
            "outputs": [],
            "stateMutability": "nonpayable",
            "type": "function"
        },
        {
            "inputs": [
                {
                    "internalType": "uint256",
                    "name": "_fluctuationLimitRatio",
                    "type": "uint256"
                }
            ],
            "name": "setFluctationLimitRatio",
            "outputs": [],
            "stateMutability": "nonpayable",
            "type": "function"
        },
        {
            "inputs": [
                {
                    "internalType": "uint256",
                    "name": "_fundingPeriod",
                    "type": "uint256"
                }
            ],
            "name": "setFundingPeriod",
            "outputs": [],
            "stateMutability": "nonpayable",
            "type": "function"
        },
        {
            "inputs": [
                {
                    "internalType": "uint256",
                    "name": "_initMarginRatio",
                    "type": "uint256"
                }
            ],
            "name": "setInitMarginRatio",
            "outputs": [],
            "stateMutability": "nonpayable",
            "type": "function"
        },
        {
            "inputs": [
                {
                    "internalType": "uint256",
                    "name": "_keeperFeeRatio",
                    "type": "uint256"
                }
            ],
            "name": "setKeeperFeeRatio",
            "outputs": [],
            "stateMutability": "nonpayable",
            "type": "function"
        },
        {
            "inputs": [
                {
                    "internalType": "uint256",
                    "name": "_limitMakerFeeRatio",
                    "type": "uint256"
                }
            ],
            "name": "setLimitMakerFeeRatio",
            "outputs": [],
            "stateMutability": "nonpayable",
            "type": "function"
        },
        {
            "inputs": [
                {
                    "internalType": "uint256",
                    "name": "_liquidationFeeRatio",
                    "type": "uint256"
                }
            ],
            "name": "setLiquidationFeeRatio",
            "outputs": [],
            "stateMutability": "nonpayable",
            "type": "function"
        },
        {
            "inputs": [
                {
                    "internalType": "uint256",
                    "name": "_maintenanceMarginRatio",
                    "type": "uint256"
                }
            ],
            "name": "setMaintenanceMarginRatio",
            "outputs": [],
            "stateMutability": "nonpayable",
            "type": "function"
        },
        {
            "inputs": [
                {
                    "internalType": "uint256",
                    "name": "_partialLiquidationRatio",
                    "type": "uint256"
                }
            ],
            "name": "setPartialLiquidationRatio",
            "outputs": [],
            "stateMutability": "nonpayable",
            "type": "function"
        },
        {
            "inputs": [
                {
                    "internalType": "uint256",
                    "name": "_tradeLimitRatio",
                    "type": "uint256"
                }
            ],
            "name": "setTradeLimitRatio",
            "outputs": [],
            "stateMutability": "nonpayable",
            "type": "function"
        },
        {
            "inputs": [
                {
                    "internalType": "uint256",
                    "name": "twapInterval",
                    "type": "uint256"
                }
            ],
            "name": "setTwapInterval",
            "outputs": [],
            "stateMutability": "nonpayable",
            "type": "function"
        },
        {
            "inputs": [
                {
                    "internalType": "uint256",
                    "name": "_markPriceWeight",
                    "type": "uint256"
                },
                {
                    "internalType": "uint256",
                    "name": "_indexPriceWeight",
                    "type": "uint256"
                }
            ],
            "name": "setWeights",
            "outputs": [],
            "stateMutability": "nonpayable",
            "type": "function"
        },
        {
            "inputs": [],
            "name": "settleFunding",
            "outputs": [
                {
                    "internalType": "int256",
                    "name": "premiumFraction",
                    "type": "int256"
                },
                {
                    "internalType": "uint256",
                    "name": "markPrice",
                    "type": "uint256"
                },
                {
                    "internalType": "uint256",
                    "name": "indexPrice",
                    "type": "uint256"
                }
            ],
            "stateMutability": "nonpayable",
            "type": "function"
        },
        {
            "inputs": [
                {
                    "internalType": "enum Dir",
                    "name": "dirOfBase",
                    "type": "uint8"
                },
                {
                    "internalType": "uint256",
                    "name": "baseAmount",
                    "type": "uint256"
                }
            ],
            "name": "swapClose",
            "outputs": [
                {
                    "internalType": "uint256",
                    "name": "quoteAmount",
                    "type": "uint256"
                }
            ],
            "stateMutability": "nonpayable",
            "type": "function"
        },
        {
            "inputs": [
                {
                    "internalType": "enum Dir",
                    "name": "dirOfQuote",
                    "type": "uint8"
                },
                {
                    "internalType": "uint256",
                    "name": "quoteAmount",
                    "type": "uint256"
                },
                {
                    "internalType": "bool",
                    "name": "fluctuationOverride",
                    "type": "bool"
                }
            ],
            "name": "swapOpen",
            "outputs": [
                {
                    "internalType": "uint256",
                    "name": "baseAmount",
                    "type": "uint256"
                }
            ],
            "stateMutability": "nonpayable",
            "type": "function"
        },
        {
            "inputs": [
                {
                    "internalType": "address",
                    "name": "newOwner",
                    "type": "address"
                }
            ],
            "name": "transferOwnership",
            "outputs": [],
            "stateMutability": "payable",
            "type": "function"
        }
    ],
    "bytecode": {
        "object": "0x60c06040523480156200001157600080fd5b506040516200367638038062003676833981016040819052620000349162000137565b6001600160a01b03808216608052821660a0526200005162000059565b50506200016f565b600054610100900460ff1615620000c65760405162461bcd60e51b815260206004820152602760248201527f496e697469616c697a61626c653a20636f6e747261637420697320696e697469604482015266616c697a696e6760c81b606482015260840160405180910390fd5b60005460ff9081161462000118576000805460ff191660ff9081179091556040519081527f7f26b83ff96e1f2b6a682f133852f6798a09c465da95921460cefb38474024989060200160405180910390a15b565b80516001600160a01b03811681146200013257600080fd5b919050565b600080604083850312156200014b57600080fd5b62000156836200011a565b915062000166602084016200011a565b90509250929050565b60805160a0516134d3620001a3600039600081816107510152611fbb01526000818161043e0152611d2401526134d36000f3fe6080604052600436106103b85760003560e01c806380295a74116101f2578063cc35489c1161010d578063ed83d79c116100a0578063f36bdbc91161006f578063f36bdbc914610afd578063fbede22414610b1d578063fee81cf414610b3d578063ffbf688e14610b7057600080fd5b8063ed83d79c14610aa2578063ef6ffef214610ab7578063f04e283e14610ad7578063f2fde38b14610aea57600080fd5b8063d3c7f026116100dc578063d3c7f0261461099f578063d3e41606146109bf578063d7533f0214610a64578063e2559a8314610a8257600080fd5b8063cc35489c14610927578063cc85f5f21461094a578063d152a8591461095f578063d2b0b0f21461097f57600080fd5b8063b5e2b04711610185578063c0e0980c11610154578063c0e0980c146108c2578063c24e3859146108d7578063c4e41b22146108f2578063c5745e861461090757600080fd5b8063b5e2b04714610863578063b626382d14610878578063b885a3561461088d578063bce2020d146108ad57600080fd5b8063a9ec1416116101c1578063a9ec1416146107e1578063ab7ab90314610801578063acec338a14610821578063b13c86a31461084157600080fd5b806380295a741461077357806389058b7d146107935780638da5cb5b146107a8578063989292da146107c157600080fd5b806346558d1b116102e257806363e1d57c11610275578063682580fc11610244578063682580fc146107025780636d206d6d14610722578063715018a614610737578063741bef1a1461073f57600080fd5b806363e1d57c1461066d57806364b3cd8e1461068257806365f66425146106c257806367acf241146106e257600080fd5b806358c0994a116102b157806358c0994a146106035780635c220aa1146106185780635ea679ef14610638578063604096321461065857600080fd5b806346558d1b146105b15780634d85468b146105c65780634f3c1542146105e657806354d1f13d146105fb57600080fd5b806320e8e2d21161035a57806332a9569a1161032957806332a9569a1461053c57806336dac7061461055c5780633e742e3b1461057c5780634170cd5e1461059157600080fd5b806320e8e2d2146104c257806320fa4f8e146104f457806325692962146105145780632a5aa2921461051c57600080fd5b80630af96800116103965780630af968001461042c5780630b87d6e31461047857806313d0143d14610498578063162ca710146104ad57600080fd5b806305307703146103bd57806308e9ef43146103e15780630902f1ac14610403575b600080fd5b3480156103c957600080fd5b506005545b6040519081526020015b60405180910390f35b3480156103ed57600080fd5b506104016103fc366004612fe9565b610b85565b005b34801561040f57600080fd5b506010546011545b604080519283526020830191909152016103d8565b34801561043857600080fd5b506104607f000000000000000000000000000000000000000000000000000000000000000081565b6040516001600160a01b0390911681526020016103d8565b34801561048457600080fd5b5061040161049336600461301e565b610bd2565b3480156104a457600080fd5b506001546103ce565b3480156104b957600080fd5b506015546103ce565b3480156104ce57600080fd5b506010546011546013545b604080519384526020840192909252908201526060016103d8565b34801561050057600080fd5b5061040161050f366004612fe9565b610d2c565b610401610d72565b34801561052857600080fd5b50610401610537366004612fe9565b610dc2565b34801561054857600080fd5b50610401610557366004612fe9565b610e0d565b34801561056857600080fd5b506103ce6105773660046130ac565b610e53565b34801561058857600080fd5b506018546103ce565b34801561059d57600080fd5b506103ce6105ac3660046130e8565b610f2e565b3480156105bd57600080fd5b506103ce610f49565b3480156105d257600080fd5b506103ce6105e13660046130e8565b610f7c565b3480156105f257600080fd5b50600a546103ce565b610401610fe2565b34801561060f57600080fd5b506103ce61101e565b34801561062457600080fd5b506103ce610633366004612fe9565b611028565b34801561064457600080fd5b50610401610653366004612fe9565b61106e565b34801561066457600080fd5b506103ce61107b565b34801561067957600080fd5b506014546103ce565b34801561068e57600080fd5b506106a261069d366004612fe9565b611085565b6040805194855260208501939093529183015260608201526080016103d8565b3480156106ce57600080fd5b506103ce6106dd3660046130e8565b6110b9565b3480156106ee57600080fd5b506104016106fd366004612fe9565b6111bb565b34801561070e57600080fd5b5061041761071d366004613186565b611201565b34801561072e57600080fd5b50600b546103ce565b610401611404565b34801561074b57600080fd5b506104607f000000000000000000000000000000000000000000000000000000000000000081565b34801561077f57600080fd5b5061040161078e366004612fe9565b611418565b34801561079f57600080fd5b506006546103ce565b3480156107b457600080fd5b50638b78c6d81954610460565b3480156107cd57600080fd5b506104016107dc3660046131d8565b61145e565b3480156107ed57600080fd5b506104016107fc366004612fe9565b6114ae565b34801561080d57600080fd5b506104d961081c3660046131fa565b6114f4565b34801561082d57600080fd5b5061040161083c36600461322e565b6117b3565b34801561084d57600080fd5b50610856611834565b6040516103d89190613249565b34801561086f57600080fd5b506017546103ce565b34801561088457600080fd5b506019546103ce565b34801561089957600080fd5b506104016108a8366004612fe9565b61189c565b3480156108b957600080fd5b506009546103ce565b3480156108ce57600080fd5b50600f546103ce565b3480156108e357600080fd5b506010546011546012546104d9565b3480156108fe57600080fd5b506013546103ce565b34801561091357600080fd5b506103ce610922366004612fe9565b6118e2565b34801561093357600080fd5b5061093c61190f565b6040516103d8929190613282565b34801561095657600080fd5b506007546103ce565b34801561096b57600080fd5b5061040161097a366004612fe9565b61197a565b34801561098b57600080fd5b506103ce61099a3660046130e8565b6119c0565b3480156109ab57600080fd5b506103ce6109ba366004612fe9565b6119d2565b3480156109cb57600080fd5b506109df6109da3660046132c8565b6119fd565b6040516103d89190600061016082019050825182526020830151602083015260408301516040830152606083015160608301526080830151608083015260a083015160a083015260c083015160c083015260e083015160e083015261010080840151818401525061012080840151818401525061014080840151818401525092915050565b348015610a7057600080fd5b506040516202a30081526020016103d8565b348015610a8e57600080fd5b50610401610a9d366004612fe9565b611a0e565b348015610aae57600080fd5b506104d9611a54565b348015610ac357600080fd5b50610401610ad23660046131d8565b611b7f565b610401610ae53660046132c8565b611b92565b610401610af83660046132c8565b611bcf565b348015610b0957600080fd5b506103ce610b183660046130e8565b611bf6565b348015610b2957600080fd5b50610401610b38366004612fe9565b611c53565b348015610b4957600080fd5b506103ce610b583660046132c8565b63389a75e1600c908152600091909152602090205490565b348015610b7c57600080fd5b506016546103ce565b610b8d611c99565b610b9681611cb4565b600a8190556040518181527fe75e3e311afafb466335ae8af3bf1d55443d8937fb5ada14583f4fca729c0fa8906020015b60405180910390a150565b600054610100900460ff1615808015610bf25750600054600160ff909116105b80610c0c5750303b158015610c0c575060005460ff166001145b610c735760405162461bcd60e51b815260206004820152602e60248201527f496e697469616c697a61626c653a20636f6e747261637420697320616c72656160448201526d191e481a5b9a5d1a585b1a5e995960921b606482015260840160405180910390fd5b6000805460ff191660011790558015610c96576000805461ff0019166101001790555b610c9f8b611cdd565b60068990556007879055600186905560028581556003859055600484905560058390556017899055610cd1908961330f565b601a55600f8a90558015610d1f576000805461ff0019169055604051600181527f7f26b83ff96e1f2b6a682f133852f6798a09c465da95921460cefb38474024989060200160405180910390a15b5050505050505050505050565b610d34611c99565b610d3d81611cb4565b60068190556040518181527f413bcf24bd99a421ccaf50a4a1dba0cfd78558ceb34625206d2e6dfa1a53ff2790602001610bc7565b60006202a30067ffffffffffffffff164201905063389a75e1600c5233600052806020600c2055337fdbf36a107da19e49527a7176a1babf963b4b0ff8cde35ee35d6cd8f1f9ac7e1d600080a250565b610dca611c99565b6017819055610dda60028261330f565b601a556040518181527f6ce6315004c92b2957244860cf57179c165f8c77755f841dcd1a7e315dc76afb90602001610bc7565b610e15611c99565b610e1e81611cb4565b60048190556040518181527f8bfda404cbf4ce6e72ab164d5c72aaf4500bda00a57ab1f13d8b81c14edf8ccc90602001610bc7565b6000610e5d611d19565b610e65611d62565b82600003610e865760405163789593ed60e11b815260040160405180910390fd5b6001846001811115610e9a57610e9a613323565b03610ece57600654601054610eae91611d8b565b831115610ece57604051630f51792960e01b815260040160405180910390fd5b610ede8484601054601154611da0565b9050610eec84848385611e37565b7fc840d6ec356bae99b60f3eca12969ceda50b96f8fb6c9418c3d0e073c0b52553848483604051610f1f93929190613339565b60405180910390a19392505050565b6000610f408383601054601154611f11565b90505b92915050565b6000610f5f600d54610f59611fa3565b90611d8b565b610f6d600c54610f5961202e565b610f77919061336f565b905090565b60008080846001811115610f9257610f92613323565b03610fac5782601054610fa5919061336f565b9050610fbd565b82601054610fba9190613382565b90505b601254600090610fcd9083612056565b9050610fd98282612056565b95945050505050565b63389a75e1600c523360005260006020600c2055337ffa7b8eab7da67f412cc9575ed43464468f9bfbae89d1675917346ca6d8fe3c92600080a2565b6000610f77611fa3565b6000610f4361103860115461206b565b61105d6110586110538660125461205690919063ffffffff16565b612084565b61206b565b818113818303929091038218021890565b611076611c99565b601855565b6000610f7761202e565b60105460115460135460165460009384936110a1878386612127565b95506110ae878286612127565b945050509193509193565b60006110c3611d19565b816000036110e45760405163eea7064360e01b815260040160405180910390fd5b60018360018111156110f8576110f8613323565b036111345781611115600654601154611d8b90919063ffffffff16565b101561113457604051630f51792960e01b815260040160405180910390fd5b6111448383601054601154611f11565b905060008084600181111561115b5761115b613323565b1461116757600061116a565b60015b90506111798183856001611e37565b7fbdc2af1c8c8c5e9838d5c3bf7ede849f60e061477dce4ec73a1e10053ec240c08484846040516111ac93929190613339565b60405180910390a15092915050565b6111c3611c99565b6111cc81611cb4565b600b8190556040518181527f879382899c61e679db091d48ae2646f0021988fe20a18f21e1b856acbc57bb5c90602001610bc7565b60008061120c611d19565b611214611d62565b60006112208787611d8b565b905061123461122f8883612056565b6121d6565b60008061124183886121f9565b9196509250905060006112538b612369565b90508060600151600014611302576112748188600001518960200151612409565b9450600061129a8260a00151896060015161128f9190613382565b606084015190611d8b565b905080826000018181516112ae919061336f565b90525060c0820180518291906112c590839061336f565b905250606082015161012083015160408a01516112ec92916112e691613395565b906124aa565b826080018181516112fd91906133b5565b905250505b6000856113188c8460000151611058919061336f565b6113229190613395565b905060008112156113465760405163845dfc3960e01b815260040160405180910390fd5b6040518061016001604052806113658360ff81901c6000039081011890565b815260200185846020015161137a919061336f565b815260200184846040015161138f919061336f565b81526020018884606001516113a4919061336f565b815260200183608001518152602001896060015181526020018360c0015181526020018960000151815260200189602001518152602001896040015181526020014381525091506113f58c836124f7565b50505050509550959350505050565b61140c611c99565b6114166000612581565b565b611420611c99565b61142981611cb4565b60018190556040518181527fd34babb0abb9a72918553cfe7b3612443c81b3ea59ba0f751d2bb7224d18d40790602001610bc7565b611466611c99565b6014829055601581905560408051838152602081018390527f7338f3784ceb8f9456bac0c4a69f1c6354dc325fa6455e3e3f6a8a9bf9249a7c91015b60405180910390a15050565b6114b6611c99565b6114bf81611cb4565b60058190556040518181527f6f825f18b787836f7cf974799b160538ab237aa0d14af3611fa69683a40c6d2290602001610bc7565b6000806000611501611d19565b600061150c87612369565b905080606001518611156115335760405163827e7b7f60e01b815260040160405180910390fd5b61154b868260600151836020015184604001516125bf565b90508094505060006115668287600001518860200151612409565b905061157f8260a00151876060015161128f9190613382565b9250828260c001818151611593919061336f565b9052508151839083906115a790839061336f565b90525060608201516000906115bd908990613382565b9050600081156116f957606084015184516115d9918b90612127565b9550826115ef8786600001516110589190613382565b6115f99190613395565b9050600081121561161d5760405163845dfc3960e01b815260040160405180910390fd5b611636828561012001518a604001516112e69190613395565b8460800181815161164791906133b5565b9052506040805161016081019091528060ff83901c60000380840118815260200161168584876060015188602001516121279092919063ffffffff16565b81526020016116a784876060015188604001516121279092919063ffffffff16565b815260200183815260200185608001518152602001896060015181526020018560c00151815260200189600001518152602001896020015181526020018960400151815260200143815250935061179c565b82611707856000015161206b565b6117119190613395565b905060008112156117355760405163845dfc3960e01b815260040160405180910390fd5b60ff81901c600003808201189550604051806101600160405280600081526020016000815260200160008152602001600081526020016000815260200160008152602001600081526020016000815260200160008152602001600081526020014381525093505b6117a68a856124f7565b5050505093509350939050565b6117bb611c99565b6000805482158015620100000262ff00001990921691909117909155611807576040517fed1cd0670ee0c0017f550451a038818c696d0b6a9d6ce5b369e44275573cf9b090600090a150565b6040517ff0c683001104e62ea6db2065e069e1df46185d033db8cf4494df0a516cf537cb90600090a15b50565b6118666040518060a0016040528060008152602001600081526020016000815260200160008152602001600081525090565b6040518060a0016040528060015481526020016009548152602001600a548152602001600b548152602001600554815250905090565b6118a4611c99565b6118ad81611cb4565b60078190556040518181527f878cd65339a771e627bc9856c713f02fec044bd7607db61e3858f8d56e4ea4f590602001610bc7565b6000816000036118f457506000919050565b610f43600354610f5960015485611d8b90919063ffffffff16565b6119416040518060a0016040528060008152602001600081526020016000815260200160008152602001600081525090565b506040805160a0810182526001548152600254602082015260035491810191909152600454606082015260055460808201526013549091565b611982611c99565b61198b81611cb4565b60028190556040518181527f2534b354f571d8b893b9b19bf8e789ecd1e4234bd2f4dd8bf69a1076215e082590602001610bc7565b6000610f408383601054601154611da0565b6000610f436119e260105461206b565b61105d61105861105386601254611d8b90919063ffffffff16565b611a05612f52565b610f4382612369565b611a16611c99565b611a1f81611cb4565b60038190556040518181527f84768b1f13e0bce8851491951ac15cf6a8449926307a23459606a32bc9b3658090602001610bc7565b6000806000611a61611d19565b611a69611d62565b60195460175442821115611a90576040516313a2f3df60e31b815260040160405180910390fd5b611a9b6018546126bc565b9350611aa5611fa3565b92506000611ab28461206b565b611abb8661206b565b611ac59190613395565b905062015180611ad48361206b565b611ade90836133dd565b611ae8919061340d565b95506000601a5442611afa919061336f565b90506000610e10611b0b858761336f565b611b15919061330f565b611b2190610e1061343b565b9050808210828218028218601955611b3988876126f2565b600e5560408051898152602081018890527fd2805fe76d30598332a67c1061cee82e2e102b0f59f5457b1729bce028a054a0910160405180910390a15050505050909192565b611b87611c99565b600c91909155600d55565b611b9a611c99565b63389a75e1600c52806000526020600c208054421115611bc257636f5e88186000526004601cfd5b6000905561183181612581565b611bd7611c99565b8060601b611bed57637448fbae6000526004601cfd5b61183181612581565b60008080846001811115611c0c57611c0c613323565b03611c265782601154611c1f919061336f565b9050611c37565b82601154611c349190613382565b90505b601254600090611c479083612056565b9050610fd98183612056565b611c5b611c99565b611c6481611cb4565b60098190556040518181527fd67453718fc57aad470d91be51568530ed02cc941c846cd9e281dc56b300e95e90602001610bc7565b638b78c6d819543314611416576382b429006000526004601cfd5b670de0b6b3a7640000811115611831576040516306a4309560e01b815260040160405180910390fd5b6001600160a01b0316638b78c6d8198190558060007f8be0079c531659141344cd1fd0a4f28419497f9722a3daafe3b4186f6b6457e08180a350565b336001600160a01b037f00000000000000000000000000000000000000000000000000000000000000001614611416576040516308abb64b60e21b815260040160405180910390fd5b60005462010000900460ff1661141657604051637dc579d960e11b815260040160405180910390fd5b6000610f408383670de0b6b3a7640000612127565b600083600003611db257506000611e2f565b600080866001811115611dc757611dc7613323565b03611dd55750828401611de2565b611ddf8585613382565b90505b80600003611e0357604051632dce15e160e01b815260040160405180910390fd5b601254600090611e139083612056565b9050611e2a611e218261206b565b61105d8661206b565b925050505b949350505050565b611e438484848461271f565b6000846001811115611e5757611e57613323565b03611eb2578260106000828254611e6e919061336f565b925050819055508160116000828254611e879190613382565b90915550611e9690508261206b565b60166000828254611ea791906133b5565b90915550611f039050565b8260106000828254611ec49190613382565b925050819055508160116000828254611edd919061336f565b90915550611eec90508261206b565b60166000828254611efd9190613395565b90915550505b611f0b612813565b50505050565b600083600003611f2357506000611e2f565b600080866001811115611f3857611f38613323565b03611f4e57611f47858461336f565b9050611f5b565b611f588584613382565b90505b80600003611f7c5760405163e7a61c5760e01b815260040160405180910390fd5b601254600090611f8c9083612056565b9050611e2a611f9a8661206b565b61105d8361206b565b6040516341976e0960e01b81523060048201526000907f00000000000000000000000000000000000000000000000000000000000000006001600160a01b0316906341976e0990602401602060405180830381865afa15801561200a573d6000803e3d6000fd5b505050506040513d601f19601f82011682018060405250810190610f779190613452565b60115460009080820361204357600091505090565b6010546120509082612056565b91505090565b6000610f4083670de0b6b3a764000084612127565b6000600160ff1b821061208057612080612a6a565b5090565b6000610f4361209b83670de0b6b3a764000061343b565b70ffffffffffffffffffffffffffffffffff811160071b81811c68ffffffffffffffffff1060061b1781811c64ffffffffff1060051b1781811c62ffffff1060041b1781811c620100000160b5600192831c1b0260121c80830401811c80830401811c80830401811c80830401811c80830401811c80830401811c80830401901c908190048111900390565b6000838302600019848609818110820190038061215c57836121515763ae47f7026000526004601cfd5b5082900490506121cf565b8084116121715763ae47f7026000526004601cfd5b8385870960008581038616958690049582850381900494909211909203600192829003919091049190910102176002600384028118808502820302808502820302808502820302808502820302808502820302808502909103020290505b9392505050565b6009548110156118315760405163f9322cc160e01b815260040160405180910390fd5b6010546011546013546000928392839261221460028961330f565b9450811561225557612227858385612127565b935061224e612237858385612127565b612242878487612127565b90808218908211021890565b9550612287565b600f54612263908690612056565b93506103e86122756110538787611d8b565b61227f9190613382565b95506103e890505b856000036122a85760405163039271df60e11b815260040160405180910390fd5b868610156122c957604051630ed2849160e11b815260040160405180910390fd5b6122d3858461336f565b92506122df848361336f565b91506122eb868261336f565b60138190556010849055601183905590506123068383611d8b565b6012556040805186815260208101869052908101879052606081018490526080810183905260a081018290527f1530ec748a27514ffab0987654233a80256393e127bdf02d94e32ff3c7148ec69060c00160405180910390a15050509250925092565b612371612f52565b506001600160a01b03166000908152601c6020908152604091829020825161016081018452815481526001820154928101929092526002810154928201929092526003820154606082015260048201546080820152600582015460a0820152600682015460c0820152600782015460e082015260088201546101008201526009820154610120820152600a9091015461014082015290565b600083606001516000146121cf5760008460e00151846124299190613395565b9050612465856060015161244b83886101200151612a7890919063ffffffff16565b61010088015161245b9087613395565b6112e69190613395565b60808601516124749083612a78565b61247e91906133b5565b915060008212156124a2576124956103e88361340d565b61249f9083613395565b91505b509392505050565b600080831280156124c1576124be8461346b565b93505b6124d76110588585670de0b6b3a7640000612127565b915080156124f0576124e88261346b565b915050610f43565b5092915050565b6001600160a01b039091166000908152601c602090815260409182902083518155908301516001820155908201516002820155606082015160038201556080820151600482015560a0820151600582015560c0820151600682015560e082015160078201556101008201516008820155610120820151600982015561014090910151600a90910155565b638b78c6d81980546001600160a01b039092169182907f8be0079c531659141344cd1fd0a4f28419497f9722a3daafe3b4186f6b6457e0600080a355565b60105460115460135460009283929091836125db8a8584612127565b905060006125ea8b8585612127565b90506125f68286613382565b94506126028185613382565b935061260e8b84613382565b60108690556011859055601381905592506126298585611d8b565b601255898b036126565761263c8861206b565b6126458261206b565b61264f9190613395565b9550612687565b612664611058898d8d612127565b61266d8261206b565b6126779190613395565b9550612684898c8c612127565b98505b60008613156126a15761269a828a613382565b96506126ae565b6126ab8983613382565b96505b505050505094509492505050565b60006126c6612fac565b6000808252601b54908190036126de57611e2f61202e565b60001981016020830152611e2f8285612ae2565b60008083128015612709576127068461346b565b93505b6124d761105885670de0b6b3a764000086612127565b60075415611f0b57600080612732612ccf565b9150915081600003612745575050611f0b565b60105460115460006127578383612056565b90508481118061276657508381105b156127845760405163090b0cb760e31b815260040160405180910390fd5b8561280857600089600181111561279d5761279d613323565b146127c4576127bf6127af888461336f565b6127b98a86613382565b90612056565b6127db565b6127db6127d18884613382565b6127b98a8661336f565b9050848111806127ea57508381105b156128085760405163090b0cb760e31b815260040160405180910390fd5b505050505050505050565b601b54439060008190036128fc57604080516080810182526010548152601154602082019081524292820192835260608201858152601b805460018101825560009190915292517f3ad8aa4f87544323a9d1e5dd902f40c356527a7955687113db5f9a85ad579dc160049094029384015590517f3ad8aa4f87544323a9d1e5dd902f40c356527a7955687113db5f9a85ad579dc283015591517f3ad8aa4f87544323a9d1e5dd902f40c356527a7955687113db5f9a85ad579dc382015590517f3ad8aa4f87544323a9d1e5dd902f40c356527a7955687113db5f9a85ad579dc490910155612a26565b601b80546000919061291090600190613382565b8154811061292057612920613487565b906000526020600020906004020190508060030154830361294d5760105481556011546001820155612a24565b604080516080810182526010548152601154602082019081524292820192835260608201868152601b805460018101825560009190915292517f3ad8aa4f87544323a9d1e5dd902f40c356527a7955687113db5f9a85ad579dc160049094029384015590517f3ad8aa4f87544323a9d1e5dd902f40c356527a7955687113db5f9a85ad579dc283015591517f3ad8aa4f87544323a9d1e5dd902f40c356527a7955687113db5f9a85ad579dc382015590517f3ad8aa4f87544323a9d1e5dd902f40c356527a7955687113db5f9a85ad579dc4909101555b505b60105460115460408051928352602083019190915242908201527f15f6b01ebee55f22647a0fd0efc2a236df7f7e1a93fcd2547e54da88f4c4f623906060016114a2565b6335278d126000526004601cfd5b6000808312818312808214158215612a9657612a938661346b565b95505b8115612aa857612aa58561346b565b94505b612abe6110588787670de0b6b3a7640000612127565b93508015612ad957612acf8461346b565b9350505050610f43565b50505092915050565b600080612aee84612e1b565b905082600003612aff579050610f43565b6000612b0b8442613382565b90506000601b866020015181548110612b2657612b26613487565b90600052602060002090600402016040518060800160405290816000820154815260200160018201548152602001600282015481526020016003820154815250509050601b8054905060011480612b81575081816040015111155b15612b9157829350505050610f43565b60408101516000612ba28242613382565b90506000612bb0828761343b565b90505b8860200151600003612bd657612bc9828261330f565b9650505050505050610f43565b601b89602001805160019003908181525081548110612bf757612bf7613487565b90600052602060002090600402016040518060800160405290816000820154815260200160018201548152602001600282015481526020016003820154815250509350612c4389612e1b565b955084846040015111612c7557612c5a8584613382565b612c64908761343b565b612c6e908261336f565b9050612cb8565b6000846040015184612c879190613382565b9050612c93818861343b565b612c9d908361336f565b9150612ca9818461336f565b92508460400151935050612bb3565b612cc2888261330f565b9998505050505050505050565b601b546000908190808203612ce957506000928392509050565b6000601b612cf8600184613382565b81548110612d0857612d08613487565b90600052602060002090600402016040518060800160405290816000820154815260200160018201548152602001600282015481526020016003820154815250509050438160600151148015612d5e5750600182115b15612dc457601b612d70600284613382565b81548110612d8057612d80613487565b906000526020600020906004020160405180608001604052908160008201548152602001600182015481526020016002820154815260200160038201548152505090505b60208101518151600091612dd89190612056565b600754909150612dfa612df382670de0b6b3a764000061336f565b8390611d8b565b9550612e11612df382670de0b6b3a7640000613382565b9450505050509091565b600080601b836020015181548110612e3557612e35613487565b6000918252602080832060408051608081018252600490940290910180548452600181015492840192909252600282015490830152600301546060820152915083516001811115612e8857612e88613323565b03612e9d57602081015181516121cf91612056565b600183516001811115612eb257612eb2613323565b03612f4c57826040015160200151600003612ed05750600092915050565b60008360400151604001516001811115612eec57612eec613323565b03612f0e57604083015180516020918201518351928401516121cf9390611da0565b60018360400151604001516001811115612f2a57612f2a613323565b03612f4c57604083015180516020918201518351928401516121cf9390611f11565b50919050565b60405180610160016040528060008152602001600081526020016000815260200160008152602001600081526020016000815260200160008152602001600081526020016000815260200160008152602001600081525090565b6040805160608101825260008082526020820152908101612fe460408051606081018252600080825260208201819052909182015290565b905290565b600060208284031215612ffb57600080fd5b5035919050565b80356001600160a01b038116811461301957600080fd5b919050565b6000806000806000806000806000806101408b8d03121561303e57600080fd5b6130478b613002565b9c60208c01359c5060408c01359b60608101359b5060808101359a5060a0810135995060c0810135985060e0810135975061010081013596506101200135945092505050565b80356002811061301957600080fd5b8035801515811461301957600080fd5b6000806000606084860312156130c157600080fd5b6130ca8461308d565b9250602084013591506130df6040850161309c565b90509250925092565b600080604083850312156130fb57600080fd5b6131048361308d565b946020939093013593505050565b60006080828403121561312457600080fd5b6040516080810181811067ffffffffffffffff8211171561315557634e487b7160e01b600052604160045260246000fd5b8060405250809150823581526020830135602082015260408301356040820152606083013560608201525092915050565b6000806000806000610100868803121561319f57600080fd5b6131a886613002565b94506020860135935060408601359250606086013591506131cc8760808801613112565b90509295509295909350565b600080604083850312156131eb57600080fd5b50508035926020909101359150565b600080600060c0848603121561320f57600080fd5b61321884613002565b9250602084013591506130df8560408601613112565b60006020828403121561324057600080fd5b610f408261309c565b60a08101610f43828480518252602081015160208301526040810151604083015260608101516060830152608081015160808301525050565b60c081016132bb828580518252602081015160208301526040810151604083015260608101516060830152608081015160808301525050565b8260a08301529392505050565b6000602082840312156132da57600080fd5b610f4082613002565b634e487b7160e01b600052601260045260246000fd5b634e487b7160e01b600052601160045260246000fd5b60008261331e5761331e6132e3565b500490565b634e487b7160e01b600052602160045260246000fd5b606081016002851061335b57634e487b7160e01b600052602160045260246000fd5b938152602081019290925260409091015290565b80820180821115610f4357610f436132f9565b81810381811115610f4357610f436132f9565b81810360008312801583831316838312821617156124f0576124f06132f9565b80820182811260008312801582168215821617156133d5576133d56132f9565b505092915050565b80820260008212600160ff1b841416156133f9576133f96132f9565b8181058314821517610f4357610f436132f9565b60008261341c5761341c6132e3565b600160ff1b821460001984141615613436576134366132f9565b500590565b8082028115828204841417610f4357610f436132f9565b60006020828403121561346457600080fd5b5051919050565b6000600160ff1b8201613480576134806132f9565b5060000390565b634e487b7160e01b600052603260045260246000fdfea2646970667358221220041f8999c977c6d95b63c81b38a92daa01b23359dde304a0fdebfba08a6ec04f64736f6c63430008130033",
        "linkReferences": {}
    },
    "methodIdentifiers": {
        "addLiquidity(address,uint256,uint256,uint256,(int256,int256,int256,uint256))": "682580fc",
        "calcLimitFee(uint256)": "c5745e86",
        "cancelOwnershipHandover()": "54d1f13d",
        "clearingHouse()": "0af96800",
        "completeOwnershipHandover(address)": "f04e283e",
        "getBaseFeeRatio()": "13d0143d",
        "getBaseToFill(uint256)": "5c220aa1",
        "getFeeRatiosTotalSupply()": "cc35489c",
        "getFluctuationLimitRatio()": "cc85f5f2",
        "getFundingPeriod()": "b5e2b047",
        "getIndexPrice()": "58c0994a",
        "getInitializationPrice()": "c0e0980c",
        "getInputPrice(uint8,uint256)": "d2b0b0f2",
        "getLiquidationFeeRatio()": "05307703",
        "getLiquidationPrice()": "46558d1b",
        "getMakerPosition(address)": "d3e41606",
        "getMakerValueTotalLiquidityTPS(uint256)": "64b3cd8e",
        "getMarginRatio()": "4f3c1542",
        "getMarkPrice()": "60409632",
        "getMarkPriceAfterClose(uint8,uint256)": "f36bdbc9",
        "getMarkPriceAfterOpen(uint8,uint256)": "4d85468b",
        "getMaxSize()": "63e1d57c",
        "getNextFundingTime()": "b626382d",
        "getOpenInterestCap()": "162ca710",
        "getOpenMarginRatio()": "bce2020d",
        "getOutputPrice(uint8,uint256)": "4170cd5e",
        "getPartialLiquidationRatio()": "6d206d6d",
        "getQuoteToFill(uint256)": "d3c7f026",
        "getRatios()": "b13c86a3",
        "getReserves()": "0902f1ac",
        "getReservesAndK()": "c24e3859",
        "getReservesAndTotalLiquidity()": "20e8e2d2",
        "getTotalPositionSize()": "ffbf688e",
        "getTotalSupply()": "c4e41b22",
        "getTradeLimitRatio()": "89058b7d",
        "getTwapInterval()": "3e742e3b",
        "initialize(address,uint256,uint256,uint256,uint256,uint256,uint256,uint256,uint256,uint256)": "0b87d6e3",
        "owner()": "8da5cb5b",
        "ownershipHandoverExpiresAt(address)": "fee81cf4",
        "ownershipHandoverValidFor()": "d7533f02",
        "priceFeed()": "741bef1a",
        "removeLiquidity(address,uint256,(int256,int256,int256,uint256))": "ab7ab903",
        "renounceOwnership()": "715018a6",
        "requestOwnershipHandover()": "25692962",
        "setAMMFeeRatio(uint256)": "d152a859",
        "setActive(bool)": "acec338a",
        "setBaseFeeRatio(uint256)": "80295a74",
        "setCap(uint256,uint256)": "989292da",
        "setFluctationLimitRatio(uint256)": "b885a356",
        "setFundingPeriod(uint256)": "2a5aa292",
        "setInitMarginRatio(uint256)": "fbede224",
        "setKeeperFeeRatio(uint256)": "32a9569a",
        "setLimitMakerFeeRatio(uint256)": "e2559a83",
        "setLiquidationFeeRatio(uint256)": "a9ec1416",
        "setMaintenanceMarginRatio(uint256)": "08e9ef43",
        "setPartialLiquidationRatio(uint256)": "67acf241",
        "setTradeLimitRatio(uint256)": "20fa4f8e",
        "setTwapInterval(uint256)": "5ea679ef",
        "setWeights(uint256,uint256)": "ef6ffef2",
        "settleFunding()": "ed83d79c",
        "swapClose(uint8,uint256)": "65f66425",
        "swapOpen(uint8,uint256,bool)": "36dac706",
        "transferOwnership(address)": "f2fde38b"
    },
    "id": 39
}