{
    "abi": [
        {
            "inputs": [
                {
                    "internalType": "address",
                    "name": "_weth",
                    "type": "address"
                },
                {
                    "internalType": "address",
                    "name": "_insuranceFund",
                    "type": "address"
                },
                {
                    "internalType": "address",
                    "name": "_positionManager",
                    "type": "address"
                }
            ],
            "stateMutability": "nonpayable",
            "type": "constructor"
        },
        {
            "inputs": [],
            "name": "BAD_DEBT",
            "type": "error"
        },
        {
            "inputs": [],
            "name": "INACTIVE",
            "type": "error"
        },
        {
            "inputs": [],
            "name": "INACTIVE_REDUCE_ONLY_ORDER",
            "type": "error"
        },
        {
            "inputs": [],
            "name": "INSUFFICIENT_LIQUIDITY",
            "type": "error"
        },
        {
            "inputs": [],
            "name": "INVALID_AMM",
            "type": "error"
        },
        {
            "inputs": [],
            "name": "INVALID_MARGIN_RATIO",
            "type": "error"
        },
        {
            "inputs": [],
            "name": "INVALID_SIDE",
            "type": "error"
        },
        {
            "inputs": [],
            "name": "INVALID_TRIGGER_AMOUNT",
            "type": "error"
        },
        {
            "inputs": [],
            "name": "NOT_LIMIT_CLOSE",
            "type": "error"
        },
        {
            "inputs": [],
            "name": "NOT_LIQUIDATABLE",
            "type": "error"
        },
        {
            "inputs": [],
            "name": "NOT_TRADER",
            "type": "error"
        },
        {
            "inputs": [],
            "name": "NO_POSITION",
            "type": "error"
        },
        {
            "inputs": [],
            "name": "NewOwnerIsZeroAddress",
            "type": "error"
        },
        {
            "inputs": [],
            "name": "NoHandoverRequest",
            "type": "error"
        },
        {
            "inputs": [],
            "name": "TRIGGER_ON_MARK",
            "type": "error"
        },
        {
            "inputs": [],
            "name": "Unauthorized",
            "type": "error"
        },
        {
            "anonymous": false,
            "inputs": [],
            "name": "Activated",
            "type": "event"
        },
        {
            "anonymous": false,
            "inputs": [],
            "name": "Deactived",
            "type": "event"
        },
        {
            "anonymous": false,
            "inputs": [
                {
                    "indexed": true,
                    "internalType": "contract IAMM",
                    "name": "amm",
                    "type": "address"
                },
                {
                    "indexed": false,
                    "internalType": "uint256",
                    "name": "markPrice",
                    "type": "uint256"
                },
                {
                    "indexed": false,
                    "internalType": "uint256",
                    "name": "indexPrice",
                    "type": "uint256"
                },
                {
                    "indexed": false,
                    "internalType": "int256",
                    "name": "premiumFractionLong",
                    "type": "int256"
                },
                {
                    "indexed": false,
                    "internalType": "int256",
                    "name": "premiumFractionShort",
                    "type": "int256"
                },
                {
                    "indexed": false,
                    "internalType": "int256",
                    "name": "insuranceFundPnL",
                    "type": "int256"
                }
            ],
            "name": "FundingPayment",
            "type": "event"
        },
        {
            "anonymous": false,
            "inputs": [
                {
                    "indexed": true,
                    "internalType": "contract IAMM",
                    "name": "amm",
                    "type": "address"
                },
                {
                    "indexed": false,
                    "internalType": "uint256",
                    "name": "markPrice",
                    "type": "uint256"
                },
                {
                    "indexed": false,
                    "internalType": "uint256",
                    "name": "indexPrice",
                    "type": "uint256"
                },
                {
                    "indexed": false,
                    "internalType": "int256",
                    "name": "premiumFraction",
                    "type": "int256"
                },
                {
                    "indexed": false,
                    "internalType": "int256",
                    "name": "insuranceFundPnL",
                    "type": "int256"
                }
            ],
            "name": "FundingSettled",
            "type": "event"
        },
        {
            "anonymous": false,
            "inputs": [
                {
                    "indexed": false,
                    "internalType": "uint8",
                    "name": "version",
                    "type": "uint8"
                }
            ],
            "name": "Initialized",
            "type": "event"
        },
        {
            "anonymous": false,
            "inputs": [
                {
                    "indexed": true,
                    "internalType": "bytes32",
                    "name": "id",
                    "type": "bytes32"
                },
                {
                    "indexed": false,
                    "internalType": "bool",
                    "name": "filled",
                    "type": "bool"
                }
            ],
            "name": "LimitOrderRemoved",
            "type": "event"
        },
        {
            "anonymous": false,
            "inputs": [
                {
                    "indexed": true,
                    "internalType": "bytes32",
                    "name": "id",
                    "type": "bytes32"
                },
                {
                    "components": [
                        {
                            "internalType": "address",
                            "name": "trader",
                            "type": "address"
                        },
                        {
                            "internalType": "contract IAMM",
                            "name": "amm",
                            "type": "address"
                        },
                        {
                            "internalType": "enum Side",
                            "name": "side",
                            "type": "uint8"
                        },
                        {
                            "internalType": "uint256",
                            "name": "trigger",
                            "type": "uint256"
                        },
                        {
                            "internalType": "uint256",
                            "name": "quoteAmount",
                            "type": "uint256"
                        },
                        {
                            "internalType": "uint256",
                            "name": "leverage",
                            "type": "uint256"
                        },
                        {
                            "internalType": "bool",
                            "name": "reduceOnly",
                            "type": "bool"
                        }
                    ],
                    "indexed": false,
                    "internalType": "struct LimitOrder",
                    "name": "order",
                    "type": "tuple"
                }
            ],
            "name": "LimitOrderUpdated",
            "type": "event"
        },
        {
            "anonymous": false,
            "inputs": [
                {
                    "indexed": true,
                    "internalType": "contract IAMM",
                    "name": "amm",
                    "type": "address"
                },
                {
                    "indexed": true,
                    "internalType": "address",
                    "name": "maker",
                    "type": "address"
                },
                {
                    "indexed": false,
                    "internalType": "uint256",
                    "name": "liquidity",
                    "type": "uint256"
                }
            ],
            "name": "LiquidityAdded",
            "type": "event"
        },
        {
            "anonymous": false,
            "inputs": [
                {
                    "indexed": true,
                    "internalType": "contract IAMM",
                    "name": "amm",
                    "type": "address"
                },
                {
                    "indexed": true,
                    "internalType": "address",
                    "name": "maker",
                    "type": "address"
                },
                {
                    "indexed": false,
                    "internalType": "uint256",
                    "name": "liquidity",
                    "type": "uint256"
                },
                {
                    "indexed": false,
                    "internalType": "int256",
                    "name": "fundingPayment",
                    "type": "int256"
                },
                {
                    "indexed": false,
                    "internalType": "uint256",
                    "name": "fee",
                    "type": "uint256"
                }
            ],
            "name": "LiquidityRemoved",
            "type": "event"
        },
        {
            "anonymous": false,
            "inputs": [
                {
                    "indexed": true,
                    "internalType": "contract IAMM",
                    "name": "amm",
                    "type": "address"
                },
                {
                    "indexed": true,
                    "internalType": "address",
                    "name": "trader",
                    "type": "address"
                },
                {
                    "indexed": false,
                    "internalType": "uint256",
                    "name": "amount",
                    "type": "uint256"
                }
            ],
            "name": "MarginAdded",
            "type": "event"
        },
        {
            "anonymous": false,
            "inputs": [
                {
                    "indexed": true,
                    "internalType": "contract IAMM",
                    "name": "amm",
                    "type": "address"
                },
                {
                    "indexed": true,
                    "internalType": "address",
                    "name": "trader",
                    "type": "address"
                },
                {
                    "indexed": false,
                    "internalType": "uint256",
                    "name": "amount",
                    "type": "uint256"
                }
            ],
            "name": "MarginRemoved",
            "type": "event"
        },
        {
            "anonymous": false,
            "inputs": [
                {
                    "indexed": true,
                    "internalType": "contract IAMM",
                    "name": "amm",
                    "type": "address"
                },
                {
                    "indexed": false,
                    "internalType": "uint256",
                    "name": "newOpenInterest",
                    "type": "uint256"
                }
            ],
            "name": "OpenInterestChanged",
            "type": "event"
        },
        {
            "anonymous": false,
            "inputs": [
                {
                    "indexed": true,
                    "internalType": "address",
                    "name": "pendingOwner",
                    "type": "address"
                }
            ],
            "name": "OwnershipHandoverCanceled",
            "type": "event"
        },
        {
            "anonymous": false,
            "inputs": [
                {
                    "indexed": true,
                    "internalType": "address",
                    "name": "pendingOwner",
                    "type": "address"
                }
            ],
            "name": "OwnershipHandoverRequested",
            "type": "event"
        },
        {
            "anonymous": false,
            "inputs": [
                {
                    "indexed": true,
                    "internalType": "address",
                    "name": "oldOwner",
                    "type": "address"
                },
                {
                    "indexed": true,
                    "internalType": "address",
                    "name": "newOwner",
                    "type": "address"
                }
            ],
            "name": "OwnershipTransferred",
            "type": "event"
        },
        {
            "anonymous": false,
            "inputs": [
                {
                    "indexed": true,
                    "internalType": "contract IAMM",
                    "name": "amm",
                    "type": "address"
                },
                {
                    "indexed": true,
                    "internalType": "address",
                    "name": "trader",
                    "type": "address"
                },
                {
                    "indexed": false,
                    "internalType": "uint256",
                    "name": "openNotional",
                    "type": "uint256"
                },
                {
                    "indexed": false,
                    "internalType": "int256",
                    "name": "size",
                    "type": "int256"
                },
                {
                    "indexed": false,
                    "internalType": "uint256",
                    "name": "exchangedQuote",
                    "type": "uint256"
                },
                {
                    "indexed": false,
                    "internalType": "int256",
                    "name": "exchangedSize",
                    "type": "int256"
                },
                {
                    "indexed": false,
                    "internalType": "int256",
                    "name": "realizedPnL",
                    "type": "int256"
                },
                {
                    "indexed": false,
                    "internalType": "int256",
                    "name": "fundingPayment",
                    "type": "int256"
                },
                {
                    "indexed": false,
                    "internalType": "uint256",
                    "name": "markPrice",
                    "type": "uint256"
                },
                {
                    "indexed": false,
                    "internalType": "uint256",
                    "name": "ifFee",
                    "type": "uint256"
                },
                {
                    "indexed": false,
                    "internalType": "uint256",
                    "name": "ammFee",
                    "type": "uint256"
                },
                {
                    "indexed": false,
                    "internalType": "uint256",
                    "name": "limitFee",
                    "type": "uint256"
                },
                {
                    "indexed": false,
                    "internalType": "uint256",
                    "name": "keeperFee",
                    "type": "uint256"
                }
            ],
            "name": "PositionChanged",
            "type": "event"
        },
        {
            "anonymous": false,
            "inputs": [
                {
                    "indexed": true,
                    "internalType": "contract IAMM",
                    "name": "amm",
                    "type": "address"
                },
                {
                    "indexed": true,
                    "internalType": "address",
                    "name": "trader",
                    "type": "address"
                },
                {
                    "indexed": true,
                    "internalType": "address",
                    "name": "liquidator",
                    "type": "address"
                },
                {
                    "indexed": false,
                    "internalType": "uint256",
                    "name": "liquidatedPositionNotional",
                    "type": "uint256"
                },
                {
                    "indexed": false,
                    "internalType": "uint256",
                    "name": "liquidatedPositionSize",
                    "type": "uint256"
                },
                {
                    "indexed": false,
                    "internalType": "uint256",
                    "name": "liquidationReward",
                    "type": "uint256"
                },
                {
                    "indexed": false,
                    "internalType": "uint256",
                    "name": "insuranceFundProfit",
                    "type": "uint256"
                },
                {
                    "indexed": false,
                    "internalType": "uint256",
                    "name": "badDebt",
                    "type": "uint256"
                }
            ],
            "name": "PositionLiquidated",
            "type": "event"
        },
        {
            "anonymous": false,
            "inputs": [
                {
                    "indexed": true,
                    "internalType": "bytes32",
                    "name": "id",
                    "type": "bytes32"
                },
                {
                    "indexed": true,
                    "internalType": "address",
                    "name": "keeper",
                    "type": "address"
                }
            ],
            "name": "TriggerOrderRemoved",
            "type": "event"
        },
        {
            "anonymous": false,
            "inputs": [
                {
                    "indexed": true,
                    "internalType": "bytes32",
                    "name": "id",
                    "type": "bytes32"
                },
                {
                    "components": [
                        {
                            "internalType": "address",
                            "name": "trader",
                            "type": "address"
                        },
                        {
                            "internalType": "contract IAMM",
                            "name": "amm",
                            "type": "address"
                        },
                        {
                            "internalType": "uint256",
                            "name": "trigger",
                            "type": "uint256"
                        },
                        {
                            "internalType": "uint256",
                            "name": "size",
                            "type": "uint256"
                        },
                        {
                            "internalType": "uint256",
                            "name": "quoteLimit",
                            "type": "uint256"
                        },
                        {
                            "internalType": "bool",
                            "name": "takeProfit",
                            "type": "bool"
                        }
                    ],
                    "indexed": false,
                    "internalType": "struct TriggerOrder",
                    "name": "order",
                    "type": "tuple"
                }
            ],
            "name": "TriggerOrderUpdated",
            "type": "event"
        },
        {
            "inputs": [
                {
                    "internalType": "contract IAMM",
                    "name": "amm",
                    "type": "address"
                }
            ],
            "name": "activateAMM",
            "outputs": [],
            "stateMutability": "nonpayable",
            "type": "function"
        },
        {
            "inputs": [
                {
                    "internalType": "contract IAMM",
                    "name": "amm",
                    "type": "address"
                },
                {
                    "internalType": "uint256",
                    "name": "margin",
                    "type": "uint256"
                },
                {
                    "internalType": "uint256",
                    "name": "leverage",
                    "type": "uint256"
                },
                {
                    "internalType": "uint256",
                    "name": "minLiquidity",
                    "type": "uint256"
                }
            ],
            "name": "addLiquidity",
            "outputs": [
                {
                    "internalType": "uint256",
                    "name": "liquidity",
                    "type": "uint256"
                }
            ],
            "stateMutability": "nonpayable",
            "type": "function"
        },
        {
            "inputs": [
                {
                    "internalType": "contract IAMM",
                    "name": "amm",
                    "type": "address"
                },
                {
                    "internalType": "uint256",
                    "name": "margin",
                    "type": "uint256"
                }
            ],
            "name": "addMargin",
            "outputs": [],
            "stateMutability": "nonpayable",
            "type": "function"
        },
        {
            "inputs": [],
            "name": "cancelOwnershipHandover",
            "outputs": [],
            "stateMutability": "payable",
            "type": "function"
        },
        {
            "inputs": [
                {
                    "internalType": "contract IAMM",
                    "name": "amm",
                    "type": "address"
                },
                {
                    "internalType": "uint256",
                    "name": "size",
                    "type": "uint256"
                },
                {
                    "internalType": "uint256",
                    "name": "quoteLimit",
                    "type": "uint256"
                }
            ],
            "name": "closePosition",
            "outputs": [],
            "stateMutability": "nonpayable",
            "type": "function"
        },
        {
            "inputs": [
                {
                    "internalType": "contract IAMM",
                    "name": "amm",
                    "type": "address"
                },
                {
                    "internalType": "bytes32",
                    "name": "id",
                    "type": "bytes32"
                }
            ],
            "name": "closePositionKeeper",
            "outputs": [],
            "stateMutability": "nonpayable",
            "type": "function"
        },
        {
            "inputs": [
                {
                    "internalType": "address",
                    "name": "pendingOwner",
                    "type": "address"
                }
            ],
            "name": "completeOwnershipHandover",
            "outputs": [],
            "stateMutability": "payable",
            "type": "function"
        },
        {
            "inputs": [
                {
                    "components": [
                        {
                            "internalType": "address",
                            "name": "trader",
                            "type": "address"
                        },
                        {
                            "internalType": "contract IAMM",
                            "name": "amm",
                            "type": "address"
                        },
                        {
                            "internalType": "enum Side",
                            "name": "side",
                            "type": "uint8"
                        },
                        {
                            "internalType": "uint256",
                            "name": "trigger",
                            "type": "uint256"
                        },
                        {
                            "internalType": "uint256",
                            "name": "quoteAmount",
                            "type": "uint256"
                        },
                        {
                            "internalType": "uint256",
                            "name": "leverage",
                            "type": "uint256"
                        },
                        {
                            "internalType": "bool",
                            "name": "reduceOnly",
                            "type": "bool"
                        }
                    ],
                    "internalType": "struct LimitOrder",
                    "name": "order",
                    "type": "tuple"
                }
            ],
            "name": "createLimitOrder",
            "outputs": [
                {
                    "internalType": "bytes32",
                    "name": "id",
                    "type": "bytes32"
                }
            ],
            "stateMutability": "nonpayable",
            "type": "function"
        },
        {
            "inputs": [
                {
                    "components": [
                        {
                            "internalType": "address",
                            "name": "trader",
                            "type": "address"
                        },
                        {
                            "internalType": "contract IAMM",
                            "name": "amm",
                            "type": "address"
                        },
                        {
                            "internalType": "uint256",
                            "name": "trigger",
                            "type": "uint256"
                        },
                        {
                            "internalType": "uint256",
                            "name": "size",
                            "type": "uint256"
                        },
                        {
                            "internalType": "uint256",
                            "name": "quoteLimit",
                            "type": "uint256"
                        },
                        {
                            "internalType": "bool",
                            "name": "takeProfit",
                            "type": "bool"
                        }
                    ],
                    "internalType": "struct TriggerOrder",
                    "name": "order",
                    "type": "tuple"
                }
            ],
            "name": "createTriggerOrder",
            "outputs": [
                {
                    "internalType": "bytes32",
                    "name": "id",
                    "type": "bytes32"
                }
            ],
            "stateMutability": "nonpayable",
            "type": "function"
        },
        {
            "inputs": [
                {
                    "internalType": "contract IAMM",
                    "name": "amm",
                    "type": "address"
                }
            ],
            "name": "deactivateAMM",
            "outputs": [],
            "stateMutability": "nonpayable",
            "type": "function"
        },
        {
            "inputs": [
                {
                    "internalType": "contract IAMM",
                    "name": "amm",
                    "type": "address"
                },
                {
                    "internalType": "bytes32",
                    "name": "id",
                    "type": "bytes32"
                }
            ],
            "name": "deleteLimitOrder",
            "outputs": [],
            "stateMutability": "nonpayable",
            "type": "function"
        },
        {
            "inputs": [
                {
                    "internalType": "contract IAMM",
                    "name": "amm",
                    "type": "address"
                },
                {
                    "internalType": "address",
                    "name": "trader",
                    "type": "address"
                }
            ],
            "name": "forceLiquidate",
            "outputs": [],
            "stateMutability": "nonpayable",
            "type": "function"
        },
        {
            "inputs": [
                {
                    "internalType": "contract IAMM",
                    "name": "amm",
                    "type": "address"
                }
            ],
            "name": "getAmmActive",
            "outputs": [
                {
                    "internalType": "bool",
                    "name": "",
                    "type": "bool"
                }
            ],
            "stateMutability": "view",
            "type": "function"
        },
        {
            "inputs": [
                {
                    "internalType": "contract IAMM",
                    "name": "amm",
                    "type": "address"
                }
            ],
            "name": "getCumulativePremiumFraction",
            "outputs": [
                {
                    "internalType": "int256",
                    "name": "",
                    "type": "int256"
                }
            ],
            "stateMutability": "view",
            "type": "function"
        },
        {
            "inputs": [
                {
                    "internalType": "contract IAMM",
                    "name": "amm",
                    "type": "address"
                },
                {
                    "internalType": "bytes32",
                    "name": "id",
                    "type": "bytes32"
                }
            ],
            "name": "getLimitOrder",
            "outputs": [
                {
                    "components": [
                        {
                            "internalType": "address",
                            "name": "trader",
                            "type": "address"
                        },
                        {
                            "internalType": "contract IAMM",
                            "name": "amm",
                            "type": "address"
                        },
                        {
                            "internalType": "enum Side",
                            "name": "side",
                            "type": "uint8"
                        },
                        {
                            "internalType": "uint256",
                            "name": "trigger",
                            "type": "uint256"
                        },
                        {
                            "internalType": "uint256",
                            "name": "quoteAmount",
                            "type": "uint256"
                        },
                        {
                            "internalType": "uint256",
                            "name": "leverage",
                            "type": "uint256"
                        },
                        {
                            "internalType": "bool",
                            "name": "reduceOnly",
                            "type": "bool"
                        }
                    ],
                    "internalType": "struct LimitOrder",
                    "name": "",
                    "type": "tuple"
                }
            ],
            "stateMutability": "view",
            "type": "function"
        },
        {
            "inputs": [
                {
                    "internalType": "contract IAMM",
                    "name": "amm",
                    "type": "address"
                },
                {
                    "internalType": "enum Side",
                    "name": "side",
                    "type": "uint8"
                },
                {
                    "internalType": "int24",
                    "name": "tick",
                    "type": "int24"
                }
            ],
            "name": "getLiquidity",
            "outputs": [
                {
                    "components": [
                        {
                            "internalType": "uint256",
                            "name": "liquidity",
                            "type": "uint256"
                        },
                        {
                            "internalType": "bytes32[]",
                            "name": "ids",
                            "type": "bytes32[]"
                        }
                    ],
                    "internalType": "struct Liquidity",
                    "name": "",
                    "type": "tuple"
                }
            ],
            "stateMutability": "view",
            "type": "function"
        },
        {
            "inputs": [
                {
                    "internalType": "contract IAMM",
                    "name": "amm",
                    "type": "address"
                }
            ],
            "name": "getOpenInterestNotional",
            "outputs": [
                {
                    "internalType": "uint256",
                    "name": "",
                    "type": "uint256"
                }
            ],
            "stateMutability": "view",
            "type": "function"
        },
        {
            "inputs": [
                {
                    "internalType": "contract IAMM",
                    "name": "amm",
                    "type": "address"
                },
                {
                    "internalType": "address",
                    "name": "trader",
                    "type": "address"
                }
            ],
            "name": "getPosition",
            "outputs": [
                {
                    "components": [
                        {
                            "internalType": "int256",
                            "name": "size",
                            "type": "int256"
                        },
                        {
                            "internalType": "uint256",
                            "name": "margin",
                            "type": "uint256"
                        },
                        {
                            "internalType": "uint256",
                            "name": "openNotional",
                            "type": "uint256"
                        },
                        {
                            "internalType": "int256",
                            "name": "lastPremiumFraction",
                            "type": "int256"
                        },
                        {
                            "internalType": "uint256",
                            "name": "blockNumber",
                            "type": "uint256"
                        }
                    ],
                    "internalType": "struct Position",
                    "name": "position",
                    "type": "tuple"
                }
            ],
            "stateMutability": "view",
            "type": "function"
        },
        {
            "inputs": [
                {
                    "internalType": "contract IAMM",
                    "name": "amm",
                    "type": "address"
                }
            ],
            "name": "getTotalPositionSize",
            "outputs": [
                {
                    "components": [
                        {
                            "internalType": "int256",
                            "name": "netPositionSize",
                            "type": "int256"
                        },
                        {
                            "internalType": "int256",
                            "name": "netPositionSizePerShare",
                            "type": "int256"
                        },
                        {
                            "internalType": "uint256",
                            "name": "positionSizeLong",
                            "type": "uint256"
                        },
                        {
                            "internalType": "uint256",
                            "name": "positionSizeShort",
                            "type": "uint256"
                        }
                    ],
                    "internalType": "struct TotalPositionSize",
                    "name": "",
                    "type": "tuple"
                }
            ],
            "stateMutability": "view",
            "type": "function"
        },
        {
            "inputs": [
                {
                    "internalType": "address",
                    "name": "_owner",
                    "type": "address"
                }
            ],
            "name": "initialize",
            "outputs": [],
            "stateMutability": "nonpayable",
            "type": "function"
        },
        {
            "inputs": [],
            "name": "insuranceFund",
            "outputs": [
                {
                    "internalType": "contract IInsuranceFund",
                    "name": "",
                    "type": "address"
                }
            ],
            "stateMutability": "view",
            "type": "function"
        },
        {
            "inputs": [],
            "name": "isActive",
            "outputs": [
                {
                    "internalType": "bool",
                    "name": "",
                    "type": "bool"
                }
            ],
            "stateMutability": "view",
            "type": "function"
        },
        {
            "inputs": [
                {
                    "internalType": "contract IAMM",
                    "name": "amm",
                    "type": "address"
                },
                {
                    "internalType": "address",
                    "name": "trader",
                    "type": "address"
                }
            ],
            "name": "isLiquidatable",
            "outputs": [
                {
                    "internalType": "bool",
                    "name": "liquidatable",
                    "type": "bool"
                }
            ],
            "stateMutability": "view",
            "type": "function"
        },
        {
            "inputs": [
                {
                    "internalType": "contract IAMM",
                    "name": "amm",
                    "type": "address"
                },
                {
                    "internalType": "enum Side",
                    "name": "side",
                    "type": "uint8"
                },
                {
                    "internalType": "uint256",
                    "name": "quote",
                    "type": "uint256"
                },
                {
                    "internalType": "uint256",
                    "name": "leverage",
                    "type": "uint256"
                },
                {
                    "internalType": "uint256",
                    "name": "baseLimit",
                    "type": "uint256"
                }
            ],
            "name": "openPosition",
            "outputs": [],
            "stateMutability": "nonpayable",
            "type": "function"
        },
        {
            "inputs": [],
            "name": "owner",
            "outputs": [
                {
                    "internalType": "address",
                    "name": "result",
                    "type": "address"
                }
            ],
            "stateMutability": "view",
            "type": "function"
        },
        {
            "inputs": [
                {
                    "internalType": "address",
                    "name": "pendingOwner",
                    "type": "address"
                }
            ],
            "name": "ownershipHandoverExpiresAt",
            "outputs": [
                {
                    "internalType": "uint256",
                    "name": "result",
                    "type": "uint256"
                }
            ],
            "stateMutability": "view",
            "type": "function"
        },
        {
            "inputs": [],
            "name": "ownershipHandoverValidFor",
            "outputs": [
                {
                    "internalType": "uint64",
                    "name": "",
                    "type": "uint64"
                }
            ],
            "stateMutability": "view",
            "type": "function"
        },
        {
            "inputs": [],
            "name": "positionManager",
            "outputs": [
                {
                    "internalType": "address",
                    "name": "",
                    "type": "address"
                }
            ],
            "stateMutability": "view",
            "type": "function"
        },
        {
            "inputs": [
                {
                    "internalType": "contract IAMM",
                    "name": "amm",
                    "type": "address"
                },
                {
                    "internalType": "uint256",
                    "name": "margin",
                    "type": "uint256"
                }
            ],
            "name": "removeMargin",
            "outputs": [],
            "stateMutability": "nonpayable",
            "type": "function"
        },
        {
            "inputs": [
                {
                    "internalType": "bytes32",
                    "name": "id",
                    "type": "bytes32"
                },
                {
                    "internalType": "contract IAMM",
                    "name": "amm",
                    "type": "address"
                }
            ],
            "name": "removeTriggerOrder",
            "outputs": [],
            "stateMutability": "nonpayable",
            "type": "function"
        },
        {
            "inputs": [],
            "name": "renounceOwnership",
            "outputs": [],
            "stateMutability": "payable",
            "type": "function"
        },
        {
            "inputs": [],
            "name": "requestOwnershipHandover",
            "outputs": [],
            "stateMutability": "payable",
            "type": "function"
        },
        {
            "inputs": [
                {
                    "internalType": "bool",
                    "name": "_active",
                    "type": "bool"
                }
            ],
            "name": "setActive",
            "outputs": [],
            "stateMutability": "nonpayable",
            "type": "function"
        },
        {
            "inputs": [
                {
                    "internalType": "contract IAMM",
                    "name": "amm",
                    "type": "address"
                }
            ],
            "name": "settleFunding",
            "outputs": [],
            "stateMutability": "nonpayable",
            "type": "function"
        },
        {
            "inputs": [
                {
                    "internalType": "address",
                    "name": "newOwner",
                    "type": "address"
                }
            ],
            "name": "transferOwnership",
            "outputs": [],
            "stateMutability": "payable",
            "type": "function"
        },
        {
            "inputs": [
                {
                    "internalType": "bytes32",
                    "name": "id",
                    "type": "bytes32"
                },
                {
                    "components": [
                        {
                            "internalType": "address",
                            "name": "trader",
                            "type": "address"
                        },
                        {
                            "internalType": "contract IAMM",
                            "name": "amm",
                            "type": "address"
                        },
                        {
                            "internalType": "enum Side",
                            "name": "side",
                            "type": "uint8"
                        },
                        {
                            "internalType": "uint256",
                            "name": "trigger",
                            "type": "uint256"
                        },
                        {
                            "internalType": "uint256",
                            "name": "quoteAmount",
                            "type": "uint256"
                        },
                        {
                            "internalType": "uint256",
                            "name": "leverage",
                            "type": "uint256"
                        },
                        {
                            "internalType": "bool",
                            "name": "reduceOnly",
                            "type": "bool"
                        }
                    ],
                    "internalType": "struct LimitOrder",
                    "name": "order",
                    "type": "tuple"
                }
            ],
            "name": "updateLimitOrder",
            "outputs": [],
            "stateMutability": "nonpayable",
            "type": "function"
        },
        {
            "inputs": [
                {
                    "internalType": "bytes32",
                    "name": "id",
                    "type": "bytes32"
                },
                {
                    "internalType": "contract IAMM",
                    "name": "amm",
                    "type": "address"
                },
                {
                    "components": [
                        {
                            "internalType": "address",
                            "name": "trader",
                            "type": "address"
                        },
                        {
                            "internalType": "contract IAMM",
                            "name": "amm",
                            "type": "address"
                        },
                        {
                            "internalType": "uint256",
                            "name": "trigger",
                            "type": "uint256"
                        },
                        {
                            "internalType": "uint256",
                            "name": "size",
                            "type": "uint256"
                        },
                        {
                            "internalType": "uint256",
                            "name": "quoteLimit",
                            "type": "uint256"
                        },
                        {
                            "internalType": "bool",
                            "name": "takeProfit",
                            "type": "bool"
                        }
                    ],
                    "internalType": "struct TriggerOrder",
                    "name": "order",
                    "type": "tuple"
                }
            ],
            "name": "updateTriggerOrder",
            "outputs": [],
            "stateMutability": "nonpayable",
            "type": "function"
        },
        {
            "inputs": [],
            "name": "weth",
            "outputs": [
                {
                    "internalType": "address",
                    "name": "",
                    "type": "address"
                }
            ],
            "stateMutability": "view",
            "type": "function"
        }
    ],
    "bytecode": {
        "object": "0x60e06040523480156200001157600080fd5b506040516200589a3803806200589a83398101604081905262000034916200013e565b6001600160a01b0380841660805282811660c052811660a0526200005762000060565b50505062000188565b600054610100900460ff1615620000cd5760405162461bcd60e51b815260206004820152602760248201527f496e697469616c697a61626c653a20636f6e747261637420697320696e697469604482015266616c697a696e6760c81b606482015260840160405180910390fd5b60005460ff908116146200011f576000805460ff191660ff9081179091556040519081527f7f26b83ff96e1f2b6a682f133852f6798a09c465da95921460cefb38474024989060200160405180910390a15b565b80516001600160a01b03811681146200013957600080fd5b919050565b6000806000606084860312156200015457600080fd5b6200015f8462000121565b92506200016f6020850162000121565b91506200017f6040850162000121565b90509250925092565b60805160a05160c05161568e6200020c6000396000818161062001528181611b170152611b5f01526000818161048b0152818161183c015281816122230152612834015260008181610363015281816109b6015281816116170152818161169501528181611aed01528181611f84015281816124840152612878015261568e6000f3fe6080604052600436106102255760003560e01c80637ee194fc11610123578063c4d66de8116100ab578063dc9657951161006f578063dc96579514610700578063e980e16e1461072d578063f04e283e14610780578063f2fde38b14610793578063fee81cf4146107a657600080fd5b8063c4d66de814610662578063c88d348a14610682578063cbb50e61146106a2578063cf70cb69146106c2578063d7533f02146106e257600080fd5b8063acec338a116100f2578063acec338a1461056c578063b33dc1901461058c578063b7901a43146105ee578063b79023031461060e578063b959d6951461064257600080fd5b80637ee194fc146104cd57806386f28fc5146105065780638da5cb5b14610533578063aa317dc01461054c57600080fd5b80633fc8cef3116101b15780636b17ad03116101755780636b17ad031461041b5780636ea41e401461043b578063715018a614610471578063791b98bc146104795780637eb02406146104ad57600080fd5b80633fc8cef314610351578063429e92371461039d5780634fa9c4db146103d357806354d1f13d146103f357806368d85297146103fb57600080fd5b806322f3e2d4116101f857806322f3e2d4146102bf57806325692962146102e957806327745899146102f15780633714b992146103115780633966a28b1461033157600080fd5b806302000f1b1461022a57806318aec6261461024c5780631dbd10fb1461026c5780631ece366a1461028c575b600080fd5b34801561023657600080fd5b5061024a610245366004614c6e565b6107d9565b005b34801561025857600080fd5b5061024a610267366004614cac565b610a1b565b34801561027857600080fd5b5061024a610287366004614cec565b610b26565b34801561029857600080fd5b506102ac6102a7366004614d1c565b610bf8565b6040519081526020015b60405180910390f35b3480156102cb57600080fd5b5060005462010000900460ff165b60405190151581526020016102b6565b61024a610eed565b3480156102fd57600080fd5b5061024a61030c366004614e41565b610f3d565b34801561031d57600080fd5b5061024a61032c366004614e6f565b6116fc565b34801561033d57600080fd5b506102d961034c366004614e8c565b611725565b34801561035d57600080fd5b506103857f000000000000000000000000000000000000000000000000000000000000000081565b6040516001600160a01b0390911681526020016102b6565b3480156103a957600080fd5b506102ac6103b8366004614e6f565b6001600160a01b031660009081526009602052604090205490565b3480156103df57600080fd5b5061024a6103ee366004614eba565b611797565b61024a611869565b34801561040757600080fd5b506102ac610416366004614eef565b6118a5565b34801561042757600080fd5b5061024a610436366004614e6f565b6119a2565b34801561044757600080fd5b506102ac610456366004614e6f565b6001600160a01b031660009081526007602052604090205490565b61024a611c40565b34801561048557600080fd5b506103857f000000000000000000000000000000000000000000000000000000000000000081565b3480156104b957600080fd5b506102ac6104c8366004614f0b565b611c54565b3480156104d957600080fd5b506102d96104e8366004614e6f565b6001600160a01b031660009081526001602052604090205460ff1690565b34801561051257600080fd5b50610526610521366004614c6e565b612033565b6040516102b69190614fb5565b34801561053f57600080fd5b50638b78c6d81954610385565b34801561055857600080fd5b5061024a610567366004614e8c565b612122565b34801561057857600080fd5b5061024a610587366004614fc3565b612249565b34801561059857600080fd5b506105ac6105a7366004614e8c565b6122ca565b6040516102b69190600060a082019050825182526020830151602083015260408301516040830152606083015160608301526080830151608083015292915050565b3480156105fa57600080fd5b5061024a610609366004614e6f565b612361565b34801561061a57600080fd5b506103857f000000000000000000000000000000000000000000000000000000000000000081565b34801561064e57600080fd5b5061024a61065d366004614c6e565b612390565b34801561066e57600080fd5b5061024a61067d366004614e6f565b6124f0565b34801561068e57600080fd5b5061024a61069d366004614c6e565b612608565b3480156106ae57600080fd5b5061024a6106bd366004614fe0565b6127bd565b3480156106ce57600080fd5b5061024a6106dd366004614c6e565b612862565b3480156106ee57600080fd5b506040516202a30081526020016102b6565b34801561070c57600080fd5b5061072061071b36600461502f565b61291f565b6040516102b6919061507e565b34801561073957600080fd5b5061074d610748366004614e6f565b612a0c565b6040516102b691908151815260208083015190820152604080830151908201526060918201519181019190915260800190565b61024a61078e366004614e6f565b612a82565b61024a6107a1366004614e6f565b612abf565b3480156107b257600080fd5b506102ac6107c1366004614e6f565b63389a75e1600c908152600091909152602090205490565b6001600160a01b0382811660009081526006602090815260408083208584528252808320815160e081018352815486168152600180830154968716948201949094529394909291840191600160a01b90910460ff169081111561083e5761083e614f27565b600181111561084f5761084f614f27565b815260028201546020820152600382015460408201526004820154606082015260059091015460ff16151560809091015280519091506001600160a01b031633146108ad576040516342f062b760e01b815260040160405180910390fd5b60006108bc8260600151612ae6565b90506108ed8260200151836040015183866108e88760a001518860800151612b0690919063ffffffff16565b612b1b565b6020808301516001600160a01b0316600090815260068252604080822086835290925290812080546001600160a01b03191681556001810180546001600160a81b031916905560028101829055600381018290556004810191909155600501805460ff1916905560c08201516109de5760808201516020808401516001600160a01b039081166000908152600a8352604080822087519093168252919092528120805490919061099e9084906150ec565b909155505060808201516109de906001600160a01b037f000000000000000000000000000000000000000000000000000000000000000016903390612e46565b6040516000815283907f2e837aa3474f1f8472ba0a0bd3baabfe98e1afbfa3edc0ad3293d6d99d385f86906020015b60405180910390a250505050565b610a33610a2e6040830160208401614e6f565b612e8c565b6001600160a01b038083166000908152600d6020908152604080832087845290915290205416338114610a79576040516342f062b760e01b815260040160405180910390fd5b33610a876020840184614e6f565b6001600160a01b031614610aae576040516342f062b760e01b815260040160405180910390fd5b81600d6000610ac36040840160208501614e6f565b6001600160a01b03168152602080820192909252604090810160009081208882529092529020610af3828261511f565b905050837fe657aa4938f23a1e792a700bd221e3e0dda2760d6572e0c57ac1d90a33a6d9f283604051610a0d91906151fd565b6001600160a01b038082166000908152600d6020908152604080832086845290915290205416338114610b6c576040516342f062b760e01b815260040160405180910390fd5b6001600160a01b0382166000908152600d6020908152604080832086845290915280822080546001600160a01b031990811682556001820180549091169055600281018390556003810183905560048101839055600501805460ff191690555184907fa052a3a05833c68f905c84a3642ce523a06483f59e02d33a6a4be9c9d5d234ea908390a3505050565b600080610c058585612b06565b9050610c12868683612ec5565b6040516368211ba160e01b8152600481018290526024810184905260009081906001600160a01b038916906368211ba1906044016060604051808303816000875af1158015610c65573d6000803e3d6000fd5b505050506040513d601f19601f82011682018060405250810190610c89919061520b565b6001600160a01b038b166000908152600360208181526040808420600190810154600c8452828620338752845294829020825161014081018452815481529181015493820193909352600283015491810191909152918101546060830152600481015460808301819052600582015460a0840152600682015460c0840152600782015460e084015260088201546101008401526009909101546101208301529498509295509093509115610d6b57610d56816080015182610100015184610d509190615239565b90612f5a565b8160a001818151610d679190615259565b9052505b6040518061014001604052808a8360000151610d879190615281565b8152602001868360200151610d9c9190615281565b8152602001858360400151610db19190615281565b8152602001848360600151610dc69190615281565b8152602001878360800151610ddb9190615281565b815260a0928301516020808301919091526001600160a01b038d16600081815260078084526040808320548187015283835260088086528184205460608089019190915260808089018c905243988b0198909852858552600c8752828520338087529088529483902089518155968901516001880155888301516002880155880151600387015595870151600486015596860151600585015560c0860151600685015560e086015190840155610100850151938301939093556101208401516009909201919091559251919290917f9d278c56ba6dc86a12eefe6b43112bd6e06648eb4ec0b950ee2d783d40e2acb490610ed8908a815260200190565b60405180910390a35050505050949350505050565b60006202a30067ffffffffffffffff164201905063389a75e1600c5233600052806020600c2055337fdbf36a107da19e49527a7176a1babf963b4b0ff8cde35ee35d6cd8f1f9ac7e1d600080a250565b6020818101516001600160a01b0390811660009081526006835260408082208683528452808220815160e0810183528154851681526001808301549586169682019690965292949293909291840191600160a01b90910460ff1690811115610fa757610fa7614f27565b6001811115610fb857610fb8614f27565b815260028201546020820152600382015460408201526004820154606082015260059091015460ff16151560809091015280519091506001600160a01b03163314611016576040516342f062b760e01b815260040160405180910390fd5b61103c82602001518360400151846000015185608001518660a001518760600151612fac565b600061104b8360600151612ae6565b90508260600151826060015114158061108e57508260400151600181111561107557611075614f27565b8260400151600181111561108b5761108b614f27565b14155b156112f05760006110a28360600151612ae6565b90506110ce8460200151846040015183886108e88860a001518960800151612b0690919063ffffffff16565b6005600085602001516001600160a01b03166001600160a01b0316815260200190815260200160002060008560400151600181111561110f5761110f614f27565b600181111561112057611120614f27565b815260208082019290925260409081016000908120600286900b825290925281206001015490036111c0576111c08260016004600088602001516001600160a01b03166001600160a01b0316815260200190815260200160002060008860400151600181111561119257611192614f27565b60018111156111a3576111a3614f27565b81526020019081526020016000206130de9092919063ffffffff16565b6005600085602001516001600160a01b03166001600160a01b0316815260200190815260200160002060008560400151600181111561120157611201614f27565b600181111561121257611212614f27565b815260208082019290925260409081016000908120600286900b8252835290812060019081018054918201815582529190200185905560a0840151608085015161125b91612b06565b6005600086602001516001600160a01b03166001600160a01b0316815260200190815260200160002060008660400151600181111561129c5761129c614f27565b60018111156112ad576112ad614f27565b815260200190815260200160002060008460020b60020b815260200190815260200160002060000160008282546112e49190615281565b90915550611470915050565b600061130d8360a001518460800151612b0690919063ffffffff16565b9050600061132c8560a001518660800151612b0690919063ffffffff16565b9050808211156113d45761134081836150ec565b6005600087602001516001600160a01b03166001600160a01b0316815260200190815260200160002060008760400151600181111561138157611381614f27565b600181111561139257611392614f27565b815260200190815260200160002060008560020b60020b815260200190815260200160002060000160008282546113c991906150ec565b9091555061146d9050565b6113de82826150ec565b6005600087602001516001600160a01b03166001600160a01b0316815260200190815260200160002060008760400151600181111561141f5761141f614f27565b600181111561143057611430614f27565b815260200190815260200160002060008560020b60020b815260200190815260200160002060000160008282546114679190615281565b90915550505b50505b61147983613136565b151560c0840152602080840180516001600160a01b039081166000908152600684526040808220898352909452839020865181549083166001600160a01b0319918216178255925160018083018054929094169482168517845594880151889592949093926001600160a81b03199092161790600160a01b90849081111561150357611503614f27565b0217905550606082015160028201556080820151600382015560a0820151600482015560c0918201516005909101805460ff19169115159190911790558281015190840151600091151590151514611589578360c001511561157c5761156c8360800151613237565b61157590615294565b90506115b0565b6115758460800151613237565b6115968360800151613237565b6115a38560800151613237565b6115ad9190615239565b90505b60ff81901c60009081038083011890821315611644576020808601516001600160a01b039081166000908152600a83526040808220895190931682529190925281208054839290611602908490615281565b9091555050845161163f906001600160a01b037f000000000000000000000000000000000000000000000000000000000000000016903084613250565b6116bc565b6020808601516001600160a01b039081166000908152600a835260408082208951909316825291909252812080548392906116809084906150ec565b909155505084516116bc906001600160a01b037f0000000000000000000000000000000000000000000000000000000000000000169083612e46565b857fecc2f826c147cc58b571f0fb944daa8efc8aeb82760929d06e91ea2f35a4ba60866040516116ec9190614fb5565b60405180910390a2505050505050565b6117046132a4565b6001600160a01b03166000908152600160205260409020805460ff19169055565b6001600160a01b0380831660009081526002602081815260408084209486168452938152838320845160a081018652815481526001820154928101929092529182015493810193909352600381015460608401526004015460808301529061178d84826132bf565b9150505b92915050565b61179f61336a565b6117a883612e8c565b60006117b48433613393565b905060ff81901c600003808201188311156117d85760ff81901c6000038082011892505b6118623385600084136117ec5760006117ef565b60015b86866000604051602401611808969594939291906152b0565b60408051601f198184030181529190526020810180516001600160e01b031663bb31c24360e01b1790526001600160a01b037f000000000000000000000000000000000000000000000000000000000000000016906133dc565b5050505050565b63389a75e1600c523360005260006020600c2055337ffa7b8eab7da67f412cc9575ed43464468f9bfbae89d1675917346ca6d8fe3c92600080a2565b60006118ba610a2e6040840160208501614e6f565b336118c86020840184614e6f565b6001600160a01b0316146118ef576040516342f062b760e01b815260040160405180910390fd5b81436040516020016119029291906152f9565b60405160208183030381529060405280519060200120905081600d60008460200160208101906119329190614e6f565b6001600160a01b03168152602080820192909252604090810160009081208582529092529020611962828261511f565b905050807fe657aa4938f23a1e792a700bd221e3e0dda2760d6572e0c57ac1d90a33a6d9f28360405161199591906151fd565b60405180910390a2919050565b6119aa61336a565b6119b381612e8c565b6000806000836001600160a01b031663ed83d79c6040518163ffffffff1660e01b81526004016060604051808303816000875af11580156119f8573d6000803e3d6000fd5b505050506040513d601f19601f82011682018060405250810190611a1c919061520b565b6001600160a01b038716600081815260036020818152604080842081516080810183528154815260018201548185015260028201548184015293015460608401529383526007905291812080549598509396509194509286929190611a82908490615259565b90915550506020810151611a969085613401565b611aa1906001615259565b6001600160a01b03861660009081526008602052604081208054909190611ac9908490615259565b90915550508051600090611add9086613401565b90506000811315611b4c57611b477f00000000000000000000000000000000000000000000000000000000000000006001600160a01b03167f000000000000000000000000000000000000000000000000000000000000000060ff84901c60000380850118612e46565b611bf0565b6000811215611bf0576001600160a01b037f00000000000000000000000000000000000000000000000000000000000000001663f3fef3a38760ff84901c600003808501186040516001600160e01b031960e085901b1681526001600160a01b0390921660048301526024820152604401600060405180830381600087803b158015611bd757600080fd5b505af1158015611beb573d6000803e3d6000fd5b505050505b6040805185815260208101859052908101869052606081018290526001600160a01b038716907f1c02bced5ca0dc6cf5083d0cafb8183dce5091eaa32c83b0065021a491ae5e53906080016116ec565b611c486132a4565b611c52600061346b565b565b6000611c7c82602001518360400151846000015185608001518660a001518760600151612fac565b8143604051602001611c8f929190615314565b6040516020818303038152906040528051906020012090506000611cb68360600151612ae6565b6020808501516001600160a01b031660009081526005909152604080822090860151929350916001811115611ced57611ced614f27565b6001811115611cfe57611cfe614f27565b815260208082019290925260409081016000908120600285900b82529092528120600101549003611d7057611d708160016004600087602001516001600160a01b03166001600160a01b0316815260200190815260200160002060008760400151600181111561119257611192614f27565b6005600084602001516001600160a01b03166001600160a01b03168152602001908152602001600020600084604001516001811115611db157611db1614f27565b6001811115611dc257611dc2614f27565b815260208082019290925260409081016000908120600285900b8252835290812060019081018054918201815582529190200182905560a08301516080840151611e0b91612b06565b6005600085602001516001600160a01b03166001600160a01b03168152602001908152602001600020600085604001516001811115611e4c57611e4c614f27565b6001811115611e5d57611e5d614f27565b815260200190815260200160002060008360020b60020b81526020019081526020016000206000016000828254611e949190615281565b90915550611ea3905083613136565b151560c0840152602080840180516001600160a01b039081166000908152600684526040808220878352909452839020865181549083166001600160a01b0319918216178255925160018083018054929094169482168517845594880151889592949093926001600160a81b03199092161790600160a01b908490811115611f2d57611f2d614f27565b0217905550606082015160028201556080820151600382015560a0820151600482015560c0918201516005909101805460ff1916911515919091179055830151611ff5576080830151611fae906001600160a01b037f0000000000000000000000000000000000000000000000000000000000000000169033903090613250565b60808301516020808501516001600160a01b039081166000908152600a83526040808220885190931682529190925281208054909190611fef908490615281565b90915550505b817fecc2f826c147cc58b571f0fb944daa8efc8aeb82760929d06e91ea2f35a4ba60846040516120259190614fb5565b60405180910390a250919050565b6120756040805160e081018252600080825260208201819052909182019081526020016000815260200160008152602001600081526020016000151581525090565b6001600160a01b038381166000908152600660209081526040808320868452825291829020825160e08101845281548516815260018083015495861693820193909352939092840191600160a01b90910460ff16908111156120d9576120d9614f27565b60018111156120ea576120ea614f27565b815260028201546020820152600382015460408201526004820154606082015260059091015460ff1615156080909101529392505050565b61212a6132a4565b6001600160a01b0380831660009081526002602081815260408084209486168452938152838320845160a0810186528154815260018201549281019290925291820154938101939093526003810154606084015260040154608083015261219184836132bf565b9050806121b157604051633da1f7d160e11b815260040160405180910390fd5b611862838560008560000151136121c95760006121cc565b60015b855160ff81901c60000390810118306040516024016121ef959493929190615330565b60408051601f198184030181529190526020810180516001600160e01b0316631e5cde8f60e11b1790526001600160a01b037f000000000000000000000000000000000000000000000000000000000000000016906133dc565b6122516132a4565b6000805482158015620100000262ff0000199092169190911790915561229d576040517fed1cd0670ee0c0017f550451a038818c696d0b6a9d6ce5b369e44275573cf9b090600090a150565b6040517ff0c683001104e62ea6db2065e069e1df46185d033db8cf4494df0a516cf537cb90600090a15b50565b6122fc6040518060a0016040528060008152602001600081526020016000815260200160008152602001600081525090565b506001600160a01b03918216600090815260026020818152604080842094909516835292835290839020835160a08101855281548152600182015493810193909352908101549282019290925260038201546060820152600490910154608082015290565b6123696132a4565b6001600160a01b03166000908152600160208190526040909120805460ff19169091179055565b61239982612e8c565b6001600160a01b0382166000908152600260208181526040808420338552825292839020835160a0810185528154815260018201549281018381529382015494810194909452600381015460608501526004015460808401528391906124009083906150ec565b90525061240d83826132bf565b1561242b576040516357809b3160e01b815260040160405180910390fd5b6001600160a01b038084166000908152600260208181526040808420338086529083529381902086518155918601516001830155850151918101919091556060840151600382015560808401516004909101556124ab917f0000000000000000000000000000000000000000000000000000000000000000169084612e46565b60405182815233906001600160a01b038516907fb0fa03f93c852a6feaaeb34ccf4cf865cc223c4cc9d25dce28a9131fde2710719060200160405180910390a3505050565b600054610100900460ff16158080156125105750600054600160ff909116105b8061252a5750303b15801561252a575060005460ff166001145b6125925760405162461bcd60e51b815260206004820152602e60248201527f496e697469616c697a61626c653a20636f6e747261637420697320616c72656160448201526d191e481a5b9a5d1a585b1a5e995960921b60648201526084015b60405180910390fd5b6000805460ff1916600117905580156125b5576000805461ff0019166101001790555b6125be826134a9565b8015612604576000805461ff0019169055604051600181527f7f26b83ff96e1f2b6a682f133852f6798a09c465da95921460cefb38474024989060200160405180910390a15b5050565b61261061336a565b6001600160a01b038083166000908152600d602090815260408083208584528252808320815160c0810183528154861680825260018301549096169381019390935260028101549183019190915260038101546060830152600481015460808301526005015460ff16151560a08201529161268c908590613393565b905061269b8260200151612e8c565b6126c48260200151600083136126b25760016126b5565b60005b84604001518560a001516134e5565b6001600160a01b0384166000908152600d60209081526040808320868452909152812080546001600160a01b031990811682556001820180549091169055600281018290556003810182905560048101829055600501805460ff1916905560ff82901c9003808201188260600151111561274a5760ff81901c6000038082011860608301525b6127898260000151836020015160008413612766576000612769565b60015b8560600151866080015133604051602401611808969594939291906152b0565b50604051339084907fa052a3a05833c68f905c84a3642ce523a06483f59e02d33a6a4be9c9d5d234ea90600090a350505050565b6127c561336a565b6127ce85612e8c565b6127e285846127dd8186612b06565b612ec5565b61285a33868686868660405160240161280096959493929190615372565b60408051601f198184030181529190526020810180516001600160e01b03166310faff9560e31b1790526001600160a01b037f000000000000000000000000000000000000000000000000000000000000000016906133dc565b505050505050565b61286b82612e8c565b6128a06001600160a01b037f000000000000000000000000000000000000000000000000000000000000000016333084613250565b6001600160a01b0382166000908152600260209081526040808320338452909152812060010180548392906128d6908490615281565b909155505060405181815233906001600160a01b038416907f05c2d01f05f37971d15b22586be2f1933a1ae8c0079a056a430b4391550ffb2d9060200160405180910390a35050565b6040805180820190915260008152606060208201526001600160a01b03841660009081526005602052604081209084600181111561295f5761295f614f27565b600181111561297057612970614f27565b815260200190815260200160002060008360020b60020b815260200190815260200160002060405180604001604052908160008201548152602001600182018054806020026020016040519081016040528092919081815260200182805480156129f957602002820191906000526020600020905b8154815260200190600101908083116129e5575b50505050508152505090505b9392505050565b612a376040518060800160405280600081526020016000815260200160008152602001600081525090565b506001600160a01b0316600090815260036020818152604092839020835160808101855281548152600182015492810192909252600281015493820193909352910154606082015290565b612a8a6132a4565b63389a75e1600c52806000526020600c208054421115612ab257636f5e88186000526004601cfd5b600090556122c78161346b565b612ac76132a4565b8060601b612add57637448fbae6000526004601cfd5b6122c78161346b565b60006117916060612af6846135b0565b901b6001600160a01b0316613632565b6000612a058383670de0b6b3a764000061396c565b6001600160a01b038516600090815260056020526040812081866001811115612b4657612b46614f27565b6001811115612b5757612b57614f27565b815260200190815260200160002060008560020b60020b8152602001908152602001600020600101805480602002602001604051908101604052809291908181526020018280548015612bc957602002820191906000526020600020905b815481526020019060010190808311612bb5575b5050835193945060009250612be3915060019050836150ec565b67ffffffffffffffff811115612bfb57612bfb614d57565b604051908082528060200260200182016040528015612c24578160200160208202803683370190505b5090506000805b83811015612c9a5786858281518110612c4657612c466153b6565b602002602001015114612c9257848181518110612c6557612c656153b6565b6020026020010151838381518110612c7f57612c7f6153b6565b6020026020010181815250508160010191505b600101612c2b565b508015612d99576001600160a01b038916600090815260056020526040812083918a6001811115612ccd57612ccd614f27565b6001811115612cde57612cde614f27565b815260200190815260200160002060008960020b60020b81526020019081526020016000206001019080519060200190612d19929190614b78565b506001600160a01b038916600090815260056020526040812086918a6001811115612d4657612d46614f27565b6001811115612d5757612d57614f27565b815260200190815260200160002060008960020b60020b81526020019081526020016000206000016000828254612d8e91906150ec565b90915550612e3b9050565b6001600160a01b038916600090815260056020526040812090896001811115612dc457612dc4614f27565b6001811115612dd557612dd5614f27565b81526020808201929092526040908101600090812060028b900b8252909252812081815590612e076001830182614bbf565b50506001600160a01b0389166000908152600460205260408120612e3b9189916001918c8381111561119257611192614f27565b505050505050505050565b816014528060345263a9059cbb60601b60005260206000604460106000875af13d156001600051141716612e82576390b8ec186000526004601cfd5b6000603452505050565b6001600160a01b03811660009081526001602052604090205460ff166122c7576040516304c1bb0360e11b815260040160405180910390fd5b6000836001600160a01b031663bce2020d6040518163ffffffff1660e01b8152600401602060405180830381865afa158015612f05573d6000803e3d6000fd5b505050506040513d601f19601f82011682018060405250810190612f2991906153cc565b90506000612f378484613a1b565b905081811015611862576040516357809b3160e01b815260040160405180910390fd5b60008083128015612f7157612f6e84615294565b93505b612f8c612f878585670de0b6b3a764000061396c565b613237565b91508015612fa557612f9d82615294565b915050611791565b5092915050565b336001600160a01b03851614612fd5576040516342f062b760e01b815260040160405180910390fd5b612fde86612e8c565b612fe781613a30565b612ff686846127dd8186612b06565b6000866001600160a01b031663604096326040518163ffffffff1660e01b8152600401602060405180830381865afa158015613036573d6000803e3d6000fd5b505050506040513d601f19601f8201168201806040525081019061305a91906153cc565b905081810361307c57604051636b20f24560e01b815260040160405180910390fd5b600086600181111561309057613090614f27565b82841161309e5760016130a1565b60005b60018111156130b2576130b2614f27565b14905080156130d45760405163349b316560e11b815260040160405180910390fd5b5050505050505050565b6130e881836153fb565b60020b156130f557600080fd5b60008061310a613105848661541d565b613a60565b600191820b60009081526020979097526040909620805460ff9097169190911b90951890945550505050565b6020808201516001600160a01b0390811660009081526002808452604080832086519094168352928452828220835160a0810185528154808252600183015496820196909652918101549382019390935260038301546060820152600490920154608083015291156132315760006131d0612f8785606001516131ca8760a001518860800151612b0690919063ffffffff16565b90613a1b565b90506001846040015160018111156131ea576131ea614f27565b036131fb576131f881615294565b90505b815160009061320a9083615457565b121561322f5760ff81901c60000380820118825160ff81901c60000390810118101592505b505b50919050565b6000600160ff1b821061324c5761324c613a80565b5090565b60405181606052826040528360601b602c526323b872dd60601b600c52602060006064601c6000895af13d15600160005114171661329657637939f4246000526004601cfd5b600060605260405250505050565b638b78c6d819543314611c52576382b429006000526004601cfd5b60008060006132ce8585613a8e565b915091506000806132e0878785613ef2565b909250905060006132f5856131ca84866150ec565b90506000886001600160a01b0316634f3c15426040518163ffffffff1660e01b8152600401602060405180830381865afa158015613337573d6000803e3d6000fd5b505050506040513d601f19601f8201168201806040525081019061335b91906153cc565b90911098975050505050505050565b60005462010000900460ff16611c5257604051637dc579d960e11b815260040160405180910390fd5b6001600160a01b0380831660009081526002602090815260408083209385168352929052908120549081900361179157604051631d5fdf4760e11b815260040160405180910390fd5b6060612a05838360405180606001604052806027815260200161563260279139613f90565b600080831281831280821415821561341f5761341c86615294565b95505b81156134315761342e85615294565b94505b613447612f878787670de0b6b3a764000061396c565b935080156134625761345884615294565b9350505050611791565b50505092915050565b638b78c6d81980546001600160a01b039092169182907f8be0079c531659141344cd1fd0a4f28419497f9722a3daafe3b4186f6b6457e0600080a355565b6001600160a01b0316638b78c6d8198190558060007f8be0079c531659141344cd1fd0a4f28419497f9722a3daafe3b4186f6b6457e08180a350565b6000846001600160a01b031663604096326040518163ffffffff1660e01b8152600401602060405180830381865afa158015613525573d6000803e3d6000fd5b505050506040513d601f19601f8201168201806040525081019061354991906153cc565b905060008085600181111561356057613560614f27565b0361357d578261357257838211613576565b8382105b9050613591565b8261358a5783821061358e565b8382115b90505b801561285a57604051630661bf5f60e51b815260040160405180910390fd5b6001600160881b03811160071b81811c68ffffffffffffffffff1060061b1781811c64ffffffffff1060051b1781811c62ffffff1060041b1781811c620100000160b5600192831c1b0260121c80830401811c80830401811c80830401811c80830401811c80830401811c80830401811c80830401901c908190048111900390565b60006401000276a36001600160a01b0383161080159061366e575073fffd8963efd1fc6a506488495d951d5263988d266001600160a01b038316105b61369e5760405162461bcd60e51b81526020600482015260016024820152602960f91b6044820152606401612589565b640100000000600160c01b03602083901b166001600160801b03811160071b81811c67ffffffffffffffff811160061b90811c63ffffffff811160051b90811c61ffff811160041b90811c60ff8111600390811b91821c600f811160021b90811c918211600190811b92831c979088119617909417909217179091171717608081106137395761372f607f826150ec565b83901c915061374a565b61374481607f6150ec565b83901b91505b60006040613759608084615239565b901b9050828302607f1c92508260801c80603f1b8217915083811c935050828302607f1c92508260801c80603e1b8217915083811c935050828302607f1c92508260801c80603d1b8217915083811c935050828302607f1c92508260801c80603c1b8217915083811c935050828302607f1c92508260801c80603b1b8217915083811c935050828302607f1c92508260801c80603a1b8217915083811c935050828302607f1c92508260801c8060391b8217915083811c935050828302607f1c92508260801c8060381b8217915083811c935050828302607f1c92508260801c8060371b8217915083811c935050828302607f1c92508260801c8060361b8217915083811c935050828302607f1c92508260801c8060351b8217915083811c935050828302607f1c92508260801c8060341b8217915083811c935050828302607f1c92508260801c8060331b8217915083811c935050828302607f1c92508260801c8060321b8217915050600081693627a301d71055774c856138dc9190615457565b9050600060806138fc6f028f6481ab7f045a5af012a19d003aaa84615239565b901d90506000608061391e846fdb2df09e81959a81455e260799a0632f615259565b901d90508060020b8260020b1461395d57886001600160a01b031661394282614008565b6001600160a01b03161115613957578161395f565b8061395f565b815b9998505050505050505050565b600083830260001984860981811082019003806139a157836139965763ae47f7026000526004601cfd5b508290049050612a05565b8084116139b65763ae47f7026000526004601cfd5b838587096000858103861695869004956003870260029081188089028203028089028203028089028203028089028203028089028203028089029091030291819003819004600101858411909403939093029190930391909104170290509392505050565b6000612a0583670de0b6b3a76400008461396c565b613a4267016345785d8a000082615487565b156122c757604051637434384960e01b815260040160405180910390fd5b600281900b60081d6000613a76610100846153fb565b60020b9050915091565b6335278d126000526004601cfd5b600080613a99614bdd565b835160ff81901c6000039081011860608201819052600003613ac2576000809250925050613eeb565b846001600160a01b031663c24e38596040518163ffffffff1660e01b8152600401606060405180830381865afa158015613b00573d6000803e3d6000fd5b505050506040513d601f19601f82011682018060405250810190613b24919061520b565b6040840152602083015281528351600012613b40576001613b43565b60005b8160c001906001811115613b5957613b59614f27565b90816001811115613b6c57613b6c614f27565b90525060018160c001516001811115613b8757613b87614f27565b1460e08201526001600160a01b038516600090815260046020526040812060c083015182906001811115613bbd57613bbd614f27565b6001811115613bce57613bce614f27565b81526020019081526020016000209050613c01613bfc83602001518460000151613a1b90919063ffffffff16565b612ae6565b60020b608083015260e0820151613c94906001600160a01b0388169063f36bdbc990613c2e576000613c31565b60015b85606001516040518363ffffffff1660e01b8152600401613c5392919061549b565b602060405180830381865afa158015613c70573d6000803e3d6000fd5b505050506040513d601f19601f82011682018060405250810190613bfc91906153cc565b60020b60a083015260e082015115613cbb57816080018051613cb5906154b2565b60020b90525b6000805b8360e00151613cde578360a0015160020b846080015160020b13613cf0565b8360a0015160020b846080015160020b125b15613ddc57608084015160e0850151613d0e9185916001901561441e565b60029190910b608086015290508015613db957613d906040518060e00160405280866060015181526020018660000151815260200186602001518152602001866040015181526020018a6001600160a01b03168152602001866080015160020b81526020018660c001516001811115613d8957613d89614f27565b90526145d6565b6020880152865260608601919091529150613dab8287615281565b606085015190965015613ddc575b8360e00151613dd757836080018051613dd1906154b2565b60020b90525b613cbf565b606084015115613e7f578360e0015115613e0e57836060015184602001818151613e0691906150ec565b905250613e28565b836060015184602001818151613e249190615281565b9052505b6000613e4585602001518660400151613a1b90919063ffffffff16565b9050613e71613e578660000151613237565b613e6083613237565b818113818303929091038218021890565b613e7b9088615281565b9650505b60018460c001516001811115613e9757613e97614f27565b03613ec357613ea586613237565b613eb28860400151613237565b613ebc9190615239565b9450613ee6565b613ed08760400151613237565b613ed987613237565b613ee39190615239565b94505b505050505b9250929050565b6001600160a01b0383166000908152600760205260408120548351829190829015613f365785516060870151613f339190613f2d9085615239565b90613401565b90505b6000613f458760200151613237565b613f4f8388615239565b613f599190615259565b905060008112613f765760ff81901c600003808201189450613f85565b60ff81901c6000038082011893505b505050935093915050565b6060600080856001600160a01b031685604051613fad91906154f9565b600060405180830381855af49150503d8060008114613fe8576040519150601f19603f3d011682016040523d82523d6000602084013e613fed565b606091505b5091509150613ffe86838387614899565b9695505050505050565b60008060008360020b1261401f578260020b61402c565b8260020b61402c90615294565b905061403b620d89e719615515565b60020b8111156140715760405162461bcd60e51b81526020600482015260016024820152601560fa1b6044820152606401612589565b60008160011660000361408857600160801b61409a565b6ffffcb933bd6fad37aa2d162d1a5940015b6001600160881b0316905060028216156140cf5760806140ca826ffff97272373d413259a46990580e213a615537565b901c90505b60048216156140f95760806140f4826ffff2e50f5f656932ef12357cf3c7fdcc615537565b901c90505b600882161561412357608061411e826fffe5caca7e10e4e61c3624eaa0941cd0615537565b901c90505b601082161561414d576080614148826fffcb9843d60f6159c9db58835c926644615537565b901c90505b6020821615614177576080614172826fff973b41fa98c081472e6896dfb254c0615537565b901c90505b60408216156141a157608061419c826fff2ea16466c96a3843ec78b326b52861615537565b901c90505b60808216156141cb5760806141c6826ffe5dee046a99a2a811c461f1969c3053615537565b901c90505b6101008216156141f65760806141f1826ffcbe86c7900a88aedcffc83b479aa3a4615537565b901c90505b61020082161561422157608061421c826ff987a7253ac413176f2b074cf7815e54615537565b901c90505b61040082161561424c576080614247826ff3392b0822b70005940c7a398e4b70f3615537565b901c90505b610800821615614277576080614272826fe7159475a2c29b7443b29c7fa6e889d9615537565b901c90505b6110008216156142a257608061429d826fd097f3bdfd2022b8845ad8f792aa5825615537565b901c90505b6120008216156142cd5760806142c8826fa9f746462d870fdf8a65dc1f90e061e5615537565b901c90505b6140008216156142f85760806142f3826f70d869a156d2a1b890bb3df62baf32f7615537565b901c90505b61800082161561432357608061431e826f31be135f97d08fd981231505542fcfa6615537565b901c90505b6201000082161561434f57608061434a826f09aa508b5b7a84e1c677de54f3e99bc9615537565b901c90505b6202000082161561437a576080614375826e5d6af8dedb81196699c329225ee604615537565b901c90505b620400008216156143a457608061439f826d2216e584f5fa1ea926041bedfe98615537565b901c90505b620800008216156143cc5760806143c7826b048a170391f7dc42444e8fa2615537565b901c90505b60008460020b13156143e7576143e48160001961554e565b90505b6143f664010000000082615487565b15614402576001614405565b60005b6144169060ff16602083901c615281565b949350505050565b6000808061442c858761541d565b905060008660020b12801561444c575061444685876153fb565b60020b15155b1561445f578061445b816154b2565b9150505b831561450c5760008061447183613a60565b90925090506000600160ff831681901b9061448c90826150ec565b6144969190615281565b600184900b600090815260208c9052604090205481168015159650909150856144d657886144c760ff851687615562565b6144d19190615587565b614501565b886144e082614912565b6144ea90856155a7565b6144f79060ff1687615562565b6145019190615587565b9650505050506145cc565b60008061451d6131058460016155c0565b90925090506000614535600160ff841681901b6150ec565b600184900b600090815260208c90526040902054901990811680151596509091508561458e57886145678460ff6155a7565b60ff166145758760016155c0565b61457f91906155c0565b6145899190615587565b6145c5565b888361459983614a07565b6145a391906155a7565b60ff166145b18760016155c0565b6145bb91906155c0565b6145c59190615587565b9650505050505b5094509492505050565b60808101516001600160a01b0316600090815260056020526040812060c083015182918291829182918290600181111561461257614612614f27565b600181111561462357614623614f27565b815260200190815260200160002060008760a0015160020b60020b815260200190815260200160002060405180604001604052908160008201548152602001600182018054806020026020016040519081016040528092919081815260200182805480156146b057602002820191906000526020600020905b81548152602001906001019080831161469c575b505050505081525050905060006006600088608001516001600160a01b03166001600160a01b031681526020019081526020016000206000836020015160018560200151516146ff91906150ec565b8151811061470f5761470f6153b6565b60200260200101518152602001908152602001600020600201549050806000036147515750508451602086015160408701519195506000945092509050614892565b60006147856147638960400151613237565b613e60612f87614780868d60600151613a1b90919063ffffffff16565b614b32565b8851909150811115614795575086515b80886000018181516147a791906150ec565b90525060008860c0015160018111156147c2576147c2614f27565b146147e45780886040018181516147d99190615281565b9150818152506147fd565b80886040018181516147f691906150ec565b9150818152505b506040880151606089015161481191613a1b565b945061482c6148238960200151613237565b613e6087613237565b8851909650156148825782516000906148459084613a1b565b8951909150811115614855575087515b808960000181815161486791906150ec565b9052506148748184612b06565b61487e9088615281565b9650505b5050855160408701519095509150505b9193509193565b60608315614908578251600003614901576001600160a01b0385163b6149015760405162461bcd60e51b815260206004820152601d60248201527f416464726573733a2063616c6c20746f206e6f6e2d636f6e74726163740000006044820152606401612589565b5081614416565b6144168383614b4e565b600080821161492057600080fd5b600160801b821061493e57608091821c9161493b90826155e5565b90505b68010000000000000000821061496157604091821c9161495e90826155e5565b90505b640100000000821061498057602091821c9161497d90826155e5565b90505b62010000821061499d57601091821c9161499a90826155e5565b90505b61010082106149b957600891821c916149b690826155e5565b90505b601082106149d457600491821c916149d190826155e5565b90505b600482106149ef57600291821c916149ec90826155e5565b90505b60028210614a02576117916001826155e5565b919050565b6000808211614a1557600080fd5b5060ff6001600160801b03821615614a3957614a326080826155a7565b9050614a41565b608082901c91505b67ffffffffffffffff821615614a6357614a5c6040826155a7565b9050614a6b565b604082901c91505b63ffffffff821615614a8957614a826020826155a7565b9050614a91565b602082901c91505b61ffff821615614aad57614aa66010826155a7565b9050614ab5565b601082901c91505b60ff821615614ad057614ac96008826155a7565b9050614ad8565b600882901c91505b600f821615614af357614aec6004826155a7565b9050614afb565b600482901c91505b6003821615614b1657614b0f6002826155a7565b9050614b1e565b600282901c91505b6001821615614a02576117916001826155a7565b6000611791614b4983670de0b6b3a7640000615537565b6135b0565b815115614b5e5781518083602001fd5b8060405162461bcd60e51b815260040161258991906155fe565b828054828255906000526020600020908101928215614bb3579160200282015b82811115614bb3578251825591602001919060010190614b98565b5061324c929150614c39565b50805460008255906000526020600020908101906122c79190614c39565b60405180610100016040528060008152602001600081526020016000815260200160008152602001600060020b8152602001600060020b815260200160006001811115614c2c57614c2c614f27565b8152600060209091015290565b5b8082111561324c5760008155600101614c3a565b6001600160a01b03811681146122c757600080fd5b8035614a0281614c4e565b60008060408385031215614c8157600080fd5b8235614c8c81614c4e565b946020939093013593505050565b600060c0828403121561323157600080fd5b60008060006101008486031215614cc257600080fd5b833592506020840135614cd481614c4e565b9150614ce38560408601614c9a565b90509250925092565b60008060408385031215614cff57600080fd5b823591506020830135614d1181614c4e565b809150509250929050565b60008060008060808587031215614d3257600080fd5b8435614d3d81614c4e565b966020860135965060408601359560600135945092505050565b634e487b7160e01b600052604160045260246000fd5b803560028110614a0257600080fd5b80151581146122c757600080fd5b8035614a0281614d7c565b600060e08284031215614da757600080fd5b60405160e0810181811067ffffffffffffffff82111715614dd857634e487b7160e01b600052604160045260246000fd5b604052905080614de783614c63565b8152614df560208401614c63565b6020820152614e0660408401614d6d565b6040820152606083013560608201526080830135608082015260a083013560a0820152614e3560c08401614d8a565b60c08201525092915050565b6000806101008385031215614e5557600080fd5b82359150614e668460208501614d95565b90509250929050565b600060208284031215614e8157600080fd5b8135612a0581614c4e565b60008060408385031215614e9f57600080fd5b8235614eaa81614c4e565b91506020830135614d1181614c4e565b600080600060608486031215614ecf57600080fd5b8335614eda81614c4e565b95602085013595506040909401359392505050565b600060c08284031215614f0157600080fd5b612a058383614c9a565b600060e08284031215614f1d57600080fd5b612a058383614d95565b634e487b7160e01b600052602160045260246000fd5b600281106122c757634e487b7160e01b600052602160045260246000fd5b80516001600160a01b039081168352602080830151909116908301526040810151614f8581614f3d565b6040830152606081810151908301526080808201519083015260a0808201519083015260c0908101511515910152565b60e081016117918284614f5b565b600060208284031215614fd557600080fd5b8135612a0581614d7c565b600080600080600060a08688031215614ff857600080fd5b853561500381614c4e565b945061501160208701614d6d565b94979496505050506040830135926060810135926080909101359150565b60008060006060848603121561504457600080fd5b833561504f81614c4e565b925061505d60208501614d6d565b915060408401358060020b811461507357600080fd5b809150509250925092565b60208082528251828201528281015160408084015280516060840181905260009291820190839060808601905b808310156150cb57835182529284019260019290920191908401906150ab565b509695505050505050565b634e487b7160e01b600052601160045260246000fd5b81810381811115611791576117916150d6565b80546001600160a01b0319166001600160a01b0392909216919091179055565b813561512a81614c4e565b61513481836150ff565b50602082013561514381614c4e565b61515081600184016150ff565b506040820135600282015560608201356003820155608082013560048201556005810160a083013561518181614d7c565b815490151560ff1660ff19919091161790555050565b80356151a281614c4e565b6001600160a01b0390811683526020820135906151be82614c4e565b16602083015260408181013590830152606080820135908301526080808201359083015260a08101356151f081614d7c565b80151560a0840152505050565b60c081016117918284615197565b60008060006060848603121561522057600080fd5b8351925060208401519150604084015190509250925092565b8181036000831280158383131683831282161715612fa557612fa56150d6565b8082018281126000831280158216821582161715615279576152796150d6565b505092915050565b80820180821115611791576117916150d6565b6000600160ff1b82016152a9576152a96150d6565b5060000390565b6001600160a01b038781168252868116602083015260c08201906152d387614f3d565b86604084015285606084015284608084015280841660a084015250979650505050505050565b60e081016153078285615197565b8260c08301529392505050565b61010081016153238285614f5b565b8260e08301529392505050565b6001600160a01b038681168252858116602083015260a082019061535386614f3d565b8560408401528460608401528084166080840152509695505050505050565b6001600160a01b0387811682528616602082015260c0810161539386614f3d565b8560408301528460608301528360808301528260a0830152979650505050505050565b634e487b7160e01b600052603260045260246000fd5b6000602082840312156153de57600080fd5b5051919050565b634e487b7160e01b600052601260045260246000fd5b60008260020b8061540e5761540e6153e5565b808360020b0791505092915050565b60008160020b8360020b80615434576154346153e5565b627fffff1982146000198214161561544e5761544e6150d6565b90059392505050565b80820260008212600160ff1b84141615615473576154736150d6565b8181058314821517611791576117916150d6565b600082615496576154966153e5565b500690565b604081016154a884614f3d565b9281526020015290565b60008160020b627fffff1981036154cb576154cb6150d6565b6000190192915050565b60005b838110156154f05781810151838201526020016154d8565b50506000910152565b6000825161550b8184602087016154d5565b9190910192915050565b60008160020b627fffff19810361552e5761552e6150d6565b60000392915050565b8082028115828204841417611791576117916150d6565b60008261555d5761555d6153e5565b500490565b600282810b9082900b03627fffff198112627fffff82131715611791576117916150d6565b60008260020b8260020b028060020b9150808214612fa557612fa56150d6565b60ff8281168282160390811115611791576117916150d6565b600281810b9083900b01627fffff8113627fffff1982121715611791576117916150d6565b60ff8181168382160190811115611791576117916150d6565b602081526000825180602084015261561d8160408501602087016154d5565b601f01601f1916919091016040019291505056fe416464726573733a206c6f772d6c6576656c2064656c65676174652063616c6c206661696c6564a264697066735822122019cc3d0fce7483c984f151b80d499ab942d34c1dd6806bb447042a9dcb1271fe64736f6c63430008150033",
        "linkReferences": {}
    },
    "methodIdentifiers": {
        "activateAMM(address)": "b7901a43",
        "addLiquidity(address,uint256,uint256,uint256)": "1ece366a",
        "addMargin(address,uint256)": "cf70cb69",
        "cancelOwnershipHandover()": "54d1f13d",
        "closePosition(address,uint256,uint256)": "4fa9c4db",
        "closePositionKeeper(address,bytes32)": "c88d348a",
        "completeOwnershipHandover(address)": "f04e283e",
        "createLimitOrder((address,address,uint8,uint256,uint256,uint256,bool))": "7eb02406",
        "createTriggerOrder((address,address,uint256,uint256,uint256,bool))": "68d85297",
        "deactivateAMM(address)": "3714b992",
        "deleteLimitOrder(address,bytes32)": "02000f1b",
        "forceLiquidate(address,address)": "aa317dc0",
        "getAmmActive(address)": "7ee194fc",
        "getCumulativePremiumFraction(address)": "6ea41e40",
        "getLimitOrder(address,bytes32)": "86f28fc5",
        "getLiquidity(address,uint8,int24)": "dc965795",
        "getOpenInterestNotional(address)": "429e9237",
        "getPosition(address,address)": "b33dc190",
        "getTotalPositionSize(address)": "e980e16e",
        "initialize(address)": "c4d66de8",
        "insuranceFund()": "b7902303",
        "isActive()": "22f3e2d4",
        "isLiquidatable(address,address)": "3966a28b",
        "openPosition(address,uint8,uint256,uint256,uint256)": "cbb50e61",
        "owner()": "8da5cb5b",
        "ownershipHandoverExpiresAt(address)": "fee81cf4",
        "ownershipHandoverValidFor()": "d7533f02",
        "positionManager()": "791b98bc",
        "removeMargin(address,uint256)": "b959d695",
        "removeTriggerOrder(bytes32,address)": "1dbd10fb",
        "renounceOwnership()": "715018a6",
        "requestOwnershipHandover()": "25692962",
        "setActive(bool)": "acec338a",
        "settleFunding(address)": "6b17ad03",
        "transferOwnership(address)": "f2fde38b",
        "updateLimitOrder(bytes32,(address,address,uint8,uint256,uint256,uint256,bool))": "27745899",
        "updateTriggerOrder(bytes32,address,(address,address,uint256,uint256,uint256,bool))": "18aec626",
        "weth()": "3fc8cef3"
    },
    "id": 38
}