{
    "abi": [
        {
            "inputs": [
                {
                    "internalType": "address",
                    "name": "_weth",
                    "type": "address"
                },
                {
                    "internalType": "address",
                    "name": "_insuranceFund",
                    "type": "address"
                },
                {
                    "internalType": "address",
                    "name": "_positionManager",
                    "type": "address"
                },
                {
                    "internalType": "address",
                    "name": "_positionMerger",
                    "type": "address"
                }
            ],
            "stateMutability": "nonpayable",
            "type": "constructor"
        },
        {
            "inputs": [],
            "name": "BAD_DEBT",
            "type": "error"
        },
        {
            "inputs": [],
            "name": "INACTIVE",
            "type": "error"
        },
        {
            "inputs": [],
            "name": "INACTIVE_REDUCE_ONLY_ORDER",
            "type": "error"
        },
        {
            "inputs": [],
            "name": "INSUFFICIENT_LIQUIDITY",
            "type": "error"
        },
        {
            "inputs": [],
            "name": "INSUFFICIENT_MARGIN",
            "type": "error"
        },
        {
            "inputs": [],
            "name": "INSUFFICIENT_SIZE",
            "type": "error"
        },
        {
            "inputs": [],
            "name": "INVALID_AMM",
            "type": "error"
        },
        {
            "inputs": [],
            "name": "INVALID_MARGIN_RATIO",
            "type": "error"
        },
        {
            "inputs": [],
            "name": "INVALID_SIDE",
            "type": "error"
        },
        {
            "inputs": [],
            "name": "INVALID_TRIGGER_AMOUNT",
            "type": "error"
        },
        {
            "inputs": [],
            "name": "NOT_LIMIT_CLOSE",
            "type": "error"
        },
        {
            "inputs": [],
            "name": "NOT_LIQUIDATABLE",
            "type": "error"
        },
        {
            "inputs": [],
            "name": "NOT_TRADER",
            "type": "error"
        },
        {
            "inputs": [],
            "name": "NO_POSITION",
            "type": "error"
        },
        {
            "inputs": [],
            "name": "NewOwnerIsZeroAddress",
            "type": "error"
        },
        {
            "inputs": [],
            "name": "NoHandoverRequest",
            "type": "error"
        },
        {
            "inputs": [],
            "name": "TRIGGER_ON_MARK",
            "type": "error"
        },
        {
            "inputs": [],
            "name": "Unauthorized",
            "type": "error"
        },
        {
            "anonymous": false,
            "inputs": [],
            "name": "Activated",
            "type": "event"
        },
        {
            "anonymous": false,
            "inputs": [],
            "name": "Deactived",
            "type": "event"
        },
        {
            "anonymous": false,
            "inputs": [
                {
                    "indexed": true,
                    "internalType": "contract IAMM",
                    "name": "amm",
                    "type": "address"
                },
                {
                    "indexed": false,
                    "internalType": "uint256",
                    "name": "markPrice",
                    "type": "uint256"
                },
                {
                    "indexed": false,
                    "internalType": "uint256",
                    "name": "indexPrice",
                    "type": "uint256"
                },
                {
                    "indexed": false,
                    "internalType": "int256",
                    "name": "premiumFractionLong",
                    "type": "int256"
                },
                {
                    "indexed": false,
                    "internalType": "int256",
                    "name": "premiumFractionShort",
                    "type": "int256"
                },
                {
                    "indexed": false,
                    "internalType": "int256",
                    "name": "insuranceFundPnL",
                    "type": "int256"
                }
            ],
            "name": "FundingPayment",
            "type": "event"
        },
        {
            "anonymous": false,
            "inputs": [
                {
                    "indexed": true,
                    "internalType": "contract IAMM",
                    "name": "amm",
                    "type": "address"
                },
                {
                    "indexed": false,
                    "internalType": "uint256",
                    "name": "markPrice",
                    "type": "uint256"
                },
                {
                    "indexed": false,
                    "internalType": "uint256",
                    "name": "indexPrice",
                    "type": "uint256"
                },
                {
                    "indexed": false,
                    "internalType": "int256",
                    "name": "premiumFraction",
                    "type": "int256"
                },
                {
                    "indexed": false,
                    "internalType": "int256",
                    "name": "insuranceFundPnL",
                    "type": "int256"
                },
                {
                    "indexed": false,
                    "internalType": "int256",
                    "name": "premiumFractionPerShare",
                    "type": "int256"
                }
            ],
            "name": "FundingSettled",
            "type": "event"
        },
        {
            "anonymous": false,
            "inputs": [
                {
                    "indexed": false,
                    "internalType": "uint8",
                    "name": "version",
                    "type": "uint8"
                }
            ],
            "name": "Initialized",
            "type": "event"
        },
        {
            "anonymous": false,
            "inputs": [
                {
                    "indexed": true,
                    "internalType": "uint256",
                    "name": "id",
                    "type": "uint256"
                },
                {
                    "indexed": false,
                    "internalType": "contract IAMM",
                    "name": "amm",
                    "type": "address"
                },
                {
                    "indexed": false,
                    "internalType": "bool",
                    "name": "filled",
                    "type": "bool"
                }
            ],
            "name": "LimitOrderRemoved",
            "type": "event"
        },
        {
            "anonymous": false,
            "inputs": [
                {
                    "indexed": true,
                    "internalType": "uint256",
                    "name": "id",
                    "type": "uint256"
                },
                {
                    "components": [
                        {
                            "internalType": "address",
                            "name": "trader",
                            "type": "address"
                        },
                        {
                            "internalType": "contract IAMM",
                            "name": "amm",
                            "type": "address"
                        },
                        {
                            "internalType": "enum Side",
                            "name": "side",
                            "type": "uint8"
                        },
                        {
                            "internalType": "uint256",
                            "name": "trigger",
                            "type": "uint256"
                        },
                        {
                            "internalType": "uint256",
                            "name": "quoteAmount",
                            "type": "uint256"
                        },
                        {
                            "internalType": "uint256",
                            "name": "leverage",
                            "type": "uint256"
                        },
                        {
                            "internalType": "bool",
                            "name": "reduceOnly",
                            "type": "bool"
                        }
                    ],
                    "indexed": false,
                    "internalType": "struct LimitOrder",
                    "name": "order",
                    "type": "tuple"
                }
            ],
            "name": "LimitOrderUpdated",
            "type": "event"
        },
        {
            "anonymous": false,
            "inputs": [
                {
                    "indexed": true,
                    "internalType": "contract IAMM",
                    "name": "amm",
                    "type": "address"
                },
                {
                    "indexed": true,
                    "internalType": "address",
                    "name": "maker",
                    "type": "address"
                },
                {
                    "indexed": false,
                    "internalType": "uint256",
                    "name": "liquidity",
                    "type": "uint256"
                }
            ],
            "name": "LiquidityAdded",
            "type": "event"
        },
        {
            "anonymous": false,
            "inputs": [
                {
                    "indexed": true,
                    "internalType": "contract IAMM",
                    "name": "amm",
                    "type": "address"
                },
                {
                    "indexed": true,
                    "internalType": "address",
                    "name": "trader",
                    "type": "address"
                },
                {
                    "indexed": false,
                    "internalType": "uint256",
                    "name": "liquidity",
                    "type": "uint256"
                },
                {
                    "indexed": false,
                    "internalType": "int256",
                    "name": "sizeRemoved",
                    "type": "int256"
                },
                {
                    "indexed": false,
                    "internalType": "uint256",
                    "name": "marginRemoved",
                    "type": "uint256"
                },
                {
                    "indexed": false,
                    "internalType": "uint256",
                    "name": "feeRealized",
                    "type": "uint256"
                }
            ],
            "name": "LiquidityRemoved",
            "type": "event"
        },
        {
            "anonymous": false,
            "inputs": [
                {
                    "indexed": true,
                    "internalType": "contract IAMM",
                    "name": "amm",
                    "type": "address"
                },
                {
                    "indexed": true,
                    "internalType": "address",
                    "name": "maker",
                    "type": "address"
                },
                {
                    "indexed": false,
                    "internalType": "uint256",
                    "name": "liquidity",
                    "type": "uint256"
                },
                {
                    "indexed": false,
                    "internalType": "int256",
                    "name": "fundingPayment",
                    "type": "int256"
                },
                {
                    "indexed": false,
                    "internalType": "uint256",
                    "name": "fee",
                    "type": "uint256"
                }
            ],
            "name": "LiquidityRemoved",
            "type": "event"
        },
        {
            "anonymous": false,
            "inputs": [
                {
                    "indexed": true,
                    "internalType": "contract IAMM",
                    "name": "amm",
                    "type": "address"
                },
                {
                    "indexed": true,
                    "internalType": "address",
                    "name": "trader",
                    "type": "address"
                },
                {
                    "indexed": false,
                    "internalType": "uint256",
                    "name": "amount",
                    "type": "uint256"
                }
            ],
            "name": "MarginAdded",
            "type": "event"
        },
        {
            "anonymous": false,
            "inputs": [
                {
                    "indexed": true,
                    "internalType": "contract IAMM",
                    "name": "amm",
                    "type": "address"
                },
                {
                    "indexed": true,
                    "internalType": "address",
                    "name": "trader",
                    "type": "address"
                },
                {
                    "indexed": false,
                    "internalType": "uint256",
                    "name": "amount",
                    "type": "uint256"
                }
            ],
            "name": "MarginRemoved",
            "type": "event"
        },
        {
            "anonymous": false,
            "inputs": [
                {
                    "indexed": true,
                    "internalType": "contract IAMM",
                    "name": "amm",
                    "type": "address"
                },
                {
                    "indexed": false,
                    "internalType": "uint256",
                    "name": "newOpenInterest",
                    "type": "uint256"
                }
            ],
            "name": "OpenInterestChanged",
            "type": "event"
        },
        {
            "anonymous": false,
            "inputs": [
                {
                    "indexed": true,
                    "internalType": "address",
                    "name": "pendingOwner",
                    "type": "address"
                }
            ],
            "name": "OwnershipHandoverCanceled",
            "type": "event"
        },
        {
            "anonymous": false,
            "inputs": [
                {
                    "indexed": true,
                    "internalType": "address",
                    "name": "pendingOwner",
                    "type": "address"
                }
            ],
            "name": "OwnershipHandoverRequested",
            "type": "event"
        },
        {
            "anonymous": false,
            "inputs": [
                {
                    "indexed": true,
                    "internalType": "address",
                    "name": "oldOwner",
                    "type": "address"
                },
                {
                    "indexed": true,
                    "internalType": "address",
                    "name": "newOwner",
                    "type": "address"
                }
            ],
            "name": "OwnershipTransferred",
            "type": "event"
        },
        {
            "anonymous": false,
            "inputs": [
                {
                    "indexed": true,
                    "internalType": "contract IAMM",
                    "name": "amm",
                    "type": "address"
                },
                {
                    "indexed": true,
                    "internalType": "address",
                    "name": "trader",
                    "type": "address"
                },
                {
                    "indexed": false,
                    "internalType": "uint256",
                    "name": "margin",
                    "type": "uint256"
                },
                {
                    "indexed": false,
                    "internalType": "int256",
                    "name": "size",
                    "type": "int256"
                },
                {
                    "indexed": false,
                    "internalType": "uint256",
                    "name": "exchangedQuote",
                    "type": "uint256"
                },
                {
                    "indexed": false,
                    "internalType": "int256",
                    "name": "exchangedBase",
                    "type": "int256"
                },
                {
                    "indexed": false,
                    "internalType": "int256",
                    "name": "realizedPnL",
                    "type": "int256"
                },
                {
                    "indexed": false,
                    "internalType": "int256",
                    "name": "fundingPayment",
                    "type": "int256"
                },
                {
                    "indexed": false,
                    "internalType": "uint256",
                    "name": "markPrice",
                    "type": "uint256"
                },
                {
                    "indexed": false,
                    "internalType": "uint256",
                    "name": "ifFee",
                    "type": "uint256"
                },
                {
                    "indexed": false,
                    "internalType": "uint256",
                    "name": "ammFee",
                    "type": "uint256"
                },
                {
                    "indexed": false,
                    "internalType": "uint256",
                    "name": "limitFee",
                    "type": "uint256"
                },
                {
                    "indexed": false,
                    "internalType": "uint256",
                    "name": "liquidationPenalty",
                    "type": "uint256"
                },
                {
                    "indexed": false,
                    "internalType": "uint256",
                    "name": "keeperFee",
                    "type": "uint256"
                }
            ],
            "name": "PositionChanged",
            "type": "event"
        },
        {
            "anonymous": false,
            "inputs": [
                {
                    "indexed": true,
                    "internalType": "contract IAMM",
                    "name": "amm",
                    "type": "address"
                },
                {
                    "indexed": true,
                    "internalType": "address",
                    "name": "trader",
                    "type": "address"
                },
                {
                    "indexed": true,
                    "internalType": "address",
                    "name": "liquidator",
                    "type": "address"
                },
                {
                    "indexed": false,
                    "internalType": "uint256",
                    "name": "liquidatedPositionNotional",
                    "type": "uint256"
                },
                {
                    "indexed": false,
                    "internalType": "uint256",
                    "name": "liquidatedPositionSize",
                    "type": "uint256"
                },
                {
                    "indexed": false,
                    "internalType": "uint256",
                    "name": "liquidationReward",
                    "type": "uint256"
                },
                {
                    "indexed": false,
                    "internalType": "uint256",
                    "name": "insuranceFundProfit",
                    "type": "uint256"
                },
                {
                    "indexed": false,
                    "internalType": "uint256",
                    "name": "badDebt",
                    "type": "uint256"
                }
            ],
            "name": "PositionLiquidated",
            "type": "event"
        },
        {
            "anonymous": false,
            "inputs": [
                {
                    "indexed": true,
                    "internalType": "bytes32",
                    "name": "id",
                    "type": "bytes32"
                },
                {
                    "indexed": true,
                    "internalType": "contract IAMM",
                    "name": "amm",
                    "type": "address"
                },
                {
                    "indexed": true,
                    "internalType": "address",
                    "name": "keeper",
                    "type": "address"
                }
            ],
            "name": "TriggerOrderRemoved",
            "type": "event"
        },
        {
            "anonymous": false,
            "inputs": [
                {
                    "indexed": true,
                    "internalType": "bytes32",
                    "name": "id",
                    "type": "bytes32"
                },
                {
                    "components": [
                        {
                            "internalType": "address",
                            "name": "trader",
                            "type": "address"
                        },
                        {
                            "internalType": "contract IAMM",
                            "name": "amm",
                            "type": "address"
                        },
                        {
                            "internalType": "uint256",
                            "name": "trigger",
                            "type": "uint256"
                        },
                        {
                            "internalType": "uint256",
                            "name": "size",
                            "type": "uint256"
                        },
                        {
                            "internalType": "uint256",
                            "name": "quoteLimit",
                            "type": "uint256"
                        },
                        {
                            "internalType": "bool",
                            "name": "takeProfit",
                            "type": "bool"
                        }
                    ],
                    "indexed": false,
                    "internalType": "struct TriggerOrder",
                    "name": "order",
                    "type": "tuple"
                }
            ],
            "name": "TriggerOrderUpdated",
            "type": "event"
        },
        {
            "inputs": [
                {
                    "internalType": "contract IAMM",
                    "name": "amm",
                    "type": "address"
                },
                {
                    "internalType": "uint256",
                    "name": "margin",
                    "type": "uint256"
                },
                {
                    "internalType": "uint256",
                    "name": "leverage",
                    "type": "uint256"
                },
                {
                    "internalType": "uint256",
                    "name": "minLiquidity",
                    "type": "uint256"
                }
            ],
            "name": "addLiquidity",
            "outputs": [
                {
                    "internalType": "uint256",
                    "name": "liquidity",
                    "type": "uint256"
                }
            ],
            "stateMutability": "nonpayable",
            "type": "function"
        },
        {
            "inputs": [
                {
                    "internalType": "contract IAMM",
                    "name": "amm",
                    "type": "address"
                },
                {
                    "internalType": "uint256",
                    "name": "margin",
                    "type": "uint256"
                }
            ],
            "name": "addMargin",
            "outputs": [],
            "stateMutability": "nonpayable",
            "type": "function"
        },
        {
            "inputs": [
                {
                    "internalType": "uint256",
                    "name": "margin",
                    "type": "uint256"
                }
            ],
            "name": "addMarginToBalance",
            "outputs": [],
            "stateMutability": "nonpayable",
            "type": "function"
        },
        {
            "inputs": [],
            "name": "cancelOwnershipHandover",
            "outputs": [],
            "stateMutability": "payable",
            "type": "function"
        },
        {
            "inputs": [
                {
                    "internalType": "contract IAMM",
                    "name": "amm",
                    "type": "address"
                },
                {
                    "internalType": "uint256",
                    "name": "size",
                    "type": "uint256"
                },
                {
                    "internalType": "uint256",
                    "name": "quoteLimit",
                    "type": "uint256"
                }
            ],
            "name": "closePosition",
            "outputs": [],
            "stateMutability": "nonpayable",
            "type": "function"
        },
        {
            "inputs": [
                {
                    "internalType": "contract IAMM",
                    "name": "amm",
                    "type": "address"
                },
                {
                    "internalType": "bytes32",
                    "name": "id",
                    "type": "bytes32"
                }
            ],
            "name": "closePositionKeeper",
            "outputs": [],
            "stateMutability": "nonpayable",
            "type": "function"
        },
        {
            "inputs": [
                {
                    "internalType": "address",
                    "name": "pendingOwner",
                    "type": "address"
                }
            ],
            "name": "completeOwnershipHandover",
            "outputs": [],
            "stateMutability": "payable",
            "type": "function"
        },
        {
            "inputs": [
                {
                    "components": [
                        {
                            "internalType": "address",
                            "name": "trader",
                            "type": "address"
                        },
                        {
                            "internalType": "contract IAMM",
                            "name": "amm",
                            "type": "address"
                        },
                        {
                            "internalType": "enum Side",
                            "name": "side",
                            "type": "uint8"
                        },
                        {
                            "internalType": "uint256",
                            "name": "trigger",
                            "type": "uint256"
                        },
                        {
                            "internalType": "uint256",
                            "name": "quoteAmount",
                            "type": "uint256"
                        },
                        {
                            "internalType": "uint256",
                            "name": "leverage",
                            "type": "uint256"
                        },
                        {
                            "internalType": "bool",
                            "name": "reduceOnly",
                            "type": "bool"
                        }
                    ],
                    "internalType": "struct LimitOrder",
                    "name": "order",
                    "type": "tuple"
                }
            ],
            "name": "createLimitOrder",
            "outputs": [
                {
                    "internalType": "uint256",
                    "name": "id",
                    "type": "uint256"
                }
            ],
            "stateMutability": "nonpayable",
            "type": "function"
        },
        {
            "inputs": [
                {
                    "components": [
                        {
                            "internalType": "address",
                            "name": "trader",
                            "type": "address"
                        },
                        {
                            "internalType": "contract IAMM",
                            "name": "amm",
                            "type": "address"
                        },
                        {
                            "internalType": "uint256",
                            "name": "trigger",
                            "type": "uint256"
                        },
                        {
                            "internalType": "uint256",
                            "name": "size",
                            "type": "uint256"
                        },
                        {
                            "internalType": "uint256",
                            "name": "quoteLimit",
                            "type": "uint256"
                        },
                        {
                            "internalType": "bool",
                            "name": "takeProfit",
                            "type": "bool"
                        }
                    ],
                    "internalType": "struct TriggerOrder",
                    "name": "order",
                    "type": "tuple"
                }
            ],
            "name": "createTriggerOrder",
            "outputs": [
                {
                    "internalType": "bytes32",
                    "name": "id",
                    "type": "bytes32"
                }
            ],
            "stateMutability": "nonpayable",
            "type": "function"
        },
        {
            "inputs": [
                {
                    "internalType": "uint256",
                    "name": "id",
                    "type": "uint256"
                }
            ],
            "name": "deleteLimitOrder",
            "outputs": [],
            "stateMutability": "nonpayable",
            "type": "function"
        },
        {
            "inputs": [
                {
                    "internalType": "contract IAMM",
                    "name": "amm",
                    "type": "address"
                },
                {
                    "internalType": "bytes32",
                    "name": "id",
                    "type": "bytes32"
                }
            ],
            "name": "deleteTriggerOrder",
            "outputs": [],
            "stateMutability": "nonpayable",
            "type": "function"
        },
        {
            "inputs": [
                {
                    "internalType": "contract IAMM",
                    "name": "amm",
                    "type": "address"
                }
            ],
            "name": "getCumulativePremiumFraction",
            "outputs": [
                {
                    "internalType": "int256",
                    "name": "",
                    "type": "int256"
                }
            ],
            "stateMutability": "view",
            "type": "function"
        },
        {
            "inputs": [
                {
                    "internalType": "contract IAMM",
                    "name": "amm",
                    "type": "address"
                }
            ],
            "name": "getFeeGrowth",
            "outputs": [
                {
                    "internalType": "uint256",
                    "name": "",
                    "type": "uint256"
                }
            ],
            "stateMutability": "view",
            "type": "function"
        },
        {
            "inputs": [
                {
                    "internalType": "contract IAMM",
                    "name": "amm",
                    "type": "address"
                }
            ],
            "name": "getFeePool",
            "outputs": [
                {
                    "internalType": "uint256",
                    "name": "",
                    "type": "uint256"
                }
            ],
            "stateMutability": "view",
            "type": "function"
        },
        {
            "inputs": [
                {
                    "internalType": "contract IAMM",
                    "name": "amm",
                    "type": "address"
                },
                {
                    "internalType": "enum Side",
                    "name": "side",
                    "type": "uint8"
                },
                {
                    "internalType": "int24",
                    "name": "tick",
                    "type": "int24"
                }
            ],
            "name": "getLimitLiquidity",
            "outputs": [
                {
                    "components": [
                        {
                            "internalType": "uint256",
                            "name": "liquidity",
                            "type": "uint256"
                        },
                        {
                            "internalType": "uint256[]",
                            "name": "ids",
                            "type": "uint256[]"
                        }
                    ],
                    "internalType": "struct Liquidity",
                    "name": "",
                    "type": "tuple"
                }
            ],
            "stateMutability": "view",
            "type": "function"
        },
        {
            "inputs": [
                {
                    "internalType": "uint256",
                    "name": "id",
                    "type": "uint256"
                }
            ],
            "name": "getLimitOrder",
            "outputs": [
                {
                    "components": [
                        {
                            "internalType": "address",
                            "name": "trader",
                            "type": "address"
                        },
                        {
                            "internalType": "contract IAMM",
                            "name": "amm",
                            "type": "address"
                        },
                        {
                            "internalType": "enum Side",
                            "name": "side",
                            "type": "uint8"
                        },
                        {
                            "internalType": "uint256",
                            "name": "trigger",
                            "type": "uint256"
                        },
                        {
                            "internalType": "uint256",
                            "name": "quoteAmount",
                            "type": "uint256"
                        },
                        {
                            "internalType": "uint256",
                            "name": "leverage",
                            "type": "uint256"
                        },
                        {
                            "internalType": "bool",
                            "name": "reduceOnly",
                            "type": "bool"
                        }
                    ],
                    "internalType": "struct LimitOrder",
                    "name": "",
                    "type": "tuple"
                }
            ],
            "stateMutability": "view",
            "type": "function"
        },
        {
            "inputs": [
                {
                    "internalType": "contract IAMM",
                    "name": "amm",
                    "type": "address"
                }
            ],
            "name": "getOpenInterestNotional",
            "outputs": [
                {
                    "internalType": "uint256",
                    "name": "",
                    "type": "uint256"
                }
            ],
            "stateMutability": "view",
            "type": "function"
        },
        {
            "inputs": [
                {
                    "internalType": "contract IAMM",
                    "name": "amm",
                    "type": "address"
                },
                {
                    "internalType": "address",
                    "name": "trader",
                    "type": "address"
                }
            ],
            "name": "getPosition",
            "outputs": [
                {
                    "components": [
                        {
                            "internalType": "int256",
                            "name": "size",
                            "type": "int256"
                        },
                        {
                            "internalType": "uint256",
                            "name": "margin",
                            "type": "uint256"
                        },
                        {
                            "internalType": "uint256",
                            "name": "openNotional",
                            "type": "uint256"
                        },
                        {
                            "internalType": "int256",
                            "name": "lastPremiumFraction",
                            "type": "int256"
                        },
                        {
                            "internalType": "uint256",
                            "name": "blockNumber",
                            "type": "uint256"
                        }
                    ],
                    "internalType": "struct Position",
                    "name": "position",
                    "type": "tuple"
                }
            ],
            "stateMutability": "view",
            "type": "function"
        },
        {
            "inputs": [
                {
                    "internalType": "contract IAMM",
                    "name": "amm",
                    "type": "address"
                },
                {
                    "internalType": "address",
                    "name": "trader",
                    "type": "address"
                }
            ],
            "name": "getPositionNotional",
            "outputs": [
                {
                    "internalType": "uint256",
                    "name": "positionNotional",
                    "type": "uint256"
                }
            ],
            "stateMutability": "view",
            "type": "function"
        },
        {
            "inputs": [
                {
                    "internalType": "contract IAMM",
                    "name": "amm",
                    "type": "address"
                },
                {
                    "internalType": "address",
                    "name": "trader",
                    "type": "address"
                }
            ],
            "name": "getPositionValue",
            "outputs": [
                {
                    "internalType": "uint256",
                    "name": "value",
                    "type": "uint256"
                },
                {
                    "internalType": "int256",
                    "name": "size",
                    "type": "int256"
                }
            ],
            "stateMutability": "view",
            "type": "function"
        },
        {
            "inputs": [
                {
                    "internalType": "contract IAMM",
                    "name": "amm",
                    "type": "address"
                },
                {
                    "internalType": "address",
                    "name": "trader",
                    "type": "address"
                },
                {
                    "internalType": "uint256",
                    "name": "goalQuote",
                    "type": "uint256"
                }
            ],
            "name": "getSizeForQuote",
            "outputs": [
                {
                    "internalType": "uint256",
                    "name": "size",
                    "type": "uint256"
                }
            ],
            "stateMutability": "nonpayable",
            "type": "function"
        },
        {
            "inputs": [
                {
                    "internalType": "contract IAMM",
                    "name": "amm",
                    "type": "address"
                }
            ],
            "name": "getTotalPositionSize",
            "outputs": [
                {
                    "components": [
                        {
                            "internalType": "int256",
                            "name": "netPositionSize",
                            "type": "int256"
                        },
                        {
                            "internalType": "int256",
                            "name": "netPositionOffsetPerShare",
                            "type": "int256"
                        },
                        {
                            "internalType": "uint256",
                            "name": "positionSizeLong",
                            "type": "uint256"
                        },
                        {
                            "internalType": "uint256",
                            "name": "positionSizeShort",
                            "type": "uint256"
                        }
                    ],
                    "internalType": "struct TotalPositionSize",
                    "name": "",
                    "type": "tuple"
                }
            ],
            "stateMutability": "view",
            "type": "function"
        },
        {
            "inputs": [
                {
                    "internalType": "contract IAMM",
                    "name": "amm",
                    "type": "address"
                }
            ],
            "name": "getValidAMM",
            "outputs": [
                {
                    "internalType": "bool",
                    "name": "",
                    "type": "bool"
                }
            ],
            "stateMutability": "view",
            "type": "function"
        },
        {
            "inputs": [
                {
                    "internalType": "address",
                    "name": "_owner",
                    "type": "address"
                }
            ],
            "name": "initialize",
            "outputs": [],
            "stateMutability": "nonpayable",
            "type": "function"
        },
        {
            "inputs": [],
            "name": "isActive",
            "outputs": [
                {
                    "internalType": "bool",
                    "name": "",
                    "type": "bool"
                }
            ],
            "stateMutability": "view",
            "type": "function"
        },
        {
            "inputs": [
                {
                    "internalType": "contract IAMM",
                    "name": "amm",
                    "type": "address"
                },
                {
                    "internalType": "address",
                    "name": "trader",
                    "type": "address"
                }
            ],
            "name": "isLiquidatable",
            "outputs": [
                {
                    "internalType": "bool",
                    "name": "liquidatable",
                    "type": "bool"
                }
            ],
            "stateMutability": "view",
            "type": "function"
        },
        {
            "inputs": [
                {
                    "internalType": "contract IAMM",
                    "name": "amm",
                    "type": "address"
                },
                {
                    "internalType": "address",
                    "name": "trader",
                    "type": "address"
                },
                {
                    "internalType": "uint256",
                    "name": "margin",
                    "type": "uint256"
                }
            ],
            "name": "liquidate",
            "outputs": [],
            "stateMutability": "nonpayable",
            "type": "function"
        },
        {
            "inputs": [
                {
                    "internalType": "contract IAMM",
                    "name": "amm",
                    "type": "address"
                },
                {
                    "internalType": "enum Side",
                    "name": "side",
                    "type": "uint8"
                },
                {
                    "internalType": "uint256",
                    "name": "quote",
                    "type": "uint256"
                },
                {
                    "internalType": "uint256",
                    "name": "leverage",
                    "type": "uint256"
                },
                {
                    "internalType": "uint256",
                    "name": "baseLimit",
                    "type": "uint256"
                }
            ],
            "name": "openPosition",
            "outputs": [],
            "stateMutability": "nonpayable",
            "type": "function"
        },
        {
            "inputs": [],
            "name": "owner",
            "outputs": [
                {
                    "internalType": "address",
                    "name": "result",
                    "type": "address"
                }
            ],
            "stateMutability": "view",
            "type": "function"
        },
        {
            "inputs": [
                {
                    "internalType": "address",
                    "name": "pendingOwner",
                    "type": "address"
                }
            ],
            "name": "ownershipHandoverExpiresAt",
            "outputs": [
                {
                    "internalType": "uint256",
                    "name": "result",
                    "type": "uint256"
                }
            ],
            "stateMutability": "view",
            "type": "function"
        },
        {
            "inputs": [],
            "name": "ownershipHandoverValidFor",
            "outputs": [
                {
                    "internalType": "uint64",
                    "name": "",
                    "type": "uint64"
                }
            ],
            "stateMutability": "view",
            "type": "function"
        },
        {
            "inputs": [
                {
                    "internalType": "contract IAMM",
                    "name": "amm",
                    "type": "address"
                },
                {
                    "internalType": "uint256",
                    "name": "amount",
                    "type": "uint256"
                }
            ],
            "name": "removeLiquidity",
            "outputs": [],
            "stateMutability": "nonpayable",
            "type": "function"
        },
        {
            "inputs": [
                {
                    "internalType": "contract IAMM",
                    "name": "amm",
                    "type": "address"
                },
                {
                    "internalType": "uint256",
                    "name": "margin",
                    "type": "uint256"
                }
            ],
            "name": "removeMargin",
            "outputs": [],
            "stateMutability": "nonpayable",
            "type": "function"
        },
        {
            "inputs": [
                {
                    "internalType": "uint256",
                    "name": "margin",
                    "type": "uint256"
                }
            ],
            "name": "removeMarginFromBalance",
            "outputs": [],
            "stateMutability": "nonpayable",
            "type": "function"
        },
        {
            "inputs": [],
            "name": "renounceOwnership",
            "outputs": [],
            "stateMutability": "payable",
            "type": "function"
        },
        {
            "inputs": [],
            "name": "requestOwnershipHandover",
            "outputs": [],
            "stateMutability": "payable",
            "type": "function"
        },
        {
            "inputs": [
                {
                    "internalType": "bool",
                    "name": "_active",
                    "type": "bool"
                }
            ],
            "name": "setActive",
            "outputs": [],
            "stateMutability": "nonpayable",
            "type": "function"
        },
        {
            "inputs": [
                {
                    "internalType": "address",
                    "name": "pool",
                    "type": "address"
                },
                {
                    "internalType": "bool",
                    "name": "valid",
                    "type": "bool"
                }
            ],
            "name": "setVaildPool",
            "outputs": [],
            "stateMutability": "nonpayable",
            "type": "function"
        },
        {
            "inputs": [
                {
                    "internalType": "contract IAMM",
                    "name": "amm",
                    "type": "address"
                },
                {
                    "internalType": "bool",
                    "name": "valid",
                    "type": "bool"
                }
            ],
            "name": "setValidAMM",
            "outputs": [],
            "stateMutability": "nonpayable",
            "type": "function"
        },
        {
            "inputs": [
                {
                    "internalType": "contract IAMM",
                    "name": "amm",
                    "type": "address"
                }
            ],
            "name": "settleFunding",
            "outputs": [],
            "stateMutability": "nonpayable",
            "type": "function"
        },
        {
            "inputs": [
                {
                    "internalType": "address",
                    "name": "newOwner",
                    "type": "address"
                }
            ],
            "name": "transferOwnership",
            "outputs": [],
            "stateMutability": "payable",
            "type": "function"
        },
        {
            "inputs": [
                {
                    "internalType": "uint256",
                    "name": "id",
                    "type": "uint256"
                },
                {
                    "components": [
                        {
                            "internalType": "address",
                            "name": "trader",
                            "type": "address"
                        },
                        {
                            "internalType": "contract IAMM",
                            "name": "amm",
                            "type": "address"
                        },
                        {
                            "internalType": "enum Side",
                            "name": "side",
                            "type": "uint8"
                        },
                        {
                            "internalType": "uint256",
                            "name": "trigger",
                            "type": "uint256"
                        },
                        {
                            "internalType": "uint256",
                            "name": "quoteAmount",
                            "type": "uint256"
                        },
                        {
                            "internalType": "uint256",
                            "name": "leverage",
                            "type": "uint256"
                        },
                        {
                            "internalType": "bool",
                            "name": "reduceOnly",
                            "type": "bool"
                        }
                    ],
                    "internalType": "struct LimitOrder",
                    "name": "order",
                    "type": "tuple"
                }
            ],
            "name": "updateLimitOrder",
            "outputs": [],
            "stateMutability": "nonpayable",
            "type": "function"
        },
        {
            "inputs": [
                {
                    "internalType": "bytes32",
                    "name": "id",
                    "type": "bytes32"
                },
                {
                    "internalType": "contract IAMM",
                    "name": "amm",
                    "type": "address"
                },
                {
                    "components": [
                        {
                            "internalType": "address",
                            "name": "trader",
                            "type": "address"
                        },
                        {
                            "internalType": "contract IAMM",
                            "name": "amm",
                            "type": "address"
                        },
                        {
                            "internalType": "uint256",
                            "name": "trigger",
                            "type": "uint256"
                        },
                        {
                            "internalType": "uint256",
                            "name": "size",
                            "type": "uint256"
                        },
                        {
                            "internalType": "uint256",
                            "name": "quoteLimit",
                            "type": "uint256"
                        },
                        {
                            "internalType": "bool",
                            "name": "takeProfit",
                            "type": "bool"
                        }
                    ],
                    "internalType": "struct TriggerOrder",
                    "name": "order",
                    "type": "tuple"
                }
            ],
            "name": "updateTriggerOrder",
            "outputs": [],
            "stateMutability": "nonpayable",
            "type": "function"
        }
    ],
    "bytecode": {
        "object": "0x6101006040523480156200001257600080fd5b506040516200604838038062006048833981016040819052620000359162000146565b6001600160a01b0380851660805283811660e05282811660a052811660c0526200005e62000068565b50505050620001a3565b600054610100900460ff1615620000d55760405162461bcd60e51b815260206004820152602760248201527f496e697469616c697a61626c653a20636f6e747261637420697320696e697469604482015266616c697a696e6760c81b606482015260840160405180910390fd5b60005460ff9081161462000127576000805460ff191660ff9081179091556040519081527f7f26b83ff96e1f2b6a682f133852f6798a09c465da95921460cefb38474024989060200160405180910390a15b565b80516001600160a01b03811681146200014157600080fd5b919050565b600080600080608085870312156200015d57600080fd5b620001688562000129565b9350620001786020860162000129565b9250620001886040860162000129565b9150620001986060860162000129565b905092959194509250565b60805160a05160c05160e051615e026200024660003960008181611ad901528181611b810152612758015260008181610c8701526122fd015260008181611694015281816118010152612a0a0152600081816109e90152818161136b015281816113d601528181611d6d0152818161212001528181612336015281816125f70152818161273601528181612a4e01528181612c9d0152612edb0152615e026000f3fe60806040526004361061025c5760003560e01c80637c88490a11610144578063c88d348a116100b6578063e980e16e1161007a578063e980e16e146107c4578063f04e283e14610817578063f2fde38b1461082a578063f394ae491461083d578063fde3d4f91461085d578063fee81cf41461087d57600080fd5b8063c88d348a14610726578063cbb50e6114610746578063cf70cb6914610766578063d7533f0214610786578063e859f372146107a457600080fd5b8063a201ccf611610108578063a201ccf61461060e578063acec338a1461062e578063b33dc1901461064e578063b346679b146106b0578063b959d695146106e6578063c4d66de81461070657600080fd5b80637c88490a146105335780637eb02406146105535780638d66a9a3146105735780638da5cb5b146105a95780639dda4e4f146105d557600080fd5b80634e270f9b116101dd57806368d85297116101a157806368d85297146104605780636b17ad03146104805780636ea41e40146104a0578063715018a6146104d657806377b57b07146104de5780637afc1f981461051357600080fd5b80634e270f9b146103be5780634fa9c4db146103eb578063530610261461040b578063546c8d171461043857806354d1f13d1461045857600080fd5b806326c013031161022457806326c01303146103085780632a120de4146103285780632c38b3ce146103485780633966a28b14610368578063429e92371461038857600080fd5b806318aec626146102615780631ece366a14610283578063207b5b6f146102b657806322f3e2d4146102d65780632569296214610300575b600080fd5b34801561026d57600080fd5b5061028161027c366004615366565b6108b0565b005b34801561028f57600080fd5b506102a361029e3660046153a6565b6109c9565b6040519081526020015b60405180910390f35b3480156102c257600080fd5b506102816102d13660046153fa565b610b08565b3480156102e257600080fd5b5060005462010000900460ff165b60405190151581526020016102ad565b610281610b3b565b34801561031457600080fd5b50610281610323366004615433565b610b8b565b34801561033457600080fd5b50610281610343366004615545565b610cb5565b34801561035457600080fd5b506102816103633660046153fa565b61143d565b34801561037457600080fd5b506102f0610383366004615573565b611470565b34801561039457600080fd5b506102a36103a33660046155a1565b6001600160a01b031660009081526008602052604090205490565b3480156103ca57600080fd5b506103de6103d93660046155be565b6114e4565b6040516102ad919061560d565b3480156103f757600080fd5b50610281610406366004615665565b6115d1565b34801561041757600080fd5b5061042b61042636600461569a565b6116ba565b6040516102ad91906156e7565b34801561044457600080fd5b506102a3610453366004615433565b6117a0565b610281611846565b34801561046c57600080fd5b506102a361047b36600461574d565b611882565b34801561048c57600080fd5b5061028161049b3660046155a1565b61197f565b3480156104ac57600080fd5b506102a36104bb3660046155a1565b6001600160a01b031660009081526006602052604090205490565b610281611c76565b3480156104ea57600080fd5b506104fe6104f9366004615573565b611c8a565b604080519283526020830191909152016102ad565b34801561051f57600080fd5b5061028161052e36600461569a565b611d33565b34801561053f57600080fd5b506102a361054e366004615573565b611d97565b34801561055f57600080fd5b506102a361056e366004615769565b611e0a565b34801561057f57600080fd5b506102a361058e3660046155a1565b6001600160a01b03166000908152600a602052604090205490565b3480156105b557600080fd5b50638b78c6d819546040516001600160a01b0390911681526020016102ad565b3480156105e157600080fd5b506102f06105f03660046155a1565b6001600160a01b03166000908152600d602052604090205460ff1690565b34801561061a57600080fd5b50610281610629366004615785565b6121bc565b34801561063a57600080fd5b506102816106493660046157b1565b6123e6565b34801561065a57600080fd5b5061066e610669366004615573565b612466565b6040516102ad9190600060a082019050825182526020830151602083015260408301516040830152606083015160608301526080830151608083015292915050565b3480156106bc57600080fd5b506102a36106cb3660046155a1565b6001600160a01b03166000908152600b602052604090205490565b3480156106f257600080fd5b50610281610701366004615785565b6124fb565b34801561071257600080fd5b506102816107213660046155a1565b612664565b34801561073257600080fd5b50610281610741366004615785565b6127d2565b34801561075257600080fd5b506102816107613660046157ce565b612993565b34801561077257600080fd5b50610281610781366004615785565b612a30565b34801561079257600080fd5b506040516202a30081526020016102ad565b3480156107b057600080fd5b506102816107bf36600461569a565b612af3565b3480156107d057600080fd5b506107e46107df3660046155a1565b612d17565b6040516102ad91908151815260208083015190820152604080830151908201526060918201519181019190915260800190565b6102816108253660046155a1565b612d8d565b6102816108383660046155a1565b612dca565b34801561084957600080fd5b50610281610858366004615785565b612df1565b34801561086957600080fd5b5061028161087836600461569a565b612ec6565b34801561088957600080fd5b506102a36108983660046155a1565b63389a75e1600c908152600091909152602090205490565b6108c86108c360408301602084016155a1565b612f2a565b6001600160a01b038083166000908152600e602090815260408083208784529091529020541633811461090e576040516342f062b760e01b815260040160405180910390fd5b3361091c60208401846155a1565b6001600160a01b031614610943576040516342f062b760e01b815260040160405180910390fd5b81600e600061095860408401602085016155a1565b6001600160a01b03168152602080820192909252604090810160009081208882529092529020610988828261583d565b905050837fe657aa4938f23a1e792a700bd221e3e0dda2760d6572e0c57ac1d90a33a6d9f2836040516109bb919061591b565b60405180910390a250505050565b60006109d3612f63565b6109dc85612f2a565b610a116001600160a01b037f000000000000000000000000000000000000000000000000000000000000000016333087612f8c565b604080516080810182526001600160a01b03871660008181526006602090815284822054845282825260078152848220548185019081528383526002825285832060010154858701908152848452600b9092529185902054606085019081529451631a09603f60e21b8152336004820152602481018a9052604481018990526064810188905293516084850152905160a48401525160c4830152915160e482015263682580fc906101040160408051808303816000875af1158015610ada573d6000803e3d6000fd5b505050506040513d601f19601f82011682018060405250810190610afe9190615929565b5095945050505050565b610b10612fe0565b6001600160a01b03919091166000908152600d60205260409020805460ff1916911515919091179055565b60006202a30067ffffffffffffffff164201905063389a75e1600c5233600052806020600c2055337fdbf36a107da19e49527a7176a1babf963b4b0ff8cde35ee35d6cd8f1f9ac7e1d600080a250565b610b93612f63565b610b9c83612f2a565b6001600160a01b0380841660009081526001602081815260408084209487168452938152838320845160a081018652815481529281015491830191909152600281015493820193909352600383015460608201526004909201546080830152610c058583612ffb565b905080610c2557604051633da1f7d160e11b815260040160405180910390fd5b6040516001600160a01b0380871660248301528516604482015233606482015260848101849052610cad9060a40160408051601f198184030181529190526020810180516001600160e01b03166315567f0d60e31b1790526001600160a01b037f000000000000000000000000000000000000000000000000000000000000000016906131a5565b505050505050565b610cbd612f63565b6000828152600560209081526040808320815160e08101835281546001600160a01b0390811682526001808401549182169583019590955290939192840191600160a01b90910460ff1690811115610d1757610d176156b3565b6001811115610d2857610d286156b3565b815260028201546020820152600382015460408201526004820154606082015260059091015460ff16151560809091015280519091506001600160a01b03163314610d86576040516342f062b760e01b815260040160405180910390fd5b610dac82602001518360400151846000015185608001518660a0015187606001516131ca565b6000610dbb83606001516132fc565b905082606001518260600151141580610dfe575082604001516001811115610de557610de56156b3565b82604001516001811115610dfb57610dfb6156b3565b14155b15611065576000610e1283606001516132fc565b9050610e43846020015184604001518388610e3e8860a00151896080015161331c90919063ffffffff16565b613331565b6004600085602001516001600160a01b03166001600160a01b03168152602001908152602001600020600085604001516001811115610e8457610e846156b3565b6001811115610e9557610e956156b3565b815260208082019290925260409081016000908120600286900b82529092528120600101549003610f3557610f358260016003600088602001516001600160a01b03166001600160a01b03168152602001908152602001600020600088604001516001811115610f0757610f076156b3565b6001811115610f1857610f186156b3565b815260200190815260200160002061365c9092919063ffffffff16565b6004600085602001516001600160a01b03166001600160a01b03168152602001908152602001600020600085604001516001811115610f7657610f766156b3565b6001811115610f8757610f876156b3565b815260208082019290925260409081016000908120600286900b8252835290812060019081018054918201815582529190200185905560a08401516080850151610fd09161331c565b6004600086602001516001600160a01b03166001600160a01b03168152602001908152602001600020600086604001516001811115611011576110116156b3565b6001811115611022576110226156b3565b815260200190815260200160002060008460020b60020b815260200190815260200160002060000160008282546110599190615963565b909155506111e5915050565b60006110828360a00151846080015161331c90919063ffffffff16565b905060006110a18560a00151866080015161331c90919063ffffffff16565b905080821115611149576110b58183615976565b6004600087602001516001600160a01b03166001600160a01b031681526020019081526020016000206000876040015160018111156110f6576110f66156b3565b6001811115611107576111076156b3565b815260200190815260200160002060008560020b60020b8152602001908152602001600020600001600082825461113e9190615976565b909155506111e29050565b6111538282615976565b6004600087602001516001600160a01b03166001600160a01b03168152602001908152602001600020600087604001516001811115611194576111946156b3565b60018111156111a5576111a56156b3565b815260200190815260200160002060008560020b60020b815260200190815260200160002060000160008282546111dc9190615963565b90915550505b50505b6111ee836136b4565b151560c0840152600084815260056020908152604091829020855181546001600160a01b039182166001600160a01b031991821617835592870151600180840180549290931694821685178355948801518895939490936001600160a81b03199092161790600160a01b90849081111561126a5761126a6156b3565b0217905550606082015160028201556080820151600382015560a0820151600482015560c0918201516005909101805460ff191691151591909117905582810151908401516000911515901515146112f0578360c00151156112e3576112d383608001516137b6565b6112dc90615989565b9050611317565b6112dc84608001516137b6565b6112fd83608001516137b6565b61130a85608001516137b6565b61131491906159a5565b90505b60ff81901c600090810380830118908213156113985784516001600160a01b031660009081526009602052604081208054839290611356908490615963565b90915550508451611393906001600160a01b037f000000000000000000000000000000000000000000000000000000000000000016903084612f8c565b6113fd565b84516001600160a01b0316600090815260096020526040812080548392906113c1908490615976565b909155505084516113fd906001600160a01b037f00000000000000000000000000000000000000000000000000000000000000001690836137cf565b857f27c8709fbf9f6e767e82fb1e9ec51a00779e7f869622635d02b6854796c273858660405161142d91906156e7565b60405180910390a2505050505050565b611445612fe0565b6001600160a01b03919091166000908152600c60205260409020805460ff1916911515919091179055565b6001600160a01b0380831660009081526001602081815260408084209486168452938152838320845160a081018652815481529281015491830191909152600281015493820193909352600383015460608201526004909201546080830152906114da8482612ffb565b9150505b92915050565b6040805180820190915260008152606060208201526001600160a01b038416600090815260046020526040812090846001811115611524576115246156b3565b6001811115611535576115356156b3565b815260200190815260200160002060008360020b60020b815260200190815260200160002060405180604001604052908160008201548152602001600182018054806020026020016040519081016040528092919081815260200182805480156115be57602002820191906000526020600020905b8154815260200190600101908083116115aa575b50505050508152505090505b9392505050565b6115d9612f63565b6115e283612f2a565b60006115ee8433613815565b905060ff81901c600003808201188084111561161d57604051631eab837160e11b815260040160405180910390fd5b8360000361162c575050505050565b610cad338660008513611640576000611643565b60015b87876000878b1460405160240161166097969594939291906159c5565b60408051601f198184030181529190526020810180516001600160e01b0316637b9db48760e11b1790526001600160a01b037f000000000000000000000000000000000000000000000000000000000000000016906131a5565b6116fc6040805160e081018252600080825260208201819052909182019081526020016000815260200160008152602001600081526020016000151581525090565b600082815260056020908152604091829020825160e08101845281546001600160a01b039081168252600180840154918216948301949094529093919291840191600160a01b90910460ff1690811115611758576117586156b3565b6001811115611769576117696156b3565b815260028201546020820152600382015460408201526004820154606082015260059091015460ff16151560809091015292915050565b6040516001600160a01b038085166024830152831660448201526064810182905260009081906118279060840160408051601f198184030181529190526020810180516001600160e01b031663546c8d1760e01b1790526001600160a01b037f000000000000000000000000000000000000000000000000000000000000000016906131a5565b90508080602001905181019061183d9190615a17565b95945050505050565b63389a75e1600c523360005260006020600c2055337ffa7b8eab7da67f412cc9575ed43464468f9bfbae89d1675917346ca6d8fe3c92600080a2565b60006118976108c360408401602085016155a1565b336118a560208401846155a1565b6001600160a01b0316146118cc576040516342f062b760e01b815260040160405180910390fd5b81436040516020016118df929190615a30565b60405160208183030381529060405280519060200120905081600e600084602001602081019061190f91906155a1565b6001600160a01b0316815260208082019290925260409081016000908120858252909252902061193f828261583d565b905050807fe657aa4938f23a1e792a700bd221e3e0dda2760d6572e0c57ac1d90a33a6d9f283604051611972919061591b565b60405180910390a2919050565b611987612f63565b61199081612f2a565b6000806000836001600160a01b031663ed83d79c6040518163ffffffff1660e01b81526004016060604051808303816000875af11580156119d5573d6000803e3d6000fd5b505050506040513d601f19601f820116820180604052508101906119f99190615a4b565b6001600160a01b038716600081815260026020818152604080842081516080810183528154815260018201548185015293810154848301526003015460608401529383526006815283832054600790915292909120549497509295509093509091611a648683615a79565b6020840151909250611a76908761385e565b611a81906001615a79565b611a8b9082615a79565b8351909150600090611a9d908861385e565b6001600160a01b038916600090815260066020908152604080832087905560079091528120849055909150811315611b6e576001600160a01b037f00000000000000000000000000000000000000000000000000000000000000001663c40768768960ff84901c600003808501186040516001600160e01b031960e085901b1681526001600160a01b0390921660048301526024820152604401600060405180830381600087803b158015611b5157600080fd5b505af1158015611b65573d6000803e3d6000fd5b50505050611c12565b6000811215611c12576001600160a01b037f00000000000000000000000000000000000000000000000000000000000000001663aad3ec968960ff84901c600003808501186040516001600160e01b031960e085901b1681526001600160a01b0390921660048301526024820152604401600060405180830381600087803b158015611bf957600080fd5b505af1158015611c0d573d6000803e3d6000fd5b505050505b604080518781526020810187905290810184905260608101829052608081018390526001600160a01b038916907fde21d972d1f621ed66bfeb71d8e5fb0042b9973ed350d0a35b3016cd73c9e7c59060a00160405180910390a25050505050505050565b611c7e612fe0565b611c8860006138c8565b565b6001600160a01b0380831660009081526001602081815260408084209486168452938152838320845160a08101865281548082529382015492810192909252600281015494820194909452600384015460608201526004909301546080840152909182918203611d01576000809250925050611d2c565b6000611d0d8683613906565b9150506000611d1d878484613d69565b60600151925192945091925050505b9250929050565b611d3b612f63565b3360009081526009602052604081208054839290611d5a908490615976565b90915550611d9490506001600160a01b037f00000000000000000000000000000000000000000000000000000000000000001633836137cf565b50565b6001600160a01b0380831660009081526001602081815260408084209486168452938152838320845160a08101865281548152928101549183019190915260028101549382019390935260038301546060820152600490920154608083015290611e02908490613906565b509392505050565b6000611e14612f63565b611e3a82602001518360400151846000015185608001518660a0015187606001516131ca565b600f60008154611e4990615aa1565b91905081905590506000611e6083606001516132fc565b6020808501516001600160a01b031660009081526004909152604080822090860151929350916001811115611e9757611e976156b3565b6001811115611ea857611ea86156b3565b815260208082019290925260409081016000908120600285900b82529092528120600101549003611f1a57611f1a8160016003600087602001516001600160a01b03166001600160a01b03168152602001908152602001600020600087604001516001811115610f0757610f076156b3565b6004600084602001516001600160a01b03166001600160a01b03168152602001908152602001600020600084604001516001811115611f5b57611f5b6156b3565b6001811115611f6c57611f6c6156b3565b815260208082019290925260409081016000908120600285900b8252835290812060019081018054918201815582529190200182905560a08301516080840151611fb59161331c565b6004600085602001516001600160a01b03166001600160a01b03168152602001908152602001600020600085604001516001811115611ff657611ff66156b3565b6001811115612007576120076156b3565b815260200190815260200160002060008360020b60020b8152602001908152602001600020600001600082825461203e9190615963565b9091555061204d9050836136b4565b151560c0840152600082815260056020908152604091829020855181546001600160a01b039182166001600160a01b031991821617835592870151600180840180549290931694821685178355948801518895939490936001600160a81b03199092161790600160a01b9084908111156120c9576120c96156b3565b0217905550606082015160028201556080820151600382015560a0820151600482015560c0918201516005909101805460ff191691151591909117905583015161217e57608083015161214a906001600160a01b037f0000000000000000000000000000000000000000000000000000000000000000169033903090612f8c565b608083015183516001600160a01b031660009081526009602052604081208054909190612178908490615963565b90915550505b817f27c8709fbf9f6e767e82fb1e9ec51a00779e7f869622635d02b6854796c27385846040516121ae91906156e7565b60405180910390a250919050565b6121c4612f63565b6121cd82612f2a565b604080516080810182526001600160a01b038416600081815260066020908152848220548452828252600781528482205481850152828252600281528482206001015484860152828252600b9052838120546060840152925163ab7ab90360e01b8152839283929163ab7ab9039161224b9133918991600401615aba565b6060604051808303816000875af115801561226a573d6000803e3d6000fd5b505050506040513d601f19601f8201168201806040525081019061228e9190615a4b565b92509250925082600014612329576040516001600160a01b038616602482015233604482015260648101839052608481018490526123239060a40160408051601f198184030181529190526020810180516001600160e01b031663dab497ff60e01b1790526001600160a01b037f000000000000000000000000000000000000000000000000000000000000000016906131a5565b5061235d565b61235d6001600160a01b037f00000000000000000000000000000000000000000000000000000000000000001633846137cf565b6001600160a01b0385166000908152600a602052604081208054839290612385908490615976565b909155505060408051858152602081018590529081018390526060810182905233906001600160a01b038716907fef5ab242a679e37f2ff51fd2bc2aed154cad62c0906ef89aa3228d72f968105f9060800160405180910390a35050505050565b6123ee612fe0565b6000805482158015620100000262ff0000199092169190911790915561243a576040517fed1cd0670ee0c0017f550451a038818c696d0b6a9d6ce5b369e44275573cf9b090600090a150565b6040517ff0c683001104e62ea6db2065e069e1df46185d033db8cf4494df0a516cf537cb90600090a150565b6124986040518060a0016040528060008152602001600081526020016000815260200160008152602001600081525090565b506001600160a01b03918216600090815260016020818152604080842094909516835292835290839020835160a0810185528154815291810154928201929092526002820154928101929092526003810154606083015260040154608082015290565b612503612f63565b61250c82612f2a565b6001600160a01b03821660009081526001602081815260408084203385528252808420815160a0810183528154815293810154928401929092526002820154908301526003810154606083015260040154608082015290612580848361257b86670de0b6b3a763ffff19613e39565b613d69565b6060808201516020850152815190840152905061259d8483613e86565b6001600160a01b038085166000908152600160208181526040808420338086529083529381902087518155918701519282019290925590850151600282015560608501516003820155608085015160049091015561261e917f00000000000000000000000000000000000000000000000000000000000000001690856137cf565b60405183815233906001600160a01b038616907fb0fa03f93c852a6feaaeb34ccf4cf865cc223c4cc9d25dce28a9131fde2710719060200160405180910390a350505050565b600054610100900460ff16158080156126845750600054600160ff909116105b8061269e5750303b15801561269e575060005460ff166001145b6127065760405162461bcd60e51b815260206004820152602e60248201527f496e697469616c697a61626c653a20636f6e747261637420697320616c72656160448201526d191e481a5b9a5d1a585b1a5e995960921b60648201526084015b60405180910390fd5b6000805460ff191660011790558015612729576000805461ff0019166101001790555b61277f6001600160a01b037f0000000000000000000000000000000000000000000000000000000000000000167f0000000000000000000000000000000000000000000000000000000000000000600019613f8d565b61278882613fc9565b80156127ce576000805461ff0019169055604051600181527f7f26b83ff96e1f2b6a682f133852f6798a09c465da95921460cefb38474024989060200160405180910390a15b5050565b6127da612f63565b6001600160a01b038083166000908152600e602090815260408083208584528252808320815160c0810183528154861680825260018301549096169381019390935260028101549183019190915260038101546060830152600481015460808301526005015460ff16151560a082015291612856908590613815565b9050600060ff82901c81038083011890506128748360200151612f2a565b61289d83602001516000841361288b57600161288e565b60005b85604001518660a00151614005565b6001600160a01b0385166000908152600e60209081526040808320878452909152812080546001600160a01b03199081168255600182018054909116905560028101829055600381018290556004810191909155600501805460ff19169055606083015181101561291057606083018190525b612953836000015184602001516000851361292c57600061292f565b60015b606087015160808801516040516116609594939291903390898414906024016159c5565b5060405133906001600160a01b0387169086907f9242309241259c8f8c0196f19912b72928f6d95256e1939aee16099b71e9884f90600090a45050505050565b61299b612f63565b6129a485612f2a565b6129b885846129b3818661331c565b6140d0565b610cad3386868686866040516024016129d696959493929190615aff565b60408051601f198184030181529190526020810180516001600160e01b03166310faff9560e31b1790526001600160a01b037f000000000000000000000000000000000000000000000000000000000000000016906131a5565b612a38612f63565b612a4182612f2a565b612a766001600160a01b037f000000000000000000000000000000000000000000000000000000000000000016333084612f8c565b6001600160a01b03821660009081526001602081815260408084203385529091528220018054839290612aaa908490615963565b909155505060405181815233906001600160a01b038416907f05c2d01f05f37971d15b22586be2f1933a1ae8c0079a056a430b4391550ffb2d9060200160405180910390a35050565b612afb612f63565b6000818152600560209081526040808320815160e08101835281546001600160a01b0390811682526001808401549182169583019590955290939192840191600160a01b90910460ff1690811115612b5557612b556156b3565b6001811115612b6657612b666156b3565b815260028201546020820152600382015460408201526004820154606082015260059091015460ff16151560809091015280519091506001600160a01b03163314612bc4576040516342f062b760e01b815260040160405180910390fd5b6000612bd382606001516132fc565b9050612bff826020015183604001518386610e3e8760a00151886080015161331c90919063ffffffff16565b6000838152600560208190526040822080546001600160a01b03191681556001810180546001600160a81b03191690556002810183905560038101839055600481019290925501805460ff1916905560c0820151612cc557608082015182516001600160a01b031660009081526009602052604081208054909190612c85908490615976565b90915550506080820151612cc5906001600160a01b037f0000000000000000000000000000000000000000000000000000000000000000169033906137cf565b602080830151604080516001600160a01b03909216825260009282019290925284917ff219b095d22566c5d849c31f6ec75ce75dd1f94c65302c25ba0d0729a6a6ccdf910160405180910390a2505050565b612d426040518060800160405280600081526020016000815260200160008152602001600081525090565b506001600160a01b0316600090815260026020818152604092839020835160808101855281548152600182015492810192909252918201549281019290925260030154606082015290565b612d95612fe0565b63389a75e1600c52806000526020600c208054421115612dbd57636f5e88186000526004601cfd5b60009055611d94816138c8565b612dd2612fe0565b8060601b612de857637448fbae6000526004601cfd5b611d94816138c8565b6001600160a01b038083166000908152600e6020908152604080832085845290915290205416338114612e37576040516342f062b760e01b815260040160405180910390fd5b6001600160a01b0383166000818152600e6020908152604080832086845290915280822080546001600160a01b031990811682556001820180549091169055600281018390556003810183905560048101839055600501805460ff191690555190919084907f9242309241259c8f8c0196f19912b72928f6d95256e1939aee16099b71e9884f908490a4505050565b612ece612f63565b612f036001600160a01b037f000000000000000000000000000000000000000000000000000000000000000016333084612f8c565b3360009081526009602052604081208054839290612f22908490615963565b909155505050565b6001600160a01b0381166000908152600d602052604090205460ff16611d94576040516304c1bb0360e11b815260040160405180910390fd5b60005462010000900460ff16611c8857604051637dc579d960e11b815260040160405180910390fd5b60405181606052826040528360601b602c526323b872dd60601b600c52602060006064601c6000895af13d156001600051141716612fd257637939f4246000526004601cfd5b600060605260405250505050565b638b78c6d819543314611c88576382b429006000526004601cfd5b8051600090810361300e575060006114de565b6000613097613088613080866001600160a01b03166346558d1b6040518163ffffffff1660e01b8152600401602060405180830381865afa158015613057573d6000803e3d6000fd5b505050506040513d601f19601f8201168201806040525081019061307b9190615a17565b6137b6565b85519061385e565b60ff81901c6000039081011890565b9050600080846000015113156130ce576130b484604001516137b6565b6130bd836137b6565b6130c791906159a5565b90506130f1565b6130d7826137b6565b6130e485604001516137b6565b6130ee91906159a5565b90505b6000613115838361310588602001516137b6565b61310f9190615a79565b9061416c565b9050600081121561312c57600193505050506114de565b856001600160a01b0316634f3c15426040518163ffffffff1660e01b8152600401602060405180830381865afa15801561316a573d6000803e3d6000fd5b505050506040513d601f19601f8201168201806040525081019061318e9190615a17565b60ff82901c60000380830118109695505050505050565b60606115ca8383604051806060016040528060278152602001615da660279139614199565b336001600160a01b038516146131f3576040516342f062b760e01b815260040160405180910390fd5b6131fc86612f2a565b61320581614211565b61321486846129b3818661331c565b6000866001600160a01b031663604096326040518163ffffffff1660e01b8152600401602060405180830381865afa158015613254573d6000803e3d6000fd5b505050506040513d601f19601f820116820180604052508101906132789190615a17565b905081810361329a57604051636b20f24560e01b815260040160405180910390fd5b60008660018111156132ae576132ae6156b3565b8284116132bc5760016132bf565b60005b60018111156132d0576132d06156b3565b14905080156132f25760405163349b316560e11b815260040160405180910390fd5b5050505050505050565b60006114de606061330c84614241565b901b6001600160a01b03166142c3565b60006115ca8383670de0b6b3a76400006145fd565b6001600160a01b03851660009081526004602052604081208186600181111561335c5761335c6156b3565b600181111561336d5761336d6156b3565b815260200190815260200160002060008560020b60020b81526020019081526020016000206001018054806020026020016040519081016040528092919081815260200182805480156133df57602002820191906000526020600020905b8154815260200190600101908083116133cb575b50508351939450600092506133f991506001905083615976565b67ffffffffffffffff81111561341157613411615474565b60405190808252806020026020018201604052801561343a578160200160208202803683370190505b5090506000805b838110156134b0578685828151811061345c5761345c615b43565b6020026020010151146134a85784818151811061347b5761347b615b43565b602002602001015183838151811061349557613495615b43565b6020026020010181815250508160010191505b600101613441565b5080156135af576001600160a01b038916600090815260046020526040812083918a60018111156134e3576134e36156b3565b60018111156134f4576134f46156b3565b815260200190815260200160002060008960020b60020b8152602001908152602001600020600101908051906020019061352f92919061525e565b506001600160a01b038916600090815260046020526040812086918a600181111561355c5761355c6156b3565b600181111561356d5761356d6156b3565b815260200190815260200160002060008960020b60020b815260200190815260200160002060000160008282546135a49190615976565b909155506136519050565b6001600160a01b0389166000908152600460205260408120908960018111156135da576135da6156b3565b60018111156135eb576135eb6156b3565b81526020808201929092526040908101600090812060028b900b825290925281208181559061361d60018301826152a5565b50506001600160a01b03891660009081526003602052604081206136519189916001918c83811115610f0757610f076156b3565b505050505050505050565b6136668183615b6f565b60020b1561367357600080fd5b6000806136886136838486615b91565b6146ac565b600191820b60009081526020979097526040909620805460ff9097169190911b90951890945550505050565b6020808201516001600160a01b0390811660009081526001808452604080832086519094168352928452828220835160a081018552815480825292820154958101959095526002810154938501939093526003830154606085015260049092015460808401529190156137b057600061374f61307b85606001516137498760a00151886080015161331c90919063ffffffff16565b906146cc565b9050600184604001516001811115613769576137696156b3565b0361377a5761377781615989565b90505b81516000906137899083615bcb565b12156137ae5760ff81901c60000380820118825160ff81901c60000390810118101592505b505b50919050565b6000600160ff1b82106137cb576137cb6146e1565b5090565b816014528060345263a9059cbb60601b60005260206000604460106000875af13d15600160005114171661380b576390b8ec186000526004601cfd5b6000603452505050565b6001600160a01b038083166000908152600160209081526040808320938516835292905290812054908190036114de57604051631d5fdf4760e11b815260040160405180910390fd5b600080831281831280821415821561387c5761387986615989565b95505b811561388e5761388b85615989565b94505b6138a461307b8787670de0b6b3a76400006145fd565b935080156138bf576138b584615989565b93505050506114de565b50505092915050565b638b78c6d81980546001600160a01b039092169182907f8be0079c531659141344cd1fd0a4f28419497f9722a3daafe3b4186f6b6457e0600080a355565b6000806139116152c3565b835160ff81901c600003908101186060820181905260000361393a576000809250925050611d2c565b846001600160a01b031663c24e38596040518163ffffffff1660e01b8152600401606060405180830381865afa158015613978573d6000803e3d6000fd5b505050506040513d601f19601f8201168201806040525081019061399c9190615a4b565b60408401526020830152815283516000126139b85760016139bb565b60005b8160c0019060018111156139d1576139d16156b3565b908160018111156139e4576139e46156b3565b90525060018160c0015160018111156139ff576139ff6156b3565b1460e08201526001600160a01b038516600090815260036020526040812060c083015182906001811115613a3557613a356156b3565b6001811115613a4657613a466156b3565b81526020019081526020016000209050613a79613a74836020015184600001516146cc90919063ffffffff16565b6132fc565b60020b608083015260e0820151613b0c906001600160a01b0388169063f36bdbc990613aa6576000613aa9565b60015b85606001516040518363ffffffff1660e01b8152600401613acb929190615bfb565b602060405180830381865afa158015613ae8573d6000803e3d6000fd5b505050506040513d601f19601f82011682018060405250810190613a749190615a17565b60020b60a083015260e082015115613b3357816080018051613b2d90615c12565b60020b90525b6000805b8360e00151613b56578360a0015160020b846080015160020b13613b68565b8360a0015160020b846080015160020b125b15613c5457608084015160e0850151613b86918591600190156146ef565b60029190910b608086015290508015613c3157613c086040518060e00160405280866060015181526020018660000151815260200186602001518152602001866040015181526020018a6001600160a01b03168152602001866080015160020b81526020018660c001516001811115613c0157613c016156b3565b90526148a7565b6020880152865260608601919091529150613c238287615963565b606085015190965015613c54575b8360e00151613c4f57836080018051613c4990615c12565b60020b90525b613b37565b606084015115613cf7578360e0015115613c8657836060015184602001818151613c7e9190615976565b905250613ca0565b836060015184602001818151613c9c9190615963565b9052505b6000613cbd856020015186604001516146cc90919063ffffffff16565b9050613ce9613ccf86600001516137b6565b613cd8836137b6565b818113818303929091038218021890565b613cf39088615963565b9650505b60018460c001516001811115613d0f57613d0f6156b3565b03613d3b57613d1d866137b6565b613d2a88604001516137b6565b613d3491906159a5565b9450613d5e565b613d4887604001516137b6565b613d51876137b6565b613d5b91906159a5565b94505b505050509250929050565b613d946040518060800160405280600081526020016000815260200160008152602001600081525090565b6001600160a01b0384166000908152600660205260409020548152825115613dd957825160608401518251613dd39291613dcd916159a5565b9061385e565b60208201525b6000613de884602001516137b6565b6020830151613df790856159a5565b613e019190615a79565b905060008112613e215760ff81901c600003808201186060830152611e02565b60ff81901c6000039081011860408201529392505050565b60008082128015613e5057613e4d83615989565b92505b613e6661307b8585670de0b6b3a76400006145fd565b91508015613e7f57613e7782615989565b9150506114de565b5092915050565b600080613e938484613906565b915091506000613ea684602001516137b6565b90506000808313613ec057613ebb8383615a79565b613ec2565b815b90506000866001600160a01b031663bce2020d6040518163ffffffff1660e01b8152600401602060405180830381865afa158015613f04573d6000803e3d6000fd5b505050506040513d601f19601f82011682018060405250810190613f289190615a17565b905060008087600001511315613f52576040870151613f4b9061307b908461331c565b9050613f62565b613f5f61307b878461331c565b90505b6000613f6e82856159a5565b12156132f25760405163845dfc3960e01b815260040160405180910390fd5b816014528060345263095ea7b360601b60005260206000604460106000875af13d15600160005114171661380b57633e3f8f736000526004601cfd5b6001600160a01b0316638b78c6d8198190558060007f8be0079c531659141344cd1fd0a4f28419497f9722a3daafe3b4186f6b6457e08180a350565b6000846001600160a01b031663604096326040518163ffffffff1660e01b8152600401602060405180830381865afa158015614045573d6000803e3d6000fd5b505050506040513d601f19601f820116820180604052508101906140699190615a17565b9050600080856001811115614080576140806156b3565b0361409d578261409257838211614096565b8382105b90506140b1565b826140aa578382106140ae565b8382115b90505b8015610cad57604051630661bf5f60e51b815260040160405180910390fd5b6000836001600160a01b031663bce2020d6040518163ffffffff1660e01b8152600401602060405180830381865afa158015614110573d6000803e3d6000fd5b505050506040513d601f19601f820116820180604052508101906141349190615a17565b9050600061414284846146cc565b905081811015614165576040516357809b3160e01b815260040160405180910390fd5b5050505050565b600080831280156141835761418084615989565b93505b613e6661307b85670de0b6b3a7640000866145fd565b6060600080856001600160a01b0316856040516141b69190615c59565b600060405180830381855af49150503d80600081146141f1576040519150601f19603f3d011682016040523d82523d6000602084013e6141f6565b606091505b509150915061420786838387614b69565b9695505050505050565b61422367016345785d8a000082615c75565b15611d9457604051637434384960e01b815260040160405180910390fd5b6001600160881b03811160071b81811c68ffffffffffffffffff1060061b1781811c64ffffffffff1060051b1781811c62ffffff1060041b1781811c620100000160b5600192831c1b0260121c80830401811c80830401811c80830401811c80830401811c80830401811c80830401811c80830401901c908190048111900390565b60006401000276a36001600160a01b038316108015906142ff575073fffd8963efd1fc6a506488495d951d5263988d266001600160a01b038316105b61432f5760405162461bcd60e51b81526020600482015260016024820152602960f91b60448201526064016126fd565b640100000000600160c01b03602083901b166001600160801b03811160071b81811c67ffffffffffffffff811160061b90811c63ffffffff811160051b90811c61ffff811160041b90811c60ff8111600390811b91821c600f811160021b90811c918211600190811b92831c979088119617909417909217179091171717608081106143ca576143c0607f82615976565b83901c91506143db565b6143d581607f615976565b83901b91505b600060406143ea6080846159a5565b901b9050828302607f1c92508260801c80603f1b8217915083811c935050828302607f1c92508260801c80603e1b8217915083811c935050828302607f1c92508260801c80603d1b8217915083811c935050828302607f1c92508260801c80603c1b8217915083811c935050828302607f1c92508260801c80603b1b8217915083811c935050828302607f1c92508260801c80603a1b8217915083811c935050828302607f1c92508260801c8060391b8217915083811c935050828302607f1c92508260801c8060381b8217915083811c935050828302607f1c92508260801c8060371b8217915083811c935050828302607f1c92508260801c8060361b8217915083811c935050828302607f1c92508260801c8060351b8217915083811c935050828302607f1c92508260801c8060341b8217915083811c935050828302607f1c92508260801c8060331b8217915083811c935050828302607f1c92508260801c8060321b8217915050600081693627a301d71055774c8561456d9190615bcb565b90506000608061458d6f028f6481ab7f045a5af012a19d003aaa846159a5565b901d9050600060806145af846fdb2df09e81959a81455e260799a0632f615a79565b901d90508060020b8260020b146145ee57886001600160a01b03166145d382614bea565b6001600160a01b031611156145e857816145f0565b806145f0565b815b9998505050505050505050565b6000838302600019848609818110820190038061463257836146275763ae47f7026000526004601cfd5b5082900490506115ca565b8084116146475763ae47f7026000526004601cfd5b838587096000858103861695869004956003870260029081188089028203028089028203028089028203028089028203028089028203028089029091030291819003819004600101858411909403939093029190930391909104170290509392505050565b600281900b60081d60006146c261010084615b6f565b60020b9050915091565b60006115ca83670de0b6b3a7640000846145fd565b6335278d126000526004601cfd5b600080806146fd8587615b91565b905060008660020b12801561471d57506147178587615b6f565b60020b15155b15614730578061472c81615c12565b9150505b83156147dd57600080614742836146ac565b90925090506000600160ff831681901b9061475d9082615976565b6147679190615963565b600184900b600090815260208c9052604090205481168015159650909150856147a7578861479860ff851687615c89565b6147a29190615cae565b6147d2565b886147b182614ff8565b6147bb9085615cce565b6147c89060ff1687615c89565b6147d29190615cae565b96505050505061489d565b6000806147ee613683846001615ce7565b90925090506000614806600160ff841681901b615976565b600184900b600090815260208c90526040902054901990811680151596509091508561485f57886148388460ff615cce565b60ff16614846876001615ce7565b6148509190615ce7565b61485a9190615cae565b614896565b888361486a836150ed565b6148749190615cce565b60ff16614882876001615ce7565b61488c9190615ce7565b6148969190615cae565b9650505050505b5094509492505050565b60808101516001600160a01b0316600090815260046020526040812060c08301518291829182918291829060018111156148e3576148e36156b3565b60018111156148f4576148f46156b3565b815260200190815260200160002060008760a0015160020b60020b8152602001908152602001600020604051806040016040529081600082015481526020016001820180548060200260200160405190810160405280929190818152602001828054801561498157602002820191906000526020600020905b81548152602001906001019080831161496d575b5050505050815250509050600060056000836020015160018560200151516149a99190615976565b815181106149b9576149b9615b43565b60200260200101518152602001908152602001600020600201549050806000036149fb5750508451602086015160408701519195506000945092509050614b62565b6000614a2f614a0d89604001516137b6565b613cd861307b614a2a868d606001516146cc90919063ffffffff16565b615218565b8851909150811115614a3f575086515b8088600001818151614a519190615976565b90525060008860c001516001811115614a6c57614a6c6156b3565b14614a8e578088604001818151614a839190615976565b915081815250614aa7565b8088604001818151614aa09190615963565b9150818152505b5060408801516060890151614abb916146cc565b9450614ad6614acd89602001516137b6565b613cd8876137b6565b885190965015614b52576000614b04614afc8a60400151886146cc90919063ffffffff16565b8551906146cc565b8951909150811115614b14575087515b8089600001818151614b269190615976565b9052506040890151614b4490614b3d9088906146cc565b829061331c565b614b4e9088615963565b9650505b5050855160408701519095509150505b9193509193565b60608315614bd8578251600003614bd1576001600160a01b0385163b614bd15760405162461bcd60e51b815260206004820152601d60248201527f416464726573733a2063616c6c20746f206e6f6e2d636f6e747261637400000060448201526064016126fd565b5081614be2565b614be28383615234565b949350505050565b60008060008360020b12614c01578260020b614c0e565b8260020b614c0e90615989565b9050614c1d620d89e719615d0c565b60020b811115614c535760405162461bcd60e51b81526020600482015260016024820152601560fa1b60448201526064016126fd565b600081600116600003614c6a57600160801b614c7c565b6ffffcb933bd6fad37aa2d162d1a5940015b6001600160881b031690506002821615614cb1576080614cac826ffff97272373d413259a46990580e213a615d2e565b901c90505b6004821615614cdb576080614cd6826ffff2e50f5f656932ef12357cf3c7fdcc615d2e565b901c90505b6008821615614d05576080614d00826fffe5caca7e10e4e61c3624eaa0941cd0615d2e565b901c90505b6010821615614d2f576080614d2a826fffcb9843d60f6159c9db58835c926644615d2e565b901c90505b6020821615614d59576080614d54826fff973b41fa98c081472e6896dfb254c0615d2e565b901c90505b6040821615614d83576080614d7e826fff2ea16466c96a3843ec78b326b52861615d2e565b901c90505b6080821615614dad576080614da8826ffe5dee046a99a2a811c461f1969c3053615d2e565b901c90505b610100821615614dd8576080614dd3826ffcbe86c7900a88aedcffc83b479aa3a4615d2e565b901c90505b610200821615614e03576080614dfe826ff987a7253ac413176f2b074cf7815e54615d2e565b901c90505b610400821615614e2e576080614e29826ff3392b0822b70005940c7a398e4b70f3615d2e565b901c90505b610800821615614e59576080614e54826fe7159475a2c29b7443b29c7fa6e889d9615d2e565b901c90505b611000821615614e84576080614e7f826fd097f3bdfd2022b8845ad8f792aa5825615d2e565b901c90505b612000821615614eaf576080614eaa826fa9f746462d870fdf8a65dc1f90e061e5615d2e565b901c90505b614000821615614eda576080614ed5826f70d869a156d2a1b890bb3df62baf32f7615d2e565b901c90505b618000821615614f05576080614f00826f31be135f97d08fd981231505542fcfa6615d2e565b901c90505b62010000821615614f31576080614f2c826f09aa508b5b7a84e1c677de54f3e99bc9615d2e565b901c90505b62020000821615614f5c576080614f57826e5d6af8dedb81196699c329225ee604615d2e565b901c90505b62040000821615614f86576080614f81826d2216e584f5fa1ea926041bedfe98615d2e565b901c90505b62080000821615614fae576080614fa9826b048a170391f7dc42444e8fa2615d2e565b901c90505b60008460020b1315614fc957614fc681600019615d45565b90505b614fd864010000000082615c75565b15614fe4576001614fe7565b60005b614be29060ff16602083901c615963565b600080821161500657600080fd5b600160801b821061502457608091821c916150219082615d59565b90505b68010000000000000000821061504757604091821c916150449082615d59565b90505b640100000000821061506657602091821c916150639082615d59565b90505b62010000821061508357601091821c916150809082615d59565b90505b610100821061509f57600891821c9161509c9082615d59565b90505b601082106150ba57600491821c916150b79082615d59565b90505b600482106150d557600291821c916150d29082615d59565b90505b600282106150e8576114de600182615d59565b919050565b60008082116150fb57600080fd5b5060ff6001600160801b0382161561511f57615118608082615cce565b9050615127565b608082901c91505b67ffffffffffffffff82161561514957615142604082615cce565b9050615151565b604082901c91505b63ffffffff82161561516f57615168602082615cce565b9050615177565b602082901c91505b61ffff8216156151935761518c601082615cce565b905061519b565b601082901c91505b60ff8216156151b6576151af600882615cce565b90506151be565b600882901c91505b600f8216156151d9576151d2600482615cce565b90506151e1565b600482901c91505b60038216156151fc576151f5600282615cce565b9050615204565b600282901c91505b60018216156150e8576114de600182615cce565b60006114de61522f83670de0b6b3a7640000615d2e565b614241565b8151156152445781518083602001fd5b8060405162461bcd60e51b81526004016126fd9190615d72565b828054828255906000526020600020908101928215615299579160200282015b8281111561529957825182559160200191906001019061527e565b506137cb92915061531f565b5080546000825590600052602060002090810190611d94919061531f565b60405180610100016040528060008152602001600081526020016000815260200160008152602001600060020b8152602001600060020b815260200160006001811115615312576153126156b3565b8152600060209091015290565b5b808211156137cb5760008155600101615320565b6001600160a01b0381168114611d9457600080fd5b80356150e881615334565b600060c082840312156137b057600080fd5b6000806000610100848603121561537c57600080fd5b83359250602084013561538e81615334565b915061539d8560408601615354565b90509250925092565b600080600080608085870312156153bc57600080fd5b84356153c781615334565b966020860135965060408601359560600135945092505050565b8015158114611d9457600080fd5b80356150e8816153e1565b6000806040838503121561540d57600080fd5b823561541881615334565b91506020830135615428816153e1565b809150509250929050565b60008060006060848603121561544857600080fd5b833561545381615334565b9250602084013561546381615334565b929592945050506040919091013590565b634e487b7160e01b600052604160045260246000fd5b8035600281106150e857600080fd5b600060e082840312156154ab57600080fd5b60405160e0810181811067ffffffffffffffff821117156154dc57634e487b7160e01b600052604160045260246000fd5b6040529050806154eb83615349565b81526154f960208401615349565b602082015261550a6040840161548a565b6040820152606083013560608201526080830135608082015260a083013560a082015261553960c084016153ef565b60c08201525092915050565b600080610100838503121561555957600080fd5b8235915061556a8460208501615499565b90509250929050565b6000806040838503121561558657600080fd5b823561559181615334565b9150602083013561542881615334565b6000602082840312156155b357600080fd5b81356115ca81615334565b6000806000606084860312156155d357600080fd5b83356155de81615334565b92506155ec6020850161548a565b915060408401358060020b811461560257600080fd5b809150509250925092565b60208082528251828201528281015160408084015280516060840181905260009291820190839060808601905b8083101561565a578351825292840192600192909201919084019061563a565b509695505050505050565b60008060006060848603121561567a57600080fd5b833561568581615334565b95602085013595506040909401359392505050565b6000602082840312156156ac57600080fd5b5035919050565b634e487b7160e01b600052602160045260246000fd5b60028110611d9457634e487b7160e01b600052602160045260246000fd5b81516001600160a01b03908116825260208084015190911690820152604082015160e0820190615716816156c9565b80604084015250606083015160608301526080830151608083015260a083015160a083015260c0830151151560c083015292915050565b600060c0828403121561575f57600080fd5b6115ca8383615354565b600060e0828403121561577b57600080fd5b6115ca8383615499565b6000806040838503121561579857600080fd5b82356157a381615334565b946020939093013593505050565b6000602082840312156157c357600080fd5b81356115ca816153e1565b600080600080600060a086880312156157e657600080fd5b85356157f181615334565b94506157ff6020870161548a565b94979496505050506040830135926060810135926080909101359150565b80546001600160a01b0319166001600160a01b0392909216919091179055565b813561584881615334565b615852818361581d565b50602082013561586181615334565b61586e816001840161581d565b506040820135600282015560608201356003820155608082013560048201556005810160a083013561589f816153e1565b815490151560ff1660ff19919091161790555050565b80356158c081615334565b6001600160a01b0390811683526020820135906158dc82615334565b16602083015260408181013590830152606080820135908301526080808201359083015260a081013561590e816153e1565b80151560a0840152505050565b60c081016114de82846158b5565b6000806040838503121561593c57600080fd5b505080516020909101519092909150565b634e487b7160e01b600052601160045260246000fd5b808201808211156114de576114de61594d565b818103818111156114de576114de61594d565b6000600160ff1b820161599e5761599e61594d565b5060000390565b8181036000831280158383131683831282161715613e7f57613e7f61594d565b6001600160a01b038881168252878116602083015260e08201906159e8886156c9565b87604084015286606084015285608084015280851660a08401525082151560c083015298975050505050505050565b600060208284031215615a2957600080fd5b5051919050565b60e08101615a3e82856158b5565b8260c08301529392505050565b600080600060608486031215615a6057600080fd5b8351925060208401519150604084015190509250925092565b8082018281126000831280158216821582161715615a9957615a9961594d565b505092915050565b600060018201615ab357615ab361594d565b5060010190565b6001600160a01b03841681526020810183905260c08101614be26040830184805182526020810151602083015260408101516040830152606081015160608301525050565b6001600160a01b0387811682528616602082015260c08101615b20866156c9565b8560408301528460608301528360808301528260a0830152979650505050505050565b634e487b7160e01b600052603260045260246000fd5b634e487b7160e01b600052601260045260246000fd5b60008260020b80615b8257615b82615b59565b808360020b0791505092915050565b60008160020b8360020b80615ba857615ba8615b59565b627fffff19821460001982141615615bc257615bc261594d565b90059392505050565b80820260008212600160ff1b84141615615be757615be761594d565b81810583148215176114de576114de61594d565b60408101615c08846156c9565b9281526020015290565b60008160020b627fffff198103615c2b57615c2b61594d565b6000190192915050565b60005b83811015615c50578181015183820152602001615c38565b50506000910152565b60008251615c6b818460208701615c35565b9190910192915050565b600082615c8457615c84615b59565b500690565b600282810b9082900b03627fffff198112627fffff821317156114de576114de61594d565b60008260020b8260020b028060020b9150808214613e7f57613e7f61594d565b60ff82811682821603908111156114de576114de61594d565b600281810b9083900b01627fffff8113627fffff19821217156114de576114de61594d565b60008160020b627fffff198103615d2557615d2561594d565b60000392915050565b80820281158282048414176114de576114de61594d565b600082615d5457615d54615b59565b500490565b60ff81811683821601908111156114de576114de61594d565b6020815260008251806020840152615d91816040850160208701615c35565b601f01601f1916919091016040019291505056fe416464726573733a206c6f772d6c6576656c2064656c65676174652063616c6c206661696c6564a264697066735822122042fee16d3b68e5f4d5d392f423f197d73d119c3e45cae6101b9fc774de41d4a664736f6c63430008130033",
        "linkReferences": {}
    },
    "methodIdentifiers": {
        "addLiquidity(address,uint256,uint256,uint256)": "1ece366a",
        "addMargin(address,uint256)": "cf70cb69",
        "addMarginToBalance(uint256)": "fde3d4f9",
        "cancelOwnershipHandover()": "54d1f13d",
        "closePosition(address,uint256,uint256)": "4fa9c4db",
        "closePositionKeeper(address,bytes32)": "c88d348a",
        "completeOwnershipHandover(address)": "f04e283e",
        "createLimitOrder((address,address,uint8,uint256,uint256,uint256,bool))": "7eb02406",
        "createTriggerOrder((address,address,uint256,uint256,uint256,bool))": "68d85297",
        "deleteLimitOrder(uint256)": "e859f372",
        "deleteTriggerOrder(address,bytes32)": "f394ae49",
        "getCumulativePremiumFraction(address)": "6ea41e40",
        "getFeeGrowth(address)": "b346679b",
        "getFeePool(address)": "8d66a9a3",
        "getLimitLiquidity(address,uint8,int24)": "4e270f9b",
        "getLimitOrder(uint256)": "53061026",
        "getOpenInterestNotional(address)": "429e9237",
        "getPosition(address,address)": "b33dc190",
        "getPositionNotional(address,address)": "7c88490a",
        "getPositionValue(address,address)": "77b57b07",
        "getSizeForQuote(address,address,uint256)": "546c8d17",
        "getTotalPositionSize(address)": "e980e16e",
        "getValidAMM(address)": "9dda4e4f",
        "initialize(address)": "c4d66de8",
        "isActive()": "22f3e2d4",
        "isLiquidatable(address,address)": "3966a28b",
        "liquidate(address,address,uint256)": "26c01303",
        "openPosition(address,uint8,uint256,uint256,uint256)": "cbb50e61",
        "owner()": "8da5cb5b",
        "ownershipHandoverExpiresAt(address)": "fee81cf4",
        "ownershipHandoverValidFor()": "d7533f02",
        "removeLiquidity(address,uint256)": "a201ccf6",
        "removeMargin(address,uint256)": "b959d695",
        "removeMarginFromBalance(uint256)": "7afc1f98",
        "renounceOwnership()": "715018a6",
        "requestOwnershipHandover()": "25692962",
        "setActive(bool)": "acec338a",
        "setVaildPool(address,bool)": "2c38b3ce",
        "setValidAMM(address,bool)": "207b5b6f",
        "settleFunding(address)": "6b17ad03",
        "transferOwnership(address)": "f2fde38b",
        "updateLimitOrder(uint256,(address,address,uint8,uint256,uint256,uint256,bool))": "2a120de4",
        "updateTriggerOrder(bytes32,address,(address,address,uint256,uint256,uint256,bool))": "18aec626"
    },
    "id": 40
}