{
    "abi": [
        {
            "inputs": [
                {
                    "internalType": "address",
                    "name": "_weth",
                    "type": "address"
                },
                {
                    "internalType": "address",
                    "name": "_insuranceFund",
                    "type": "address"
                },
                {
                    "internalType": "address",
                    "name": "_positionManager",
                    "type": "address"
                },
                {
                    "internalType": "address",
                    "name": "_positionMerger",
                    "type": "address"
                }
            ],
            "stateMutability": "nonpayable",
            "type": "constructor"
        },
        {
            "inputs": [],
            "name": "BAD_DEBT",
            "type": "error"
        },
        {
            "inputs": [],
            "name": "INACTIVE",
            "type": "error"
        },
        {
            "inputs": [],
            "name": "INACTIVE_REDUCE_ONLY_ORDER",
            "type": "error"
        },
        {
            "inputs": [],
            "name": "INSUFFICIENT_LIQUIDITY",
            "type": "error"
        },
        {
            "inputs": [],
            "name": "INSUFFICIENT_MARGIN",
            "type": "error"
        },
        {
            "inputs": [],
            "name": "INSUFFICIENT_OPEN_NOTIONAL",
            "type": "error"
        },
        {
            "inputs": [],
            "name": "INSUFFICIENT_SIZE",
            "type": "error"
        },
        {
            "inputs": [],
            "name": "INVALID_AMM",
            "type": "error"
        },
        {
            "inputs": [],
            "name": "INVALID_MARGIN_RATIO",
            "type": "error"
        },
        {
            "inputs": [],
            "name": "INVALID_SIDE",
            "type": "error"
        },
        {
            "inputs": [],
            "name": "INVALID_TRIGGER_AMOUNT",
            "type": "error"
        },
        {
            "inputs": [],
            "name": "NOT_LIMIT_CLOSE",
            "type": "error"
        },
        {
            "inputs": [],
            "name": "NOT_LIQUIDATABLE",
            "type": "error"
        },
        {
            "inputs": [],
            "name": "NOT_REDUCE_ONLY",
            "type": "error"
        },
        {
            "inputs": [],
            "name": "NOT_TRADER",
            "type": "error"
        },
        {
            "inputs": [],
            "name": "NO_POSITION",
            "type": "error"
        },
        {
            "inputs": [],
            "name": "NewOwnerIsZeroAddress",
            "type": "error"
        },
        {
            "inputs": [],
            "name": "NoHandoverRequest",
            "type": "error"
        },
        {
            "inputs": [],
            "name": "OPEN_INTEREST_CAP_EXCEEDED",
            "type": "error"
        },
        {
            "inputs": [],
            "name": "TRIGGER_ON_MARK",
            "type": "error"
        },
        {
            "inputs": [],
            "name": "Unauthorized",
            "type": "error"
        },
        {
            "anonymous": false,
            "inputs": [],
            "name": "Activated",
            "type": "event"
        },
        {
            "anonymous": false,
            "inputs": [],
            "name": "Deactived",
            "type": "event"
        },
        {
            "anonymous": false,
            "inputs": [
                {
                    "indexed": true,
                    "internalType": "contract IAMM",
                    "name": "amm",
                    "type": "address"
                },
                {
                    "indexed": false,
                    "internalType": "uint256",
                    "name": "markPrice",
                    "type": "uint256"
                },
                {
                    "indexed": false,
                    "internalType": "uint256",
                    "name": "indexPrice",
                    "type": "uint256"
                },
                {
                    "indexed": false,
                    "internalType": "int256",
                    "name": "premiumFraction",
                    "type": "int256"
                },
                {
                    "indexed": false,
                    "internalType": "int256",
                    "name": "insuranceFundPnL",
                    "type": "int256"
                },
                {
                    "indexed": false,
                    "internalType": "int256",
                    "name": "premiumFractionPerShare",
                    "type": "int256"
                }
            ],
            "name": "FundingSettled",
            "type": "event"
        },
        {
            "anonymous": false,
            "inputs": [
                {
                    "indexed": false,
                    "internalType": "uint8",
                    "name": "version",
                    "type": "uint8"
                }
            ],
            "name": "Initialized",
            "type": "event"
        },
        {
            "anonymous": false,
            "inputs": [
                {
                    "indexed": true,
                    "internalType": "uint256",
                    "name": "id",
                    "type": "uint256"
                },
                {
                    "indexed": false,
                    "internalType": "contract IAMM",
                    "name": "amm",
                    "type": "address"
                },
                {
                    "indexed": false,
                    "internalType": "bool",
                    "name": "filled",
                    "type": "bool"
                }
            ],
            "name": "LimitOrderRemoved",
            "type": "event"
        },
        {
            "anonymous": false,
            "inputs": [
                {
                    "indexed": true,
                    "internalType": "uint256",
                    "name": "id",
                    "type": "uint256"
                },
                {
                    "components": [
                        {
                            "internalType": "address",
                            "name": "trader",
                            "type": "address"
                        },
                        {
                            "internalType": "contract IAMM",
                            "name": "amm",
                            "type": "address"
                        },
                        {
                            "internalType": "enum Side",
                            "name": "side",
                            "type": "uint8"
                        },
                        {
                            "internalType": "uint256",
                            "name": "trigger",
                            "type": "uint256"
                        },
                        {
                            "internalType": "uint256",
                            "name": "quoteAmount",
                            "type": "uint256"
                        },
                        {
                            "internalType": "uint256",
                            "name": "leverage",
                            "type": "uint256"
                        },
                        {
                            "internalType": "bool",
                            "name": "reduceOnly",
                            "type": "bool"
                        }
                    ],
                    "indexed": false,
                    "internalType": "struct LimitOrder",
                    "name": "order",
                    "type": "tuple"
                }
            ],
            "name": "LimitOrderUpdated",
            "type": "event"
        },
        {
            "anonymous": false,
            "inputs": [
                {
                    "indexed": true,
                    "internalType": "contract IAMM",
                    "name": "amm",
                    "type": "address"
                },
                {
                    "indexed": true,
                    "internalType": "address",
                    "name": "maker",
                    "type": "address"
                },
                {
                    "indexed": false,
                    "internalType": "uint256",
                    "name": "liquidity",
                    "type": "uint256"
                },
                {
                    "indexed": false,
                    "internalType": "int256",
                    "name": "fundingPayment",
                    "type": "int256"
                }
            ],
            "name": "LiquidityAdded",
            "type": "event"
        },
        {
            "anonymous": false,
            "inputs": [
                {
                    "indexed": true,
                    "internalType": "contract IAMM",
                    "name": "amm",
                    "type": "address"
                },
                {
                    "indexed": true,
                    "internalType": "address",
                    "name": "trader",
                    "type": "address"
                },
                {
                    "indexed": false,
                    "internalType": "uint256",
                    "name": "liquidity",
                    "type": "uint256"
                },
                {
                    "indexed": false,
                    "internalType": "int256",
                    "name": "sizeRemoved",
                    "type": "int256"
                },
                {
                    "indexed": false,
                    "internalType": "uint256",
                    "name": "marginRemoved",
                    "type": "uint256"
                },
                {
                    "indexed": false,
                    "internalType": "uint256",
                    "name": "feeRealized",
                    "type": "uint256"
                }
            ],
            "name": "LiquidityRemoved",
            "type": "event"
        },
        {
            "anonymous": false,
            "inputs": [
                {
                    "indexed": true,
                    "internalType": "contract IAMM",
                    "name": "amm",
                    "type": "address"
                },
                {
                    "indexed": true,
                    "internalType": "address",
                    "name": "trader",
                    "type": "address"
                },
                {
                    "indexed": false,
                    "internalType": "uint256",
                    "name": "amount",
                    "type": "uint256"
                }
            ],
            "name": "MarginAdded",
            "type": "event"
        },
        {
            "anonymous": false,
            "inputs": [
                {
                    "indexed": true,
                    "internalType": "contract IAMM",
                    "name": "amm",
                    "type": "address"
                },
                {
                    "indexed": true,
                    "internalType": "address",
                    "name": "trader",
                    "type": "address"
                },
                {
                    "indexed": false,
                    "internalType": "uint256",
                    "name": "amount",
                    "type": "uint256"
                }
            ],
            "name": "MarginRemoved",
            "type": "event"
        },
        {
            "anonymous": false,
            "inputs": [
                {
                    "indexed": true,
                    "internalType": "contract IAMM",
                    "name": "amm",
                    "type": "address"
                },
                {
                    "indexed": false,
                    "internalType": "uint256",
                    "name": "newOpenInterest",
                    "type": "uint256"
                }
            ],
            "name": "OpenInterestChanged",
            "type": "event"
        },
        {
            "anonymous": false,
            "inputs": [
                {
                    "indexed": true,
                    "internalType": "address",
                    "name": "pendingOwner",
                    "type": "address"
                }
            ],
            "name": "OwnershipHandoverCanceled",
            "type": "event"
        },
        {
            "anonymous": false,
            "inputs": [
                {
                    "indexed": true,
                    "internalType": "address",
                    "name": "pendingOwner",
                    "type": "address"
                }
            ],
            "name": "OwnershipHandoverRequested",
            "type": "event"
        },
        {
            "anonymous": false,
            "inputs": [
                {
                    "indexed": true,
                    "internalType": "address",
                    "name": "oldOwner",
                    "type": "address"
                },
                {
                    "indexed": true,
                    "internalType": "address",
                    "name": "newOwner",
                    "type": "address"
                }
            ],
            "name": "OwnershipTransferred",
            "type": "event"
        },
        {
            "anonymous": false,
            "inputs": [
                {
                    "indexed": true,
                    "internalType": "contract IAMM",
                    "name": "amm",
                    "type": "address"
                },
                {
                    "indexed": true,
                    "internalType": "address",
                    "name": "trader",
                    "type": "address"
                },
                {
                    "indexed": false,
                    "internalType": "uint256",
                    "name": "margin",
                    "type": "uint256"
                },
                {
                    "indexed": false,
                    "internalType": "int256",
                    "name": "size",
                    "type": "int256"
                },
                {
                    "indexed": false,
                    "internalType": "uint256",
                    "name": "exchangedQuote",
                    "type": "uint256"
                },
                {
                    "indexed": false,
                    "internalType": "int256",
                    "name": "exchangedBase",
                    "type": "int256"
                },
                {
                    "indexed": false,
                    "internalType": "int256",
                    "name": "realizedPnL",
                    "type": "int256"
                },
                {
                    "indexed": false,
                    "internalType": "int256",
                    "name": "fundingPayment",
                    "type": "int256"
                },
                {
                    "indexed": false,
                    "internalType": "uint256",
                    "name": "markPrice",
                    "type": "uint256"
                },
                {
                    "indexed": false,
                    "internalType": "uint256",
                    "name": "ifFee",
                    "type": "uint256"
                },
                {
                    "indexed": false,
                    "internalType": "uint256",
                    "name": "ammFee",
                    "type": "uint256"
                },
                {
                    "indexed": false,
                    "internalType": "uint256",
                    "name": "limitFee",
                    "type": "uint256"
                },
                {
                    "indexed": false,
                    "internalType": "uint256",
                    "name": "liquidationPenalty",
                    "type": "uint256"
                },
                {
                    "indexed": false,
                    "internalType": "uint256",
                    "name": "keeperFee",
                    "type": "uint256"
                }
            ],
            "name": "PositionChanged",
            "type": "event"
        },
        {
            "anonymous": false,
            "inputs": [
                {
                    "indexed": true,
                    "internalType": "bytes32",
                    "name": "id",
                    "type": "bytes32"
                },
                {
                    "indexed": true,
                    "internalType": "contract IAMM",
                    "name": "amm",
                    "type": "address"
                },
                {
                    "indexed": true,
                    "internalType": "address",
                    "name": "keeper",
                    "type": "address"
                }
            ],
            "name": "TriggerOrderRemoved",
            "type": "event"
        },
        {
            "anonymous": false,
            "inputs": [
                {
                    "indexed": true,
                    "internalType": "bytes32",
                    "name": "id",
                    "type": "bytes32"
                },
                {
                    "components": [
                        {
                            "internalType": "address",
                            "name": "trader",
                            "type": "address"
                        },
                        {
                            "internalType": "contract IAMM",
                            "name": "amm",
                            "type": "address"
                        },
                        {
                            "internalType": "uint256",
                            "name": "trigger",
                            "type": "uint256"
                        },
                        {
                            "internalType": "uint256",
                            "name": "size",
                            "type": "uint256"
                        },
                        {
                            "internalType": "uint256",
                            "name": "quoteLimit",
                            "type": "uint256"
                        },
                        {
                            "internalType": "bool",
                            "name": "takeProfit",
                            "type": "bool"
                        }
                    ],
                    "indexed": false,
                    "internalType": "struct TriggerOrder",
                    "name": "order",
                    "type": "tuple"
                }
            ],
            "name": "TriggerOrderUpdated",
            "type": "event"
        },
        {
            "inputs": [
                {
                    "internalType": "contract IAMM",
                    "name": "amm",
                    "type": "address"
                },
                {
                    "internalType": "uint256",
                    "name": "margin",
                    "type": "uint256"
                },
                {
                    "internalType": "uint256",
                    "name": "leverage",
                    "type": "uint256"
                },
                {
                    "internalType": "uint256",
                    "name": "minLiquidity",
                    "type": "uint256"
                }
            ],
            "name": "addLiquidity",
            "outputs": [
                {
                    "internalType": "uint256",
                    "name": "liquidity",
                    "type": "uint256"
                }
            ],
            "stateMutability": "nonpayable",
            "type": "function"
        },
        {
            "inputs": [
                {
                    "internalType": "contract IAMM",
                    "name": "amm",
                    "type": "address"
                },
                {
                    "internalType": "uint256",
                    "name": "margin",
                    "type": "uint256"
                }
            ],
            "name": "addMargin",
            "outputs": [],
            "stateMutability": "nonpayable",
            "type": "function"
        },
        {
            "inputs": [],
            "name": "cancelOwnershipHandover",
            "outputs": [],
            "stateMutability": "payable",
            "type": "function"
        },
        {
            "inputs": [
                {
                    "internalType": "contract IAMM",
                    "name": "amm",
                    "type": "address"
                },
                {
                    "internalType": "uint256",
                    "name": "size",
                    "type": "uint256"
                },
                {
                    "internalType": "uint256",
                    "name": "quoteLimit",
                    "type": "uint256"
                }
            ],
            "name": "closePosition",
            "outputs": [],
            "stateMutability": "nonpayable",
            "type": "function"
        },
        {
            "inputs": [
                {
                    "internalType": "contract IAMM",
                    "name": "amm",
                    "type": "address"
                },
                {
                    "internalType": "bytes32",
                    "name": "id",
                    "type": "bytes32"
                }
            ],
            "name": "closePositionKeeper",
            "outputs": [],
            "stateMutability": "nonpayable",
            "type": "function"
        },
        {
            "inputs": [
                {
                    "internalType": "address",
                    "name": "pendingOwner",
                    "type": "address"
                }
            ],
            "name": "completeOwnershipHandover",
            "outputs": [],
            "stateMutability": "payable",
            "type": "function"
        },
        {
            "inputs": [
                {
                    "components": [
                        {
                            "internalType": "address",
                            "name": "trader",
                            "type": "address"
                        },
                        {
                            "internalType": "contract IAMM",
                            "name": "amm",
                            "type": "address"
                        },
                        {
                            "internalType": "enum Side",
                            "name": "side",
                            "type": "uint8"
                        },
                        {
                            "internalType": "uint256",
                            "name": "trigger",
                            "type": "uint256"
                        },
                        {
                            "internalType": "uint256",
                            "name": "quoteAmount",
                            "type": "uint256"
                        },
                        {
                            "internalType": "uint256",
                            "name": "leverage",
                            "type": "uint256"
                        },
                        {
                            "internalType": "bool",
                            "name": "reduceOnly",
                            "type": "bool"
                        }
                    ],
                    "internalType": "struct LimitOrder",
                    "name": "order",
                    "type": "tuple"
                }
            ],
            "name": "createLimitOrder",
            "outputs": [
                {
                    "internalType": "uint256",
                    "name": "id",
                    "type": "uint256"
                }
            ],
            "stateMutability": "nonpayable",
            "type": "function"
        },
        {
            "inputs": [
                {
                    "components": [
                        {
                            "internalType": "address",
                            "name": "trader",
                            "type": "address"
                        },
                        {
                            "internalType": "contract IAMM",
                            "name": "amm",
                            "type": "address"
                        },
                        {
                            "internalType": "uint256",
                            "name": "trigger",
                            "type": "uint256"
                        },
                        {
                            "internalType": "uint256",
                            "name": "size",
                            "type": "uint256"
                        },
                        {
                            "internalType": "uint256",
                            "name": "quoteLimit",
                            "type": "uint256"
                        },
                        {
                            "internalType": "bool",
                            "name": "takeProfit",
                            "type": "bool"
                        }
                    ],
                    "internalType": "struct TriggerOrder",
                    "name": "order",
                    "type": "tuple"
                }
            ],
            "name": "createTriggerOrder",
            "outputs": [
                {
                    "internalType": "bytes32",
                    "name": "id",
                    "type": "bytes32"
                }
            ],
            "stateMutability": "nonpayable",
            "type": "function"
        },
        {
            "inputs": [
                {
                    "internalType": "uint256",
                    "name": "id",
                    "type": "uint256"
                }
            ],
            "name": "deleteLimitOrder",
            "outputs": [],
            "stateMutability": "nonpayable",
            "type": "function"
        },
        {
            "inputs": [
                {
                    "internalType": "contract IAMM",
                    "name": "amm",
                    "type": "address"
                },
                {
                    "internalType": "bytes32",
                    "name": "id",
                    "type": "bytes32"
                }
            ],
            "name": "deleteTriggerOrder",
            "outputs": [],
            "stateMutability": "nonpayable",
            "type": "function"
        },
        {
            "inputs": [
                {
                    "internalType": "contract IAMM",
                    "name": "amm",
                    "type": "address"
                }
            ],
            "name": "getAMMData",
            "outputs": [
                {
                    "components": [
                        {
                            "internalType": "int256",
                            "name": "premiumFraction",
                            "type": "int256"
                        },
                        {
                            "internalType": "int256",
                            "name": "premiumFractionPerShare",
                            "type": "int256"
                        },
                        {
                            "internalType": "int256",
                            "name": "netPositionOffsetPerShare",
                            "type": "int256"
                        },
                        {
                            "internalType": "uint256",
                            "name": "feeGrowth",
                            "type": "uint256"
                        }
                    ],
                    "internalType": "struct AMMData",
                    "name": "",
                    "type": "tuple"
                }
            ],
            "stateMutability": "view",
            "type": "function"
        },
        {
            "inputs": [
                {
                    "internalType": "contract IAMM",
                    "name": "amm",
                    "type": "address"
                }
            ],
            "name": "getCumulativePremiumFraction",
            "outputs": [
                {
                    "internalType": "int256",
                    "name": "",
                    "type": "int256"
                }
            ],
            "stateMutability": "view",
            "type": "function"
        },
        {
            "inputs": [
                {
                    "internalType": "contract IAMM",
                    "name": "amm",
                    "type": "address"
                }
            ],
            "name": "getCumulativePremiumFractionPerShare",
            "outputs": [
                {
                    "internalType": "int256",
                    "name": "",
                    "type": "int256"
                }
            ],
            "stateMutability": "view",
            "type": "function"
        },
        {
            "inputs": [
                {
                    "internalType": "contract IAMM",
                    "name": "amm",
                    "type": "address"
                }
            ],
            "name": "getFeeGrowth",
            "outputs": [
                {
                    "internalType": "uint256",
                    "name": "",
                    "type": "uint256"
                }
            ],
            "stateMutability": "view",
            "type": "function"
        },
        {
            "inputs": [
                {
                    "internalType": "uint256",
                    "name": "id",
                    "type": "uint256"
                }
            ],
            "name": "getLimitOrder",
            "outputs": [
                {
                    "components": [
                        {
                            "internalType": "address",
                            "name": "trader",
                            "type": "address"
                        },
                        {
                            "internalType": "contract IAMM",
                            "name": "amm",
                            "type": "address"
                        },
                        {
                            "internalType": "enum Side",
                            "name": "side",
                            "type": "uint8"
                        },
                        {
                            "internalType": "uint256",
                            "name": "trigger",
                            "type": "uint256"
                        },
                        {
                            "internalType": "uint256",
                            "name": "quoteAmount",
                            "type": "uint256"
                        },
                        {
                            "internalType": "uint256",
                            "name": "leverage",
                            "type": "uint256"
                        },
                        {
                            "internalType": "bool",
                            "name": "reduceOnly",
                            "type": "bool"
                        }
                    ],
                    "internalType": "struct LimitOrder",
                    "name": "",
                    "type": "tuple"
                }
            ],
            "stateMutability": "view",
            "type": "function"
        },
        {
            "inputs": [
                {
                    "internalType": "contract IAMM",
                    "name": "amm",
                    "type": "address"
                }
            ],
            "name": "getOpenInterestNotional",
            "outputs": [
                {
                    "internalType": "uint256",
                    "name": "",
                    "type": "uint256"
                }
            ],
            "stateMutability": "view",
            "type": "function"
        },
        {
            "inputs": [
                {
                    "internalType": "contract IAMM",
                    "name": "amm",
                    "type": "address"
                },
                {
                    "internalType": "address",
                    "name": "trader",
                    "type": "address"
                }
            ],
            "name": "getPosition",
            "outputs": [
                {
                    "components": [
                        {
                            "internalType": "int256",
                            "name": "size",
                            "type": "int256"
                        },
                        {
                            "internalType": "uint256",
                            "name": "margin",
                            "type": "uint256"
                        },
                        {
                            "internalType": "uint256",
                            "name": "openNotional",
                            "type": "uint256"
                        },
                        {
                            "internalType": "int256",
                            "name": "lastPremiumFraction",
                            "type": "int256"
                        },
                        {
                            "internalType": "uint256",
                            "name": "blockNumber",
                            "type": "uint256"
                        }
                    ],
                    "internalType": "struct Position",
                    "name": "position",
                    "type": "tuple"
                }
            ],
            "stateMutability": "view",
            "type": "function"
        },
        {
            "inputs": [
                {
                    "internalType": "contract IAMM",
                    "name": "amm",
                    "type": "address"
                },
                {
                    "internalType": "address",
                    "name": "trader",
                    "type": "address"
                }
            ],
            "name": "getPositionNotionalUpnl",
            "outputs": [
                {
                    "internalType": "uint256",
                    "name": "positionNotional",
                    "type": "uint256"
                },
                {
                    "internalType": "int256",
                    "name": "upnl",
                    "type": "int256"
                }
            ],
            "stateMutability": "view",
            "type": "function"
        },
        {
            "inputs": [
                {
                    "internalType": "contract IAMM",
                    "name": "amm",
                    "type": "address"
                }
            ],
            "name": "getTotalPositionSize",
            "outputs": [
                {
                    "components": [
                        {
                            "internalType": "int256",
                            "name": "netPositionSize",
                            "type": "int256"
                        },
                        {
                            "internalType": "int256",
                            "name": "netPositionOffsetPerShare",
                            "type": "int256"
                        },
                        {
                            "internalType": "uint256",
                            "name": "positionSizeLong",
                            "type": "uint256"
                        },
                        {
                            "internalType": "uint256",
                            "name": "positionSizeShort",
                            "type": "uint256"
                        }
                    ],
                    "internalType": "struct TotalPositionSize",
                    "name": "",
                    "type": "tuple"
                }
            ],
            "stateMutability": "view",
            "type": "function"
        },
        {
            "inputs": [
                {
                    "internalType": "contract IAMM",
                    "name": "amm",
                    "type": "address"
                }
            ],
            "name": "getValidAMM",
            "outputs": [
                {
                    "internalType": "bool",
                    "name": "",
                    "type": "bool"
                }
            ],
            "stateMutability": "view",
            "type": "function"
        },
        {
            "inputs": [
                {
                    "internalType": "address",
                    "name": "_owner",
                    "type": "address"
                }
            ],
            "name": "initialize",
            "outputs": [],
            "stateMutability": "nonpayable",
            "type": "function"
        },
        {
            "inputs": [],
            "name": "isActive",
            "outputs": [
                {
                    "internalType": "bool",
                    "name": "",
                    "type": "bool"
                }
            ],
            "stateMutability": "view",
            "type": "function"
        },
        {
            "inputs": [
                {
                    "internalType": "contract IAMM",
                    "name": "amm",
                    "type": "address"
                },
                {
                    "internalType": "address",
                    "name": "trader",
                    "type": "address"
                }
            ],
            "name": "isLiquidatable",
            "outputs": [
                {
                    "internalType": "bool",
                    "name": "liquidatable",
                    "type": "bool"
                }
            ],
            "stateMutability": "view",
            "type": "function"
        },
        {
            "inputs": [
                {
                    "internalType": "contract IAMM",
                    "name": "amm",
                    "type": "address"
                },
                {
                    "internalType": "address",
                    "name": "trader",
                    "type": "address"
                },
                {
                    "internalType": "uint256",
                    "name": "margin",
                    "type": "uint256"
                }
            ],
            "name": "liquidate",
            "outputs": [],
            "stateMutability": "nonpayable",
            "type": "function"
        },
        {
            "inputs": [
                {
                    "internalType": "contract IAMM",
                    "name": "amm",
                    "type": "address"
                },
                {
                    "internalType": "address",
                    "name": "maker",
                    "type": "address"
                },
                {
                    "internalType": "uint256",
                    "name": "margin",
                    "type": "uint256"
                }
            ],
            "name": "liquidateMaker",
            "outputs": [],
            "stateMutability": "nonpayable",
            "type": "function"
        },
        {
            "inputs": [
                {
                    "internalType": "contract IAMM",
                    "name": "amm",
                    "type": "address"
                },
                {
                    "internalType": "enum Side",
                    "name": "side",
                    "type": "uint8"
                },
                {
                    "internalType": "uint256",
                    "name": "quote",
                    "type": "uint256"
                },
                {
                    "internalType": "uint256",
                    "name": "leverage",
                    "type": "uint256"
                },
                {
                    "internalType": "uint256",
                    "name": "baseLimit",
                    "type": "uint256"
                }
            ],
            "name": "openPosition",
            "outputs": [],
            "stateMutability": "nonpayable",
            "type": "function"
        },
        {
            "inputs": [],
            "name": "owner",
            "outputs": [
                {
                    "internalType": "address",
                    "name": "result",
                    "type": "address"
                }
            ],
            "stateMutability": "view",
            "type": "function"
        },
        {
            "inputs": [
                {
                    "internalType": "address",
                    "name": "pendingOwner",
                    "type": "address"
                }
            ],
            "name": "ownershipHandoverExpiresAt",
            "outputs": [
                {
                    "internalType": "uint256",
                    "name": "result",
                    "type": "uint256"
                }
            ],
            "stateMutability": "view",
            "type": "function"
        },
        {
            "inputs": [],
            "name": "ownershipHandoverValidFor",
            "outputs": [
                {
                    "internalType": "uint64",
                    "name": "",
                    "type": "uint64"
                }
            ],
            "stateMutability": "view",
            "type": "function"
        },
        {
            "inputs": [
                {
                    "internalType": "contract IAMM",
                    "name": "amm",
                    "type": "address"
                },
                {
                    "internalType": "uint256",
                    "name": "amount",
                    "type": "uint256"
                }
            ],
            "name": "removeLiquidity",
            "outputs": [],
            "stateMutability": "nonpayable",
            "type": "function"
        },
        {
            "inputs": [
                {
                    "internalType": "contract IAMM",
                    "name": "amm",
                    "type": "address"
                },
                {
                    "internalType": "uint256",
                    "name": "margin",
                    "type": "uint256"
                }
            ],
            "name": "removeMargin",
            "outputs": [],
            "stateMutability": "nonpayable",
            "type": "function"
        },
        {
            "inputs": [],
            "name": "renounceOwnership",
            "outputs": [],
            "stateMutability": "payable",
            "type": "function"
        },
        {
            "inputs": [],
            "name": "requestOwnershipHandover",
            "outputs": [],
            "stateMutability": "payable",
            "type": "function"
        },
        {
            "inputs": [
                {
                    "internalType": "bool",
                    "name": "_active",
                    "type": "bool"
                }
            ],
            "name": "setActive",
            "outputs": [],
            "stateMutability": "nonpayable",
            "type": "function"
        },
        {
            "inputs": [
                {
                    "internalType": "contract IAMM",
                    "name": "amm",
                    "type": "address"
                },
                {
                    "internalType": "bool",
                    "name": "valid",
                    "type": "bool"
                }
            ],
            "name": "setValidAMM",
            "outputs": [],
            "stateMutability": "nonpayable",
            "type": "function"
        },
        {
            "inputs": [
                {
                    "internalType": "contract IAMM",
                    "name": "amm",
                    "type": "address"
                }
            ],
            "name": "settleFunding",
            "outputs": [],
            "stateMutability": "nonpayable",
            "type": "function"
        },
        {
            "inputs": [
                {
                    "internalType": "address",
                    "name": "newOwner",
                    "type": "address"
                }
            ],
            "name": "transferOwnership",
            "outputs": [],
            "stateMutability": "payable",
            "type": "function"
        },
        {
            "inputs": [
                {
                    "internalType": "uint256",
                    "name": "id",
                    "type": "uint256"
                },
                {
                    "components": [
                        {
                            "internalType": "address",
                            "name": "trader",
                            "type": "address"
                        },
                        {
                            "internalType": "contract IAMM",
                            "name": "amm",
                            "type": "address"
                        },
                        {
                            "internalType": "enum Side",
                            "name": "side",
                            "type": "uint8"
                        },
                        {
                            "internalType": "uint256",
                            "name": "trigger",
                            "type": "uint256"
                        },
                        {
                            "internalType": "uint256",
                            "name": "quoteAmount",
                            "type": "uint256"
                        },
                        {
                            "internalType": "uint256",
                            "name": "leverage",
                            "type": "uint256"
                        },
                        {
                            "internalType": "bool",
                            "name": "reduceOnly",
                            "type": "bool"
                        }
                    ],
                    "internalType": "struct LimitOrder",
                    "name": "order",
                    "type": "tuple"
                }
            ],
            "name": "updateLimitOrder",
            "outputs": [],
            "stateMutability": "nonpayable",
            "type": "function"
        },
        {
            "inputs": [
                {
                    "internalType": "bytes32",
                    "name": "id",
                    "type": "bytes32"
                },
                {
                    "internalType": "contract IAMM",
                    "name": "amm",
                    "type": "address"
                },
                {
                    "components": [
                        {
                            "internalType": "address",
                            "name": "trader",
                            "type": "address"
                        },
                        {
                            "internalType": "contract IAMM",
                            "name": "amm",
                            "type": "address"
                        },
                        {
                            "internalType": "uint256",
                            "name": "trigger",
                            "type": "uint256"
                        },
                        {
                            "internalType": "uint256",
                            "name": "size",
                            "type": "uint256"
                        },
                        {
                            "internalType": "uint256",
                            "name": "quoteLimit",
                            "type": "uint256"
                        },
                        {
                            "internalType": "bool",
                            "name": "takeProfit",
                            "type": "bool"
                        }
                    ],
                    "internalType": "struct TriggerOrder",
                    "name": "order",
                    "type": "tuple"
                }
            ],
            "name": "updateTriggerOrder",
            "outputs": [],
            "stateMutability": "nonpayable",
            "type": "function"
        }
    ],
    "bytecode": {
        "object": "0x6101006040523480156200001257600080fd5b506040516200609838038062006098833981016040819052620000359162000146565b6001600160a01b0380851660805283811660e05282811660a052811660c0526200005e62000068565b50505050620001a3565b603c54610100900460ff1615620000d55760405162461bcd60e51b815260206004820152602760248201527f496e697469616c697a61626c653a20636f6e747261637420697320696e697469604482015266616c697a696e6760c81b606482015260840160405180910390fd5b603c5460ff908116146200012757603c805460ff191660ff9081179091556040519081527f7f26b83ff96e1f2b6a682f133852f6798a09c465da95921460cefb38474024989060200160405180910390a15b565b80516001600160a01b03811681146200014157600080fd5b919050565b600080600080608085870312156200015d57600080fd5b620001688562000129565b9350620001786020860162000129565b9250620001886040860162000129565b9150620001986060860162000129565b905092959194509250565b60805160a05160c05160e051615e526200024660003960008181611976015281816119ea015261267c015260008181610ccf01528181611c2f015261222b0152600081816115bb015261292e0152600081816109b401528181610c45015281816113b30152818161141e01528181611b9001528181611fb1015281816122640152818161251b0152818161265a015281816129720152612bc20152615e526000f3fe6080604052600436106102305760003560e01c80638da5cb5b1161012e578063cbb50e61116100ab578063e980e16e1161006f578063e980e16e14610738578063f04e283e1461078b578063f2fde38b1461079e578063f394ae49146107b1578063fee81cf4146107d157600080fd5b8063cbb50e6114610684578063cf70cb69146106a4578063d3123a80146106c4578063d7533f02146106fa578063e859f3721461071857600080fd5b8063b33dc190116100f2578063b33dc1901461058c578063b346679b146105ee578063b959d69514610624578063c4d66de814610644578063c88d348a1461066457600080fd5b80638da5cb5b146104ba57806398712fe4146104e65780639dda4e4f14610513578063a201ccf61461054c578063acec338a1461056c57600080fd5b8063429e9237116101bc5780636b17ad03116101805780636b17ad031461041c5780636ea41e401461043c578063715018a6146104725780637aefce971461047a5780637eb024061461049a57600080fd5b8063429e9237146103715780634fa9c4db146103a757806353061026146103c757806354d1f13d146103f457806368d85297146103fc57600080fd5b806322f3e2d41161020357806322f3e2d4146102df578063256929621461030957806326c01303146103115780632a120de4146103315780633966a28b1461035157600080fd5b80630e86a08d1461023557806318aec6261461026f5780631ece366a14610291578063207b5b6f146102bf575b600080fd5b34801561024157600080fd5b5061025561025036600461527b565b610804565b604080519283526020830191909152015b60405180910390f35b34801561027b57600080fd5b5061028f61028a3660046152c6565b61087b565b005b34801561029d57600080fd5b506102b16102ac366004615306565b610994565b604051908152602001610266565b3480156102cb57600080fd5b5061028f6102da36600461535a565b610b1c565b3480156102eb57600080fd5b50603c5462010000900460ff165b6040519015158152602001610266565b61028f610b4f565b34801561031d57600080fd5b5061028f61032c366004615388565b610b9f565b34801561033d57600080fd5b5061028f61034c3660046154a3565b610cfd565b34801561035d57600080fd5b506102f961036c36600461527b565b611485565b34801561037d57600080fd5b506102b161038c3660046154c8565b6001600160a01b031660009081526007602052604090205490565b3480156103b357600080fd5b5061028f6103c23660046154e5565b6114f8565b3480156103d357600080fd5b506103e76103e236600461551a565b6115e1565b6040516102669190615567565b61028f6116c7565b34801561040857600080fd5b506102b16104173660046155cd565b611703565b34801561042857600080fd5b5061028f6104373660046154c8565b611800565b34801561044857600080fd5b506102b16104573660046154c8565b6001600160a01b031660009081526005602052604090205490565b61028f611adf565b34801561048657600080fd5b5061028f610495366004615388565b611af3565b3480156104a657600080fd5b506102b16104b53660046155e9565b611c5f565b3480156104c657600080fd5b50638b78c6d819546040516001600160a01b039091168152602001610266565b3480156104f257600080fd5b506105066105013660046154c8565b612066565b60405161026691906155fb565b34801561051f57600080fd5b506102f961052e3660046154c8565b6001600160a01b03166000908152603d602052604090205460ff1690565b34801561055857600080fd5b5061028f610567366004615626565b6120eb565b34801561057857600080fd5b5061028f610587366004615652565b6122e7565b34801561059857600080fd5b506105ac6105a736600461527b565b612368565b6040516102669190600060a082019050825182526020830151602083015260408301516040830152606083015160608301526080830151608083015292915050565b3480156105fa57600080fd5b506102b16106093660046154c8565b6001600160a01b031660009081526009602052604090205490565b34801561063057600080fd5b5061028f61063f366004615626565b6123fd565b34801561065057600080fd5b5061028f61065f3660046154c8565b612588565b34801561067057600080fd5b5061028f61067f366004615626565b6126f6565b34801561069057600080fd5b5061028f61069f36600461566f565b6128b7565b3480156106b057600080fd5b5061028f6106bf366004615626565b612954565b3480156106d057600080fd5b506102b16106df3660046154c8565b6001600160a01b031660009081526006602052604090205490565b34801561070657600080fd5b506040516202a3008152602001610266565b34801561072457600080fd5b5061028f61073336600461551a565b612a17565b34801561074457600080fd5b506107586107533660046154c8565b612c3c565b60405161026691908151815260208083015190820152604080830151908201526060918201519181019190915260800190565b61028f6107993660046154c8565b612cb4565b61028f6107ac3660046154c8565b612cf1565b3480156107bd57600080fd5b5061028f6107cc366004615626565b612d18565b3480156107dd57600080fd5b506102b16107ec3660046154c8565b63389a75e1600c908152600091909152602090205490565b6001600160a01b038083166000908152602081815260408083209385168352928152828220835160a08101855281548152600182015492810192909252600281015493820193909352600383015460608201526004909201546080830152908190610870908590612ded565b909590945092505050565b61089361088e60408301602084016154c8565b612e37565b6001600160a01b038083166000908152603e60209081526040808320878452909152902054163381146108d9576040516342f062b760e01b815260040160405180910390fd5b336108e760208401846154c8565b6001600160a01b03161461090e576040516342f062b760e01b815260040160405180910390fd5b81603e600061092360408401602085016154c8565b6001600160a01b0316815260208082019290925260409081016000908120888252909252902061095382826156ed565b905050837fe657aa4938f23a1e792a700bd221e3e0dda2760d6572e0c57ac1d90a33a6d9f28360405161098691906157cc565b60405180910390a250505050565b600061099e612e70565b6109a785612e37565b6109dc6001600160a01b037f000000000000000000000000000000000000000000000000000000000000000016333087612e99565b604080516080810182526001600160a01b038716600081815260056020908152848220548452828252600681528482205481850190815283835260018083528684200154858701908152848452600990925285832054606086019081529551631a09603f60e21b8152336004820152602481018b9052604481018a905260648101899052945160848601525160a48501525160c4840152925160e48301529063682580fc906101040160408051808303816000875af1158015610aa3573d6000803e3d6000fd5b505050506040513d601f19601f82011682018060405250810190610ac791906157da565b604080518381526020810183905292945090925033916001600160a01b038916917f32923dfeaa77af290abe15bfb407a16585bee3843a05dc1b82ad3dca3a866aad910160405180910390a350949350505050565b610b24612eed565b6001600160a01b03919091166000908152603d60205260409020805460ff1916911515919091179055565b60006202a30067ffffffffffffffff164201905063389a75e1600c5233600052806020600c2055337fdbf36a107da19e49527a7176a1babf963b4b0ff8cde35ee35d6cd8f1f9ac7e1d600080a250565b610ba7612e70565b610bb083612e37565b6001600160a01b038084166000908152602081815260408083209386168352928152828220835160a08101855281548152600182015492810192909252600281015493820193909352600383015460608201526004909201546080830152610c188583612f08565b905080610c3857604051633da1f7d160e11b815260040160405180910390fd5b610c6d6001600160a01b037f000000000000000000000000000000000000000000000000000000000000000016333086612e99565b6040516001600160a01b0380871660248301528516604482015233606482015260848101849052610cf59060a40160408051601f198184030181529190526020810180516001600160e01b03166315567f0d60e31b1790526001600160a01b037f000000000000000000000000000000000000000000000000000000000000000016906130b2565b505050505050565b610d05612e70565b6000828152600460209081526040808320815160e08101835281546001600160a01b0390811682526001808401549182169583019590955290939192840191600160a01b90910460ff1690811115610d5f57610d5f615533565b6001811115610d7057610d70615533565b815260028201546020820152600382015460408201526004820154606082015260059091015460ff16151560809091015280519091506001600160a01b03163314610dce576040516342f062b760e01b815260040160405180910390fd5b610df482602001518360400151846000015185608001518660a0015187606001516130de565b6000610e038360600151613206565b905082606001518260600151141580610e46575082604001516001811115610e2d57610e2d615533565b82604001516001811115610e4357610e43615533565b14155b156110ad576000610e5a8360600151613206565b9050610e8b846020015184604001518388610e868860a00151896080015161322690919063ffffffff16565b61323b565b6003600085602001516001600160a01b03166001600160a01b03168152602001908152602001600020600085604001516001811115610ecc57610ecc615533565b6001811115610edd57610edd615533565b815260208082019290925260409081016000908120600286900b82529092528120600101549003610f7d57610f7d8260016002600088602001516001600160a01b03166001600160a01b03168152602001908152602001600020600088604001516001811115610f4f57610f4f615533565b6001811115610f6057610f60615533565b81526020019081526020016000206135669092919063ffffffff16565b6003600085602001516001600160a01b03166001600160a01b03168152602001908152602001600020600085604001516001811115610fbe57610fbe615533565b6001811115610fcf57610fcf615533565b815260208082019290925260409081016000908120600286900b8252835290812060019081018054918201815582529190200185905560a0840151608085015161101891613226565b6003600086602001516001600160a01b03166001600160a01b0316815260200190815260200160002060008660400151600181111561105957611059615533565b600181111561106a5761106a615533565b815260200190815260200160002060008460020b60020b815260200190815260200160002060000160008282546110a19190615814565b9091555061122d915050565b60006110ca8360a00151846080015161322690919063ffffffff16565b905060006110e98560a00151866080015161322690919063ffffffff16565b905080821115611191576110fd8183615827565b6003600087602001516001600160a01b03166001600160a01b0316815260200190815260200160002060008760400151600181111561113e5761113e615533565b600181111561114f5761114f615533565b815260200190815260200160002060008560020b60020b815260200190815260200160002060000160008282546111869190615827565b9091555061122a9050565b61119b8282615827565b6003600087602001516001600160a01b03166001600160a01b031681526020019081526020016000206000876040015160018111156111dc576111dc615533565b60018111156111ed576111ed615533565b815260200190815260200160002060008560020b60020b815260200190815260200160002060000160008282546112249190615814565b90915550505b50505b611236836135be565b151560c0840152600084815260046020908152604091829020855181546001600160a01b039182166001600160a01b031991821617835592870151600180840180549290931694821685178355948801518895939490936001600160a81b03199092161790600160a01b9084908111156112b2576112b2615533565b0217905550606082015160028201556080820151600382015560a0820151600482015560c0918201516005909101805460ff19169115159190911790558281015190840151600091151590151514611338578360c001511561132b5761131b83608001516136bc565b6113249061583a565b905061135f565b61132484608001516136bc565b61134583608001516136bc565b61135285608001516136bc565b61135c9190615856565b90505b60ff81901c600090810380830118908213156113e05784516001600160a01b03166000908152600860205260408120805483929061139e908490615814565b909155505084516113db906001600160a01b037f000000000000000000000000000000000000000000000000000000000000000016903084612e99565b611445565b84516001600160a01b031660009081526008602052604081208054839290611409908490615827565b90915550508451611445906001600160a01b037f00000000000000000000000000000000000000000000000000000000000000001690836136d5565b857f27c8709fbf9f6e767e82fb1e9ec51a00779e7f869622635d02b6854796c27385866040516114759190615567565b60405180910390a2505050505050565b6001600160a01b038083166000908152602081815260408083209385168352928152828220835160a08101855281548152600182015492810192909252600281015493820193909352600383015460608201526004909201546080830152906114ee8482612f08565b9150505b92915050565b611500612e70565b61150983612e37565b6000611515843361371b565b905060ff81901c600003808201188084111561154457604051631eab837160e11b815260040160405180910390fd5b83600003611553575050505050565b610cf533866000851361156757600061156a565b60015b87876000878b146040516024016115879796959493929190615876565b60408051601f198184030181529190526020810180516001600160e01b0316637b9db48760e11b1790526001600160a01b037f000000000000000000000000000000000000000000000000000000000000000016906130b2565b6116236040805160e081018252600080825260208201819052909182019081526020016000815260200160008152602001600081526020016000151581525090565b600082815260046020908152604091829020825160e08101845281546001600160a01b039081168252600180840154918216948301949094529093919291840191600160a01b90910460ff169081111561167f5761167f615533565b600181111561169057611690615533565b815260028201546020820152600382015460408201526004820154606082015260059091015460ff16151560809091015292915050565b63389a75e1600c523360005260006020600c2055337ffa7b8eab7da67f412cc9575ed43464468f9bfbae89d1675917346ca6d8fe3c92600080a2565b600061171861088e60408401602085016154c8565b3361172660208401846154c8565b6001600160a01b03161461174d576040516342f062b760e01b815260040160405180910390fd5b81436040516020016117609291906158c8565b60405160208183030381529060405280519060200120905081603e600084602001602081019061179091906154c8565b6001600160a01b031681526020808201929092526040908101600090812085825290925290206117c082826156ed565b905050807fe657aa4938f23a1e792a700bd221e3e0dda2760d6572e0c57ac1d90a33a6d9f2836040516117f391906157cc565b60405180910390a2919050565b611808612e70565b61181181612e37565b6000806000836001600160a01b031663ed83d79c6040518163ffffffff1660e01b81526004016060604051808303816000875af1158015611856573d6000803e3d6000fd5b505050506040513d601f19601f8201168201806040525081019061187a91906158e3565b6001600160a01b0387166000818152600160208181526040808420815160808101835281548152938101548484015260028101548483015260030154606084015293835260058152838320546006909152929091205494975092955090935090916118e58683615911565b60208401519092506118f79087613762565b611902906001615911565b61190c9082615911565b835190915060009061191e9088613762565b6001600160a01b0389166000908152600560209081526040808320879055600690915281208490559091508113156119d757604051636203b43b60e11b81526001600160a01b038981166004830152602482018390527f0000000000000000000000000000000000000000000000000000000000000000169063c407687690604401600060405180830381600087803b1580156119ba57600080fd5b505af11580156119ce573d6000803e3d6000fd5b50505050611a7b565b6000811215611a7b576001600160a01b037f00000000000000000000000000000000000000000000000000000000000000001663aad3ec968960ff84901c600003808501186040516001600160e01b031960e085901b1681526001600160a01b0390921660048301526024820152604401600060405180830381600087803b158015611a6257600080fd5b505af1158015611a76573d6000803e3d6000fd5b505050505b604080518781526020810187905290810184905260608101829052608081018390526001600160a01b038916907fde21d972d1f621ed66bfeb71d8e5fb0042b9973ed350d0a35b3016cd73c9e7c59060a00160405180910390a25050505050505050565b611ae7612eed565b611af160006137cc565b565b611afb612e70565b611b0483612e37565b604051631bde66e760e01b81526001600160a01b038381166004830152600091829182918291881690631bde66e7906024016080604051808303816000875af1158015611b55573d6000803e3d6000fd5b505050506040513d601f19601f82011682018060405250810190611b799190615939565b92965090945092509050611bb86001600160a01b037f000000000000000000000000000000000000000000000000000000000000000016333088612e99565b6040516001600160a01b0388166024820152336044820152606481018590526084810186905260a4810184905260c4810182905260e48101839052611c55906101040160408051601f198184030181529190526020810180516001600160e01b031663d0dea43d60e01b1790526001600160a01b037f000000000000000000000000000000000000000000000000000000000000000016906130b2565b5050505050505050565b6000611c69612e70565b611cad611c7c60408401602085016154c8565b611c8c606085016040860161596f565b611c9960208601866154c8565b85608001358660a0013587606001356130de565b603f60008154611cbc9061598c565b918290555090506000611cd26060840135613206565b905060036000611ce860408601602087016154c8565b6001600160a01b03166001600160a01b031681526020019081526020016000206000846040016020810190611d1d919061596f565b6001811115611d2e57611d2e615533565b6001811115611d3f57611d3f615533565b815260208082019290925260409081016000908120600285900b82529092528120600101549003611dca57611dca81600160026000611d846040890160208a016154c8565b6001600160a01b03166001600160a01b031681526020019081526020016000206000876040016020810190611db9919061596f565b6001811115610f4f57610f4f615533565b60036000611dde60408601602087016154c8565b6001600160a01b03166001600160a01b031681526020019081526020016000206000846040016020810190611e13919061596f565b6001811115611e2457611e24615533565b6001811115611e3557611e35615533565b815260208082019290925260409081016000908120600285900b82528352908120600190810180549182018155825291902001829055611e7d608084013560a0850135613226565b60036000611e9160408701602088016154c8565b6001600160a01b03166001600160a01b031681526020019081526020016000206000856040016020810190611ec6919061596f565b6001811115611ed757611ed7615533565b6001811115611ee857611ee8615533565b815260200190815260200160002060008360020b60020b81526020019081526020016000206000016000828254611f1f9190615814565b90915550611f35905060e0840160c08501615652565b8015611f555750611f53611f4e368590038501856159a5565b6135be565b155b15611f735760405163481e6cc160e11b815260040160405180910390fd5b60008281526004602052604090208390611f8d82826159c1565b50611fa0905060e0840160c08501615652565b61202857611fdd6001600160a01b037f00000000000000000000000000000000000000000000000000000000000000001633306080870135612e99565b608083013560086000611ff360208701876154c8565b6001600160a01b03166001600160a01b0316815260200190815260200160002060008282546120229190615814565b90915550505b817f27c8709fbf9f6e767e82fb1e9ec51a00779e7f869622635d02b6854796c27385846040516120589190615a67565b60405180910390a250919050565b6120916040518060800160405280600081526020016000815260200160008152602001600081525090565b50604080516080810182526001600160a01b03909216600081815260056020908152838220548552828252600681528382205481860152828252600180825284832001548585015291815260099091522054606082015290565b6120f3612e70565b6120fc82612e37565b604080516080810182526001600160a01b038416600081815260056020908152848220548452828252600681528482205481850152828252600180825285832001548486015282825260099052838120546060840152925163ab7ab90360e01b8152839283929163ab7ab903916121799133918991600401615af1565b6060604051808303816000875af1158015612198573d6000803e3d6000fd5b505050506040513d601f19601f820116820180604052508101906121bc91906158e3565b92509250925082600014612257576040516001600160a01b038616602482015233604482015260648101839052608481018490526122519060a40160408051601f198184030181529190526020810180516001600160e01b031663dab497ff60e01b1790526001600160a01b037f000000000000000000000000000000000000000000000000000000000000000016906130b2565b5061228b565b61228b6001600160a01b037f00000000000000000000000000000000000000000000000000000000000000001633846136d5565b60408051858152602081018590529081018390526060810182905233906001600160a01b038716907fef5ab242a679e37f2ff51fd2bc2aed154cad62c0906ef89aa3228d72f968105f9060800160405180910390a35050505050565b6122ef612eed565b603c805482158015620100000262ff0000199092169190911790915561233b576040517fed1cd0670ee0c0017f550451a038818c696d0b6a9d6ce5b369e44275573cf9b090600090a150565b6040517ff0c683001104e62ea6db2065e069e1df46185d033db8cf4494df0a516cf537cb90600090a15b50565b61239a6040518060a0016040528060008152602001600081526020016000815260200160008152602001600081525090565b506001600160a01b03918216600090815260208181526040808320939094168252918252829020825160a0810184528154815260018201549281019290925260028101549282019290925260038201546060820152600490910154608082015290565b612405612e70565b61240e82612e37565b6001600160a01b0382166000908152602081815260408083203384528252808320815160a081018352815481526001820154938101939093526002810154918301919091526003810154606083015260040154608082015290612484848361247f86670de0b6b3a763ffff1961380a565b613857565b905080604001516000146124ab57604051632c7c1d6360e11b815260040160405180910390fd5b60608082015160208401528151908301526124c6848361391f565b6001600160a01b038085166000908152602081815260408083203380855290835292819020865181559186015160018301558501516002820155606085015160038201556080850151600490910155612542917f00000000000000000000000000000000000000000000000000000000000000001690856136d5565b60405183815233906001600160a01b038616907fb0fa03f93c852a6feaaeb34ccf4cf865cc223c4cc9d25dce28a9131fde2710719060200160405180910390a350505050565b603c54610100900460ff16158080156125a85750603c54600160ff909116105b806125c25750303b1580156125c25750603c5460ff166001145b61262a5760405162461bcd60e51b815260206004820152602e60248201527f496e697469616c697a61626c653a20636f6e747261637420697320616c72656160448201526d191e481a5b9a5d1a585b1a5e995960921b60648201526084015b60405180910390fd5b603c805460ff19166001179055801561264d57603c805461ff0019166101001790555b6126a36001600160a01b037f0000000000000000000000000000000000000000000000000000000000000000167f0000000000000000000000000000000000000000000000000000000000000000600019613a26565b6126ac82613a62565b80156126f257603c805461ff0019169055604051600181527f7f26b83ff96e1f2b6a682f133852f6798a09c465da95921460cefb38474024989060200160405180910390a15b5050565b6126fe612e70565b6001600160a01b038083166000908152603e602090815260408083208584528252808320815160c0810183528154861680825260018301549096169381019390935260028101549183019190915260038101546060830152600481015460808301526005015460ff16151560a08201529161277a90859061371b565b9050600060ff82901c81038083011890506127988360200151612e37565b6127c18360200151600084136127af5760016127b2565b60005b85604001518660a00151613a9e565b6001600160a01b0385166000908152603e60209081526040808320878452909152812080546001600160a01b03199081168255600182018054909116905560028101829055600381018290556004810191909155600501805460ff19169055606083015181101561283457606083018190525b6128778360000151846020015160008513612850576000612853565b60015b60608701516080880151604051611587959493929190339089841490602401615876565b5060405133906001600160a01b0387169086907f9242309241259c8f8c0196f19912b72928f6d95256e1939aee16099b71e9884f90600090a45050505050565b6128bf612e70565b6128c885612e37565b6128dc85846128d78186613226565b613b69565b610cf53386868686866040516024016128fa96959493929190615b36565b60408051601f198184030181529190526020810180516001600160e01b03166310faff9560e31b1790526001600160a01b037f000000000000000000000000000000000000000000000000000000000000000016906130b2565b61295c612e70565b61296582612e37565b61299a6001600160a01b037f000000000000000000000000000000000000000000000000000000000000000016333084612e99565b6001600160a01b038216600090815260208181526040808320338452909152812060010180548392906129ce908490615814565b909155505060405181815233906001600160a01b038416907f05c2d01f05f37971d15b22586be2f1933a1ae8c0079a056a430b4391550ffb2d9060200160405180910390a35050565b612a1f612e70565b6000818152600460209081526040808320815160e08101835281546001600160a01b0390811682526001808401549182169583019590955290939192840191600160a01b90910460ff1690811115612a7957612a79615533565b6001811115612a8a57612a8a615533565b815260028201546020820152600382015460408201526004820154606082015260059091015460ff16151560809091015280519091506001600160a01b03163314612ae8576040516342f062b760e01b815260040160405180910390fd5b6000612af78260600151613206565b9050612b23826020015183604001518386610e868760a00151886080015161322690919063ffffffff16565b6000838152600460208190526040822080546001600160a01b03191681556001810180546001600160a81b0319169055600281018390556003810183905590810191909155600501805460ff1916905560c0820151612bea57608082015182516001600160a01b031660009081526008602052604081208054909190612baa908490615827565b90915550506080820151612bea906001600160a01b037f0000000000000000000000000000000000000000000000000000000000000000169033906136d5565b602080830151604080516001600160a01b03909216825260009282019290925284917ff219b095d22566c5d849c31f6ec75ce75dd1f94c65302c25ba0d0729a6a6ccdf910160405180910390a2505050565b612c676040518060800160405280600081526020016000815260200160008152602001600081525090565b506001600160a01b03166000908152600160208181526040928390208351608081018552815481529281015491830191909152600281015492820192909252600390910154606082015290565b612cbc612eed565b63389a75e1600c52806000526020600c208054421115612ce457636f5e88186000526004601cfd5b60009055612365816137cc565b612cf9612eed565b8060601b612d0f57637448fbae6000526004601cfd5b612365816137cc565b6001600160a01b038083166000908152603e6020908152604080832085845290915290205416338114612d5e576040516342f062b760e01b815260040160405180910390fd5b6001600160a01b0383166000818152603e6020908152604080832086845290915280822080546001600160a01b031990811682556001820180549091169055600281018390556003810183905560048101839055600501805460ff191690555190919084907f9242309241259c8f8c0196f19912b72928f6d95256e1939aee16099b71e9884f908490a4505050565b6000808260000151600003612e0757506000905080612e30565b612e15848460000151613c05565b9150612e2d8284604001516000866000015112613fff565b90505b9250929050565b6001600160a01b0381166000908152603d602052604090205460ff16612365576040516304c1bb0360e11b815260040160405180910390fd5b603c5462010000900460ff16611af157604051637dc579d960e11b815260040160405180910390fd5b60405181606052826040528360601b602c526323b872dd60601b600c52602060006064601c6000895af13d156001600051141716612edf57637939f4246000526004601cfd5b600060605260405250505050565b638b78c6d819543314611af1576382b429006000526004601cfd5b80516000908103612f1b575060006114f2565b6000612fa4612f95612f8d866001600160a01b03166346558d1b6040518163ffffffff1660e01b8152600401602060405180830381865afa158015612f64573d6000803e3d6000fd5b505050506040513d601f19601f82011682018060405250810190612f889190615b7a565b6136bc565b855190613762565b60ff81901c6000039081011890565b905060008084600001511315612fdb57612fc184604001516136bc565b612fca836136bc565b612fd49190615856565b9050612ffe565b612fe4826136bc565b612ff185604001516136bc565b612ffb9190615856565b90505b6000613022838361301288602001516136bc565b61301c9190615911565b90614047565b9050600081121561303957600193505050506114f2565b856001600160a01b0316634f3c15426040518163ffffffff1660e01b8152600401602060405180830381865afa158015613077573d6000803e3d6000fd5b505050506040513d601f19601f8201168201806040525081019061309b9190615b7a565b60ff82901c60000380830118109695505050505050565b60606130d78383604051806060016040528060278152602001615df660279139614074565b9392505050565b336001600160a01b03851614613107576040516342f062b760e01b815260040160405180910390fd5b61311086612e37565b613119816140e2565b61312886846128d78186613226565b6000866001600160a01b031663604096326040518163ffffffff1660e01b8152600401602060405180830381865afa158015613168573d6000803e3d6000fd5b505050506040513d601f19601f8201168201806040525081019061318c9190615b7a565b90508181036131ae57604051636b20f24560e01b815260040160405180910390fd5b60008660018111156131c2576131c2615533565b8284116131d05760016131d3565b60005b60018111156131e4576131e4615533565b1490508015611c555760405163349b316560e11b815260040160405180910390fd5b60006114f2606061321684614175565b901b6001600160a01b03166141f7565b60006130d78383670de0b6b3a7640000614531565b6001600160a01b03851660009081526003602052604081208186600181111561326657613266615533565b600181111561327757613277615533565b815260200190815260200160002060008560020b60020b81526020019081526020016000206001018054806020026020016040519081016040528092919081815260200182805480156132e957602002820191906000526020600020905b8154815260200190600101908083116132d5575b505083519394506000925061330391506001905083615827565b67ffffffffffffffff81111561331b5761331b6153c9565b604051908082528060200260200182016040528015613344578160200160208202803683370190505b5090506000805b838110156133ba578685828151811061336657613366615b93565b6020026020010151146133b25784818151811061338557613385615b93565b602002602001015183838151811061339f5761339f615b93565b6020026020010181815250508160010191505b60010161334b565b5080156134b9576001600160a01b038916600090815260036020526040812083918a60018111156133ed576133ed615533565b60018111156133fe576133fe615533565b815260200190815260200160002060008960020b60020b81526020019081526020016000206001019080519060200190613439929190615185565b506001600160a01b038916600090815260036020526040812086918a600181111561346657613466615533565b600181111561347757613477615533565b815260200190815260200160002060008960020b60020b815260200190815260200160002060000160008282546134ae9190615827565b9091555061355b9050565b6001600160a01b0389166000908152600360205260408120908960018111156134e4576134e4615533565b60018111156134f5576134f5615533565b81526020808201929092526040908101600090812060028b900b825290925281208181559061352760018301826151cc565b50506001600160a01b038916600090815260026020526040812061355b9189916001918c83811115610f4f57610f4f615533565b505050505050505050565b6135708183615bbf565b60020b1561357d57600080fd5b60008061359261358d8486615be1565b6145e0565b600191820b60009081526020979097526040909620805460ff9097169190911b90951890945550505050565b6020808201516001600160a01b039081166000908152808352604080822085519093168252918352818120825160a08101845281548082526001830154958201959095526002820154938101939093526003810154606084015260040154608083015291156136b6576000613655612f88856060015161364f8760a00151886080015161322690919063ffffffff16565b90614600565b905060018460400151600181111561366f5761366f615533565b036136805761367d8161583a565b90505b815160009061368f9083615c1b565b12156136b45760ff81901c60000380820118825160ff81901c60000390810118101592505b505b50919050565b6000600160ff1b82106136d1576136d1614615565b5090565b816014528060345263a9059cbb60601b60005260206000604460106000875af13d156001600051141716613711576390b8ec186000526004601cfd5b6000603452505050565b6001600160a01b03808316600090815260208181526040808320938516835292905290812054908190036114f257604051631d5fdf4760e11b815260040160405180910390fd5b60008083128183128082141582156137805761377d8661583a565b95505b81156137925761378f8561583a565b94505b6137a8612f888787670de0b6b3a7640000614531565b935080156137c3576137b98461583a565b93505050506114f2565b50505092915050565b638b78c6d81980546001600160a01b039092169182907f8be0079c531659141344cd1fd0a4f28419497f9722a3daafe3b4186f6b6457e0600080a355565b600080821280156138215761381e8361583a565b92505b613837612f888585670de0b6b3a7640000614531565b91508015613850576138488261583a565b9150506114f2565b5092915050565b6138826040518060800160405280600081526020016000815260200160008152602001600081525090565b6001600160a01b03841660009081526005602052604090205481528251156138c7578251606084015182516138c192916138bb91615856565b90613762565b60208201525b60006138d684602001516136bc565b60208301516138e59085615856565b6138ef9190615911565b9050600081126139055760608201819052613917565b60ff81901c6000038082011860408301525b509392505050565b60008061392c8484612ded565b91509150600061393f84602001516136bc565b90506000808313613959576139548383615911565b61395b565b815b90506000866001600160a01b031663bce2020d6040518163ffffffff1660e01b8152600401602060405180830381865afa15801561399d573d6000803e3d6000fd5b505050506040513d601f19601f820116820180604052508101906139c19190615b7a565b9050600080876000015113156139eb5760408701516139e490612f889084613226565b90506139fb565b6139f8612f888784613226565b90505b6000613a078285615856565b1215611c555760405163845dfc3960e01b815260040160405180910390fd5b816014528060345263095ea7b360601b60005260206000604460106000875af13d15600160005114171661371157633e3f8f736000526004601cfd5b6001600160a01b0316638b78c6d8198190558060007f8be0079c531659141344cd1fd0a4f28419497f9722a3daafe3b4186f6b6457e08180a350565b6000846001600160a01b031663604096326040518163ffffffff1660e01b8152600401602060405180830381865afa158015613ade573d6000803e3d6000fd5b505050506040513d601f19601f82011682018060405250810190613b029190615b7a565b9050600080856001811115613b1957613b19615533565b03613b365782613b2b57838211613b2f565b8382105b9050613b4a565b82613b4357838210613b47565b8382115b90505b8015610cf557604051630661bf5f60e51b815260040160405180910390fd5b6000836001600160a01b031663bce2020d6040518163ffffffff1660e01b8152600401602060405180830381865afa158015613ba9573d6000803e3d6000fd5b505050506040513d601f19601f82011682018060405250810190613bcd9190615b7a565b90506000613bdb8484614600565b905081811015613bfe576040516357809b3160e01b815260040160405180910390fd5b5050505050565b6000613c0f6151ea565b60ff83901c6000038084011860608201819052600003613c335760009150506114f2565b836001600160a01b031663c24e38596040518163ffffffff1660e01b8152600401606060405180830381865afa158015613c71573d6000803e3d6000fd5b505050506040513d601f19601f82011682018060405250810190613c9591906158e3565b60408401526020830152815260008313613cb0576001613cb3565b60005b8160c001906001811115613cc957613cc9615533565b90816001811115613cdc57613cdc615533565b90525060018160c001516001811115613cf757613cf7615533565b1460e08201526001600160a01b038416600090815260026020526040812060c083015182906001811115613d2d57613d2d615533565b6001811115613d3e57613d3e615533565b81526020019081526020016000209050613d71613d6c8360200151846000015161460090919063ffffffff16565b613206565b60020b608083015260e0820151613e04906001600160a01b0387169063f36bdbc990613d9e576000613da1565b60015b85606001516040518363ffffffff1660e01b8152600401613dc3929190615c4b565b602060405180830381865afa158015613de0573d6000803e3d6000fd5b505050506040513d601f19601f82011682018060405250810190613d6c9190615b7a565b60020b60a083015260e082015115613e2b57816080018051613e2590615c62565b60020b90525b6000805b8360e00151613e4e578360a0015160020b846080015160020b13613e60565b8360a0015160020b846080015160020b125b15613f4c57608084015160e0850151613e7e91859160019015614623565b60029190910b608086015290508015613f2957613f006040518060e0016040528086606001518152602001866000015181526020018660200151815260200186604001518152602001896001600160a01b03168152602001866080015160020b81526020018660c001516001811115613ef957613ef9615533565b90526147db565b6020880152865260608601919091529150613f1b8286615814565b606085015190955015613f4c575b8360e00151613f4757836080018051613f4190615c62565b60020b90525b613e2f565b606084015115613ff5578360e00151613f8057836060015184602001818151613f759190615814565b915081815250613f9d565b836060015184602001818151613f969190615827565b9150818152505b506000613fbb8560200151866040015161460090919063ffffffff16565b9050613fe7613fcd86600001516136bc565b613fd6836136bc565b818113818303929091038218021890565b613ff19087615814565b9550505b5050505092915050565b60008061400b846136bc565b90506000614018866136bc565b905083156140315761402a8183615856565b925061403e565b61403b8282615856565b92505b50509392505050565b6000808312801561405e5761405b8461583a565b93505b613837612f8885670de0b6b3a764000086614531565b6060600080856001600160a01b0316856040516140919190615ca9565b600060405180830381855af49150503d80600081146140cc576040519150601f19603f3d011682016040523d82523d6000602084013e6140d1565b606091505b509150915061403b86838387614a90565b68056bc75e2d631000008111156141235761410567016345785d8a000082615cc5565b1561236557604051637434384960e01b815260040160405180910390fd5b678ac7230489e8000081111561414457614105662386f26fc1000082615cc5565b670de0b6b3a76400008111156141655761410566038d7ea4c6800082615cc5565b614105655af3107a400082615cc5565b6001600160881b03811160071b81811c68ffffffffffffffffff1060061b1781811c64ffffffffff1060051b1781811c62ffffff1060041b1781811c620100000160b5600192831c1b0260121c80830401811c80830401811c80830401811c80830401811c80830401811c80830401811c80830401901c908190048111900390565b60006401000276a36001600160a01b03831610801590614233575073fffd8963efd1fc6a506488495d951d5263988d266001600160a01b038316105b6142635760405162461bcd60e51b81526020600482015260016024820152602960f91b6044820152606401612621565b640100000000600160c01b03602083901b166001600160801b03811160071b81811c67ffffffffffffffff811160061b90811c63ffffffff811160051b90811c61ffff811160041b90811c60ff8111600390811b91821c600f811160021b90811c918211600190811b92831c979088119617909417909217179091171717608081106142fe576142f4607f82615827565b83901c915061430f565b61430981607f615827565b83901b91505b6000604061431e608084615856565b901b9050828302607f1c92508260801c80603f1b8217915083811c935050828302607f1c92508260801c80603e1b8217915083811c935050828302607f1c92508260801c80603d1b8217915083811c935050828302607f1c92508260801c80603c1b8217915083811c935050828302607f1c92508260801c80603b1b8217915083811c935050828302607f1c92508260801c80603a1b8217915083811c935050828302607f1c92508260801c8060391b8217915083811c935050828302607f1c92508260801c8060381b8217915083811c935050828302607f1c92508260801c8060371b8217915083811c935050828302607f1c92508260801c8060361b8217915083811c935050828302607f1c92508260801c8060351b8217915083811c935050828302607f1c92508260801c8060341b8217915083811c935050828302607f1c92508260801c8060331b8217915083811c935050828302607f1c92508260801c8060321b8217915050600081693627a301d71055774c856144a19190615c1b565b9050600060806144c16f028f6481ab7f045a5af012a19d003aaa84615856565b901d9050600060806144e3846fdb2df09e81959a81455e260799a0632f615911565b901d90508060020b8260020b1461452257886001600160a01b031661450782614b11565b6001600160a01b0316111561451c5781614524565b80614524565b815b9998505050505050505050565b60008383026000198486098181108201900380614566578361455b5763ae47f7026000526004601cfd5b5082900490506130d7565b80841161457b5763ae47f7026000526004601cfd5b838587096000858103861695869004956003870260029081188089028203028089028203028089028203028089028203028089028203028089029091030291819003819004600101858411909403939093029190930391909104170290509392505050565b600281900b60081d60006145f661010084615bbf565b60020b9050915091565b60006130d783670de0b6b3a764000084614531565b6335278d126000526004601cfd5b600080806146318587615be1565b905060008660020b128015614651575061464b8587615bbf565b60020b15155b15614664578061466081615c62565b9150505b831561471157600080614676836145e0565b90925090506000600160ff831681901b906146919082615827565b61469b9190615814565b600184900b600090815260208c9052604090205481168015159650909150856146db57886146cc60ff851687615cd9565b6146d69190615cfe565b614706565b886146e582614f1f565b6146ef9085615d1e565b6146fc9060ff1687615cd9565b6147069190615cfe565b9650505050506147d1565b60008061472261358d846001615d37565b9092509050600061473a600160ff841681901b615827565b600184900b600090815260208c905260409020549019908116801515965090915085614793578861476c8460ff615d1e565b60ff1661477a876001615d37565b6147849190615d37565b61478e9190615cfe565b6147ca565b888361479e83615014565b6147a89190615d1e565b60ff166147b6876001615d37565b6147c09190615d37565b6147ca9190615cfe565b9650505050505b5094509492505050565b60808101516001600160a01b0316600090815260036020526040812060c083015182918291829182918290600181111561481757614817615533565b600181111561482857614828615533565b815260200190815260200160002060008760a0015160020b60020b815260200190815260200160002060405180604001604052908160008201548152602001600182018054806020026020016040519081016040528092919081815260200182805480156148b557602002820191906000526020600020905b8154815260200190600101908083116148a1575b5050505050815250509050600060046000836020015160018560200151516148dd9190615827565b815181106148ed576148ed615b93565b602002602001015181526020019081526020016000206002015490508060000361492f5750508451602086015160408701519195506000945092509050614a89565b600061496361494189604001516136bc565b613fd6612f8861495e868d6060015161460090919063ffffffff16565b61513f565b8851909150811115614973575086515b80886000018181516149859190615827565b90525060008860c0015160018111156149a0576149a0615533565b146149c25780886040018181516149b79190615827565b9150818152506149db565b80886040018181516149d49190615814565b9150818152505b50604088015160608901516149ef91614600565b9450614a0888604001518661460090919063ffffffff16565b9150614a23614a1a89602001516136bc565b613fd6876136bc565b885190965015614a79578251600090614a3c9084614600565b8951909150811115614a4c575087515b8089600001818151614a5e9190615827565b905250614a6b8184613226565b614a759088615814565b9650505b5050855160408701519095509150505b9193509193565b60608315614aff578251600003614af8576001600160a01b0385163b614af85760405162461bcd60e51b815260206004820152601d60248201527f416464726573733a2063616c6c20746f206e6f6e2d636f6e74726163740000006044820152606401612621565b5081614b09565b614b09838361515b565b949350505050565b60008060008360020b12614b28578260020b614b35565b8260020b614b359061583a565b9050614b44620d89e719615d5c565b60020b811115614b7a5760405162461bcd60e51b81526020600482015260016024820152601560fa1b6044820152606401612621565b600081600116600003614b9157600160801b614ba3565b6ffffcb933bd6fad37aa2d162d1a5940015b6001600160881b031690506002821615614bd8576080614bd3826ffff97272373d413259a46990580e213a615d7e565b901c90505b6004821615614c02576080614bfd826ffff2e50f5f656932ef12357cf3c7fdcc615d7e565b901c90505b6008821615614c2c576080614c27826fffe5caca7e10e4e61c3624eaa0941cd0615d7e565b901c90505b6010821615614c56576080614c51826fffcb9843d60f6159c9db58835c926644615d7e565b901c90505b6020821615614c80576080614c7b826fff973b41fa98c081472e6896dfb254c0615d7e565b901c90505b6040821615614caa576080614ca5826fff2ea16466c96a3843ec78b326b52861615d7e565b901c90505b6080821615614cd4576080614ccf826ffe5dee046a99a2a811c461f1969c3053615d7e565b901c90505b610100821615614cff576080614cfa826ffcbe86c7900a88aedcffc83b479aa3a4615d7e565b901c90505b610200821615614d2a576080614d25826ff987a7253ac413176f2b074cf7815e54615d7e565b901c90505b610400821615614d55576080614d50826ff3392b0822b70005940c7a398e4b70f3615d7e565b901c90505b610800821615614d80576080614d7b826fe7159475a2c29b7443b29c7fa6e889d9615d7e565b901c90505b611000821615614dab576080614da6826fd097f3bdfd2022b8845ad8f792aa5825615d7e565b901c90505b612000821615614dd6576080614dd1826fa9f746462d870fdf8a65dc1f90e061e5615d7e565b901c90505b614000821615614e01576080614dfc826f70d869a156d2a1b890bb3df62baf32f7615d7e565b901c90505b618000821615614e2c576080614e27826f31be135f97d08fd981231505542fcfa6615d7e565b901c90505b62010000821615614e58576080614e53826f09aa508b5b7a84e1c677de54f3e99bc9615d7e565b901c90505b62020000821615614e83576080614e7e826e5d6af8dedb81196699c329225ee604615d7e565b901c90505b62040000821615614ead576080614ea8826d2216e584f5fa1ea926041bedfe98615d7e565b901c90505b62080000821615614ed5576080614ed0826b048a170391f7dc42444e8fa2615d7e565b901c90505b60008460020b1315614ef057614eed81600019615d95565b90505b614eff64010000000082615cc5565b15614f0b576001614f0e565b60005b614b099060ff16602083901c615814565b6000808211614f2d57600080fd5b600160801b8210614f4b57608091821c91614f489082615da9565b90505b680100000000000000008210614f6e57604091821c91614f6b9082615da9565b90505b6401000000008210614f8d57602091821c91614f8a9082615da9565b90505b620100008210614faa57601091821c91614fa79082615da9565b90505b6101008210614fc657600891821c91614fc39082615da9565b90505b60108210614fe157600491821c91614fde9082615da9565b90505b60048210614ffc57600291821c91614ff99082615da9565b90505b6002821061500f576114f2600182615da9565b919050565b600080821161502257600080fd5b5060ff6001600160801b038216156150465761503f608082615d1e565b905061504e565b608082901c91505b67ffffffffffffffff82161561507057615069604082615d1e565b9050615078565b604082901c91505b63ffffffff8216156150965761508f602082615d1e565b905061509e565b602082901c91505b61ffff8216156150ba576150b3601082615d1e565b90506150c2565b601082901c91505b60ff8216156150dd576150d6600882615d1e565b90506150e5565b600882901c91505b600f821615615100576150f9600482615d1e565b9050615108565b600482901c91505b60038216156151235761511c600282615d1e565b905061512b565b600282901c91505b600182161561500f576114f2600182615d1e565b60006114f261515683670de0b6b3a7640000615d7e565b614175565b81511561516b5781518083602001fd5b8060405162461bcd60e51b81526004016126219190615dc2565b8280548282559060005260206000209081019282156151c0579160200282015b828111156151c05782518255916020019190600101906151a5565b506136d1929150615246565b50805460008255906000526020600020908101906123659190615246565b60405180610100016040528060008152602001600081526020016000815260200160008152602001600060020b8152602001600060020b81526020016000600181111561523957615239615533565b8152600060209091015290565b5b808211156136d15760008155600101615247565b6001600160a01b038116811461236557600080fd5b803561500f8161525b565b6000806040838503121561528e57600080fd5b82356152998161525b565b915060208301356152a98161525b565b809150509250929050565b600060c082840312156136b657600080fd5b600080600061010084860312156152dc57600080fd5b8335925060208401356152ee8161525b565b91506152fd85604086016152b4565b90509250925092565b6000806000806080858703121561531c57600080fd5b84356153278161525b565b966020860135965060408601359560600135945092505050565b801515811461236557600080fd5b803561500f81615341565b6000806040838503121561536d57600080fd5b82356153788161525b565b915060208301356152a981615341565b60008060006060848603121561539d57600080fd5b83356153a88161525b565b925060208401356153b88161525b565b929592945050506040919091013590565b634e487b7160e01b600052604160045260246000fd5b6002811061236557600080fd5b803561500f816153df565b600060e0828403121561540957600080fd5b60405160e0810181811067ffffffffffffffff8211171561543a57634e487b7160e01b600052604160045260246000fd5b60405290508061544983615270565b815261545760208401615270565b6020820152615468604084016153ec565b6040820152606083013560608201526080830135608082015260a083013560a082015261549760c0840161534f565b60c08201525092915050565b60008061010083850312156154b757600080fd5b82359150612e2d84602085016153f7565b6000602082840312156154da57600080fd5b81356130d78161525b565b6000806000606084860312156154fa57600080fd5b83356155058161525b565b95602085013595506040909401359392505050565b60006020828403121561552c57600080fd5b5035919050565b634e487b7160e01b600052602160045260246000fd5b6002811061236557634e487b7160e01b600052602160045260246000fd5b81516001600160a01b03908116825260208084015190911690820152604082015160e082019061559681615549565b80604084015250606083015160608301526080830151608083015260a083015160a083015260c0830151151560c083015292915050565b600060c082840312156155df57600080fd5b6130d783836152b4565b600060e082840312156136b657600080fd5b81518152602080830151908201526040808301519082015260608083015190820152608081016114f2565b6000806040838503121561563957600080fd5b82356156448161525b565b946020939093013593505050565b60006020828403121561566457600080fd5b81356130d781615341565b600080600080600060a0868803121561568757600080fd5b85356156928161525b565b945060208601356156a2816153df565b94979496505050506040830135926060810135926080909101359150565b80546001600160a01b0319166001600160a01b0392909216919091179055565b600081356114f281615341565b81356156f88161525b565b61570281836156c0565b5060208201356157118161525b565b61571e81600184016156c0565b5060408201356002820155606082013560038201556080820135600482015560a082013561574b81615341565b60058201805482151560ff1660ff1991909116179055505050565b80356157718161525b565b6001600160a01b03908116835260208201359061578d8261525b565b16602083015260408181013590830152606080820135908301526080808201359083015260a08101356157bf81615341565b80151560a0840152505050565b60c081016114f28284615766565b600080604083850312156157ed57600080fd5b505080516020909101519092909150565b634e487b7160e01b600052601160045260246000fd5b808201808211156114f2576114f26157fe565b818103818111156114f2576114f26157fe565b6000600160ff1b820161584f5761584f6157fe565b5060000390565b8181036000831280158383131683831282161715613850576138506157fe565b6001600160a01b038881168252878116602083015260e082019061589988615549565b87604084015286606084015285608084015280851660a08401525082151560c083015298975050505050505050565b60e081016158d68285615766565b8260c08301529392505050565b6000806000606084860312156158f857600080fd5b8351925060208401519150604084015190509250925092565b8082018281126000831280158216821582161715615931576159316157fe565b505092915050565b6000806000806080858703121561594f57600080fd5b505082516020840151604085015160609095015191969095509092509050565b60006020828403121561598157600080fd5b81356130d7816153df565b60006001820161599e5761599e6157fe565b5060010190565b600060e082840312156159b757600080fd5b6130d783836153f7565b81356159cc8161525b565b6159d681836156c0565b506001810160208301356159e98161525b565b6159f381836156c0565b506040830135615a02816153df565b615a0b81615549565b815460ff60a01b191660a091821b60ff60a01b1617909155606083013560028301556080830135600383015582013560048201556126f2615a4e60c084016156e0565b6005830160ff1981541660ff8315151681178255505050565b60e081018235615a768161525b565b6001600160a01b039081168352602084013590615a928261525b565b1660208301526040830135615aa6816153df565b615aaf81615549565b80604084015250606083013560608301526080830135608083015260a083013560a083015260c0830135615ae281615341565b80151560c08401525092915050565b6001600160a01b03841681526020810183905260c08101614b096040830184805182526020810151602083015260408101516040830152606081015160608301525050565b6001600160a01b0387811682528616602082015260c08101615b5786615549565b8560408301528460608301528360808301528260a0830152979650505050505050565b600060208284031215615b8c57600080fd5b5051919050565b634e487b7160e01b600052603260045260246000fd5b634e487b7160e01b600052601260045260246000fd5b60008260020b80615bd257615bd2615ba9565b808360020b0791505092915050565b60008160020b8360020b80615bf857615bf8615ba9565b627fffff19821460001982141615615c1257615c126157fe565b90059392505050565b80820260008212600160ff1b84141615615c3757615c376157fe565b81810583148215176114f2576114f26157fe565b60408101615c5884615549565b9281526020015290565b60008160020b627fffff198103615c7b57615c7b6157fe565b6000190192915050565b60005b83811015615ca0578181015183820152602001615c88565b50506000910152565b60008251615cbb818460208701615c85565b9190910192915050565b600082615cd457615cd4615ba9565b500690565b600282810b9082900b03627fffff198112627fffff821317156114f2576114f26157fe565b60008260020b8260020b028060020b9150808214613850576138506157fe565b60ff82811682821603908111156114f2576114f26157fe565b600281810b9083900b01627fffff8113627fffff19821217156114f2576114f26157fe565b60008160020b627fffff198103615d7557615d756157fe565b60000392915050565b80820281158282048414176114f2576114f26157fe565b600082615da457615da4615ba9565b500490565b60ff81811683821601908111156114f2576114f26157fe565b6020815260008251806020840152615de1816040850160208701615c85565b601f01601f1916919091016040019291505056fe416464726573733a206c6f772d6c6576656c2064656c65676174652063616c6c206661696c6564a2646970667358221220120bec27e0e56c57559b48529dc7a76513ff78c6e3268c3c3e6384a7c5133c5a64736f6c63430008130033",
        "linkReferences": {}
    },
    "methodIdentifiers": {
        "addLiquidity(address,uint256,uint256,uint256)": "1ece366a",
        "addMargin(address,uint256)": "cf70cb69",
        "cancelOwnershipHandover()": "54d1f13d",
        "closePosition(address,uint256,uint256)": "4fa9c4db",
        "closePositionKeeper(address,bytes32)": "c88d348a",
        "completeOwnershipHandover(address)": "f04e283e",
        "createLimitOrder((address,address,uint8,uint256,uint256,uint256,bool))": "7eb02406",
        "createTriggerOrder((address,address,uint256,uint256,uint256,bool))": "68d85297",
        "deleteLimitOrder(uint256)": "e859f372",
        "deleteTriggerOrder(address,bytes32)": "f394ae49",
        "getAMMData(address)": "98712fe4",
        "getCumulativePremiumFraction(address)": "6ea41e40",
        "getCumulativePremiumFractionPerShare(address)": "d3123a80",
        "getFeeGrowth(address)": "b346679b",
        "getLimitOrder(uint256)": "53061026",
        "getOpenInterestNotional(address)": "429e9237",
        "getPosition(address,address)": "b33dc190",
        "getPositionNotionalUpnl(address,address)": "0e86a08d",
        "getTotalPositionSize(address)": "e980e16e",
        "getValidAMM(address)": "9dda4e4f",
        "initialize(address)": "c4d66de8",
        "isActive()": "22f3e2d4",
        "isLiquidatable(address,address)": "3966a28b",
        "liquidate(address,address,uint256)": "26c01303",
        "liquidateMaker(address,address,uint256)": "7aefce97",
        "openPosition(address,uint8,uint256,uint256,uint256)": "cbb50e61",
        "owner()": "8da5cb5b",
        "ownershipHandoverExpiresAt(address)": "fee81cf4",
        "ownershipHandoverValidFor()": "d7533f02",
        "removeLiquidity(address,uint256)": "a201ccf6",
        "removeMargin(address,uint256)": "b959d695",
        "renounceOwnership()": "715018a6",
        "requestOwnershipHandover()": "25692962",
        "setActive(bool)": "acec338a",
        "setValidAMM(address,bool)": "207b5b6f",
        "settleFunding(address)": "6b17ad03",
        "transferOwnership(address)": "f2fde38b",
        "updateLimitOrder(uint256,(address,address,uint8,uint256,uint256,uint256,bool))": "2a120de4",
        "updateTriggerOrder(bytes32,address,(address,address,uint256,uint256,uint256,bool))": "18aec626"
    },
    "id": 43
}