{
    "_format": "hh-sol-artifact-1",
    "contractName": "MockWETH",
    "sourceName": "contracts/MockWETH.sol",
    "abi": [
        {
            "anonymous": false,
            "inputs": [
                {
                    "indexed": true,
                    "internalType": "address",
                    "name": "owner",
                    "type": "address"
                },
                {
                    "indexed": true,
                    "internalType": "address",
                    "name": "spender",
                    "type": "address"
                },
                {
                    "indexed": false,
                    "internalType": "uint256",
                    "name": "value",
                    "type": "uint256"
                }
            ],
            "name": "Approval",
            "type": "event"
        },
        {
            "anonymous": false,
            "inputs": [
                {
                    "indexed": false,
                    "internalType": "uint8",
                    "name": "version",
                    "type": "uint8"
                }
            ],
            "name": "Initialized",
            "type": "event"
        },
        {
            "anonymous": false,
            "inputs": [
                {
                    "indexed": true,
                    "internalType": "address",
                    "name": "previousOwner",
                    "type": "address"
                },
                {
                    "indexed": true,
                    "internalType": "address",
                    "name": "newOwner",
                    "type": "address"
                }
            ],
            "name": "OwnershipTransferred",
            "type": "event"
        },
        {
            "anonymous": false,
            "inputs": [
                {
                    "indexed": true,
                    "internalType": "address",
                    "name": "from",
                    "type": "address"
                },
                {
                    "indexed": true,
                    "internalType": "address",
                    "name": "to",
                    "type": "address"
                },
                {
                    "indexed": false,
                    "internalType": "uint256",
                    "name": "value",
                    "type": "uint256"
                }
            ],
            "name": "Transfer",
            "type": "event"
        },
        {
            "inputs": [
                {
                    "internalType": "address",
                    "name": "owner",
                    "type": "address"
                },
                {
                    "internalType": "address",
                    "name": "spender",
                    "type": "address"
                }
            ],
            "name": "allowance",
            "outputs": [
                {
                    "internalType": "uint256",
                    "name": "",
                    "type": "uint256"
                }
            ],
            "stateMutability": "view",
            "type": "function"
        },
        {
            "inputs": [],
            "name": "almond",
            "outputs": [
                {
                    "internalType": "address",
                    "name": "",
                    "type": "address"
                }
            ],
            "stateMutability": "view",
            "type": "function"
        },
        {
            "inputs": [
                {
                    "internalType": "address",
                    "name": "spender",
                    "type": "address"
                },
                {
                    "internalType": "uint256",
                    "name": "amount",
                    "type": "uint256"
                }
            ],
            "name": "approve",
            "outputs": [
                {
                    "internalType": "bool",
                    "name": "",
                    "type": "bool"
                }
            ],
            "stateMutability": "nonpayable",
            "type": "function"
        },
        {
            "inputs": [
                {
                    "internalType": "address",
                    "name": "account",
                    "type": "address"
                }
            ],
            "name": "balanceOf",
            "outputs": [
                {
                    "internalType": "uint256",
                    "name": "",
                    "type": "uint256"
                }
            ],
            "stateMutability": "view",
            "type": "function"
        },
        {
            "inputs": [],
            "name": "campaignNft",
            "outputs": [
                {
                    "internalType": "address",
                    "name": "",
                    "type": "address"
                }
            ],
            "stateMutability": "view",
            "type": "function"
        },
        {
            "inputs": [
                {
                    "internalType": "address",
                    "name": "",
                    "type": "address"
                }
            ],
            "name": "claimed",
            "outputs": [
                {
                    "internalType": "bool",
                    "name": "",
                    "type": "bool"
                }
            ],
            "stateMutability": "view",
            "type": "function"
        },
        {
            "inputs": [],
            "name": "decimals",
            "outputs": [
                {
                    "internalType": "uint8",
                    "name": "",
                    "type": "uint8"
                }
            ],
            "stateMutability": "view",
            "type": "function"
        },
        {
            "inputs": [
                {
                    "internalType": "address",
                    "name": "spender",
                    "type": "address"
                },
                {
                    "internalType": "uint256",
                    "name": "subtractedValue",
                    "type": "uint256"
                }
            ],
            "name": "decreaseAllowance",
            "outputs": [
                {
                    "internalType": "bool",
                    "name": "",
                    "type": "bool"
                }
            ],
            "stateMutability": "nonpayable",
            "type": "function"
        },
        {
            "inputs": [],
            "name": "faucet",
            "outputs": [],
            "stateMutability": "nonpayable",
            "type": "function"
        },
        {
            "inputs": [],
            "name": "goodluck",
            "outputs": [
                {
                    "internalType": "string",
                    "name": "",
                    "type": "string"
                }
            ],
            "stateMutability": "pure",
            "type": "function"
        },
        {
            "inputs": [
                {
                    "internalType": "address",
                    "name": "spender",
                    "type": "address"
                },
                {
                    "internalType": "uint256",
                    "name": "addedValue",
                    "type": "uint256"
                }
            ],
            "name": "increaseAllowance",
            "outputs": [
                {
                    "internalType": "bool",
                    "name": "",
                    "type": "bool"
                }
            ],
            "stateMutability": "nonpayable",
            "type": "function"
        },
        {
            "inputs": [
                {
                    "internalType": "address",
                    "name": "_campaignNft",
                    "type": "address"
                },
                {
                    "internalType": "address",
                    "name": "_almond",
                    "type": "address"
                },
                {
                    "internalType": "address",
                    "name": "_peanut",
                    "type": "address"
                }
            ],
            "name": "initialize",
            "outputs": [],
            "stateMutability": "nonpayable",
            "type": "function"
        },
        {
            "inputs": [
                {
                    "internalType": "address",
                    "name": "_insuranceFund",
                    "type": "address"
                }
            ],
            "name": "mintToInsuranceFund",
            "outputs": [],
            "stateMutability": "nonpayable",
            "type": "function"
        },
        {
            "inputs": [],
            "name": "name",
            "outputs": [
                {
                    "internalType": "string",
                    "name": "",
                    "type": "string"
                }
            ],
            "stateMutability": "view",
            "type": "function"
        },
        {
            "inputs": [],
            "name": "owner",
            "outputs": [
                {
                    "internalType": "address",
                    "name": "",
                    "type": "address"
                }
            ],
            "stateMutability": "view",
            "type": "function"
        },
        {
            "inputs": [],
            "name": "peanut",
            "outputs": [
                {
                    "internalType": "address",
                    "name": "",
                    "type": "address"
                }
            ],
            "stateMutability": "view",
            "type": "function"
        },
        {
            "inputs": [],
            "name": "renounceOwnership",
            "outputs": [],
            "stateMutability": "nonpayable",
            "type": "function"
        },
        {
            "inputs": [
                {
                    "internalType": "address[]",
                    "name": "_users",
                    "type": "address[]"
                },
                {
                    "internalType": "bool[]",
                    "name": "_statuses",
                    "type": "bool[]"
                }
            ],
            "name": "setWhitelist",
            "outputs": [],
            "stateMutability": "nonpayable",
            "type": "function"
        },
        {
            "inputs": [],
            "name": "symbol",
            "outputs": [
                {
                    "internalType": "string",
                    "name": "",
                    "type": "string"
                }
            ],
            "stateMutability": "view",
            "type": "function"
        },
        {
            "inputs": [],
            "name": "totalSupply",
            "outputs": [
                {
                    "internalType": "uint256",
                    "name": "",
                    "type": "uint256"
                }
            ],
            "stateMutability": "view",
            "type": "function"
        },
        {
            "inputs": [
                {
                    "internalType": "address",
                    "name": "to",
                    "type": "address"
                },
                {
                    "internalType": "uint256",
                    "name": "amount",
                    "type": "uint256"
                }
            ],
            "name": "transfer",
            "outputs": [
                {
                    "internalType": "bool",
                    "name": "",
                    "type": "bool"
                }
            ],
            "stateMutability": "nonpayable",
            "type": "function"
        },
        {
            "inputs": [
                {
                    "internalType": "address",
                    "name": "from",
                    "type": "address"
                },
                {
                    "internalType": "address",
                    "name": "to",
                    "type": "address"
                },
                {
                    "internalType": "uint256",
                    "name": "amount",
                    "type": "uint256"
                }
            ],
            "name": "transferFrom",
            "outputs": [
                {
                    "internalType": "bool",
                    "name": "",
                    "type": "bool"
                }
            ],
            "stateMutability": "nonpayable",
            "type": "function"
        },
        {
            "inputs": [
                {
                    "internalType": "address",
                    "name": "newOwner",
                    "type": "address"
                }
            ],
            "name": "transferOwnership",
            "outputs": [],
            "stateMutability": "nonpayable",
            "type": "function"
        },
        {
            "inputs": [
                {
                    "internalType": "address",
                    "name": "",
                    "type": "address"
                }
            ],
            "name": "whitelist",
            "outputs": [
                {
                    "internalType": "bool",
                    "name": "",
                    "type": "bool"
                }
            ],
            "stateMutability": "view",
            "type": "function"
        }
    ],
    "bytecode": "0x608060405234801561001057600080fd5b50612e7d806100206000396000f3fe608060405234801561001057600080fd5b50600436106101585760003560e01c80639b19251a116100c3578063dd62ed3e1161007c578063dd62ed3e146103ef578063de5f72fd1461041f578063e64c933814610429578063ebba9af314610447578063f2fde38b14610465578063f353ae481461048157610158565b80639b19251a146102f7578063a457c2d714610327578063a7f6420614610357578063a9059cbb14610373578063c0c53b8b146103a3578063c884ef83146103bf57610158565b8063395093511161011557806339509351146102355780633b99adf71461026557806370a0823114610281578063715018a6146102b15780638da5cb5b146102bb57806395d89b41146102d957610158565b806306fdde031461015d578063095ea7b31461017b57806318160ddd146101ab5780631de11391146101c957806323b872dd146101e7578063313ce56714610217575b600080fd5b61016561049f565b6040516101729190611d58565b60405180910390f35b61019560048036038101906101909190611e22565b610531565b6040516101a29190611e7d565b60405180910390f35b6101b3610554565b6040516101c09190611ea7565b60405180910390f35b6101d161055e565b6040516101de9190611ed1565b60405180910390f35b61020160048036038101906101fc9190611eec565b610584565b60405161020e9190611e7d565b60405180910390f35b61021f6105b3565b60405161022c9190611f5b565b60405180910390f35b61024f600480360381019061024a9190611e22565b6105bc565b60405161025c9190611e7d565b60405180910390f35b61027f600480360381019061027a91906121ad565b6105f3565b005b61029b60048036038101906102969190612225565b6106eb565b6040516102a89190611ea7565b60405180910390f35b6102b9610734565b005b6102c3610748565b6040516102d09190611ed1565b60405180910390f35b6102e1610772565b6040516102ee9190611d58565b60405180910390f35b610311600480360381019061030c9190612225565b610804565b60405161031e9190611e7d565b60405180910390f35b610341600480360381019061033c9190611e22565b610824565b60405161034e9190611e7d565b60405180910390f35b610371600480360381019061036c9190612225565b61089b565b005b61038d60048036038101906103889190611e22565b6108b8565b60405161039a9190611e7d565b60405180910390f35b6103bd60048036038101906103b89190612252565b6108db565b005b6103d960048036038101906103d49190612225565b610b53565b6040516103e69190611e7d565b60405180910390f35b610409600480360381019061040491906122a5565b610b73565b6040516104169190611ea7565b60405180910390f35b610427610bfa565b005b610431610e3b565b60405161043e9190611ed1565b60405180910390f35b61044f610e61565b60405161045c9190611ed1565b60405180910390f35b61047f600480360381019061047a9190612225565b610e87565b005b610489610f0a565b6040516104969190611d58565b60405180910390f35b6060603680546104ae90612314565b80601f01602080910402602001604051908101604052809291908181526020018280546104da90612314565b80156105275780601f106104fc57610100808354040283529160200191610527565b820191906000526020600020905b81548152906001019060200180831161050a57829003601f168201915b5050505050905090565b60008061053c610f47565b9050610549818585610f4f565b600191505092915050565b6000603554905090565b609a60009054906101000a900473ffffffffffffffffffffffffffffffffffffffff1681565b60008061058f610f47565b905061059c858285611118565b6105a78585856111a4565b60019150509392505050565b60006012905090565b6000806105c7610f47565b90506105e88185856105d98589610b73565b6105e39190612374565b610f4f565b600191505092915050565b6105fb61141d565b60008251905081518114610644576040517f08c379a000000000000000000000000000000000000000000000000000000000815260040161063b90612416565b60405180910390fd5b60005b818110156106e55782818151811061066257610661612436565b5b60200260200101516097600086848151811061068157610680612436565b5b602002602001015173ffffffffffffffffffffffffffffffffffffffff1673ffffffffffffffffffffffffffffffffffffffff16815260200190815260200160002060006101000a81548160ff021916908315150217905550806001019050610647565b50505050565b6000603360008373ffffffffffffffffffffffffffffffffffffffff1673ffffffffffffffffffffffffffffffffffffffff168152602001908152602001600020549050919050565b61073c61141d565b610746600061149b565b565b6000606560009054906101000a900473ffffffffffffffffffffffffffffffffffffffff16905090565b60606037805461078190612314565b80601f01602080910402602001604051908101604052809291908181526020018280546107ad90612314565b80156107fa5780601f106107cf576101008083540402835291602001916107fa565b820191906000526020600020905b8154815290600101906020018083116107dd57829003601f168201915b5050505050905090565b60976020528060005260406000206000915054906101000a900460ff1681565b60008061082f610f47565b9050600061083d8286610b73565b905083811015610882576040517f08c379a0000000000000000000000000000000000000000000000000000000008152600401610879906124d7565b60405180910390fd5b61088f8286868403610f4f565b60019250505092915050565b6108a361141d565b6108b581678ac7230489e80000611561565b50565b6000806108c3610f47565b90506108d08185856111a4565b600191505092915050565b60008060019054906101000a900460ff1615905080801561090c5750600160008054906101000a900460ff1660ff16105b80610939575061091b306116b8565b1580156109385750600160008054906101000a900460ff1660ff16145b5b610978576040517f08c379a000000000000000000000000000000000000000000000000000000000815260040161096f90612569565b60405180910390fd5b60016000806101000a81548160ff021916908360ff16021790555080156109b5576001600060016101000a81548160ff0219169083151502179055505b610a296040518060400160405280601181526020017f4e465450657270204d6f636b20574554480000000000000000000000000000008152506040518060400160405280600481526020017f57455448000000000000000000000000000000000000000000000000000000008152506116db565b610a31611738565b83609960006101000a81548173ffffffffffffffffffffffffffffffffffffffff021916908373ffffffffffffffffffffffffffffffffffffffff16021790555082609a60006101000a81548173ffffffffffffffffffffffffffffffffffffffff021916908373ffffffffffffffffffffffffffffffffffffffff16021790555081609b60006101000a81548173ffffffffffffffffffffffffffffffffffffffff021916908373ffffffffffffffffffffffffffffffffffffffff1602179055508015610b4d5760008060016101000a81548160ff0219169083151502179055507f7f26b83ff96e1f2b6a682f133852f6798a09c465da95921460cefb38474024986001604051610b4491906125ce565b60405180910390a15b50505050565b60986020528060005260406000206000915054906101000a900460ff1681565b6000603460008473ffffffffffffffffffffffffffffffffffffffff1673ffffffffffffffffffffffffffffffffffffffff16815260200190815260200160002060008373ffffffffffffffffffffffffffffffffffffffff1673ffffffffffffffffffffffffffffffffffffffff16815260200190815260200160002054905092915050565b6000339050609860008273ffffffffffffffffffffffffffffffffffffffff1673ffffffffffffffffffffffffffffffffffffffff16815260200190815260200160002060009054906101000a900460ff1615610c8c576040517f08c379a0000000000000000000000000000000000000000000000000000000008152600401610c8390612635565b60405180910390fd5b6001609860008373ffffffffffffffffffffffffffffffffffffffff1673ffffffffffffffffffffffffffffffffffffffff16815260200190815260200160002060006101000a81548160ff021916908315150217905550610cf681674563918244f40000611561565b6000671bc16d674ec80000610d09610554565b610d139190612684565b03610daa57609a60009054906101000a900473ffffffffffffffffffffffffffffffffffffffff1673ffffffffffffffffffffffffffffffffffffffff166321860a05826040518263ffffffff1660e01b8152600401610d739190611ed1565b600060405180830381600087803b158015610d8d57600080fd5b505af1158015610da1573d6000803e3d6000fd5b50505050610e38565b609b60009054906101000a900473ffffffffffffffffffffffffffffffffffffffff1673ffffffffffffffffffffffffffffffffffffffff166321860a05826040518263ffffffff1660e01b8152600401610e059190611ed1565b600060405180830381600087803b158015610e1f57600080fd5b505af1158015610e33573d6000803e3d6000fd5b505050505b50565b609960009054906101000a900473ffffffffffffffffffffffffffffffffffffffff1681565b609b60009054906101000a900473ffffffffffffffffffffffffffffffffffffffff1681565b610e8f61141d565b600073ffffffffffffffffffffffffffffffffffffffff168173ffffffffffffffffffffffffffffffffffffffff1603610efe576040517f08c379a0000000000000000000000000000000000000000000000000000000008152600401610ef590612727565b60405180910390fd5b610f078161149b565b50565b60606040518060400160405280600981526020017f676f6f64206c75636b0000000000000000000000000000000000000000000000815250905090565b600033905090565b600073ffffffffffffffffffffffffffffffffffffffff168373ffffffffffffffffffffffffffffffffffffffff1603610fbe576040517f08c379a0000000000000000000000000000000000000000000000000000000008152600401610fb5906127b9565b60405180910390fd5b600073ffffffffffffffffffffffffffffffffffffffff168273ffffffffffffffffffffffffffffffffffffffff160361102d576040517f08c379a00000000000000000000000000000000000000000000000000000000081526004016110249061284b565b60405180910390fd5b80603460008573ffffffffffffffffffffffffffffffffffffffff1673ffffffffffffffffffffffffffffffffffffffff16815260200190815260200160002060008473ffffffffffffffffffffffffffffffffffffffff1673ffffffffffffffffffffffffffffffffffffffff168152602001908152602001600020819055508173ffffffffffffffffffffffffffffffffffffffff168373ffffffffffffffffffffffffffffffffffffffff167f8c5be1e5ebec7d5bd14f71427d1e84f3dd0314c0f7b2291e5b200ac8c7c3b9258360405161110b9190611ea7565b60405180910390a3505050565b60006111248484610b73565b90507fffffffffffffffffffffffffffffffffffffffffffffffffffffffffffffffff811461119e5781811015611190576040517f08c379a0000000000000000000000000000000000000000000000000000000008152600401611187906128b7565b60405180910390fd5b61119d8484848403610f4f565b5b50505050565b600073ffffffffffffffffffffffffffffffffffffffff168373ffffffffffffffffffffffffffffffffffffffff1603611213576040517f08c379a000000000000000000000000000000000000000000000000000000000815260040161120a90612949565b60405180910390fd5b600073ffffffffffffffffffffffffffffffffffffffff168273ffffffffffffffffffffffffffffffffffffffff1603611282576040517f08c379a0000000000000000000000000000000000000000000000000000000008152600401611279906129db565b60405180910390fd5b61128d838383611791565b6000603360008573ffffffffffffffffffffffffffffffffffffffff1673ffffffffffffffffffffffffffffffffffffffff16815260200190815260200160002054905081811015611314576040517f08c379a000000000000000000000000000000000000000000000000000000000815260040161130b90612a6d565b60405180910390fd5b818103603360008673ffffffffffffffffffffffffffffffffffffffff1673ffffffffffffffffffffffffffffffffffffffff1681526020019081526020016000208190555081603360008573ffffffffffffffffffffffffffffffffffffffff1673ffffffffffffffffffffffffffffffffffffffff168152602001908152602001600020600082825401925050819055508273ffffffffffffffffffffffffffffffffffffffff168473ffffffffffffffffffffffffffffffffffffffff167fddf252ad1be2c89b69c2b068fc378daa952ba7f163c4a11628f55a4df523b3ef846040516114049190611ea7565b60405180910390a36114178484846119a2565b50505050565b611425610f47565b73ffffffffffffffffffffffffffffffffffffffff16611443610748565b73ffffffffffffffffffffffffffffffffffffffff1614611499576040517f08c379a000000000000000000000000000000000000000000000000000000000815260040161149090612ad9565b60405180910390fd5b565b6000606560009054906101000a900473ffffffffffffffffffffffffffffffffffffffff16905081606560006101000a81548173ffffffffffffffffffffffffffffffffffffffff021916908373ffffffffffffffffffffffffffffffffffffffff1602179055508173ffffffffffffffffffffffffffffffffffffffff168173ffffffffffffffffffffffffffffffffffffffff167f8be0079c531659141344cd1fd0a4f28419497f9722a3daafe3b4186f6b6457e060405160405180910390a35050565b600073ffffffffffffffffffffffffffffffffffffffff168273ffffffffffffffffffffffffffffffffffffffff16036115d0576040517f08c379a00000000000000000000000000000000000000000000000000000000081526004016115c790612b45565b60405180910390fd5b6115dc60008383611791565b80603560008282546115ee9190612374565b9250508190555080603360008473ffffffffffffffffffffffffffffffffffffffff1673ffffffffffffffffffffffffffffffffffffffff168152602001908152602001600020600082825401925050819055508173ffffffffffffffffffffffffffffffffffffffff16600073ffffffffffffffffffffffffffffffffffffffff167fddf252ad1be2c89b69c2b068fc378daa952ba7f163c4a11628f55a4df523b3ef836040516116a09190611ea7565b60405180910390a36116b4600083836119a2565b5050565b6000808273ffffffffffffffffffffffffffffffffffffffff163b119050919050565b600060019054906101000a900460ff1661172a576040517f08c379a000000000000000000000000000000000000000000000000000000000815260040161172190612bd7565b60405180910390fd5b61173482826119a7565b5050565b600060019054906101000a900460ff16611787576040517f08c379a000000000000000000000000000000000000000000000000000000000815260040161177e90612bd7565b60405180910390fd5b61178f611a28565b565b600073ffffffffffffffffffffffffffffffffffffffff168373ffffffffffffffffffffffffffffffffffffffff161461199d5763635f9ca0421161180b576040517f08c379a000000000000000000000000000000000000000000000000000000000815260040161180290612c43565b60405180910390fd5b61181483611a89565b156118aa57609760008373ffffffffffffffffffffffffffffffffffffffff1673ffffffffffffffffffffffffffffffffffffffff16815260200190815260200160002060009054906101000a900460ff166118a5576040517f08c379a000000000000000000000000000000000000000000000000000000000815260040161189c90612caf565b60405180910390fd5b61199c565b609760008473ffffffffffffffffffffffffffffffffffffffff1673ffffffffffffffffffffffffffffffffffffffff16815260200190815260200160002060009054906101000a900460ff16801561195c575061190782611a89565b8061195b5750609760008373ffffffffffffffffffffffffffffffffffffffff1673ffffffffffffffffffffffffffffffffffffffff16815260200190815260200160002060009054906101000a900460ff165b5b61199b576040517f08c379a000000000000000000000000000000000000000000000000000000000815260040161199290612d1b565b60405180910390fd5b5b5b505050565b505050565b600060019054906101000a900460ff166119f6576040517f08c379a00000000000000000000000000000000000000000000000000000000081526004016119ed90612bd7565b60405180910390fd5b8160369080519060200190611a0c929190611c1c565b508060379080519060200190611a23929190611c1c565b505050565b600060019054906101000a900460ff16611a77576040517f08c379a0000000000000000000000000000000000000000000000000000000008152600401611a6e90612bd7565b60405180910390fd5b611a87611a82610f47565b61149b565b565b6000806000609960009054906101000a900473ffffffffffffffffffffffffffffffffffffffff1673ffffffffffffffffffffffffffffffffffffffff1684604051602401611ad89190611ed1565b6040516020818303038152906040527f70a08231000000000000000000000000000000000000000000000000000000007bffffffffffffffffffffffffffffffffffffffffffffffffffffffff19166020820180517bffffffffffffffffffffffffffffffffffffffffffffffffffffffff8381831617835250505050604051611b629190612d82565b600060405180830381855afa9150503d8060008114611b9d576040519150601f19603f3d011682016040523d82523d6000602084013e611ba2565b606091505b5091509150818015611bb657506000815114155b611bf5576040517f08c379a0000000000000000000000000000000000000000000000000000000008152600401611bec90612de5565b60405180910390fd5b600081806020019051810190611c0b9190612e1a565b905060008114159350505050919050565b828054611c2890612314565b90600052602060002090601f016020900481019282611c4a5760008555611c91565b82601f10611c6357805160ff1916838001178555611c91565b82800160010185558215611c91579182015b82811115611c90578251825591602001919060010190611c75565b5b509050611c9e9190611ca2565b5090565b5b80821115611cbb576000816000905550600101611ca3565b5090565b600081519050919050565b600082825260208201905092915050565b60005b83811015611cf9578082015181840152602081019050611cde565b83811115611d08576000848401525b50505050565b6000601f19601f8301169050919050565b6000611d2a82611cbf565b611d348185611cca565b9350611d44818560208601611cdb565b611d4d81611d0e565b840191505092915050565b60006020820190508181036000830152611d728184611d1f565b905092915050565b6000604051905090565b600080fd5b600080fd5b600073ffffffffffffffffffffffffffffffffffffffff82169050919050565b6000611db982611d8e565b9050919050565b611dc981611dae565b8114611dd457600080fd5b50565b600081359050611de681611dc0565b92915050565b6000819050919050565b611dff81611dec565b8114611e0a57600080fd5b50565b600081359050611e1c81611df6565b92915050565b60008060408385031215611e3957611e38611d84565b5b6000611e4785828601611dd7565b9250506020611e5885828601611e0d565b9150509250929050565b60008115159050919050565b611e7781611e62565b82525050565b6000602082019050611e926000830184611e6e565b92915050565b611ea181611dec565b82525050565b6000602082019050611ebc6000830184611e98565b92915050565b611ecb81611dae565b82525050565b6000602082019050611ee66000830184611ec2565b92915050565b600080600060608486031215611f0557611f04611d84565b5b6000611f1386828701611dd7565b9350506020611f2486828701611dd7565b9250506040611f3586828701611e0d565b9150509250925092565b600060ff82169050919050565b611f5581611f3f565b82525050565b6000602082019050611f706000830184611f4c565b92915050565b600080fd5b7f4e487b7100000000000000000000000000000000000000000000000000000000600052604160045260246000fd5b611fb382611d0e565b810181811067ffffffffffffffff82111715611fd257611fd1611f7b565b5b80604052505050565b6000611fe5611d7a565b9050611ff18282611faa565b919050565b600067ffffffffffffffff82111561201157612010611f7b565b5b602082029050602081019050919050565b600080fd5b600061203a61203584611ff6565b611fdb565b9050808382526020820190506020840283018581111561205d5761205c612022565b5b835b8181101561208657806120728882611dd7565b84526020840193505060208101905061205f565b5050509392505050565b600082601f8301126120a5576120a4611f76565b5b81356120b5848260208601612027565b91505092915050565b600067ffffffffffffffff8211156120d9576120d8611f7b565b5b602082029050602081019050919050565b6120f381611e62565b81146120fe57600080fd5b50565b600081359050612110816120ea565b92915050565b6000612129612124846120be565b611fdb565b9050808382526020820190506020840283018581111561214c5761214b612022565b5b835b8181101561217557806121618882612101565b84526020840193505060208101905061214e565b5050509392505050565b600082601f83011261219457612193611f76565b5b81356121a4848260208601612116565b91505092915050565b600080604083850312156121c4576121c3611d84565b5b600083013567ffffffffffffffff8111156121e2576121e1611d89565b5b6121ee85828601612090565b925050602083013567ffffffffffffffff81111561220f5761220e611d89565b5b61221b8582860161217f565b9150509250929050565b60006020828403121561223b5761223a611d84565b5b600061224984828501611dd7565b91505092915050565b60008060006060848603121561226b5761226a611d84565b5b600061227986828701611dd7565b935050602061228a86828701611dd7565b925050604061229b86828701611dd7565b9150509250925092565b600080604083850312156122bc576122bb611d84565b5b60006122ca85828601611dd7565b92505060206122db85828601611dd7565b9150509250929050565b7f4e487b7100000000000000000000000000000000000000000000000000000000600052602260045260246000fd5b6000600282049050600182168061232c57607f821691505b60208210810361233f5761233e6122e5565b5b50919050565b7f4e487b7100000000000000000000000000000000000000000000000000000000600052601160045260246000fd5b600061237f82611dec565b915061238a83611dec565b9250827fffffffffffffffffffffffffffffffffffffffffffffffffffffffffffffffff038211156123bf576123be612345565b5b828201905092915050565b7f6c656e677468206d69736d617463680000000000000000000000000000000000600082015250565b6000612400600f83611cca565b915061240b826123ca565b602082019050919050565b6000602082019050818103600083015261242f816123f3565b9050919050565b7f4e487b7100000000000000000000000000000000000000000000000000000000600052603260045260246000fd5b7f45524332303a2064656372656173656420616c6c6f77616e63652062656c6f7760008201527f207a65726f000000000000000000000000000000000000000000000000000000602082015250565b60006124c1602583611cca565b91506124cc82612465565b604082019050919050565b600060208201905081810360008301526124f0816124b4565b9050919050565b7f496e697469616c697a61626c653a20636f6e747261637420697320616c72656160008201527f647920696e697469616c697a6564000000000000000000000000000000000000602082015250565b6000612553602e83611cca565b915061255e826124f7565b604082019050919050565b6000602082019050818103600083015261258281612546565b9050919050565b6000819050919050565b6000819050919050565b60006125b86125b36125ae84612589565b612593565b611f3f565b9050919050565b6125c88161259d565b82525050565b60006020820190506125e360008301846125bf565b92915050565b7f616c726561647920636c61696d65640000000000000000000000000000000000600082015250565b600061261f600f83611cca565b915061262a826125e9565b602082019050919050565b6000602082019050818103600083015261264e81612612565b9050919050565b7f4e487b7100000000000000000000000000000000000000000000000000000000600052601260045260246000fd5b600061268f82611dec565b915061269a83611dec565b9250826126aa576126a9612655565b5b828206905092915050565b7f4f776e61626c653a206e6577206f776e657220697320746865207a65726f206160008201527f6464726573730000000000000000000000000000000000000000000000000000602082015250565b6000612711602683611cca565b915061271c826126b5565b604082019050919050565b6000602082019050818103600083015261274081612704565b9050919050565b7f45524332303a20617070726f76652066726f6d20746865207a65726f2061646460008201527f7265737300000000000000000000000000000000000000000000000000000000602082015250565b60006127a3602483611cca565b91506127ae82612747565b604082019050919050565b600060208201905081810360008301526127d281612796565b9050919050565b7f45524332303a20617070726f766520746f20746865207a65726f20616464726560008201527f7373000000000000000000000000000000000000000000000000000000000000602082015250565b6000612835602283611cca565b9150612840826127d9565b604082019050919050565b6000602082019050818103600083015261286481612828565b9050919050565b7f45524332303a20696e73756666696369656e7420616c6c6f77616e6365000000600082015250565b60006128a1601d83611cca565b91506128ac8261286b565b602082019050919050565b600060208201905081810360008301526128d081612894565b9050919050565b7f45524332303a207472616e736665722066726f6d20746865207a65726f20616460008201527f6472657373000000000000000000000000000000000000000000000000000000602082015250565b6000612933602583611cca565b915061293e826128d7565b604082019050919050565b6000602082019050818103600083015261296281612926565b9050919050565b7f45524332303a207472616e7366657220746f20746865207a65726f206164647260008201527f6573730000000000000000000000000000000000000000000000000000000000602082015250565b60006129c5602383611cca565b91506129d082612969565b604082019050919050565b600060208201905081810360008301526129f4816129b8565b9050919050565b7f45524332303a207472616e7366657220616d6f756e742065786365656473206260008201527f616c616e63650000000000000000000000000000000000000000000000000000602082015250565b6000612a57602683611cca565b9150612a62826129fb565b604082019050919050565b60006020820190508181036000830152612a8681612a4a565b9050919050565b7f4f776e61626c653a2063616c6c6572206973206e6f7420746865206f776e6572600082015250565b6000612ac3602083611cca565b9150612ace82612a8d565b602082019050919050565b60006020820190508181036000830152612af281612ab6565b9050919050565b7f45524332303a206d696e7420746f20746865207a65726f206164647265737300600082015250565b6000612b2f601f83611cca565b9150612b3a82612af9565b602082019050919050565b60006020820190508181036000830152612b5e81612b22565b9050919050565b7f496e697469616c697a61626c653a20636f6e7472616374206973206e6f74206960008201527f6e697469616c697a696e67000000000000000000000000000000000000000000602082015250565b6000612bc1602b83611cca565b9150612bcc82612b65565b604082019050919050565b60006020820190508181036000830152612bf081612bb4565b9050919050565b7f636f6d7065746974696f6e206e6f742073746172746564000000000000000000600082015250565b6000612c2d601783611cca565b9150612c3882612bf7565b602082019050919050565b60006020820190508181036000830152612c5c81612c20565b9050919050565b7f6e6f6e207061727469636970616e742074726164696e672064697361626c6564600082015250565b6000612c99602083611cca565b9150612ca482612c63565b602082019050919050565b60006020820190508181036000830152612cc881612c8c565b9050919050565b7f6e6f74207061727469636970616e742074726164696e672064697361626c6564600082015250565b6000612d05602083611cca565b9150612d1082612ccf565b602082019050919050565b60006020820190508181036000830152612d3481612cf8565b9050919050565b600081519050919050565b600081905092915050565b6000612d5c82612d3b565b612d668185612d46565b9350612d76818560208601611cdb565b80840191505092915050565b6000612d8e8284612d51565b915081905092915050565b7f62616c616e6365206f66206661696c6564000000000000000000000000000000600082015250565b6000612dcf601183611cca565b9150612dda82612d99565b602082019050919050565b60006020820190508181036000830152612dfe81612dc2565b9050919050565b600081519050612e1481611df6565b92915050565b600060208284031215612e3057612e2f611d84565b5b6000612e3e84828501612e05565b9150509291505056fea264697066735822122074a9306932d57d8ed3bc2ec1f8f51ae3183ddb22f28b5c326522e01b588eb60a64736f6c634300080d0033",
    "linkReferences": {},
    "deployedLinkReferences": {}
}