{
    "abi": [
        {
            "inputs": [
                {
                    "internalType": "address",
                    "name": "_weth",
                    "type": "address"
                },
                {
                    "internalType": "address",
                    "name": "_clearingHouse",
                    "type": "address"
                }
            ],
            "stateMutability": "nonpayable",
            "type": "constructor"
        },
        {
            "inputs": [],
            "name": "INACTIVE",
            "type": "error"
        },
        {
            "inputs": [],
            "name": "NOT_CLEARING_HOUSE",
            "type": "error"
        },
        {
            "inputs": [],
            "name": "NOT_POSITION_MANAGER",
            "type": "error"
        },
        {
            "inputs": [],
            "name": "NewOwnerIsZeroAddress",
            "type": "error"
        },
        {
            "inputs": [],
            "name": "NoHandoverRequest",
            "type": "error"
        },
        {
            "inputs": [],
            "name": "Unauthorized",
            "type": "error"
        },
        {
            "anonymous": false,
            "inputs": [
                {
                    "indexed": true,
                    "internalType": "contract IAMM",
                    "name": "amm",
                    "type": "address"
                },
                {
                    "indexed": false,
                    "internalType": "uint256",
                    "name": "cap",
                    "type": "uint256"
                }
            ],
            "name": "CapSet",
            "type": "event"
        },
        {
            "anonymous": false,
            "inputs": [
                {
                    "indexed": false,
                    "internalType": "uint8",
                    "name": "version",
                    "type": "uint8"
                }
            ],
            "name": "Initialized",
            "type": "event"
        },
        {
            "anonymous": false,
            "inputs": [
                {
                    "indexed": true,
                    "internalType": "address",
                    "name": "pendingOwner",
                    "type": "address"
                }
            ],
            "name": "OwnershipHandoverCanceled",
            "type": "event"
        },
        {
            "anonymous": false,
            "inputs": [
                {
                    "indexed": true,
                    "internalType": "address",
                    "name": "pendingOwner",
                    "type": "address"
                }
            ],
            "name": "OwnershipHandoverRequested",
            "type": "event"
        },
        {
            "anonymous": false,
            "inputs": [
                {
                    "indexed": true,
                    "internalType": "address",
                    "name": "oldOwner",
                    "type": "address"
                },
                {
                    "indexed": true,
                    "internalType": "address",
                    "name": "newOwner",
                    "type": "address"
                }
            ],
            "name": "OwnershipTransferred",
            "type": "event"
        },
        {
            "anonymous": false,
            "inputs": [
                {
                    "indexed": false,
                    "internalType": "uint256",
                    "name": "amount",
                    "type": "uint256"
                }
            ],
            "name": "ProtocolWithdrawal",
            "type": "event"
        },
        {
            "anonymous": false,
            "inputs": [
                {
                    "indexed": true,
                    "internalType": "contract IAMM",
                    "name": "amm",
                    "type": "address"
                },
                {
                    "indexed": false,
                    "internalType": "uint256",
                    "name": "amount",
                    "type": "uint256"
                }
            ],
            "name": "Withdrawal",
            "type": "event"
        },
        {
            "inputs": [],
            "name": "cancelOwnershipHandover",
            "outputs": [],
            "stateMutability": "payable",
            "type": "function"
        },
        {
            "inputs": [],
            "name": "clearingHouse",
            "outputs": [
                {
                    "internalType": "address",
                    "name": "",
                    "type": "address"
                }
            ],
            "stateMutability": "view",
            "type": "function"
        },
        {
            "inputs": [
                {
                    "internalType": "address",
                    "name": "pendingOwner",
                    "type": "address"
                }
            ],
            "name": "completeOwnershipHandover",
            "outputs": [],
            "stateMutability": "payable",
            "type": "function"
        },
        {
            "inputs": [
                {
                    "internalType": "contract IAMM",
                    "name": "amm",
                    "type": "address"
                }
            ],
            "name": "getCap",
            "outputs": [
                {
                    "internalType": "uint256",
                    "name": "",
                    "type": "uint256"
                }
            ],
            "stateMutability": "view",
            "type": "function"
        },
        {
            "inputs": [
                {
                    "internalType": "address",
                    "name": "_owner",
                    "type": "address"
                }
            ],
            "name": "initialize",
            "outputs": [],
            "stateMutability": "nonpayable",
            "type": "function"
        },
        {
            "inputs": [],
            "name": "owner",
            "outputs": [
                {
                    "internalType": "address",
                    "name": "result",
                    "type": "address"
                }
            ],
            "stateMutability": "view",
            "type": "function"
        },
        {
            "inputs": [
                {
                    "internalType": "address",
                    "name": "pendingOwner",
                    "type": "address"
                }
            ],
            "name": "ownershipHandoverExpiresAt",
            "outputs": [
                {
                    "internalType": "uint256",
                    "name": "result",
                    "type": "uint256"
                }
            ],
            "stateMutability": "view",
            "type": "function"
        },
        {
            "inputs": [],
            "name": "ownershipHandoverValidFor",
            "outputs": [
                {
                    "internalType": "uint64",
                    "name": "",
                    "type": "uint64"
                }
            ],
            "stateMutability": "view",
            "type": "function"
        },
        {
            "inputs": [
                {
                    "internalType": "address",
                    "name": "to",
                    "type": "address"
                },
                {
                    "internalType": "uint256",
                    "name": "amount",
                    "type": "uint256"
                }
            ],
            "name": "protocolWithdraw",
            "outputs": [],
            "stateMutability": "nonpayable",
            "type": "function"
        },
        {
            "inputs": [],
            "name": "renounceOwnership",
            "outputs": [],
            "stateMutability": "payable",
            "type": "function"
        },
        {
            "inputs": [],
            "name": "requestOwnershipHandover",
            "outputs": [],
            "stateMutability": "payable",
            "type": "function"
        },
        {
            "inputs": [
                {
                    "internalType": "contract IAMM",
                    "name": "amm",
                    "type": "address"
                },
                {
                    "internalType": "uint256",
                    "name": "amount",
                    "type": "uint256"
                }
            ],
            "name": "setCap",
            "outputs": [],
            "stateMutability": "nonpayable",
            "type": "function"
        },
        {
            "inputs": [
                {
                    "internalType": "address",
                    "name": "newOwner",
                    "type": "address"
                }
            ],
            "name": "transferOwnership",
            "outputs": [],
            "stateMutability": "payable",
            "type": "function"
        },
        {
            "inputs": [
                {
                    "internalType": "contract IAMM",
                    "name": "amm",
                    "type": "address"
                },
                {
                    "internalType": "uint256",
                    "name": "amount",
                    "type": "uint256"
                }
            ],
            "name": "withdraw",
            "outputs": [],
            "stateMutability": "nonpayable",
            "type": "function"
        }
    ],
    "bytecode": {
        "object": "0x60c060405234801561001057600080fd5b506040516109ac3803806109ac83398101604081905261002f9161012c565b6001600160a01b03808216608052821660a05261004a610051565b505061015f565b600054610100900460ff16156100bd5760405162461bcd60e51b815260206004820152602760248201527f496e697469616c697a61626c653a20636f6e747261637420697320696e697469604482015266616c697a696e6760c81b606482015260840160405180910390fd5b60005460ff9081161461010e576000805460ff191660ff9081179091556040519081527f7f26b83ff96e1f2b6a682f133852f6798a09c465da95921460cefb38474024989060200160405180910390a15b565b80516001600160a01b038116811461012757600080fd5b919050565b6000806040838503121561013f57600080fd5b61014883610110565b915061015660208401610110565b90509250929050565b60805160a05161081b6101916000396000818161030601526105d301526000818160f4015261071b015261081b6000f3fe6080604052600436106100dd5760003560e01c8063b3aefb751161007f578063f04e283e11610059578063f04e283e14610228578063f2fde38b1461023b578063f3fef3a31461024e578063fee81cf41461026e57600080fd5b8063b3aefb75146101a6578063c4d66de8146101ea578063d7533f021461020a57600080fd5b806354d1f13d116100bb57806354d1f13d1461015d578063715018a61461016557806380ad2cf31461016d5780638da5cb5b1461018d57600080fd5b80630af96800146100e25780632569296214610133578063434466b91461013d575b600080fd5b3480156100ee57600080fd5b506101167f000000000000000000000000000000000000000000000000000000000000000081565b6040516001600160a01b0390911681526020015b60405180910390f35b61013b6102a1565b005b34801561014957600080fd5b5061013b61015836600461076e565b6102f1565b61013b610365565b61013b6103a1565b34801561017957600080fd5b5061013b61018836600461076e565b6103b5565b34801561019957600080fd5b50638b78c6d81954610116565b3480156101b257600080fd5b506101dc6101c136600461079a565b6001600160a01b031660009081526001602052604090205490565b60405190815260200161012a565b3480156101f657600080fd5b5061013b61020536600461079a565b610416565b34801561021657600080fd5b506040516202a300815260200161012a565b61013b61023636600461079a565b610529565b61013b61024936600461079a565b610569565b34801561025a57600080fd5b5061013b61026936600461076e565b610590565b34801561027a57600080fd5b506101dc61028936600461079a565b63389a75e1600c908152600091909152602090205490565b60006202a30067ffffffffffffffff164201905063389a75e1600c5233600052806020600c2055337fdbf36a107da19e49527a7176a1babf963b4b0ff8cde35ee35d6cd8f1f9ac7e1d600080a250565b6102f9610635565b61032d6001600160a01b037f0000000000000000000000000000000000000000000000000000000000000000168383610650565b6040518181527f8ef3c671a758dcb4d77f8f1bf72ff2bc1538c522c93f0e9161d6786794c896e5906020015b60405180910390a15050565b63389a75e1600c523360005260006020600c2055337ffa7b8eab7da67f412cc9575ed43464468f9bfbae89d1675917346ca6d8fe3c92600080a2565b6103a9610635565b6103b36000610696565b565b6103bd610635565b6001600160a01b03821660008181526001602052604090819020839055517f1c9182333abe71fddddd188f90cabb1c34182de0b0ac74c87944a196460a2d6c9061040a9084815260200190565b60405180910390a25050565b600054610100900460ff16158080156104365750600054600160ff909116105b806104505750303b158015610450575060005460ff166001145b6104b75760405162461bcd60e51b815260206004820152602e60248201527f496e697469616c697a61626c653a20636f6e747261637420697320616c72656160448201526d191e481a5b9a5d1a585b1a5e995960921b606482015260840160405180910390fd5b6000805460ff1916600117905580156104da576000805461ff0019166101001790555b6104e3826106d4565b8015610525576000805461ff0019169055604051600181527f7f26b83ff96e1f2b6a682f133852f6798a09c465da95921460cefb384740249890602001610359565b5050565b610531610635565b63389a75e1600c52806000526020600c20805442111561055957636f5e88186000526004601cfd5b6000905561056681610696565b50565b610571610635565b8060601b61058757637448fbae6000526004601cfd5b61056681610696565b610598610710565b6001600160a01b038216600090815260016020526040812080548392906105c09084906107be565b909155506105fa90506001600160a01b037f0000000000000000000000000000000000000000000000000000000000000000163383610650565b816001600160a01b03167f7fcf532c15f0a6db0bd6d0e038bea71d30d808c7d98cb3bf7268a95bf5081b658260405161040a91815260200190565b638b78c6d8195433146103b3576382b429006000526004601cfd5b816014528060345263a9059cbb60601b60005260206000604460106000875af13d15600160005114171661068c576390b8ec186000526004601cfd5b6000603452505050565b638b78c6d81980546001600160a01b039092169182907f8be0079c531659141344cd1fd0a4f28419497f9722a3daafe3b4186f6b6457e0600080a355565b6001600160a01b0316638b78c6d8198190558060007f8be0079c531659141344cd1fd0a4f28419497f9722a3daafe3b4186f6b6457e08180a350565b336001600160a01b037f000000000000000000000000000000000000000000000000000000000000000016146103b3576040516308abb64b60e21b815260040160405180910390fd5b6001600160a01b038116811461056657600080fd5b6000806040838503121561078157600080fd5b823561078c81610759565b946020939093013593505050565b6000602082840312156107ac57600080fd5b81356107b781610759565b9392505050565b818103818111156107df57634e487b7160e01b600052601160045260246000fd5b9291505056fea26469706673582212205b4f3dd16afd7b35555897d979d3ab139fdd7d99d9575f799ddb0aeb3bb31fc664736f6c63430008150033",
        "linkReferences": {}
    },
    "methodIdentifiers": {
        "cancelOwnershipHandover()": "54d1f13d",
        "clearingHouse()": "0af96800",
        "completeOwnershipHandover(address)": "f04e283e",
        "getCap(address)": "b3aefb75",
        "initialize(address)": "c4d66de8",
        "owner()": "8da5cb5b",
        "ownershipHandoverExpiresAt(address)": "fee81cf4",
        "ownershipHandoverValidFor()": "d7533f02",
        "protocolWithdraw(address,uint256)": "434466b9",
        "renounceOwnership()": "715018a6",
        "requestOwnershipHandover()": "25692962",
        "setCap(address,uint256)": "80ad2cf3",
        "transferOwnership(address)": "f2fde38b",
        "withdraw(address,uint256)": "f3fef3a3"
    },
    "id": 40
}