{
    "_format": "hh-sol-artifact-1",
    "contractName": "InsuranceFund",
    "sourceName": "contracts/InsuranceFund.sol",
    "abi": [
        {
            "anonymous": false,
            "inputs": [
                {
                    "indexed": false,
                    "internalType": "address",
                    "name": "amm",
                    "type": "address"
                }
            ],
            "name": "AmmAdded",
            "type": "event"
        },
        {
            "anonymous": false,
            "inputs": [
                {
                    "indexed": false,
                    "internalType": "address",
                    "name": "amm",
                    "type": "address"
                }
            ],
            "name": "AmmRemoved",
            "type": "event"
        },
        {
            "anonymous": false,
            "inputs": [
                {
                    "indexed": true,
                    "internalType": "address",
                    "name": "previousOwner",
                    "type": "address"
                },
                {
                    "indexed": true,
                    "internalType": "address",
                    "name": "newOwner",
                    "type": "address"
                }
            ],
            "name": "OwnershipTransferred",
            "type": "event"
        },
        {
            "anonymous": false,
            "inputs": [
                {
                    "indexed": false,
                    "internalType": "address",
                    "name": "tokenAddress",
                    "type": "address"
                }
            ],
            "name": "TokenAdded",
            "type": "event"
        },
        {
            "anonymous": false,
            "inputs": [
                {
                    "indexed": false,
                    "internalType": "address",
                    "name": "tokenAddress",
                    "type": "address"
                }
            ],
            "name": "TokenRemoved",
            "type": "event"
        },
        {
            "anonymous": false,
            "inputs": [
                {
                    "indexed": false,
                    "internalType": "address",
                    "name": "withdrawer",
                    "type": "address"
                },
                {
                    "indexed": false,
                    "internalType": "uint256",
                    "name": "amount",
                    "type": "uint256"
                }
            ],
            "name": "Withdrawn",
            "type": "event"
        },
        {
            "inputs": [
                {
                    "internalType": "contract IAmm",
                    "name": "_amm",
                    "type": "address"
                }
            ],
            "name": "addAmm",
            "outputs": [],
            "stateMutability": "nonpayable",
            "type": "function"
        },
        {
            "inputs": [
                {
                    "internalType": "address",
                    "name": "",
                    "type": "address"
                }
            ],
            "name": "ammMap",
            "outputs": [
                {
                    "internalType": "bool",
                    "name": "",
                    "type": "bool"
                }
            ],
            "stateMutability": "view",
            "type": "function"
        },
        {
            "inputs": [],
            "name": "getAllAmms",
            "outputs": [
                {
                    "internalType": "contract IAmm[]",
                    "name": "",
                    "type": "address[]"
                }
            ],
            "stateMutability": "view",
            "type": "function"
        },
        {
            "inputs": [],
            "name": "getQuoteTokenLength",
            "outputs": [
                {
                    "internalType": "uint256",
                    "name": "",
                    "type": "uint256"
                }
            ],
            "stateMutability": "view",
            "type": "function"
        },
        {
            "inputs": [],
            "name": "initialize",
            "outputs": [],
            "stateMutability": "nonpayable",
            "type": "function"
        },
        {
            "inputs": [
                {
                    "internalType": "contract IAmm",
                    "name": "_amm",
                    "type": "address"
                }
            ],
            "name": "isExistedAmm",
            "outputs": [
                {
                    "internalType": "bool",
                    "name": "",
                    "type": "bool"
                }
            ],
            "stateMutability": "view",
            "type": "function"
        },
        {
            "inputs": [],
            "name": "owner",
            "outputs": [
                {
                    "internalType": "address",
                    "name": "",
                    "type": "address"
                }
            ],
            "stateMutability": "view",
            "type": "function"
        },
        {
            "inputs": [
                {
                    "internalType": "uint256",
                    "name": "",
                    "type": "uint256"
                }
            ],
            "name": "quoteTokens",
            "outputs": [
                {
                    "internalType": "contract IERC20",
                    "name": "",
                    "type": "address"
                }
            ],
            "stateMutability": "view",
            "type": "function"
        },
        {
            "inputs": [
                {
                    "internalType": "contract IAmm",
                    "name": "_amm",
                    "type": "address"
                }
            ],
            "name": "removeAmm",
            "outputs": [],
            "stateMutability": "nonpayable",
            "type": "function"
        },
        {
            "inputs": [
                {
                    "internalType": "contract IERC20",
                    "name": "_token",
                    "type": "address"
                }
            ],
            "name": "removeToken",
            "outputs": [],
            "stateMutability": "nonpayable",
            "type": "function"
        },
        {
            "inputs": [],
            "name": "renounceOwnership",
            "outputs": [],
            "stateMutability": "nonpayable",
            "type": "function"
        },
        {
            "inputs": [
                {
                    "internalType": "address",
                    "name": "_beneficiary",
                    "type": "address"
                }
            ],
            "name": "setBeneficiary",
            "outputs": [],
            "stateMutability": "nonpayable",
            "type": "function"
        },
        {
            "inputs": [
                {
                    "internalType": "address",
                    "name": "newOwner",
                    "type": "address"
                }
            ],
            "name": "transferOwnership",
            "outputs": [],
            "stateMutability": "nonpayable",
            "type": "function"
        },
        {
            "inputs": [
                {
                    "internalType": "contract IERC20",
                    "name": "_quoteToken",
                    "type": "address"
                },
                {
                    "components": [
                        {
                            "internalType": "uint256",
                            "name": "d",
                            "type": "uint256"
                        }
                    ],
                    "internalType": "struct Decimal.decimal",
                    "name": "_amount",
                    "type": "tuple"
                }
            ],
            "name": "withdraw",
            "outputs": [],
            "stateMutability": "nonpayable",
            "type": "function"
        }
    ],
    "bytecode": "0x608060405234801561001057600080fd5b506116cc806100206000396000f3fe608060405234801561001057600080fd5b50600436106100ba5760003560e01c80630774a784146100bf5780631c31f710146100e7578063252978b8146100fc5780632c9115c71461010f5780635fa7b5841461012f578063715018a6146101425780638129fc1c1461014a5780638da5cb5b14610152578063b7538c621461015a578063bd4247f91461016f578063beb0597a14610192578063cf230979146101a3578063d926de1c146101b6578063f2fde38b146101c9575b600080fd5b6100d26100cd366004611288565b6101dc565b60405190151581526020015b60405180910390f35b6100fa6100f5366004611288565b6101fa565b005b6100fa61010a3660046112a5565b610254565b61012261011d3660046112e6565b6103c8565b6040516100de91906112ff565b6100fa61013d366004611288565b6103f2565b6100fa610677565b6100fa6106b2565b61012261077b565b61016261078a565b6040516100de9190611313565b6100d261017d366004611288565b60ca6020526000908152604090205460ff1681565b60cd546040519081526020016100de565b6100fa6101b1366004611288565b6107ec565b6100fa6101c4366004611288565b6109c4565b6100fa6101d7366004611288565b610be7565b6001600160a01b0316600090815260ca602052604090205460ff1690565b3361020361077b565b6001600160a01b0316146102325760405162461bcd60e51b815260040161022990611360565b60405180910390fd5b60ce80546001600160a01b0319166001600160a01b0392909216919091179055565b60ce5482906001600160a01b031633146102ac5760405162461bcd60e51b815260206004820152601960248201527863616c6c6572206973206e6f742062656e656669636961727960381b6044820152606401610229565b6102b581610c84565b6102fa5760405162461bcd60e51b8152602060048201526016602482015275105cdcd95d081a5cc81b9bdd081cdd5c1c1bdc9d195960521b6044820152606401610229565b600061030582610ca2565b905061031d61031936859003850185611395565b5190565b8151101561035f5760405162461bcd60e51b815260206004820152600f60248201526e08ceadcc840dcdee840cadcdeeaced608b1b6044820152606401610229565b610378823361037336879003870187611395565b610cba565b7f7084f5476618d8e60b11ef0d7d3f06914655adb8793e28ff7f018d4c76d505d5336103ac61031936879003870187611395565b6040516103ba9291906113e4565b60405180910390a150505050565b60cd81815481106103d857600080fd5b6000918252602090912001546001600160a01b0316905081565b336103fb61077b565b6001600160a01b0316146104215760405162461bcd60e51b815260040161022990611360565b61042a81610c84565b61046a5760405162461bcd60e51b81526020600482015260116024820152701d1bdad95b881b9bdd08195e1a5cdd1959607a1b6044820152606401610229565b6001600160a01b038116600090815260cb60205260408120805460ff1916905560cd54905b818110156105a257826001600160a01b031660cd82815481106104b4576104b46113fd565b6000918252602090912001546001600160a01b031603610590576104d9600183611429565b8110156105585760cd6104ed600184611429565b815481106104fd576104fd6113fd565b60009182526020909120015460cd80546001600160a01b039092169183908110610529576105296113fd565b9060005260206000200160006101000a8154816001600160a01b0302191690836001600160a01b031602179055505b60cd80548061056957610569611440565b600082815260209020810160001990810180546001600160a01b03191690550190556105a2565b8061059a81611456565b91505061048f565b5060006105b161031984610ca2565b111561063c57816001600160a01b031663a9059cbb6105ce61077b565b6105da61031986610ca2565b6040518363ffffffff1660e01b81526004016105f79291906113e4565b6020604051808303816000875af1158015610616573d6000803e3d6000fd5b505050506040513d601f19601f8201168201806040525081019061063a919061146f565b505b7f4c910b69fe65a61f7531b9c5042b2329ca7179c77290aa7e2eb3afa3c8511fd38260405161066b91906112ff565b60405180910390a15050565b3361068061077b565b6001600160a01b0316146106a65760405162461bcd60e51b815260040161022990611360565b6106b06000610da2565b565b600054610100900460ff166106cd5760005460ff16156106d1565b303b155b6107345760405162461bcd60e51b815260206004820152602e60248201527f496e697469616c697a61626c653a20636f6e747261637420697320616c72656160448201526d191e481a5b9a5d1a585b1a5e995960921b6064820152608401610229565b600054610100900460ff16158015610756576000805461ffff19166101011790555b61075e610df4565b610766610e23565b8015610778576000805461ff00191690555b50565b6033546001600160a01b031690565b606060cc8054806020026020016040519081016040528092919081815260200182805480156107e257602002820191906000526020600020905b81546001600160a01b031681526001909101906020018083116107c4575b5050505050905090565b336107f561077b565b6001600160a01b03161461081b5760405162461bcd60e51b815260040161022990611360565b610824816101dc565b6108625760405162461bcd60e51b815260206004820152600f60248201526e185b5b481b9bdd08195e1a5cdd1959608a1b6044820152606401610229565b6001600160a01b038116600090815260ca60205260408120805460ff1916905560cc54905b818110156109bf57826001600160a01b031660cc82815481106108ac576108ac6113fd565b6000918252602090912001546001600160a01b0316036109ad5760cc6108d3600184611429565b815481106108e3576108e36113fd565b60009182526020909120015460cc80546001600160a01b03909216918390811061090f5761090f6113fd565b9060005260206000200160006101000a8154816001600160a01b0302191690836001600160a01b0316021790555060cc80548061094e5761094e611440565b600082815260209020810160001990810180546001600160a01b03191690550190556040517fdaad2af263ebb3abf337a324f20752addc3bf170971ce7b80cc3bfea1fcf30ee906109a09085906112ff565b60405180910390a1505050565b806109b781611456565b915050610887565b505050565b336109cd61077b565b6001600160a01b0316146109f35760405162461bcd60e51b815260040161022990611360565b6109fc816101dc565b15610a3d5760405162461bcd60e51b8152602060048201526011602482015270185b5b48185b1c9958591e481859191959607a1b6044820152606401610229565b6001600160a01b038116600081815260ca6020526040808220805460ff1916600190811790915560cc805491820181559092527f47197230e1e4b29fc0bd84d7d78966c0925452aff72a2a121538b102457e9ebe90910180546001600160a01b031916909217909155517f10cdbb821aa416c854add806e1d7e8138afe2a538921cebe99b1351362ae38b290610ad49083906112ff565b60405180910390a16000816001600160a01b031663fdf262b76040518163ffffffff1660e01b8152600401602060405180830381865afa158015610b1c573d6000803e3d6000fd5b505050506040513d601f19601f82011682018060405250810190610b409190611491565b9050610b4b81610c84565b610be35760cd805460018082019092557f83978b4c69c48dd978ab43fe30f077615294f938fb7f936d9eb340e51ea7db2e0180546001600160a01b0319166001600160a01b038416908117909155600090815260cb602052604090819020805460ff1916909217909155517f784c8f4dbf0ffedd6e72c76501c545a70f8b203b30a26ce542bf92ba87c248a49061066b9083906112ff565b5050565b33610bf061077b565b6001600160a01b031614610c165760405162461bcd60e51b815260040161022990611360565b6001600160a01b038116610c7b5760405162461bcd60e51b815260206004820152602660248201527f4f776e61626c653a206e6577206f776e657220697320746865207a65726f206160448201526564647265737360d01b6064820152608401610229565b61077881610da2565b6001600160a01b0316600090815260cb602052604090205460ff1690565b610caa611260565b610cb48230610e52565b92915050565b610cc383610ed7565b6000610ccf8484610e52565b90506000610cdd8584610f21565b60405163a9059cbb60e01b81529091506001600160a01b0386169063a9059cbb90610d0e90879085906004016113e4565b6020604051808303816000875af1158015610d2d573d6000803e3d6000fd5b505050506040513d601f19601f82011682018060405250810190610d51919061146f565b610d8f5760405162461bcd60e51b815260206004820152600f60248201526e1d1c985b9cd9995c8819985a5b1959608a1b6044820152606401610229565b610d9b85858385610f8b565b5050505050565b603380546001600160a01b038381166001600160a01b0319831681179093556040519116919082907f8be0079c531659141344cd1fd0a4f28419497f9722a3daafe3b4186f6b6457e090600090a35050565b600054610100900460ff16610e1b5760405162461bcd60e51b8152600401610229906114ae565b6106b0610fff565b600054610100900460ff16610e4a5760405162461bcd60e51b8152600401610229906114ae565b6106b061102f565b610e5a611260565b610ed083846001600160a01b03166370a08231856040518263ffffffff1660e01b8152600401610e8a91906112ff565b602060405180830381865afa158015610ea7573d6000803e3d6000fd5b505050506040513d601f19601f82011682018060405250810190610ecb91906114f9565b61105d565b9392505050565b6000610ee2826110e9565b6001600160a01b0383166000908152609760205260409020549091508114610be3576001600160a01b0391909116600090815260976020526040902055565b600080610f2d846110e9565b905060128110610f6157610f42601282611429565b610f4d90600a6115f6565b8351610f599190611602565b915050610cb4565b610f6c816012611429565b610f7790600a6115f6565b8351610f839190611621565b949350505050565b610fb2610fa2610f9b868561105d565b83906111fd565b610fac8686610e52565b90611223565b60000b15610ff95760405162461bcd60e51b815260206004820152601460248201527318985b185b98d9481a5b98dbdb9cda5cdd195b9d60621b6044820152606401610229565b50505050565b600054610100900460ff166110265760405162461bcd60e51b8152600401610229906114ae565b6106b033610da2565b600054610100900460ff166110565760405162461bcd60e51b8152600401610229906114ae565b6001606555565b611065611260565b6000611070846110e9565b9050601281106110b25760405180602001604052806012836110929190611429565b61109d90600a6115f6565b6110a79086611621565b815250915050610cb4565b60405180602001604052808260126110ca9190611429565b6110d590600a6115f6565b6110df9086611602565b9052949350505050565b6001600160a01b038116600090815260976020526040812054808203610cb45760408051600481526024810182526020810180516001600160e01b031663313ce56760e01b179052905160009182916001600160a01b0387169161114c91611643565b600060405180830381855afa9150503d8060008114611187576040519150601f19603f3d011682016040523d82523d6000602084013e61118c565b606091505b509150915081801561119e5750805115155b6111e05760405162461bcd60e51b815260206004820152601360248201527219d95d08191958da5b585b1cc819985a5b1959606a1b6044820152606401610229565b808060200190518101906111f491906114f9565b95945050505050565b611205611260565b61120d611260565b8251845161121a91611254565b81529392505050565b80518251600091101561123857506001610cb4565b81518351101561124b5750600019610cb4565b50600092915050565b6000610ed0828461167e565b6040518060200160405280600081525090565b6001600160a01b038116811461077857600080fd5b60006020828403121561129a57600080fd5b8135610ed081611273565b60008082840360408112156112b957600080fd5b83356112c481611273565b92506020601f19820112156112d857600080fd5b506020830190509250929050565b6000602082840312156112f857600080fd5b5035919050565b6001600160a01b0391909116815260200190565b6020808252825182820181905260009190848201906040850190845b818110156113545783516001600160a01b03168352928401929184019160010161132f565b50909695505050505050565b6020808252818101527f4f776e61626c653a2063616c6c6572206973206e6f7420746865206f776e6572604082015260600190565b6000602082840312156113a757600080fd5b604051602081016001600160401b03811182821017156113d757634e487b7160e01b600052604160045260246000fd5b6040529135825250919050565b6001600160a01b03929092168252602082015260400190565b634e487b7160e01b600052603260045260246000fd5b634e487b7160e01b600052601160045260246000fd5b60008282101561143b5761143b611413565b500390565b634e487b7160e01b600052603160045260246000fd5b60006001820161146857611468611413565b5060010190565b60006020828403121561148157600080fd5b81518015158114610ed057600080fd5b6000602082840312156114a357600080fd5b8151610ed081611273565b6020808252602b908201527f496e697469616c697a61626c653a20636f6e7472616374206973206e6f74206960408201526a6e697469616c697a696e6760a81b606082015260800190565b60006020828403121561150b57600080fd5b5051919050565b600181815b8085111561154d57816000190482111561153357611533611413565b8085161561154057918102915b93841c9390800290611517565b509250929050565b60008261156457506001610cb4565b8161157157506000610cb4565b81600181146115875760028114611591576115ad565b6001915050610cb4565b60ff8411156115a2576115a2611413565b50506001821b610cb4565b5060208310610133831016604e8410600b84101617156115d0575081810a610cb4565b6115da8383611512565b80600019048211156115ee576115ee611413565b029392505050565b6000610ed08383611555565b600081600019048311821515161561161c5761161c611413565b500290565b60008261163e57634e487b7160e01b600052601260045260246000fd5b500490565b6000825160005b81811015611664576020818601810151858301520161164a565b81811115611673576000828501525b509190910192915050565b6000821982111561169157611691611413565b50019056fea26469706673582212205df75432d86869437ec42d7092665855540db18dc4a22115b8a2ea56686bcbca64736f6c634300080d0033",
    "linkReferences": {},
    "deployedLinkReferences": {}
}