{
    "abi": [
        {
            "inputs": [
                {
                    "internalType": "address",
                    "name": "_weth",
                    "type": "address"
                },
                {
                    "internalType": "address",
                    "name": "_clearingHouse",
                    "type": "address"
                }
            ],
            "stateMutability": "nonpayable",
            "type": "constructor"
        },
        {
            "inputs": [],
            "name": "AllowanceOverflow",
            "type": "error"
        },
        {
            "inputs": [],
            "name": "AllowanceUnderflow",
            "type": "error"
        },
        {
            "inputs": [],
            "name": "DepositMoreThanMax",
            "type": "error"
        },
        {
            "inputs": [],
            "name": "INACTIVE",
            "type": "error"
        },
        {
            "inputs": [],
            "name": "INVALID_REDEMPTION",
            "type": "error"
        },
        {
            "inputs": [],
            "name": "InsufficientAllowance",
            "type": "error"
        },
        {
            "inputs": [],
            "name": "InsufficientBalance",
            "type": "error"
        },
        {
            "inputs": [],
            "name": "InvalidPermit",
            "type": "error"
        },
        {
            "inputs": [],
            "name": "MintMoreThanMax",
            "type": "error"
        },
        {
            "inputs": [],
            "name": "NOT_CLEARING_HOUSE",
            "type": "error"
        },
        {
            "inputs": [],
            "name": "NOT_POSITION_MANAGER",
            "type": "error"
        },
        {
            "inputs": [],
            "name": "NewOwnerIsZeroAddress",
            "type": "error"
        },
        {
            "inputs": [],
            "name": "NoHandoverRequest",
            "type": "error"
        },
        {
            "inputs": [],
            "name": "PermitExpired",
            "type": "error"
        },
        {
            "inputs": [],
            "name": "REDEMPTION_IN_PROGRESS",
            "type": "error"
        },
        {
            "inputs": [],
            "name": "RedeemMoreThanMax",
            "type": "error"
        },
        {
            "inputs": [],
            "name": "TotalSupplyOverflow",
            "type": "error"
        },
        {
            "inputs": [],
            "name": "UNUSED_FUNCTION",
            "type": "error"
        },
        {
            "inputs": [],
            "name": "Unauthorized",
            "type": "error"
        },
        {
            "inputs": [],
            "name": "WithdrawMoreThanMax",
            "type": "error"
        },
        {
            "anonymous": false,
            "inputs": [],
            "name": "Activated",
            "type": "event"
        },
        {
            "anonymous": false,
            "inputs": [
                {
                    "indexed": true,
                    "internalType": "address",
                    "name": "owner",
                    "type": "address"
                },
                {
                    "indexed": true,
                    "internalType": "address",
                    "name": "spender",
                    "type": "address"
                },
                {
                    "indexed": false,
                    "internalType": "uint256",
                    "name": "amount",
                    "type": "uint256"
                }
            ],
            "name": "Approval",
            "type": "event"
        },
        {
            "anonymous": false,
            "inputs": [
                {
                    "indexed": true,
                    "internalType": "contract IAMM",
                    "name": "amm",
                    "type": "address"
                },
                {
                    "indexed": false,
                    "internalType": "uint256",
                    "name": "cap",
                    "type": "uint256"
                }
            ],
            "name": "CapSet",
            "type": "event"
        },
        {
            "anonymous": false,
            "inputs": [
                {
                    "indexed": true,
                    "internalType": "contract IAMM",
                    "name": "amm",
                    "type": "address"
                },
                {
                    "indexed": false,
                    "internalType": "uint256",
                    "name": "amount",
                    "type": "uint256"
                }
            ],
            "name": "Claim",
            "type": "event"
        },
        {
            "anonymous": false,
            "inputs": [],
            "name": "Deactived",
            "type": "event"
        },
        {
            "anonymous": false,
            "inputs": [
                {
                    "indexed": true,
                    "internalType": "address",
                    "name": "by",
                    "type": "address"
                },
                {
                    "indexed": true,
                    "internalType": "address",
                    "name": "owner",
                    "type": "address"
                },
                {
                    "indexed": false,
                    "internalType": "uint256",
                    "name": "assets",
                    "type": "uint256"
                },
                {
                    "indexed": false,
                    "internalType": "uint256",
                    "name": "shares",
                    "type": "uint256"
                }
            ],
            "name": "Deposit",
            "type": "event"
        },
        {
            "anonymous": false,
            "inputs": [
                {
                    "indexed": false,
                    "internalType": "uint8",
                    "name": "version",
                    "type": "uint8"
                }
            ],
            "name": "Initialized",
            "type": "event"
        },
        {
            "anonymous": false,
            "inputs": [
                {
                    "indexed": true,
                    "internalType": "address",
                    "name": "pendingOwner",
                    "type": "address"
                }
            ],
            "name": "OwnershipHandoverCanceled",
            "type": "event"
        },
        {
            "anonymous": false,
            "inputs": [
                {
                    "indexed": true,
                    "internalType": "address",
                    "name": "pendingOwner",
                    "type": "address"
                }
            ],
            "name": "OwnershipHandoverRequested",
            "type": "event"
        },
        {
            "anonymous": false,
            "inputs": [
                {
                    "indexed": true,
                    "internalType": "address",
                    "name": "oldOwner",
                    "type": "address"
                },
                {
                    "indexed": true,
                    "internalType": "address",
                    "name": "newOwner",
                    "type": "address"
                }
            ],
            "name": "OwnershipTransferred",
            "type": "event"
        },
        {
            "anonymous": false,
            "inputs": [
                {
                    "indexed": true,
                    "internalType": "contract IAMM",
                    "name": "amm",
                    "type": "address"
                },
                {
                    "indexed": false,
                    "internalType": "uint256",
                    "name": "amount",
                    "type": "uint256"
                }
            ],
            "name": "Payment",
            "type": "event"
        },
        {
            "anonymous": false,
            "inputs": [
                {
                    "indexed": false,
                    "internalType": "uint256",
                    "name": "protocolFeeRatio",
                    "type": "uint256"
                }
            ],
            "name": "ProtocolFeeRatioUpdated",
            "type": "event"
        },
        {
            "anonymous": false,
            "inputs": [
                {
                    "indexed": true,
                    "internalType": "address",
                    "name": "from",
                    "type": "address"
                },
                {
                    "indexed": true,
                    "internalType": "address",
                    "name": "to",
                    "type": "address"
                },
                {
                    "indexed": false,
                    "internalType": "uint256",
                    "name": "amount",
                    "type": "uint256"
                }
            ],
            "name": "Transfer",
            "type": "event"
        },
        {
            "anonymous": false,
            "inputs": [
                {
                    "indexed": false,
                    "internalType": "uint256",
                    "name": "unboundingPeriod",
                    "type": "uint256"
                }
            ],
            "name": "UnboundingTimeUpdated",
            "type": "event"
        },
        {
            "anonymous": false,
            "inputs": [
                {
                    "indexed": true,
                    "internalType": "address",
                    "name": "by",
                    "type": "address"
                },
                {
                    "indexed": true,
                    "internalType": "address",
                    "name": "to",
                    "type": "address"
                },
                {
                    "indexed": true,
                    "internalType": "address",
                    "name": "owner",
                    "type": "address"
                },
                {
                    "indexed": false,
                    "internalType": "uint256",
                    "name": "assets",
                    "type": "uint256"
                },
                {
                    "indexed": false,
                    "internalType": "uint256",
                    "name": "shares",
                    "type": "uint256"
                }
            ],
            "name": "Withdraw",
            "type": "event"
        },
        {
            "inputs": [],
            "name": "DOMAIN_SEPARATOR",
            "outputs": [
                {
                    "internalType": "bytes32",
                    "name": "result",
                    "type": "bytes32"
                }
            ],
            "stateMutability": "view",
            "type": "function"
        },
        {
            "inputs": [
                {
                    "internalType": "address",
                    "name": "owner",
                    "type": "address"
                },
                {
                    "internalType": "address",
                    "name": "spender",
                    "type": "address"
                }
            ],
            "name": "allowance",
            "outputs": [
                {
                    "internalType": "uint256",
                    "name": "result",
                    "type": "uint256"
                }
            ],
            "stateMutability": "view",
            "type": "function"
        },
        {
            "inputs": [
                {
                    "internalType": "address",
                    "name": "spender",
                    "type": "address"
                },
                {
                    "internalType": "uint256",
                    "name": "amount",
                    "type": "uint256"
                }
            ],
            "name": "approve",
            "outputs": [
                {
                    "internalType": "bool",
                    "name": "",
                    "type": "bool"
                }
            ],
            "stateMutability": "nonpayable",
            "type": "function"
        },
        {
            "inputs": [],
            "name": "asset",
            "outputs": [
                {
                    "internalType": "address",
                    "name": "",
                    "type": "address"
                }
            ],
            "stateMutability": "view",
            "type": "function"
        },
        {
            "inputs": [
                {
                    "internalType": "address",
                    "name": "owner",
                    "type": "address"
                }
            ],
            "name": "balanceOf",
            "outputs": [
                {
                    "internalType": "uint256",
                    "name": "result",
                    "type": "uint256"
                }
            ],
            "stateMutability": "view",
            "type": "function"
        },
        {
            "inputs": [],
            "name": "cancelOwnershipHandover",
            "outputs": [],
            "stateMutability": "payable",
            "type": "function"
        },
        {
            "inputs": [],
            "name": "cancelRedemption",
            "outputs": [],
            "stateMutability": "nonpayable",
            "type": "function"
        },
        {
            "inputs": [
                {
                    "internalType": "contract IAMM",
                    "name": "amm",
                    "type": "address"
                },
                {
                    "internalType": "uint256",
                    "name": "amount",
                    "type": "uint256"
                }
            ],
            "name": "claim",
            "outputs": [],
            "stateMutability": "nonpayable",
            "type": "function"
        },
        {
            "inputs": [],
            "name": "clearingHouse",
            "outputs": [
                {
                    "internalType": "address",
                    "name": "",
                    "type": "address"
                }
            ],
            "stateMutability": "view",
            "type": "function"
        },
        {
            "inputs": [
                {
                    "internalType": "address",
                    "name": "pendingOwner",
                    "type": "address"
                }
            ],
            "name": "completeOwnershipHandover",
            "outputs": [],
            "stateMutability": "payable",
            "type": "function"
        },
        {
            "inputs": [
                {
                    "internalType": "uint256",
                    "name": "shares",
                    "type": "uint256"
                }
            ],
            "name": "convertToAssets",
            "outputs": [
                {
                    "internalType": "uint256",
                    "name": "assets",
                    "type": "uint256"
                }
            ],
            "stateMutability": "view",
            "type": "function"
        },
        {
            "inputs": [
                {
                    "internalType": "uint256",
                    "name": "assets",
                    "type": "uint256"
                }
            ],
            "name": "convertToShares",
            "outputs": [
                {
                    "internalType": "uint256",
                    "name": "shares",
                    "type": "uint256"
                }
            ],
            "stateMutability": "view",
            "type": "function"
        },
        {
            "inputs": [],
            "name": "decimals",
            "outputs": [
                {
                    "internalType": "uint8",
                    "name": "",
                    "type": "uint8"
                }
            ],
            "stateMutability": "view",
            "type": "function"
        },
        {
            "inputs": [
                {
                    "internalType": "address",
                    "name": "spender",
                    "type": "address"
                },
                {
                    "internalType": "uint256",
                    "name": "difference",
                    "type": "uint256"
                }
            ],
            "name": "decreaseAllowance",
            "outputs": [
                {
                    "internalType": "bool",
                    "name": "",
                    "type": "bool"
                }
            ],
            "stateMutability": "nonpayable",
            "type": "function"
        },
        {
            "inputs": [
                {
                    "internalType": "uint256",
                    "name": "amount",
                    "type": "uint256"
                },
                {
                    "internalType": "address",
                    "name": "to",
                    "type": "address"
                }
            ],
            "name": "deposit",
            "outputs": [
                {
                    "internalType": "uint256",
                    "name": "shares",
                    "type": "uint256"
                }
            ],
            "stateMutability": "nonpayable",
            "type": "function"
        },
        {
            "inputs": [
                {
                    "internalType": "contract IAMM",
                    "name": "amm",
                    "type": "address"
                }
            ],
            "name": "getCap",
            "outputs": [
                {
                    "internalType": "uint256",
                    "name": "",
                    "type": "uint256"
                }
            ],
            "stateMutability": "view",
            "type": "function"
        },
        {
            "inputs": [
                {
                    "internalType": "address",
                    "name": "spender",
                    "type": "address"
                },
                {
                    "internalType": "uint256",
                    "name": "difference",
                    "type": "uint256"
                }
            ],
            "name": "increaseAllowance",
            "outputs": [
                {
                    "internalType": "bool",
                    "name": "",
                    "type": "bool"
                }
            ],
            "stateMutability": "nonpayable",
            "type": "function"
        },
        {
            "inputs": [
                {
                    "internalType": "address",
                    "name": "_owner",
                    "type": "address"
                },
                {
                    "internalType": "uint256",
                    "name": "_protocolFeeRatio",
                    "type": "uint256"
                },
                {
                    "internalType": "uint256",
                    "name": "_unboundingPeriod",
                    "type": "uint256"
                }
            ],
            "name": "initialize",
            "outputs": [],
            "stateMutability": "nonpayable",
            "type": "function"
        },
        {
            "inputs": [
                {
                    "internalType": "uint256",
                    "name": "shares",
                    "type": "uint256"
                }
            ],
            "name": "initiateRedemption",
            "outputs": [],
            "stateMutability": "nonpayable",
            "type": "function"
        },
        {
            "inputs": [
                {
                    "internalType": "address",
                    "name": "to",
                    "type": "address"
                }
            ],
            "name": "maxDeposit",
            "outputs": [
                {
                    "internalType": "uint256",
                    "name": "maxAssets",
                    "type": "uint256"
                }
            ],
            "stateMutability": "view",
            "type": "function"
        },
        {
            "inputs": [
                {
                    "internalType": "address",
                    "name": "to",
                    "type": "address"
                }
            ],
            "name": "maxMint",
            "outputs": [
                {
                    "internalType": "uint256",
                    "name": "maxShares",
                    "type": "uint256"
                }
            ],
            "stateMutability": "view",
            "type": "function"
        },
        {
            "inputs": [
                {
                    "internalType": "address",
                    "name": "owner",
                    "type": "address"
                }
            ],
            "name": "maxRedeem",
            "outputs": [
                {
                    "internalType": "uint256",
                    "name": "maxShares",
                    "type": "uint256"
                }
            ],
            "stateMutability": "view",
            "type": "function"
        },
        {
            "inputs": [
                {
                    "internalType": "address",
                    "name": "owner",
                    "type": "address"
                }
            ],
            "name": "maxWithdraw",
            "outputs": [
                {
                    "internalType": "uint256",
                    "name": "maxAssets",
                    "type": "uint256"
                }
            ],
            "stateMutability": "view",
            "type": "function"
        },
        {
            "inputs": [
                {
                    "internalType": "uint256",
                    "name": "shares",
                    "type": "uint256"
                },
                {
                    "internalType": "address",
                    "name": "to",
                    "type": "address"
                }
            ],
            "name": "mint",
            "outputs": [
                {
                    "internalType": "uint256",
                    "name": "assets",
                    "type": "uint256"
                }
            ],
            "stateMutability": "nonpayable",
            "type": "function"
        },
        {
            "inputs": [],
            "name": "name",
            "outputs": [
                {
                    "internalType": "string",
                    "name": "",
                    "type": "string"
                }
            ],
            "stateMutability": "pure",
            "type": "function"
        },
        {
            "inputs": [
                {
                    "internalType": "address",
                    "name": "owner",
                    "type": "address"
                }
            ],
            "name": "nonces",
            "outputs": [
                {
                    "internalType": "uint256",
                    "name": "result",
                    "type": "uint256"
                }
            ],
            "stateMutability": "view",
            "type": "function"
        },
        {
            "inputs": [],
            "name": "owner",
            "outputs": [
                {
                    "internalType": "address",
                    "name": "result",
                    "type": "address"
                }
            ],
            "stateMutability": "view",
            "type": "function"
        },
        {
            "inputs": [
                {
                    "internalType": "address",
                    "name": "pendingOwner",
                    "type": "address"
                }
            ],
            "name": "ownershipHandoverExpiresAt",
            "outputs": [
                {
                    "internalType": "uint256",
                    "name": "result",
                    "type": "uint256"
                }
            ],
            "stateMutability": "view",
            "type": "function"
        },
        {
            "inputs": [],
            "name": "ownershipHandoverValidFor",
            "outputs": [
                {
                    "internalType": "uint64",
                    "name": "",
                    "type": "uint64"
                }
            ],
            "stateMutability": "view",
            "type": "function"
        },
        {
            "inputs": [
                {
                    "internalType": "contract IAMM",
                    "name": "amm",
                    "type": "address"
                },
                {
                    "internalType": "uint256",
                    "name": "amount",
                    "type": "uint256"
                }
            ],
            "name": "pay",
            "outputs": [],
            "stateMutability": "nonpayable",
            "type": "function"
        },
        {
            "inputs": [
                {
                    "internalType": "address",
                    "name": "owner",
                    "type": "address"
                },
                {
                    "internalType": "address",
                    "name": "spender",
                    "type": "address"
                },
                {
                    "internalType": "uint256",
                    "name": "value",
                    "type": "uint256"
                },
                {
                    "internalType": "uint256",
                    "name": "deadline",
                    "type": "uint256"
                },
                {
                    "internalType": "uint8",
                    "name": "v",
                    "type": "uint8"
                },
                {
                    "internalType": "bytes32",
                    "name": "r",
                    "type": "bytes32"
                },
                {
                    "internalType": "bytes32",
                    "name": "s",
                    "type": "bytes32"
                }
            ],
            "name": "permit",
            "outputs": [],
            "stateMutability": "nonpayable",
            "type": "function"
        },
        {
            "inputs": [
                {
                    "internalType": "uint256",
                    "name": "assets",
                    "type": "uint256"
                }
            ],
            "name": "previewDeposit",
            "outputs": [
                {
                    "internalType": "uint256",
                    "name": "shares",
                    "type": "uint256"
                }
            ],
            "stateMutability": "view",
            "type": "function"
        },
        {
            "inputs": [
                {
                    "internalType": "uint256",
                    "name": "shares",
                    "type": "uint256"
                }
            ],
            "name": "previewMint",
            "outputs": [
                {
                    "internalType": "uint256",
                    "name": "assets",
                    "type": "uint256"
                }
            ],
            "stateMutability": "view",
            "type": "function"
        },
        {
            "inputs": [
                {
                    "internalType": "uint256",
                    "name": "shares",
                    "type": "uint256"
                }
            ],
            "name": "previewRedeem",
            "outputs": [
                {
                    "internalType": "uint256",
                    "name": "assets",
                    "type": "uint256"
                }
            ],
            "stateMutability": "view",
            "type": "function"
        },
        {
            "inputs": [
                {
                    "internalType": "uint256",
                    "name": "assets",
                    "type": "uint256"
                }
            ],
            "name": "previewWithdraw",
            "outputs": [
                {
                    "internalType": "uint256",
                    "name": "shares",
                    "type": "uint256"
                }
            ],
            "stateMutability": "view",
            "type": "function"
        },
        {
            "inputs": [],
            "name": "protocolFeeRatio",
            "outputs": [
                {
                    "internalType": "uint256",
                    "name": "",
                    "type": "uint256"
                }
            ],
            "stateMutability": "view",
            "type": "function"
        },
        {
            "inputs": [
                {
                    "internalType": "uint256",
                    "name": "shares",
                    "type": "uint256"
                }
            ],
            "name": "protocolRedeem",
            "outputs": [
                {
                    "internalType": "uint256",
                    "name": "assets",
                    "type": "uint256"
                }
            ],
            "stateMutability": "nonpayable",
            "type": "function"
        },
        {
            "inputs": [
                {
                    "internalType": "address",
                    "name": "receiver",
                    "type": "address"
                }
            ],
            "name": "redeem",
            "outputs": [
                {
                    "internalType": "uint256",
                    "name": "assets",
                    "type": "uint256"
                }
            ],
            "stateMutability": "nonpayable",
            "type": "function"
        },
        {
            "inputs": [
                {
                    "internalType": "uint256",
                    "name": "",
                    "type": "uint256"
                },
                {
                    "internalType": "address",
                    "name": "",
                    "type": "address"
                },
                {
                    "internalType": "address",
                    "name": "",
                    "type": "address"
                }
            ],
            "name": "redeem",
            "outputs": [
                {
                    "internalType": "uint256",
                    "name": "",
                    "type": "uint256"
                }
            ],
            "stateMutability": "pure",
            "type": "function"
        },
        {
            "inputs": [],
            "name": "renounceOwnership",
            "outputs": [],
            "stateMutability": "payable",
            "type": "function"
        },
        {
            "inputs": [],
            "name": "requestOwnershipHandover",
            "outputs": [],
            "stateMutability": "payable",
            "type": "function"
        },
        {
            "inputs": [
                {
                    "internalType": "bool",
                    "name": "_active",
                    "type": "bool"
                }
            ],
            "name": "setActive",
            "outputs": [],
            "stateMutability": "nonpayable",
            "type": "function"
        },
        {
            "inputs": [
                {
                    "internalType": "contract IAMM",
                    "name": "amm",
                    "type": "address"
                },
                {
                    "internalType": "uint256",
                    "name": "amount",
                    "type": "uint256"
                }
            ],
            "name": "setCap",
            "outputs": [],
            "stateMutability": "nonpayable",
            "type": "function"
        },
        {
            "inputs": [
                {
                    "internalType": "uint256",
                    "name": "_protocolFeeRatio",
                    "type": "uint256"
                }
            ],
            "name": "setProtocolFeeRatio",
            "outputs": [],
            "stateMutability": "nonpayable",
            "type": "function"
        },
        {
            "inputs": [
                {
                    "internalType": "uint256",
                    "name": "_unboundingPeriod",
                    "type": "uint256"
                }
            ],
            "name": "setUnboundingTime",
            "outputs": [],
            "stateMutability": "nonpayable",
            "type": "function"
        },
        {
            "inputs": [],
            "name": "symbol",
            "outputs": [
                {
                    "internalType": "string",
                    "name": "",
                    "type": "string"
                }
            ],
            "stateMutability": "pure",
            "type": "function"
        },
        {
            "inputs": [],
            "name": "totalAssets",
            "outputs": [
                {
                    "internalType": "uint256",
                    "name": "assets",
                    "type": "uint256"
                }
            ],
            "stateMutability": "view",
            "type": "function"
        },
        {
            "inputs": [],
            "name": "totalSupply",
            "outputs": [
                {
                    "internalType": "uint256",
                    "name": "result",
                    "type": "uint256"
                }
            ],
            "stateMutability": "view",
            "type": "function"
        },
        {
            "inputs": [
                {
                    "internalType": "address",
                    "name": "to",
                    "type": "address"
                },
                {
                    "internalType": "uint256",
                    "name": "amount",
                    "type": "uint256"
                }
            ],
            "name": "transfer",
            "outputs": [
                {
                    "internalType": "bool",
                    "name": "",
                    "type": "bool"
                }
            ],
            "stateMutability": "nonpayable",
            "type": "function"
        },
        {
            "inputs": [
                {
                    "internalType": "address",
                    "name": "from",
                    "type": "address"
                },
                {
                    "internalType": "address",
                    "name": "to",
                    "type": "address"
                },
                {
                    "internalType": "uint256",
                    "name": "amount",
                    "type": "uint256"
                }
            ],
            "name": "transferFrom",
            "outputs": [
                {
                    "internalType": "bool",
                    "name": "",
                    "type": "bool"
                }
            ],
            "stateMutability": "nonpayable",
            "type": "function"
        },
        {
            "inputs": [
                {
                    "internalType": "address",
                    "name": "newOwner",
                    "type": "address"
                }
            ],
            "name": "transferOwnership",
            "outputs": [],
            "stateMutability": "payable",
            "type": "function"
        },
        {
            "inputs": [
                {
                    "internalType": "address",
                    "name": "LP",
                    "type": "address"
                }
            ],
            "name": "unboundingAmount",
            "outputs": [
                {
                    "internalType": "uint256",
                    "name": "unboundingShares",
                    "type": "uint256"
                }
            ],
            "stateMutability": "view",
            "type": "function"
        },
        {
            "inputs": [
                {
                    "internalType": "address",
                    "name": "LP",
                    "type": "address"
                }
            ],
            "name": "unboundingClock",
            "outputs": [
                {
                    "internalType": "uint256",
                    "name": "unboundingStart",
                    "type": "uint256"
                }
            ],
            "stateMutability": "view",
            "type": "function"
        },
        {
            "inputs": [],
            "name": "unboundingPeriod",
            "outputs": [
                {
                    "internalType": "uint256",
                    "name": "",
                    "type": "uint256"
                }
            ],
            "stateMutability": "view",
            "type": "function"
        },
        {
            "inputs": [
                {
                    "internalType": "uint256",
                    "name": "",
                    "type": "uint256"
                },
                {
                    "internalType": "address",
                    "name": "",
                    "type": "address"
                },
                {
                    "internalType": "address",
                    "name": "",
                    "type": "address"
                }
            ],
            "name": "withdraw",
            "outputs": [
                {
                    "internalType": "uint256",
                    "name": "",
                    "type": "uint256"
                }
            ],
            "stateMutability": "pure",
            "type": "function"
        }
    ],
    "bytecode": {
        "object": "0x60c06040523480156200001157600080fd5b506040516200228138038062002281833981016040819052620000349162000137565b6001600160a01b03808216608052821660a0526200005162000059565b50506200016f565b600054610100900460ff1615620000c65760405162461bcd60e51b815260206004820152602760248201527f496e697469616c697a61626c653a20636f6e747261637420697320696e697469604482015266616c697a696e6760c81b606482015260840160405180910390fd5b60005460ff9081161462000118576000805460ff191660ff9081179091556040519081527f7f26b83ff96e1f2b6a682f133852f6798a09c465da95921460cefb38474024989060200160405180910390a15b565b80516001600160a01b03811681146200013257600080fd5b919050565b600080604083850312156200014b57600080fd5b62000156836200011a565b915062000166602084016200011a565b90509250929050565b60805160a0516120bb620001c66000396000818161054901528181610a7001528181611236015281816113c5015281816118f30152611aa101526000818161045201528181611258015261196f01526120bb6000f3fe6080604052600436106103505760003560e01c806380ad2cf3116101c6578063c4076876116100f7578063d905777e11610095578063f04e283e1161006f578063f04e283e146109d6578063f2fde38b146109e9578063fe5be481146109fc578063fee81cf414610a3657600080fd5b8063d905777e14610960578063dd62ed3e14610980578063ef8b30f7146109b657600080fd5b8063ccc23e52116100d1578063ccc23e52146108ec578063ce96cb7714610902578063d505accf14610922578063d7533f021461094257600080fd5b8063c4076876146108ac578063c63d75b61461058d578063c6e6f592146108cc57600080fd5b8063a9059cbb11610164578063b3aefb751161013e578063b3aefb7514610836578063b3d7f6b91461086c578063b460af941461088c578063ba0876521461088c57600080fd5b8063a9059cbb146107d6578063aad3ec96146107f6578063acec338a1461081657600080fd5b806395a2251f116101a057806395a2251f1461076157806395d89b4114610781578063a457c2d714610796578063a6735910146107b657600080fd5b806380ad2cf3146107085780638da5cb5b1461072857806394bf804d1461074157600080fd5b806338d52e0f116102a05780635e78fc4a1161023e578063715018a611610218578063715018a6146106975780637a1ac61e1461069f5780637a27d9f6146106bf5780637ecebe00146106d557600080fd5b80635e78fc4a146106175780636e553f651461064457806370a082311461066457600080fd5b806341ede57e1161027a57806341ede57e146105af57806348af8f0a146105cf5780634cdad506146105ef57806354d1f13d1461060f57600080fd5b806338d52e0f1461053a578063395093511461056d578063402d267d1461058d57600080fd5b80630af968001161030d57806325692962116102e757806325692962146104c9578063313ce567146104d15780633644e515146104f857806337c1b9881461050d57600080fd5b80630af968001461044057806318160ddd1461048c57806323b872dd146104a957600080fd5b806301e1d1141461035557806303ba4c441461037d57806306fdde03146103ae57806307a2d13a146103d0578063095ea7b3146103f05780630a28a47714610420575b600080fd5b34801561036157600080fd5b5061036a610a69565b6040519081526020015b60405180910390f35b34801561038957600080fd5b506103ac3360009081526002602090815260408083208390556003909152812055565b005b3480156103ba57600080fd5b506103c3610a9c565b6040516103749190611c96565b3480156103dc57600080fd5b5061036a6103eb366004611cc9565b610afa565b3480156103fc57600080fd5b5061041061040b366004611cf7565b610b40565b6040519015158152602001610374565b34801561042c57600080fd5b5061036a61043b366004611cc9565b610b82565b34801561044c57600080fd5b506104747f000000000000000000000000000000000000000000000000000000000000000081565b6040516001600160a01b039091168152602001610374565b34801561049857600080fd5b506805345cdf77eb68f44c5461036a565b3480156104b557600080fd5b506104106104c4366004611d23565b610bbb565b6103ac610c72565b3480156104dd57600080fd5b506104e6610cc2565b60405160ff9091168152602001610374565b34801561050457600080fd5b5061036a610cd0565b34801561051957600080fd5b5061036a610528366004611d64565b60036020526000908152604090205481565b34801561054657600080fd5b507f0000000000000000000000000000000000000000000000000000000000000000610474565b34801561057957600080fd5b50610410610588366004611cf7565b610d46565b34801561059957600080fd5b5061036a6105a8366004611d64565b5060001990565b3480156105bb57600080fd5b506103ac6105ca366004611cc9565b610da6565b3480156105db57600080fd5b5061036a6105ea366004611cc9565b610dea565b3480156105fb57600080fd5b5061036a61060a366004611cc9565b610e0b565b6103ac610e16565b34801561062357600080fd5b5061036a610632366004611d64565b60026020526000908152604090205481565b34801561065057600080fd5b5061036a61065f366004611d81565b610e52565b34801561067057600080fd5b5061036a61067f366004611d64565b6387a211a2600c908152600091909152602090205490565b6103ac610e7f565b3480156106ab57600080fd5b506103ac6106ba366004611db1565b610e91565b3480156106cb57600080fd5b5061036a60055481565b3480156106e157600080fd5b5061036a6106f0366004611d64565b6338377508600c908152600091909152602090205490565b34801561071457600080fd5b506103ac610723366004611cf7565b610fc1565b34801561073457600080fd5b50638b78c6d81954610474565b34801561074d57600080fd5b5061036a61075c366004611d81565b611022565b34801561076d57600080fd5b5061036a61077c366004611d64565b61103b565b34801561078d57600080fd5b506103c36110b8565b3480156107a257600080fd5b506104106107b1366004611cf7565b6110e1565b3480156107c257600080fd5b506103ac6107d1366004611cc9565b611142565b3480156107e257600080fd5b506104106107f1366004611cf7565b61117f565b34801561080257600080fd5b506103ac610811366004611cf7565b6111f3565b34801561082257600080fd5b506103ac610831366004611de6565b6112b8565b34801561084257600080fd5b5061036a610851366004611d64565b6001600160a01b031660009081526001602052604090205490565b34801561087857600080fd5b5061036a610887366004611cc9565b611339565b34801561089857600080fd5b5061036a6108a7366004611e08565b611367565b3480156108b857600080fd5b506103ac6108c7366004611cf7565b611382565b3480156108d857600080fd5b5061036a6108e7366004611cc9565b611428565b3480156108f857600080fd5b5061036a60045481565b34801561090e57600080fd5b5061036a61091d366004611d64565b611456565b34801561092e57600080fd5b506103ac61093d366004611e4a565b611474565b34801561094e57600080fd5b506040516202a3008152602001610374565b34801561096c57600080fd5b5061036a61097b366004611d64565b611590565b34801561098c57600080fd5b5061036a61099b366004611ec1565b602052637f5e9f20600c908152600091909152603490205490565b3480156109c257600080fd5b5061036a6109d1366004611cc9565b6115aa565b6103ac6109e4366004611d64565b6115b5565b6103ac6109f7366004611d64565b6115f2565b348015610a0857600080fd5b506103ac610a17366004611cc9565b3360009081526002602090815260408083204290556003909152902055565b348015610a4257600080fd5b5061036a610a51366004611d64565b63389a75e1600c908152600091909152602090205490565b6000610a957f000000000000000000000000000000000000000000000000000000000000000030611628565b905090565b565b6060604051602001610ad8906020808252601690820152751391951411549408125b9cdd5c985b98d948141bdbdb60521b604082015260600190565b604051602081830303815290604052806020019051810190610a959190611f05565b6000610b08565b9392505050565b6000610b0183610b16610a69565b610b21906001611fc8565b610b3b610b356805345cdf77eb68f44c5490565b60010190565b611654565b600082602052637f5e9f20600c5233600052816034600c205581600052602c5160601c3360008051602061206683398151915260206000a35060015b92915050565b6000610b8e565b611703565b6000610b0183610ba56805345cdf77eb68f44c5490565b610bb0906001611fc8565b610b89610b35610a69565b6000610bc884848461173b565b8360601b33602052637f5e9f208117600c526034600c2080546000198114610c065780851115610c00576313be252b6000526004601cfd5b84810382555b50506387a211a28117600c526020600c20805480851115610c2f5763f4d678b86000526004601cfd5b84810382555050836000526020600c208381540181555082602052600c5160601c8160601c600080516020612046833981519152602080a3505060019392505050565b60006202a30067ffffffffffffffff164201905063389a75e1600c5233600052806020600c2055337fdbf36a107da19e49527a7176a1babf963b4b0ff8cde35ee35d6cd8f1f9ac7e1d600080a250565b6000610a9560006012612019565b6040516000610cdd610a9c565b80516020918201207f8b73c3c69bb8fe3d512ecc4cf759cc79239f7b179b0ffacaa9a75d522b39400f845290830152507fc89efdaa54c0f20c7adf612882df0950f5a951637e0307cdcb4c672f298b8bc6604082015246606082015230608082015260a0902090565b600082602052637f5e9f20600c52336000526034600c20805483810181811015610d785763f90670666000526004601cfd5b80835580600052505050602c5160601c3360008051602061206683398151915260206000a350600192915050565b610dae6117a9565b60058190556040518181527f5032171a2d8090883a3f251776bf84fcb9faca82ef93789cd318329101fd9789906020015b60405180910390a150565b6000610df46117a9565b610b7c82610e05638b78c6d8195490565b306117c4565b6000610b7c82610afa565b63389a75e1600c523360005260006020600c2055337ffa7b8eab7da67f412cc9575ed43464468f9bfbae89d1675917346ca6d8fe3c92600080a2565b6000610e5e83836117fb565b9050610e756005548261181490919063ffffffff16565b610b019082612032565b610e876117a9565b610a9a6000611829565b600054610100900460ff1615808015610eb15750600054600160ff909116105b80610ecb5750303b158015610ecb575060005460ff166001145b610f325760405162461bcd60e51b815260206004820152602e60248201527f496e697469616c697a61626c653a20636f6e747261637420697320616c72656160448201526d191e481a5b9a5d1a585b1a5e995960921b606482015260840160405180910390fd5b6000805460ff191660011790558015610f55576000805461ff0019166101001790555b610f5e84611867565b610f6b30856000196118a3565b600583905560048290558015610fbb576000805461ff0019169055604051600181527f7f26b83ff96e1f2b6a682f133852f6798a09c465da95921460cefb38474024989060200160405180910390a15b50505050565b610fc96117a9565b6001600160a01b03821660008181526001602052604090819020839055517f1c9182333abe71fddddd188f90cabb1c34182de0b0ac74c87944a196460a2d6c906110169084815260200190565b60405180910390a25050565b600061102d83611339565b9050610b7c338383866118ee565b3360009081526002602052604081205480158061106257506004546110608242612032565b105b156110805760405163060777a160e11b815260040160405180910390fd5b336000908152600360208181526040808420805460028452918520859055929091529190556110b08185336117c4565b949350505050565b6060604051602001610ad89060208082526003908201526204e49560ec1b604082015260600190565b600082602052637f5e9f20600c52336000526034600c2080548381101561111057638301ab386000526004601cfd5b8381039050808255806000525050602c5160601c3360008051602061206683398151915260206000a350600192915050565b61114a6117a9565b60048190556040518181527f579c78a1408ff6276debe05754e99d39358678f18e32c53f56ea1a4b93a682ab90602001610ddf565b600061118c33848461173b565b6387a211a2600c52336000526020600c208054808411156111b55763f4d678b86000526004601cfd5b83810382555050826000526020600c208281540181555081602052600c5160601c33600080516020612046833981519152602080a350600192915050565b6111fb611964565b6001600160a01b03821660009081526001602052604081208054839290611223908490612032565b9091555061127d90506001600160a01b037f0000000000000000000000000000000000000000000000000000000000000000167f0000000000000000000000000000000000000000000000000000000000000000836119ad565b816001600160a01b03167f47cee97cb7acd717b3c0aa1435d004cd5b3c8c57d70dbceb4e4458bbd60e39d48260405161101691815260200190565b6112c06117a9565b6000805482158015620100000262ff0000199092169190911790915561130c576040517fed1cd0670ee0c0017f550451a038818c696d0b6a9d6ce5b369e44275573cf9b090600090a150565b6040517ff0c683001104e62ea6db2065e069e1df46185d033db8cf4494df0a516cf537cb90600090a15b50565b600080610b0183611348610a69565b611353906001611fc8565b610b89610b356805345cdf77eb68f44c5490565b600060405163106fc1ff60e01b815260040160405180910390fd5b61138a611964565b6001600160a01b038216600090815260016020526040812080548392906113b2908490611fc8565b909155506113ed90506001600160a01b037f0000000000000000000000000000000000000000000000000000000000000000163330846119f3565b816001600160a01b03167fd4f43975feb89f48dd30cabbb32011045be187d1e11c8ea9faa43efc352825198260405161101691815260200190565b600080610b01836114406805345cdf77eb68f44c5490565b61144b906001611fc8565b610b3b610b35610a69565b6387a211a2600c9081526000828152602090912054610b7c90610afa565b600061147e610cd0565b90506040518542111561149957631a15a3cc6000526004601cfd5b8860601b60601c98508760601b60601c97506338377508600c52886000526020600c2080546001810182557f6e71edae12b1b97f4d1f60370fef10105fa2faae0126114a169c64845d6126c983528a602084015289604084015288606084015280608084015250508560a08201526119016000528160205260c081206040526042601e206000528460ff1660205283604052826060526020806080600060015afa50883d51146115515763ddafbaef6000526004601cfd5b6303faf4f960a51b88176040526034602c208790558789600080516020612066833981519152602060608501a360405250506000606052505050505050565b6387a211a2600c9081526000828152602090912054610b7c565b6000610b7c82611428565b6115bd6117a9565b63389a75e1600c52806000526020600c2080544211156115e557636f5e88186000526004601cfd5b6000905561133681611829565b6115fa6117a9565b6116123061160b638b78c6d8195490565b60006118a3565b61161f30826000196118a3565b61133681611a47565b6000816014526370a0823160601b60005260208060246010865afa601f3d111660205102905092915050565b60008383026000198486098181108201900380611689578361167e5763ae47f7026000526004601cfd5b508290049050610b01565b80841161169e5763ae47f7026000526004601cfd5b838587096000858103861695869004956003870260029081188089028203028089028203028089028203028089028203028089028203028089029091030291819003819004600101858411909403939093029190930391909104170290509392505050565b6000611710848484611654565b90508183850915610b0157600181016117315763ae47f7026000526004601cfd5b6001019392505050565b6001600160a01b038316156117a4576001600160a01b03831660009081526003602090815260408220546387a211a2600c90815286845291909120546117819190612032565b905080821115610fbb5760405163801425d360e01b815260040160405180910390fd5b505050565b638b78c6d819543314610a9a576382b429006000526004601cfd5b60006117cf82611590565b8411156117e3576117e3634656425a6118e4565b6117ec84610e0b565b9050610b013384848488611a6e565b6000611806836115aa565b9050610b7c338385846118ee565b6000610b018383670de0b6b3a7640000611654565b638b78c6d81980546001600160a01b039092169182907f8be0079c531659141344cd1fd0a4f28419497f9722a3daafe3b4186f6b6457e0600080a355565b6001600160a01b0316638b78c6d8198190558060007f8be0079c531659141344cd1fd0a4f28419497f9722a3daafe3b4186f6b6457e08180a350565b8260601b82602052637f5e9f208117600c52816034600c205581600052602c5160601c8160601c60008051602061206683398151915260206000a350505050565b806000526004601cfd5b61191a7f00000000000000000000000000000000000000000000000000000000000000008530856119f3565b6119248382611b0c565b816000528060205260001960601c8381168582167fdcbc1c05240f31ff3ad067ef1ee35ce4997762752e3a095284754544f4c709d760406000a350610fbb565b336001600160a01b037f00000000000000000000000000000000000000000000000000000000000000001614610a9a576040516308abb64b60e21b815260040160405180910390fd5b816014528060345263a9059cbb60601b60005260206000604460106000875af13d1560016000511417166119e9576390b8ec186000526004601cfd5b6000603452505050565b60405181606052826040528360601b602c526323b872dd60601b600c52602060006064601c6000895af13d156001600051141716611a3957637939f4246000526004601cfd5b600060605260405250505050565b611a4f6117a9565b8060601b611a6557637448fbae6000526004601cfd5b61133681611829565b826001600160a01b0316856001600160a01b031614611a9257611a92838683611b45565b611a9c8382611b88565b611ac77f000000000000000000000000000000000000000000000000000000000000000085846119ad565b816000528060205260001960601c8381168582168783167ffbde797d201c681b91056529119e0b02407c7bb96a4a2c75c01fc9667232c8db60406000a4505050505050565b6000611b236005548361181490919063ffffffff16565b9050611b2f8183612032565b9150611b3b8383611bf9565b6117a43082611bf9565b81602052637f5e9f20600c52826000526034600c2080546000198114611b815780831115611b7b576313be252b6000526004601cfd5b82810382555b5050505050565b611b948260008361173b565b6387a211a2600c52816000526020600c20805480831115611bbd5763f4d678b86000526004601cfd5b82900390556805345cdf77eb68f44c8054829003905560008181526001600160a01b038316600080516020612046833981519152602083a35050565b611c056000838361173b565b6805345cdf77eb68f44c5481810181811015611c295763e5cfe9576000526004601cfd5b806805345cdf77eb68f44c5550506387a211a2600c52816000526020600c208181540181555080602052600c5160601c6000600080516020612046833981519152602080a35050565b60005b83811015611c8d578181015183820152602001611c75565b50506000910152565b6020815260008251806020840152611cb5816040850160208701611c72565b601f01601f19169190910160400192915050565b600060208284031215611cdb57600080fd5b5035919050565b6001600160a01b038116811461133657600080fd5b60008060408385031215611d0a57600080fd5b8235611d1581611ce2565b946020939093013593505050565b600080600060608486031215611d3857600080fd5b8335611d4381611ce2565b92506020840135611d5381611ce2565b929592945050506040919091013590565b600060208284031215611d7657600080fd5b8135610b0181611ce2565b60008060408385031215611d9457600080fd5b823591506020830135611da681611ce2565b809150509250929050565b600080600060608486031215611dc657600080fd5b8335611dd181611ce2565b95602085013595506040909401359392505050565b600060208284031215611df857600080fd5b81358015158114610b0157600080fd5b600080600060608486031215611e1d57600080fd5b833592506020840135611e2f81611ce2565b91506040840135611e3f81611ce2565b809150509250925092565b600080600080600080600060e0888a031215611e6557600080fd5b8735611e7081611ce2565b96506020880135611e8081611ce2565b95506040880135945060608801359350608088013560ff81168114611ea457600080fd5b9699959850939692959460a0840135945060c09093013592915050565b60008060408385031215611ed457600080fd5b8235611edf81611ce2565b91506020830135611da681611ce2565b634e487b7160e01b600052604160045260246000fd5b600060208284031215611f1757600080fd5b815167ffffffffffffffff80821115611f2f57600080fd5b818401915084601f830112611f4357600080fd5b815181811115611f5557611f55611eef565b604051601f8201601f19908116603f01168101908382118183101715611f7d57611f7d611eef565b81604052828152876020848701011115611f9657600080fd5b611fa7836020830160208801611c72565b979650505050505050565b634e487b7160e01b600052601160045260246000fd5b80820180821115610b7c57610b7c611fb2565b80851115612011578160001904821115611ff757611ff7611fb2565b8085161561200457918102915b93841c9390800290611fdb565b509250929050565b60ff8181168382160190811115610b7c57610b7c611fb2565b81810381811115610b7c57610b7c611fb256feddf252ad1be2c89b69c2b068fc378daa952ba7f163c4a11628f55a4df523b3ef8c5be1e5ebec7d5bd14f71427d1e84f3dd0314c0f7b2291e5b200ac8c7c3b925a2646970667358221220ab52a1eb2a076b6b62a8a0635a5fea8d19f9726d28e97a2866bcbcb4b6ad455764736f6c63430008130033",
        "linkReferences": {}
    },
    "methodIdentifiers": {
        "DOMAIN_SEPARATOR()": "3644e515",
        "allowance(address,address)": "dd62ed3e",
        "approve(address,uint256)": "095ea7b3",
        "asset()": "38d52e0f",
        "balanceOf(address)": "70a08231",
        "cancelOwnershipHandover()": "54d1f13d",
        "cancelRedemption()": "03ba4c44",
        "claim(address,uint256)": "aad3ec96",
        "clearingHouse()": "0af96800",
        "completeOwnershipHandover(address)": "f04e283e",
        "convertToAssets(uint256)": "07a2d13a",
        "convertToShares(uint256)": "c6e6f592",
        "decimals()": "313ce567",
        "decreaseAllowance(address,uint256)": "a457c2d7",
        "deposit(uint256,address)": "6e553f65",
        "getCap(address)": "b3aefb75",
        "increaseAllowance(address,uint256)": "39509351",
        "initialize(address,uint256,uint256)": "7a1ac61e",
        "initiateRedemption(uint256)": "fe5be481",
        "maxDeposit(address)": "402d267d",
        "maxMint(address)": "c63d75b6",
        "maxRedeem(address)": "d905777e",
        "maxWithdraw(address)": "ce96cb77",
        "mint(uint256,address)": "94bf804d",
        "name()": "06fdde03",
        "nonces(address)": "7ecebe00",
        "owner()": "8da5cb5b",
        "ownershipHandoverExpiresAt(address)": "fee81cf4",
        "ownershipHandoverValidFor()": "d7533f02",
        "pay(address,uint256)": "c4076876",
        "permit(address,address,uint256,uint256,uint8,bytes32,bytes32)": "d505accf",
        "previewDeposit(uint256)": "ef8b30f7",
        "previewMint(uint256)": "b3d7f6b9",
        "previewRedeem(uint256)": "4cdad506",
        "previewWithdraw(uint256)": "0a28a477",
        "protocolFeeRatio()": "7a27d9f6",
        "protocolRedeem(uint256)": "48af8f0a",
        "redeem(address)": "95a2251f",
        "redeem(uint256,address,address)": "ba087652",
        "renounceOwnership()": "715018a6",
        "requestOwnershipHandover()": "25692962",
        "setActive(bool)": "acec338a",
        "setCap(address,uint256)": "80ad2cf3",
        "setProtocolFeeRatio(uint256)": "41ede57e",
        "setUnboundingTime(uint256)": "a6735910",
        "symbol()": "95d89b41",
        "totalAssets()": "01e1d114",
        "totalSupply()": "18160ddd",
        "transfer(address,uint256)": "a9059cbb",
        "transferFrom(address,address,uint256)": "23b872dd",
        "transferOwnership(address)": "f2fde38b",
        "unboundingAmount(address)": "37c1b988",
        "unboundingClock(address)": "5e78fc4a",
        "unboundingPeriod()": "ccc23e52",
        "withdraw(uint256,address,address)": "b460af94"
    },
    "id": 41
}